{
  "_format": "hh-sol-artifact-1",
  "contractName": "TweetIPFactory",
  "sourceName": "contracts/StoryNFTFactory.sol",
  "abi": [
    {
      "anonymous": false,
      "inputs": [
        {
          "indexed": true,
          "internalType": "address",
          "name": "creator",
          "type": "address"
        },
        {
          "indexed": true,
          "internalType": "address",
          "name": "collectionAddress",
          "type": "address"
        },
        {
          "indexed": false,
          "internalType": "string",
          "name": "handle",
          "type": "string"
        }
      ],
      "name": "CollectionCreated",
      "type": "event"
    },
    {
      "inputs": [
        {
          "internalType": "uint256",
          "name": "",
          "type": "uint256"
        }
      ],
      "name": "allCollections",
      "outputs": [
        {
          "internalType": "address",
          "name": "",
          "type": "address"
        }
      ],
      "stateMutability": "view",
      "type": "function"
    },
    {
      "inputs": [
        {
          "internalType": "string",
          "name": "handle",
          "type": "string"
        },
        {
          "internalType": "uint256",
          "name": "mintPrice",
          "type": "uint256"
        },
        {
          "internalType": "uint256",
          "name": "maxSupply",
          "type": "uint256"
        },
        {
          "internalType": "address",
          "name": "royaltyReceiver",
          "type": "address"
        },
        {
          "internalType": "uint96",
          "name": "royaltyBP",
          "type": "uint96"
        },
        {
          "internalType": "address",
          "name": "ipAssetRegistry",
          "type": "address"
        },
        {
          "internalType": "address",
          "name": "licenseTemplate",
          "type": "address"
        },
        {
          "internalType": "address",
          "name": "royaltyModule",
          "type": "address"
        }
      ],
      "name": "createTweetCollection",
      "outputs": [],
      "stateMutability": "nonpayable",
      "type": "function"
    },
    {
      "inputs": [
        {
          "internalType": "address",
          "name": "collection",
          "type": "address"
        },
        {
          "internalType": "address",
          "name": "to",
          "type": "address"
        },
        {
          "internalType": "string",
          "name": "uri",
          "type": "string"
        },
        {
          "internalType": "string",
          "name": "name",
          "type": "string"
        },
        {
          "internalType": "string",
          "name": "handle",
          "type": "string"
        },
        {
          "internalType": "string",
          "name": "timestamp",
          "type": "string"
        },
        {
          "internalType": "bool",
          "name": "verified",
          "type": "bool"
        },
        {
          "internalType": "uint256",
          "name": "comments",
          "type": "uint256"
        },
        {
          "internalType": "uint256",
          "name": "retweets",
          "type": "uint256"
        },
        {
          "internalType": "uint256",
          "name": "likes",
          "type": "uint256"
        },
        {
          "internalType": "uint256",
          "name": "analytics",
          "type": "uint256"
        },
        {
          "internalType": "string[]",
          "name": "tags",
          "type": "string[]"
        },
        {
          "internalType": "string[]",
          "name": "mentions",
          "type": "string[]"
        },
        {
          "internalType": "string",
          "name": "profileImage",
          "type": "string"
        },
        {
          "internalType": "string",
          "name": "tweetLink",
          "type": "string"
        },
        {
          "internalType": "string",
          "name": "tweetId",
          "type": "string"
        },
        {
          "internalType": "string",
          "name": "ipfsScreenshot",
          "type": "string"
        },
        {
          "internalType": "bytes",
          "name": "licenseTerms",
          "type": "bytes"
        }
      ],
      "name": "registerTweetAsset",
      "outputs": [],
      "stateMutability": "nonpayable",
      "type": "function"
    },
    {
      "inputs": [],
      "name": "totalCollections",
      "outputs": [
        {
          "internalType": "uint256",
          "name": "",
          "type": "uint256"
        }
      ],
      "stateMutability": "view",
      "type": "function"
    }
  ],
  "bytecode": "0x6080806040523460155761421f908161001b8239f35b600080fdfe610280604052600436101561001357600080fd5b600061026052610260513560e01c8063167ef495146107365780633e1574d91461035657806361d9db2d146103345763a55aa79c1461005157600080fd5b3461030457610100366003190112610304576004356001600160401b038111610304576100829036906004016107aa565b6064356001600160a01b03811690819003610304576084356bffffffffffffffffffffffff81168091036103045760a4356001600160a01b03811692908390036103045760c4356001600160a01b03811692908390036103045760e4356001600160a01b0381169190829003610304576040518688602083013761012260036020838a81016205f49560ec1b838201520301601c1981018452018261080c565b604051948789602088013761015260026020888b810161049560f41b838201520301601d1981018952018761080c565b604051966138be93848901938985106001600160401b038611176102cf5789986101926101a0926101009861092c8d3961012088526101208801906108ea565b9086820360208801526108ea565b9660243560408601526044356060860152608085015260a084015260c083015260e08201520152039061026051f0801561030b576001600160a01b031691823b156103045760405163cf456ae760e01b815230600482015260016024820152610260518160448183885af1801561030b57610319575b50823b156103045760405163f2fde38b60e01b8152336004820152610260518160248183885af1801561030b576102e9575b506102605154680100000000000000008110156102cf577fa9a63cb75fdf6f638d49c249df7d5b94dd8bb8ac664ca12da7339862b9dd87ae916102968260016102c59401610260515561077a565b81549060031b9087821b9160018060a01b03901b19161790556040519182916020835233956020840191610843565b0390a36102605180f35b634e487b7160e01b61026051526041600452602461026051fd5b610260516102f69161080c565b610260516103045738610248565b6102605180fd5b6040513d61026051823e3d90fd5b610260516103269161080c565b610260516103045738610216565b3461030457610260513660031901126103045760206102605154604051908152f35b3461030457610240366003190112610304576004356101e08190526001600160a01b0381169003610304576024356001600160a01b0381168103610304576044356001600160401b038111610304576103b39036906004016107aa565b61014052610160526064356001600160401b038111610304576103da9036906004016107aa565b610180526101a0526084356001600160401b038111610304576104019036906004016107aa565b6102405260a4356001600160401b038111610304576104249036906004016107aa565b919060c435801515810361030457610164356001600160401b038111610304576104529036906004016107dc565b959094610184356001600160401b038111610304576104759036906004016107dc565b6101a4356001600160401b038111610304576104959036906004016107aa565b9490956001600160401b036101c43511610304576104b9366101c4356004016107aa565b60805260a0526101e4356001600160401b038111610304576104df9036906004016107aa565b60e05261010052610204356001600160401b038111610304576105069036906004016107aa565b6102005261022052610224356001600160401b0381116103045761052e9036906004016107aa565b6101c052610120526101e0516001600160a01b03163b15610304576106cc9a6106ae9a6105fa6106759a61065e986105e46106919e6106479860405160c052632c02fb8760e01b60c0515260018060a01b0316600460c0510152610220602460c05101526105c96105ac61022460c051016101405161016051610843565b60031960c051820301604460c0510152610180516101a051610843565b9060031960c051830301606460c05101526102405190610843565b9160031960c051840301608460c0510152610843565b92151560a460c051015260e43560c460c05101526101043560e460c05101526101243561010460c05101526101443561012460c051015260031960c05184030161014460c0510152610864565b9160031960c05184030161016460c0510152610864565b9160031960c05184030161018460c0510152610843565b60031960c0518203016101a460c051015260805160a051610843565b60031960c0518203016101c460c051015260e05161010051610843565b60031960c0518203016101e460c05101526102005161022051610843565b60031960c05182030161020460c0510152610260519060c051906106fa60c051916101c05161012051610843565b0360c0516102605160018060a01b036101e051165af1801561030b57610722575b6102605180f35b6107316102605160c05161080c565b61071b565b346103045760203660031901126103045760043561026051548110156103045761076160209161077a565b905460405160039290921b1c6001600160a01b03168152f35b600054811015610794576000805260206000200190600090565b634e487b7160e01b600052603260045260246000fd5b9181601f840112156107d7578235916001600160401b0383116107d757602083818601950101116107d757565b600080fd5b9181601f840112156107d7578235916001600160401b0383116107d7576020808501948460051b0101116107d757565b90601f801991011681019081106001600160401b0382111761082d57604052565b634e487b7160e01b600052604160045260246000fd5b908060209392818452848401376000828201840152601f01601f1916010190565b90602083828152019060208160051b85010193836000915b83831061088c5750505050505090565b909192939495601f198282030186528635601e19843603018112156107d757830190602082359201916001600160401b0381116107d75780360383136107d7576108dc6020928392600195610843565b98019601949301919061087c565b919082519283825260005b848110610916575050826000602080949584010152601f8019910116010190565b806020809284010151828286010152016108f556fe608060405234610541576138be8038038061001981610546565b928339810190610120818303126105415780516001600160401b038111610541578261004691830161056b565b602082015190926001600160401b0382116105415761006691830161056b565b6040820151606083015161007c608085016105d6565b60a0850151926001600160601b03841692838503610541576100a060c088016105d6565b956100ba6101006100b360e08b016105d6565b99016105d6565b895190996001600160401b0382116102a45760005490600182811c92168015610537575b60208310146104375781601f8493116104c8575b50602090601f831160011461046257600092610457575b50508160011b916000199060031b1c1916176000555b8051906001600160401b0382116102a45760015490600182811c9216801561044d575b60208310146104375781601f8493116103c7575b50602090601f831160011461035f57600092610354575b50508160011b916000199060031b1c1916176001555b600b80546001600160a81b0319811633600881811b610100600160a81b031692909217909355604051949291901c6001600160a01b03167f8be0079c531659141344cd1fd0a4f28419497f9722a3daafe3b4186f6b6457e0600080a3600f5560105561271083116102ff57506001600160a01b03169081156102ba5760408051908101906001600160401b038211818310176102a45760409182528381526020908101929092526001600160a01b0392831660a09490941b6001600160a01b031990811694909417600c556014805485169584169590951790945560158054841695831695909517909455601680549092169416939093179092553360009081526011909152819020805460ff19166001179055516132d390816105eb8239f35b634e487b7160e01b600052604160045260246000fd5b60405162461bcd60e51b815260206004820152601960248201527f455243323938313a20696e76616c6964207265636569766572000000000000006044820152606490fd5b62461bcd60e51b815260206004820152602a60248201527f455243323938313a20726f79616c7479206665652077696c6c206578636565646044820152692073616c65507269636560b01b6064820152608490fd5b01519050388061016d565b600160009081528281209350601f198516905b8181106103af5750908460019594939210610396575b505050811b01600155610183565b015160001960f88460031b161c19169055388080610388565b92936020600181928786015181550195019301610372565b60016000529091507fb10e2d527612073b26eecdfd717e6a320cf44b4afac2b0732d9fcbe2b7fa0cf6601f840160051c8101916020851061042d575b90601f859493920160051c01905b81811061041e5750610156565b60008155849350600101610411565b9091508190610403565b634e487b7160e01b600052602260045260246000fd5b91607f1691610142565b015190503880610109565b60008080528281209350601f198516905b8181106104b05750908460019594939210610497575b505050811b0160005561011f565b015160001960f88460031b161c19169055388080610489565b92936020600181928786015181550195019301610473565b600080529091507f290decd9548b62a8d60345a988386fc84ba6bc95484008f6362f93160ef3e563601f840160051c8101916020851061052d575b90601f859493920160051c01905b81811061051e57506100f2565b60008155849350600101610511565b9091508190610503565b91607f16916100de565b600080fd5b6040519190601f01601f191682016001600160401b038111838210176102a457604052565b81601f82011215610541578051906001600160401b0382116102a45761059a601f8301601f1916602001610546565b92828452602083830101116105415760005b8281106105c157505060206000918301015290565b806020809284010151828287010152016105ac565b51906001600160a01b03821682036105415756fe61032080604052600436101561001157005b60006102c0526102c0513560e01c90816301ffc9a71461266a5750806306fdde03146125d8578063081812fc146125ba578063095ea7b31461241c5780631381df88146122e057806318160ddd146122c05780632367a4d71461225f57806323b872dd1461223b5780632a55205a146121765780632c02fb8714610afb5780632f745c5914610a415780633ccfd60b146109ac5780633dcd103d146109815780633f4ba83a146108e657806342842e0e146108af5780634514a15e146108845780634f6ccce7146107f25780635717f9bd146107c75780635c975abb146107a25780636352211e146107725780636817c76c1461075257806370a0823114610727578063715018a6146106bd5780638456cb591461065c5780638da5cb5b1461062d57806395d89b4114610571578063a22cb46514610490578063b88d4fde1461040b578063c87b56dd146103d4578063cf456ae714610376578063d5abeb0114610356578063e985e9c5146102f7578063f2fde38b14610213578063f46eccc4146101d05763f4a0a528146101a357005b346101c95760203660031901126101c9576101bc613005565b600435600f556102c05180f35b6102c05180fd5b346101c95760203660031901126101c9576001600160a01b036101f1612751565b166102c051526011602052602060ff60406102c0512054166040519015158152f35b346101c95760203660031901126101c95761022c612751565b610234613005565b6001600160a01b0381169081156102a357600b8054610100600160a81b03198116600893841b610100600160a81b0316179091556102c051911c6001600160a01b0316907f8be0079c531659141344cd1fd0a4f28419497f9722a3daafe3b4186f6b6457e09080a36102c05180f35b60405162461bcd60e51b815260206004820152602660248201527f4f776e61626c653a206e6577206f776e657220697320746865207a65726f206160448201526564647265737360d01b6064820152608490fd5b346101c95760403660031901126101c957610310612751565b61031861276c565b9060018060a01b03166102c05152600560205260406102c051209060018060a01b0316600052602052602060ff604060002054166040519015158152f35b346101c9576102c0513660031901126101c9576020601054604051908152f35b346101c95760403660031901126101c9576103cd610392612751565b61039a612989565b906103a3613005565b60018060a01b03166102c05152601160205260406102c051209060ff801983541691151516179055565b6102c05180f35b346101c95760203660031901126101c9576104076103f36004356130d7565b60405191829160208352602083019061272c565b0390f35b346101c95760803660031901126101c957610424612751565b61042c61276c565b90606435906044356001600160401b0383116101c957366023840112156101c9576103cd9361046861048b9436906024816004013591016128cd565b9261047b6104768433612c0b565b612a06565b610486838383612c84565b613244565b6130b3565b346101c95760403660031901126101c9576104a9612751565b6104b1612989565b6001600160a01b039091169033821461052c57336102c05152600560205260406102c05120826000526020526104f78160406000209060ff801983541691151516179055565b60405190151581527f17307eab39ab6107e8899845ad3d59bd9653f200f220920489ca2b5937696c3160203392a36102c05180f35b60405162461bcd60e51b815260206004820152601960248201527f4552433732313a20617070726f766520746f2063616c6c6572000000000000006044820152606490fd5b346101c9576102c0513660031901126101c9576102c051506040516102c05160015461059c81612782565b808452906001811690811561060957506001146105c4575b610407836103f3818503826127ed565b6102c08051600190525160208120939250905b8082106105ef575090915081016020016103f36105b4565b9192600181602092548385880101520191019092916105d7565b60ff191660208086019190915291151560051b840190910191506103f390506105b4565b346101c9576102c0513660031901126101c957600b5460405160089190911c6001600160a01b03168152602090f35b346101c9576102c0513660031901126101c957610677613005565b61067f612fc1565b600160ff19600b541617600b557f62e78cea01bee320cd4e420270b5ea74000d11b0c9f74754ebdbfc544b05a2586020604051338152a16102c05180f35b346101c9576102c0513660031901126101c9576106d8613005565b600b8054610100600160a81b031981169091556102c0519060081c6001600160a01b03167f8be0079c531659141344cd1fd0a4f28419497f9722a3daafe3b4186f6b6457e08280a36102c05180f35b346101c95760203660031901126101c957602061074a610745612751565b612b94565b604051908152f35b346101c9576102c0513660031901126101c9576020600f54604051908152f35b346101c95760203660031901126101c9576020610790600435612b71565b6040516001600160a01b039091168152f35b346101c9576102c0513660031901126101c957602060ff600b54166040519015158152f35b346101c9576102c0513660031901126101c9576016546040516001600160a01b039091168152602090f35b346101c95760203660031901126101c95760043560085481101561082a5761081b602091612af4565b90549060031b1c604051908152f35b60405162461bcd60e51b815260206004820152602c60248201527f455243373231456e756d657261626c653a20676c6f62616c20696e646578206f60448201526b7574206f6620626f756e647360a01b6064820152608490fd5b346101c9576102c0513660031901126101c9576015546040516001600160a01b039091168152602090f35b346101c9576103cd61048b6108c336612922565b90604051926108d36020856127ed565b6102c051845261047b6104768433612c0b565b346101c9576102c0513660031901126101c957610901613005565b600b5460ff8116156109455760ff1916600b557f5db9ee0a495bf2e6ff9c91a7834c1ba4fdd244a5e8aa4e537bd38aeae4b073aa6020604051338152a16102c05180f35b60405162461bcd60e51b815260206004820152601460248201527314185d5cd8589b194e881b9bdd081c185d5cd95960621b6044820152606490fd5b346101c9576102c0513660031901126101c9576014546040516001600160a01b039091168152602090f35b346101c9576102c0513660031901126101c9576109c7613005565b478015610a05576102c051600b54909182918291829160081c6001600160a01b031682f1156109f7576102c05180f35b6040513d6102c051823e3d90fd5b60405162461bcd60e51b81526020600482015260146024820152734e6f2066756e647320746f20776974686472617760601b6044820152606490fd5b346101c95760403660031901126101c957610a5a612751565b60243590610a6781612b94565b821015610aa25760018060a01b03166102c05152600660205260406102c05120906102c05152602052602060406102c0512054604051908152f35b60405162461bcd60e51b815260206004820152602b60248201527f455243373231456e756d657261626c653a206f776e657220696e646578206f7560448201526a74206f6620626f756e647360a81b6064820152608490fd5b346101c9576102203660031901126101c957610b15612751565b6102a0526024356001600160401b0381116101c957610b3890369060040161295c565b610260526044356001600160401b0381116101c957610b5b90369060040161295c565b610220526102e0526064356001600160401b0381116101c957610b8290369060040161295c565b61030052906084356001600160401b0381116101c957610ba690369060040161295c565b9260a4359081151582036101c957610144356001600160401b0381116101c957610bd4903690600401612998565b939094610164356001600160401b0381116101c957610bf7903690600401612998565b60a05260c052610184356001600160401b0381116101c957610c1d90369060040161295c565b61012052610180526101a4356001600160401b0381116101c957610c4590369060040161295c565b6101a0526101c0526101c4356001600160401b0381116101c957610c6d90369060040161295c565b61028052610240526101e4356001600160401b0381116101c957610c9590369060040161295c565b6101e052610200526001600160401b0361020435116101c957610cbe366102043560040161295c565b6101605261014052336102c05152601160205260ff60406102c0512054161561213857610ce9612fc1565b600e54610100526010546101005110156120fe5760ff60405161028051610240518237602081610280518101601281520301902054166120b95760016101005101600e55604051610280516102405182376102805160129082019081528190036020908101909120805460ff1916600117905560e08190526040519190610d7090836127ed565b6102c05182526102a0516001600160a01b03161561207357610100516000908152600260205260409020546001600160a01b031661202d57600854610100516102c05152600960e051528060406102c0512055600160401b81101561173157610de2816001610dfd9301600855612af4565b61010051825460001960039390931b92831b1916911b179055565b6102a051610e0a90612b94565b60018060a01b036102a051166102c05152600660e0515260406102c05120816102c0515260e051526101005160406102c0512055610100516102c05152600760e0515260406102c051205560ff600b5416611ff45760018060a01b036102a051166102c05152600360e0515260406102c051208054600181018111611fda57600101905561010080516102c080519190915260e0516002905251604081206102a05181546001600160a01b0319166001600160a01b03919091169081179091559151610f1794610f0c9361048b939192917fddf252ad1be2c89b69c2b068fc378daa952ba7f163c4a11628f55a4df523b3ef8180a4610100516102a051613123565b6102605136916128cd565b610100516000908152600260205260409020546001600160a01b031615611f7d57610100516102c05152600a60e0515260406102c05120908051906001600160401b03821161173157610f6a8354612782565b601f8111611f45575b5060e051906001601f841114611ed157918091610fa9936102c051926119cd575b50508160011b916000199060031b1c19161790565b90555b60405160808190526001600160401b036101c082019081119111176117315761104f9561100061100f936101c060805101604052610ff136610220516102e0516128cd565b608051526103005136916128cd565b60e051608051015236916128cd565b6040608051015215156060608051015260c43560808051015260e43560a060805101526101043560c060805101526101243560e060805101523691612a69565b61010060805101526110663660a05160c051612a69565b610120608051015261107f3661012051610180516128cd565b6101406080510152611098366101a0516101c0516128cd565b61016060805101526110b13661028051610240516128cd565b61018060805101526110ca366101e051610200516128cd565b6101a06080510152610100516102c05152601360e0515260406102c05120608051519081516001600160401b038111611731576111078254612782565b601f8111611e99575b5060e0516001601f831114611e2a57819061114493946102c051926116775750508160011b916000199060031b1c19161790565b81555b60e05160805101519081516001600160401b0381116117315761116d6001830154612782565b601f8111611def575b5060e0516001601f831114611d7a5781906111aa93946102c051926116775750508160011b916000199060031b1c19161790565b60018201555b604060805101519081516001600160401b038111611731576111d56002830154612782565b601f8111611d3f575b5060e0516001601f831114611cca57819061121293946102c051926116775750508160011b916000199060031b1c19161790565b60028201555b611239606060805101511515600383019060ff801983541691151516179055565b6080805190810151600483015560a0810151600583015560c0810151600683015560e081015160078301556101000151805190600160401b8211611731576008830154826008850155808310611c36575b5060e0510190600883016102c0515260e0516102c05120916102c051905b828210611b1857846101206080510151805190600160401b8211611731576009830154826009850155808310611a84575b5060e0510190600983016102c0515260e0516102c05120916102c051905b82821061195b5784600a810161014060805101518051906001600160401b038211611731576113268354612782565b601f8111611923575b5060e051906001601f8411146118b357918091611364936102c051926118005750508160011b916000199060031b1c19161790565b90555b600b810161016060805101518051906001600160401b0382116117315761138e8354612782565b601f811161187b575b5060e051906001601f84111461180b579180916113cc936102c051926118005750508160011b916000199060031b1c19161790565b90555b600c8101906101806080510151918251926001600160401b038411611731576113f88254612782565b601f81116117c8575b5060e051906001601f86111461175657938061143892600d966102c0519261174b5750508160011b916000199060031b1c19161790565b90555b016101a060805101519081516001600160401b0381116117315761145f8254612782565b601f81116116ee575b5060e051926001601f8311146116825761149d929382916102c051926116775750508160011b916000199060031b1c19161790565b90555b60405161028051610240518237806102805181016102c05181520390206040519060018060a01b036102a0511690610100517ff03f86513d92a90546545f1a6a43886905a42fc6d1dc2a70135a004ccf3264bd6102c0516102c051a46014546001600160a01b0316803b156101c957632a99dcd560e21b82526102a0516001600160a01b031660048301523060248301526102c051908290604490829084905af180156109f757611664575b506015546001600160a01b0316803b156101c9576040519063168b602560e11b825230600483015260406024830152610160516044830152610160516101405160648401376102c05160646101605184010152816102c0519181606481601f19601f61016051011681010301916102c051905af180156109f757611649575b506016546001600160a01b0316803b156101c957604051632046c24760e21b81523060048201526102a0516001600160a01b031660248201526103e860448201526102c05190918290606490829084905af180156109f75761162e576102c05180f35b6102c05161163b916127ed565b6102c0516101c957806103cd565b6102c051611656916127ed565b6102c0516101c957806115cb565b6102c051611671916127ed565b8061154c565b015190508480610f94565b601f19821693836102c0515260e0516102c05120916102c0515b8681106116d557508360019596106116bc575b505050811b0190556114a0565b015160001960f88460031b161c191690558380806116af565b81830151845560e051600190940193928301920161169c565b61172190836102c0515260e0516102c05120601f840160051c81019160e0518510611727575b601f0160051c0190612add565b83611468565b9091508190611714565b634e487b7160e01b6102c05152604160045260246102c051fd5b015190508680610f94565b90601f19851691836102c0515260e0516102c05120926102c0515b8181106117af5750916001939187600d989410611796575b505050811b01905561143b565b015160001960f88460031b161c19169055858080611789565b82840151855560e0516001909501949384019301611771565b6117fa90836102c0515260e0516102c05120601f870160051c81019160e051881061172757601f0160051c0190612add565b84611401565b015190508580610f94565b90601f19831691846102c0515260e0516102c05120926102c0515b8181106118625750908460019594939210611849575b505050811b0190556113cf565b015160001960f88460031b161c1916905584808061183c565b82840151855560e0516001909501949384019301611826565b6118ad90846102c0515260e0516102c05120601f850160051c81019160e051861061172757601f0160051c0190612add565b84611397565b90601f19831691846102c0515260e0516102c05120926102c0515b81811061190a57509084600195949392106118f1575b505050811b019055611367565b015160001960f88460031b161c191690558480806118e4565b82840151855560e05160019095019493840193016118ce565b61195590846102c0515260e0516102c05120601f850160051c81019160e051861061172757601f0160051c0190612add565b8461132f565b80518051906001600160401b038211611731576119788654612782565b601f8111611a4c575b5060e051906001601f8411146119d85782600194929385946119bb936102c051926119cd5750508160011b916000199060031b1c19161790565b86555b60e051019401910190926112f7565b015190508a80610f94565b90601f19831691876102c0515260e0516102c05120926102c0515b818110611a33575092600195939285928796879510611a1a575b505050811b0186556119be565b015160001960f88460031b161c19169055898080611a0d565b82840151855560e05160019095019493840193016119f3565b611a7e90876102c0515260e0516102c05120601f850160051c81019160e051861061172757601f0160051c0190612add565b87611981565b600984016102c0515260e0516102c05120908382015b8183018110611aaa5750506112d9565b80611ab760019254612782565b80611ac4575b5001611a9a565b601f81118314611adc57506102c05181555b87611abd565b611aff90826102c0515283601f60e0516102c05120920160051c82019101612add565b6102c0805182905260e051905190812081835555611ad6565b80518051906001600160401b03821161173157611b358654612782565b601f8111611bfe575b5060e051906001601f841114611b8a578260019492938594611b78936102c051926119cd5750508160011b916000199060031b1c19161790565b86555b60e051019401910190926112a8565b90601f19831691876102c0515260e0516102c05120926102c0515b818110611be5575092600195939285928796879510611bcc575b505050811b018655611b7b565b015160001960f88460031b161c19169055898080611bbf565b82840151855560e0516001909501949384019301611ba5565b611c3090876102c0515260e0516102c05120601f850160051c81019160e051861061172757601f0160051c0190612add565b87611b3e565b600884016102c0515260e0516102c05120908382015b8183018110611c5c57505061128a565b80611c6960019254612782565b80611c76575b5001611c4c565b601f81118314611c8e57506102c05181555b87611c6f565b611cb190826102c0515283601f60e0516102c05120920160051c82019101612add565b6102c0805182905260e051905190812081835555611c88565b600283016102c0515260e0516102c05120906102c0515b601f1984168110611d2657506001939483601f19811610611d0d575b505050811b016002820155611218565b015160001960f88460031b161c19169055838080611cfd565b85820151835560e0516001909301929182019101611ce1565b611d7490600284016102c0515260e0516102c05120601f840160051c81019160e051851061172757601f0160051c0190612add565b836111de565b600183016102c0515260e0516102c05120906102c0515b601f1984168110611dd657506001939483601f19811610611dbd575b505050811b0160018201556111b0565b015160001960f88460031b161c19169055838080611dad565b85820151835560e0516001909301929182019101611d91565b611e2490600184016102c0515260e0516102c05120601f840160051c81019160e051851061172757601f0160051c0190612add565b83611176565b826102c0515260e0516102c05120906102c0515b601f1984168110611e8057506001939483601f19811610611e67575b505050811b018155611147565b015160001960f88460031b161c19169055838080611e5a565b85820151835560e0516001909301929182019101611e3e565b611ecb90836102c0515260e0516102c05120601f840160051c81019160e051851061172757601f0160051c0190612add565b83611110565b9190836102c0515260e0516102c05120906102c051935b601f1984168510611f29576001945083601f19811610611f10575b505050811b019055610fac565b015160001960f88460031b161c19169055898080611f03565b81810151835560e0519485019460019093019290910190611ee8565b611f7790846102c0515260e0516102c05120601f850160051c81019160e051861061172757601f0160051c0190612add565b89610f73565b60405162461bcd60e51b815260e0516004820152602e60248201527f45524337323155524953746f726167653a2055524920736574206f66206e6f6e60448201526d32bc34b9ba32b73a103a37b5b2b760911b6064820152608490fd5b634e487b7160e01b6102c05152601160045260246102c051fd5b60405162461bcd60e51b815260e0516004820152601060248201526f14dd1bdc9e5391950e881c185d5cd95960821b6044820152606490fd5b60405162461bcd60e51b815260e0516004820152601c60248201527f4552433732313a20746f6b656e20616c7265616479206d696e746564000000006044820152606490fd5b60405162461bcd60e51b815260e0805160048301525160248201527f4552433732313a206d696e7420746f20746865207a65726f20616464726573736044820152606490fd5b60405162461bcd60e51b815260206004820152601860248201527f547765657420616c7265616479207265676973746572656400000000000000006044820152606490fd5b60405162461bcd60e51b815260206004820152601260248201527145786365656473206d617820737570706c7960701b6044820152606490fd5b60405162461bcd60e51b8152602060048201526016602482015275139bdd08185d5d1a1bdc9a5e9959081d1bc81b5a5b9d60521b6044820152606490fd5b346101c95760403660031901126101c9576024356004356102c05152600d60205260406102c051206102c05150604051906121b0826127bc565b546001600160a01b03811680835260a09190911c602083015215612212575b6bffffffffffffffffffffffff60208201511691828102928184041490151715611fda5751604080516001600160a01b0390921682526127109092046020820152f35b5060405161221f816127bc565b600c546001600160a01b038116825260a01c60208201526121cf565b346101c9576103cd61224c36612922565b9161225a6104768433612c0b565b612c84565b346101c95760203660031901126101c9576004356001600160401b0381116101c95760ff6122aa602061229781943690600401612904565b8160405193828580945193849201612709565b8101601281520301902054166040519015158152f35b346101c9576102c0513660031901126101c9576020600854604051908152f35b346101c95760203660031901126101c9576004356102c0515260136020526102c0516040902061230f8161280e565b61231b6001830161280e565b916123286002820161280e565b90600381015460ff166004820154906005830154906006840154600785015490600a86016123559061280e565b93612362600b880161280e565b9561236f600c890161280e565b97600d0161237c9061280e565b986040519b8c9b6101808d526101808d016123969161272c565b8c810360208e01526123a79161272c565b8b810360408d01526123b89161272c565b94151560608b015260808a015260a089015260c088015260e08701528581036101008701526123e69161272c565b8481036101208601526123f89161272c565b83810361014085015261240a9161272c565b8281036101608401526104079161272c565b346101c95760403660031901126101c957612435612751565b602435906001600160a01b0361244a83612b71565b6001600160a01b03909216911681811461256b5780331490811561253f575b50156124d4576102c080518390526004602052516040902080546001600160a01b031916821790556001600160a01b036124a283612b71565b167f8c5be1e5ebec7d5bd14f71427d1e84f3dd0314c0f7b2291e5b200ac8c7c3b9256102c0516102c051a46102c05180f35b60405162461bcd60e51b815260206004820152603e60248201527f4552433732313a20617070726f76652063616c6c6572206973206e6f7420746f60448201527f6b656e206f776e6572206e6f7220617070726f76656420666f7220616c6c00006064820152608490fd5b6102c080519190915260056020908152815160408082203390925291529051205460ff16905083612469565b60405162461bcd60e51b815260206004820152602160248201527f4552433732313a20617070726f76616c20746f2063757272656e74206f776e656044820152603960f91b6064820152608490fd5b346101c95760203660031901126101c95760206107906004356129c8565b346101c9576102c0513660031901126101c9576102c051604051815490919061260081612782565b8084529060018116908115610609575060011461262757610407836103f3818503826127ed565b6102c0805180525160208120939250905b808210612650575090915081016020016103f36105b4565b919260018160209254838588010152019101909291612638565b346101c95760203660031901126101c9576004359063ffffffff60e01b82168092036101c95760209163152a902d60e11b81149081156126ac575b5015158152f35b63780e9d6360e01b8114915081156126c6575b50836126a5565b6380ac58cd60e01b8114915081156126f8575b81156126e7575b50836126bf565b6301ffc9a760e01b149050836126e0565b635b5e139f60e01b811491506126d9565b60005b83811061271c5750506000910152565b818101518382015260200161270c565b9060209161274581518092818552858086019101612709565b601f01601f1916010190565b600435906001600160a01b038216820361276757565b600080fd5b602435906001600160a01b038216820361276757565b90600182811c921680156127b2575b602083101461279c57565b634e487b7160e01b600052602260045260246000fd5b91607f1691612791565b604081019081106001600160401b038211176127d757604052565b634e487b7160e01b600052604160045260246000fd5b90601f801991011681019081106001600160401b038211176127d757604052565b906040519182600082549261282284612782565b80845293600181169081156128905750600114612849575b50612847925003836127ed565b565b90506000929192526020600020906000915b818310612874575050906020612847928201013861283a565b602091935080600191548385890101520191019091849261285b565b90506020925061284794915060ff191682840152151560051b8201013861283a565b6001600160401b0381116127d757601f01601f191660200190565b9291926128d9826128b2565b916128e760405193846127ed565b829481845281830111612767578281602093846000960137010152565b9080601f830112156127675781602061291f933591016128cd565b90565b6060906003190112612767576004356001600160a01b038116810361276757906024356001600160a01b0381168103612767579060443590565b9181601f84011215612767578235916001600160401b038311612767576020838186019501011161276757565b60243590811515820361276757565b9181601f84011215612767578235916001600160401b038311612767576020808501948460051b01011161276757565b6000818152600260205260409020546129eb906001600160a01b03161515612b25565b6000908152600460205260409020546001600160a01b031690565b15612a0d57565b60405162461bcd60e51b815260206004820152602e60248201527f4552433732313a2063616c6c6572206973206e6f7420746f6b656e206f776e6560448201526d1c881b9bdc88185c1c1c9bdd995960921b6064820152608490fd5b929190926001600160401b0384116127d7578360051b906020604051612a91828501826127ed565b8096815201918101918383116127675781905b838210612ab2575050505050565b81356001600160401b03811161276757602091612ad28784938701612904565b815201910190612aa4565b818110612ae8575050565b60008155600101612add565b600854811015612b0f57600860005260206000200190600090565b634e487b7160e01b600052603260045260246000fd5b15612b2c57565b60405162461bcd60e51b815260206004820152601860248201527f4552433732313a20696e76616c696420746f6b656e20494400000000000000006044820152606490fd5b6000908152600260205260409020546001600160a01b031661291f811515612b25565b6001600160a01b03168015612bb457600052600360205260406000205490565b60405162461bcd60e51b815260206004820152602960248201527f4552433732313a2061646472657373207a65726f206973206e6f7420612076616044820152683634b21037bbb732b960b91b6064820152608490fd5b906001600160a01b03612c1d82612b71565b6001600160a01b0390931692168281149291908315612c5d575b508215612c4357505090565b9091506001600160a01b0390612c58906129c8565b161490565b909250600052600560205260406000208160005260205260ff604060002054169138612c37565b90612c8e83612b71565b6001600160a01b03838116929116829003612f6e576001600160a01b038116928315612f1d5782612e67575060085484600052600960205280604060002055600160401b8110156127d75784612ced826001612d069401600855612af4565b90919082549060031b91821b91600019901b1916179055565b600090828403612e33575b5060ff600b5416612dfb5783815260046020526040812080546001600160a01b031916905583816001600160a01b03612d4983612b71565b167f8c5be1e5ebec7d5bd14f71427d1e84f3dd0314c0f7b2291e5b200ac8c7c3b9258280a48181526003602052604081208054600019810191908211612de7575582815260036020526040812080549060018201809211612de7575583815260026020526040812080546001600160a01b031916841790557fddf252ad1be2c89b69c2b068fc378daa952ba7f163c4a11628f55a4df523b3ef9080a4565b634e487b7160e01b83526011600452602483fd5b60405162461bcd60e51b815260206004820152601060248201526f14dd1bdc9e5391950e881c185d5cd95960821b6044820152606490fd5b612e3c90612b94565b8382526006602052604082208183526020528460408320558482526007602052604082205538612d11565b838303612e75575b50612d06565b612e7e90612b94565b6000198101908111612f0757846000526007602052604060002054818103612ed4575b50846000526007602052600060408120558260005260066020526040600020906000526020526000604081205538612e6f565b60008481526006602090815260408083208584528252808320548484528184208190558352600790915290205538612ea1565b634e487b7160e01b600052601160045260246000fd5b60405162461bcd60e51b8152602060048201526024808201527f4552433732313a207472616e7366657220746f20746865207a65726f206164646044820152637265737360e01b6064820152608490fd5b60405162461bcd60e51b815260206004820152602560248201527f4552433732313a207472616e736665722066726f6d20696e636f72726563742060448201526437bbb732b960d91b6064820152608490fd5b60ff600b5416612fcd57565b60405162461bcd60e51b815260206004820152601060248201526f14185d5cd8589b194e881c185d5cd95960821b6044820152606490fd5b600b5460081c6001600160a01b0316330361301c57565b606460405162461bcd60e51b815260206004820152602060248201527f4f776e61626c653a2063616c6c6572206973206e6f7420746865206f776e65726044820152fd5b60809060208152603260208201527f4552433732313a207472616e7366657220746f206e6f6e20455243373231526560408201527131b2b4bb32b91034b6b83632b6b2b73a32b960711b60608201520190565b156130ba57565b60405162461bcd60e51b8152806130d360048201613060565b0390fd5b6000818152600260205260409020546130fa906001600160a01b03161515612b25565b600052600a60205261310f604060002061280e565b600060405161311f6020826127ed565b5290565b91823b1561323c57613169926020926000604051809681958294630a85bd0160e11b8452336004850152846024850152604484015260806064840152608483019061272c565b03926001600160a01b03165af180916000916131f2575b50906131dc573d156131d5573d613196816128b2565b906131a460405192836127ed565b81523d6000602083013e5b805190816131d05760405162461bcd60e51b8152806130d360048201613060565b602001fd5b60606131af565b6001600160e01b031916630a85bd0160e11b1490565b6020813d602011613234575b8161320b602093836127ed565b810103126132305751906001600160e01b03198216820361322d575038613180565b80fd5b5080fd5b3d91506131fe565b505050600190565b919290803b156132945761316993600060209460405196879586948593630a85bd0160e11b855233600486015260018060a01b03166024850152604484015260806064840152608483019061272c565b5050505060019056fea26469706673582212206852f52a597eb6ccf047a77460315269e7b1a4349fd7c1b28090253b04816ffc64736f6c634300081c0033a264697066735822122042ed0c55064530d51287f5ee9c91000c234274029f9b443dc1e2ad655581591d64736f6c634300081c0033",
  "linkReferences": {},
  "deployedLinkReferences": {}
}