{
  "_format": "hh-sol-artifact-1",
  "contractName": "TweetIPFactory",
  "sourceName": "contracts/StoryNFTFactory.sol",
  "abi": [
    {
      "inputs": [
        {
          "internalType": "address",
          "name": "_ipAssetRegistry",
          "type": "address"
        },
        {
          "internalType": "address",
          "name": "_licenseRegistry",
          "type": "address"
        },
        {
          "internalType": "address",
          "name": "_licenseToken",
          "type": "address"
        },
        {
          "internalType": "address",
          "name": "_royaltyModule",
          "type": "address"
        }
      ],
      "stateMutability": "nonpayable",
      "type": "constructor"
    },
    {
      "anonymous": false,
      "inputs": [
        {
          "indexed": true,
          "internalType": "address",
          "name": "creator",
          "type": "address"
        },
        {
          "indexed": true,
          "internalType": "address",
          "name": "collectionAddress",
          "type": "address"
        },
        {
          "indexed": false,
          "internalType": "string",
          "name": "handle",
          "type": "string"
        }
      ],
      "name": "CollectionCreated",
      "type": "event"
    },
    {
      "inputs": [
        {
          "internalType": "uint256",
          "name": "",
          "type": "uint256"
        }
      ],
      "name": "allCollections",
      "outputs": [
        {
          "internalType": "address",
          "name": "",
          "type": "address"
        }
      ],
      "stateMutability": "view",
      "type": "function"
    },
    {
      "inputs": [
        {
          "internalType": "string",
          "name": "handle",
          "type": "string"
        },
        {
          "internalType": "uint256",
          "name": "mintPrice",
          "type": "uint256"
        },
        {
          "internalType": "uint256",
          "name": "maxSupply",
          "type": "uint256"
        },
        {
          "internalType": "address",
          "name": "royaltyReceiver",
          "type": "address"
        },
        {
          "internalType": "uint96",
          "name": "royaltyBP",
          "type": "uint96"
        },
        {
          "internalType": "address",
          "name": "licensingHook",
          "type": "address"
        }
      ],
      "name": "createTweetCollection",
      "outputs": [],
      "stateMutability": "nonpayable",
      "type": "function"
    },
    {
      "inputs": [],
      "name": "ipAssetRegistry",
      "outputs": [
        {
          "internalType": "address",
          "name": "",
          "type": "address"
        }
      ],
      "stateMutability": "view",
      "type": "function"
    },
    {
      "inputs": [],
      "name": "licenseRegistry",
      "outputs": [
        {
          "internalType": "address",
          "name": "",
          "type": "address"
        }
      ],
      "stateMutability": "view",
      "type": "function"
    },
    {
      "inputs": [],
      "name": "licenseToken",
      "outputs": [
        {
          "internalType": "address",
          "name": "",
          "type": "address"
        }
      ],
      "stateMutability": "view",
      "type": "function"
    },
    {
      "inputs": [
        {
          "internalType": "address",
          "name": "collection",
          "type": "address"
        },
        {
          "internalType": "address",
          "name": "to",
          "type": "address"
        },
        {
          "internalType": "string",
          "name": "uri",
          "type": "string"
        },
        {
          "internalType": "string",
          "name": "name",
          "type": "string"
        },
        {
          "internalType": "string",
          "name": "handle",
          "type": "string"
        },
        {
          "internalType": "string",
          "name": "timestamp",
          "type": "string"
        },
        {
          "internalType": "bool",
          "name": "verified",
          "type": "bool"
        },
        {
          "internalType": "uint256",
          "name": "comments",
          "type": "uint256"
        },
        {
          "internalType": "uint256",
          "name": "retweets",
          "type": "uint256"
        },
        {
          "internalType": "uint256",
          "name": "likes",
          "type": "uint256"
        },
        {
          "internalType": "uint256",
          "name": "analytics",
          "type": "uint256"
        },
        {
          "internalType": "string[]",
          "name": "tags",
          "type": "string[]"
        },
        {
          "internalType": "string[]",
          "name": "mentions",
          "type": "string[]"
        },
        {
          "internalType": "string",
          "name": "profileImage",
          "type": "string"
        },
        {
          "internalType": "string",
          "name": "tweetLink",
          "type": "string"
        },
        {
          "internalType": "string",
          "name": "tweetId",
          "type": "string"
        },
        {
          "internalType": "string",
          "name": "ipfsScreenshot",
          "type": "string"
        }
      ],
      "name": "registerTweetAsset",
      "outputs": [],
      "stateMutability": "nonpayable",
      "type": "function"
    },
    {
      "inputs": [],
      "name": "royaltyModule",
      "outputs": [
        {
          "internalType": "address",
          "name": "",
          "type": "address"
        }
      ],
      "stateMutability": "view",
      "type": "function"
    },
    {
      "inputs": [],
      "name": "totalCollections",
      "outputs": [
        {
          "internalType": "uint256",
          "name": "",
          "type": "uint256"
        }
      ],
      "stateMutability": "view",
      "type": "function"
    }
  ],
  "bytecode": "0x610100346100ba57601f61447f38819003918201601f19168301916001600160401b038311848410176100bf578084926080946040528339810103126100ba57610048816100d5565b90610055602082016100d5565b61006d6060610066604085016100d5565b93016100d5565b9260805260a05260c05260e05260405161439590816100ea823960805181818161066601526108a5015260a051816095015260c05181818161044a015261085e015260e051816108170152f35b600080fd5b634e487b7160e01b600052604160045260246000fd5b51906001600160a01b03821682036100ba5756fe610240604052600436101561001357600080fd5b600061022052610220513560e01c8063167ef495146108d45780633dcd103d1461088d57806351ec5382146108465780635717f9bd146107ff57806361d9db2d146107dd5780638274be44146105205780638da829f3146100cb5763c2fda4871461007d57600080fd5b346100c457610220513660031901126100c4576040517f00000000000000000000000000000000000000000000000000000000000000006001600160a01b03168152602090f35b6102205180fd5b346100c4576102203660031901126100c4576004356101e08190526001600160a01b03811690036100c4576024356001600160a01b03811681036100c4576044356001600160401b0381116100c457610128903690600401610948565b61014052610160526064356001600160401b0381116100c45761014f903690600401610948565b610180526101a0526084356001600160401b0381116100c457610176903690600401610948565b6102005260a4356001600160401b0381116100c457610199903690600401610948565b9160c43580151581036100c457610164356001600160401b0381116100c4576101c690369060040161097a565b949093610184356001600160401b0381116100c4576101e990369060040161097a565b6001600160401b036101a435116100c45761020a366101a435600401610948565b9490956001600160401b036101c435116100c45761022e366101c435600401610948565b60805260a0526101e4356001600160401b0381116100c457610254903690600401610948565b60c05261010052610204356001600160401b0381116100c45761027b903690600401610948565b6101c052610120526101e0516001600160a01b03163b156100c4576103f9996103dc996103456103a997610392958f6103c09d61032f9160405160e052636747abb960e11b60e0515260018060a01b0316600460e0510152610200602460e05101526103146102f761020460e051016101405161016051610a22565b60031960e051820301604460e0510152610180516101a051610a22565b9060031960e051830301606460e05101526102005190610a22565b9160031960e051840301608460e0510152610a22565b92151560a460e051015260e43560c460e05101526101043560e460e05101526101243561010460e05101526101443561012460e051015260031960e05184030161014460e0510152610a43565b9160031960e05184030161016460e0510152610a43565b9160031960e05184030161018460e0510152610a22565b60031960e0518203016101a460e051015260805160a051610a22565b60031960e0518203016101c460e051015260c05161010051610a22565b60031960e0518203016101e460e0510152610220519060e0519061042760e051916101c05161012051610a22565b0360e0516102205160018060a01b036101e051165af180156104f357610501575b7f00000000000000000000000000000000000000000000000000000000000000006001600160a01b0316803b156100c457604051916334ff261960e21b835260018060a01b031660048301524260248301526060604483015281610220519181806104bd606482016101405161016051610a22565b039161022051905af180156104f3576104d8575b6102205180f35b610220516104e5916109aa565b610220516100c457806104d1565b6040513d61022051823e3d90fd5b6105106102205160e0516109aa565b6102205115610448576102205180fd5b346100c45760c03660031901126100c4576004356001600160401b0381116100c457610550903690600401610948565b6064356001600160a01b038116908190036100c4576084356bffffffffffffffffffffffff81168091036100c45760a4356001600160a01b03811692908390036100c45760405192848660208601376105c560036020868881016205f49560ec1b838201520301601c198101875201856109aa565b60405192858760208601376105f5600260208689810161049560f41b838201520301601d198101875201856109aa565b6040519461389691828701918783106001600160401b038411176107955787966106346106429260e096610aca8b3961010086526101008601906109e1565b9084820360208601526109e1565b9460243560408401526044356060840152608083015260a082015260018060a01b037f00000000000000000000000000000000000000000000000000000000000000001660c08201520152039061022051f080156104f3576001600160a01b031691823b156100c45760405163cf456ae760e01b815230600482015260016024820152610220518160448183885af180156104f3576107ca575b50823b156100c45760405163f2fde38b60e01b8152336004820152610220518160248183885af180156104f3576107af575b50610220515468010000000000000000811015610795577fa9a63cb75fdf6f638d49c249df7d5b94dd8bb8ac664ca12da7339862b9dd87ae9161075c82600161078b94016102205155610918565b81549060031b9087821b9160018060a01b03901b19161790556040519182916020835233956020840191610a22565b0390a36102205180f35b634e487b7160e01b61022051526041600452602461022051fd5b610220516107bc916109aa565b610220516100c4578361070e565b610220516107d7916109aa565b836106dc565b346100c457610220513660031901126100c45760206102205154604051908152f35b346100c457610220513660031901126100c4576040517f00000000000000000000000000000000000000000000000000000000000000006001600160a01b03168152602090f35b346100c457610220513660031901126100c4576040517f00000000000000000000000000000000000000000000000000000000000000006001600160a01b03168152602090f35b346100c457610220513660031901126100c4576040517f00000000000000000000000000000000000000000000000000000000000000006001600160a01b03168152602090f35b346100c45760203660031901126100c45760043561022051548110156100c4576108ff602091610918565b905460405160039290921b1c6001600160a01b03168152f35b600054811015610932576000805260206000200190600090565b634e487b7160e01b600052603260045260246000fd5b9181601f84011215610975578235916001600160401b038311610975576020838186019501011161097557565b600080fd5b9181601f84011215610975578235916001600160401b038311610975576020808501948460051b01011161097557565b90601f801991011681019081106001600160401b038211176109cb57604052565b634e487b7160e01b600052604160045260246000fd5b919082519283825260005b848110610a0d575050826000602080949584010152601f8019910116010190565b806020809284010151828286010152016109ec565b908060209392818452848401376000828201840152601f01601f1916010190565b90602083828152019060208160051b85010193836000915b838310610a6b5750505050505090565b909192939495601f198282030186528635601e198436030181121561097557830190602082359201916001600160401b03811161097557803603831361097557610abb6020928392600195610a22565b980196019493019190610a5b56fe60806040523461053657613896803803806100198161053b565b928339810190610100818303126105365780516001600160401b0381116105365782610046918301610560565b602082015190926001600160401b03821161053657610066918301610560565b90604081015160608201519361007e608084016105cb565b60a0840151956001600160601b03871695919491868803610536576100b160e06100aa60c086016105cb565b94016105cb565b845190946001600160401b0382116102995760005490600182811c9216801561052c575b602083101461042c5781601f8493116104bd575b50602090601f83116001146104575760009261044c575b50508160011b916000199060031b1c1916176000555b8051906001600160401b0382116102995760015490600182811c92168015610442575b602083101461042c5781601f8493116103bc575b50602090601f831160011461035457600092610349575b50508160011b916000199060031b1c1916176001555b600b80546001600160a81b0319811633600881811b610100600160a81b031692909217909355604051969291901c6001600160a01b03167f8be0079c531659141344cd1fd0a4f28419497f9722a3daafe3b4186f6b6457e0600080a3600f55601055601380546001600160a01b039283166001600160a01b0319918216179091556014805493909216921691909117905561271083116102f457506001600160a01b03169081156102af5760408051908101906001600160401b038211818310176102995760409182528381526020908101929092526001600160a01b0390921660a09390931b6001600160a01b03191692909217600c55336000908152601190925290819020805460ff19166001179055516132b690816105e08239f35b634e487b7160e01b600052604160045260246000fd5b60405162461bcd60e51b815260206004820152601960248201527f455243323938313a20696e76616c6964207265636569766572000000000000006044820152606490fd5b62461bcd60e51b815260206004820152602a60248201527f455243323938313a20726f79616c7479206665652077696c6c206578636565646044820152692073616c65507269636560b01b6064820152608490fd5b015190503880610164565b600160009081528281209350601f198516905b8181106103a4575090846001959493921061038b575b505050811b0160015561017a565b015160001960f88460031b161c1916905538808061037d565b92936020600181928786015181550195019301610367565b60016000529091507fb10e2d527612073b26eecdfd717e6a320cf44b4afac2b0732d9fcbe2b7fa0cf6601f840160051c81019160208510610422575b90601f859493920160051c01905b818110610413575061014d565b60008155849350600101610406565b90915081906103f8565b634e487b7160e01b600052602260045260246000fd5b91607f1691610139565b015190503880610100565b60008080528281209350601f198516905b8181106104a5575090846001959493921061048c575b505050811b01600055610116565b015160001960f88460031b161c1916905538808061047e565b92936020600181928786015181550195019301610468565b600080529091507f290decd9548b62a8d60345a988386fc84ba6bc95484008f6362f93160ef3e563601f840160051c81019160208510610522575b90601f859493920160051c01905b81811061051357506100e9565b60008155849350600101610506565b90915081906104f8565b91607f16916100d5565b600080fd5b6040519190601f01601f191682016001600160401b0381118382101761029957604052565b81601f82011215610536578051906001600160401b0382116102995761058f601f8301601f191660200161053b565b92828452602083830101116105365760005b8281106105b657505060206000918301015290565b806020809284010151828287010152016105a1565b51906001600160a01b03821682036105365756fe61032080604052600436101561001157005b60006102c0526102c0513560e01c90816301ffc9a71461264d5750806306fdde03146125bb578063081812fc1461259d578063095ea7b3146123ff5780631381df88146122c357806318160ddd146122a35780632367a4d71461224257806323b872dd1461221e5780632a55205a146121595780632f745c591461209f5780633ccfd60b146120185780633dcd103d14611fed5780633f4ba83a14611f5257806342842e0e14611f195780634f6ccce714611e875780635c975abb14611e625780636352211e14611e325780636817c76c14611e1257806370a0823114611de7578063715018a614611d7d5780638456cb5914611d1c5780638da5cb5b14611ced57806395d89b4114611c31578063a22cb46514611b47578063b88d4fde14611ac7578063c87b56dd14611a90578063ce8f5772146103f4578063cf456ae714610396578063d5abeb0114610376578063e7901ce91461034b578063e985e9c5146102ec578063f2fde38b14610208578063f46eccc4146101c55763f4a0a5281461019857005b346101be5760203660031901126101be576101b1612fa4565b600435600f556102c05180f35b6102c05180fd5b346101be5760203660031901126101be576001600160a01b036101e6612734565b166102c051526011602052602060ff60406102c0512054166040519015158152f35b346101be5760203660031901126101be57610221612734565b610229612fa4565b6001600160a01b03811690811561029857600b8054610100600160a81b03198116600893841b610100600160a81b0316179091556102c051911c6001600160a01b0316907f8be0079c531659141344cd1fd0a4f28419497f9722a3daafe3b4186f6b6457e09080a36102c05180f35b60405162461bcd60e51b815260206004820152602660248201527f4f776e61626c653a206e6577206f776e657220697320746865207a65726f206160448201526564647265737360d01b6064820152608490fd5b346101be5760403660031901126101be57610305612734565b61030d61274f565b9060018060a01b03166102c05152600560205260406102c051209060018060a01b0316600052602052602060ff604060002054166040519015158152f35b346101be576102c0513660031901126101be576014546040516001600160a01b039091168152602090f35b346101be576102c0513660031901126101be576020601054604051908152f35b346101be5760403660031901126101be576103ed6103b2612734565b6103ba61293f565b906103c3612fa4565b60018060a01b03166102c05152601160205260406102c051209060ff801983541691151516179055565b6102c05180f35b346101be576102003660031901126101be5761040e612734565b6102e0526024356001600160401b0381116101be5761043190369060040161294e565b6102a052610300526044356001600160401b0381116101be5761045890369060040161294e565b610240526064356001600160401b0381116101be5761047b90369060040161294e565b6084929192356001600160401b0381116101be5761049d90369060040161294e565b9160a4359182151583036101be57610144356001600160401b0381116101be576104cb90369060040161297b565b949095610164356001600160401b0381116101be576104ee90369060040161297b565b6101205261014052610184356001600160401b0381116101be5761051690369060040161294e565b61020052610180526101a4356001600160401b0381116101be5761053e90369060040161294e565b610220526101e0526101c4356001600160401b0381116101be5761056690369060040161294e565b61028052610260526001600160401b036101e435116101be5761058f366101e43560040161294e565b6101c0526101a052336102c05152601160205260ff60406102c05120541615611a52576105ba6130c2565b600e5461016052601054610160511015611a185760ff60405161028051610260518237602081610280518101601281520301902054166119d357602060018060a01b03601454166040516101005263e4b122b760e01b610100515260018060a01b036102e05116600461010051015260406024610100510152610280516044610100510152610280516102605160646101005101376102c051606461028051610100510101526101005190606461010051601f19601f610280510116610100510103019061010051905afa8015610efa576102c05160e052611984575b60e051156119485760016101605101600e55604051610280516102605182376102805160129082019081528190036020908101909120805460ff1916600117905560c0819052604051906106eb90826127d0565b6102c05181526102e0516001600160a01b03161561190257610160516000908152600260205260409020546001600160a01b03166118bc57600854610160516102c05152600960c051528060406102c0512055600160401b811015610fc25761075d8160016107789301600855612a4c565b61016051825460001960039390931b92831b1916911b179055565b6102e05161078590612aec565b60018060a01b036102e051166102c05152600660c0515260406102c05120816102c0515260c051526101605160406102c0512055610160516102c05152600760c0515260406102c051205560ff600b54166118835760018060a01b036102e051166102c05152600360c0515260406102c05120908154906001820182116118695761089b92600161089693019055610160516102c05152600260c0515260406102c0512060018060a01b036102e051166bffffffffffffffffffffffff60a01b8254161790556101605160018060a01b036102e051166102c0517fddf252ad1be2c89b69c2b068fc378daa952ba7f163c4a11628f55a4df523b3ef6102c0516102c051a4610160516102e051613106565b613052565b6108ac366102a051610300516128b0565b610160516000908152600260205260409020546001600160a01b03161561180c57610160516102c05152600a60c0515260406102c05120908051906001600160401b038211610fc2576108ff8354612765565b601f81116117d4575b5060c051906001601f8411146117645791809161093e936102c05192611759575b50508160011b916000199060031b1c19161790565b90555b60405160808190526001600160401b036101c08201908111911117610fc2576109df9761099f94610985610990936101c060805101604052369061024051906128b0565b6080515236916128b0565b60c051608051015236916128b0565b6040608051015215156060608051015260c43560808051015260e43560a060805101526101043560c060805101526101243560e060805101523691612b63565b61010060805101526109f8366101205161014051612b63565b6101206080510152610a113661020051610180516128b0565b6101406080510152610a2a36610220516101e0516128b0565b6101606080510152610a433661028051610260516128b0565b6101806080510152610a5c366101c0516101a0516128b0565b6101a06080510152610160516102c05152601560c0515260406102c05120608051519081516001600160401b038111610fc257610a998254612765565b601f8111611721575b5060c051926001601f8311146116b557610ad7929382916102c05192610f085750508160011b916000199060031b1c19161790565b81555b60c05160805101519081516001600160401b038111610fc257610b006001830154612765565b601f811161167a575b5060c051926001601f83111461160857610b3e929382916102c05192610f085750508160011b916000199060031b1c19161790565b60018201555b604060805101519081516001600160401b038111610fc257610b696002830154612765565b601f81116115cd575b5060c051926001601f83111461155b57610ba7929382916102c05192610f085750508160011b916000199060031b1c19161790565b60028201555b610bce606060805101511515600383019060ff801983541691151516179055565b6080805190810151600483015560a0810151600583015560c0810151600683015560e081015160078301556101000151805190600160401b8211610fc25760088301548260088501558083106114c7575b5060c0510190600883016102c0515260c0516102c05120916102c051905b8282106113a957846101206080510151805190600160401b8211610fc2576009830154826009850155808310611315575b5060c0510190600983016102c0515260c0516102c05120916102c051905b8282106111ec5784600a810161014060805101518051906001600160401b038211610fc257610cbb8354612765565b601f81116111b4575b5060c051906001601f84111461114457918091610cf9936102c051926110915750508160011b916000199060031b1c19161790565b90555b600b810161016060805101518051906001600160401b038211610fc257610d238354612765565b601f811161110c575b5060c051906001601f84111461109c57918091610d61936102c051926110915750508160011b916000199060031b1c19161790565b90555b600c8101906101806080510151918251926001600160401b038411610fc257610d8d8254612765565b601f8111611059575b5060c051906001601f861114610fe7579380610dcd92600d966102c05192610fdc5750508160011b916000199060031b1c19161790565b90555b016101a060805101519081516001600160401b038111610fc257610df48254612765565b601f8111610f7f575b5060c051926001601f831114610f1357610e32929382916102c05192610f085750508160011b916000199060031b1c19161790565b90555b60405161028051610260518237806102805181016102c05181520390206040519060018060a01b036102e0511690610160517ff03f86513d92a90546545f1a6a43886905a42fc6d1dc2a70135a004ccf3264bd6102c0516102c051a46013546001600160a01b0316803b156101be57632a99dcd560e21b82526102e0516001600160a01b031660048301523060248301526102c051908290604490829084905af18015610efa57610ee7576102c05180f35b6102c051610ef4916127d0565b806103ed565b6040513d6102c051823e3d90fd5b015190508480610929565b601f19821693836102c0515260c0516102c05120916102c0515b868110610f665750836001959610610f4d575b505050811b019055610e35565b015160001960f88460031b161c19169055838080610f40565b81830151845560c0516001909401939283019201610f2d565b610fb290836102c0515260c0516102c05120601f840160051c81019160c0518510610fb8575b601f0160051c0190612bd7565b83610dfd565b9091508190610fa5565b634e487b7160e01b6102c05152604160045260246102c051fd5b015190508680610929565b90601f19851691836102c0515260c0516102c05120926102c0515b8181106110405750916001939187600d989410611027575b505050811b019055610dd0565b015160001960f88460031b161c1916905585808061101a565b82840151855560c0516001909501949384019301611002565b61108b90836102c0515260c0516102c05120601f870160051c81019160c0518810610fb857601f0160051c0190612bd7565b84610d96565b015190508580610929565b90601f19831691846102c0515260c0516102c05120926102c0515b8181106110f357509084600195949392106110da575b505050811b019055610d64565b015160001960f88460031b161c191690558480806110cd565b82840151855560c05160019095019493840193016110b7565b61113e90846102c0515260c0516102c05120601f850160051c81019160c0518610610fb857601f0160051c0190612bd7565b84610d2c565b90601f19831691846102c0515260c0516102c05120926102c0515b81811061119b5750908460019594939210611182575b505050811b019055610cfc565b015160001960f88460031b161c19169055848080611175565b82840151855560c051600190950194938401930161115f565b6111e690846102c0515260c0516102c05120601f850160051c81019160c0518610610fb857601f0160051c0190612bd7565b84610cc4565b80518051906001600160401b038211610fc2576112098654612765565b601f81116112dd575b5060c051906001601f84111461126957826001949293859461124c936102c0519261125e5750508160011b916000199060031b1c19161790565b86555b60c05101940191019092610c8c565b015190508a80610929565b90601f19831691876102c0515260c0516102c05120926102c0515b8181106112c45750926001959392859287968795106112ab575b505050811b01865561124f565b015160001960f88460031b161c1916905589808061129e565b82840151855560c0516001909501949384019301611284565b61130f90876102c0515260c0516102c05120601f850160051c81019160c0518610610fb857601f0160051c0190612bd7565b87611212565b600984016102c0515260c0516102c05120908382015b818301811061133b575050610c6e565b8061134860019254612765565b80611355575b500161132b565b601f8111831461136d57506102c05181555b8761134e565b61139090826102c0515283601f60c0516102c05120920160051c82019101612bd7565b6102c0805182905260c051905190812081835555611367565b80518051906001600160401b038211610fc2576113c68654612765565b601f811161148f575b5060c051906001601f84111461141b578260019492938594611409936102c0519261125e5750508160011b916000199060031b1c19161790565b86555b60c05101940191019092610c3d565b90601f19831691876102c0515260c0516102c05120926102c0515b81811061147657509260019593928592879687951061145d575b505050811b01865561140c565b015160001960f88460031b161c19169055898080611450565b82840151855560c0516001909501949384019301611436565b6114c190876102c0515260c0516102c05120601f850160051c81019160c0518610610fb857601f0160051c0190612bd7565b876113cf565b600884016102c0515260c0516102c05120908382015b81830181106114ed575050610c1f565b806114fa60019254612765565b80611507575b50016114dd565b601f8111831461151f57506102c05181555b87611500565b61154290826102c0515283601f60c0516102c05120920160051c82019101612bd7565b6102c0805182905260c051905190812081835555611519565b601f19821693600284016102c0515260c0516102c05120916102c0515b8681106115b4575083600195961061159b575b505050811b016002820155610bad565b015160001960f88460031b161c1916905583808061158b565b81830151845560c0516001909401939283019201611578565b61160290600284016102c0515260c0516102c05120601f840160051c81019160c0518510610fb857601f0160051c0190612bd7565b83610b72565b601f19821693600184016102c0515260c0516102c05120916102c0515b8681106116615750836001959610611648575b505050811b016001820155610b44565b015160001960f88460031b161c19169055838080611638565b81830151845560c0516001909401939283019201611625565b6116af90600184016102c0515260c0516102c05120601f840160051c81019160c0518510610fb857601f0160051c0190612bd7565b83610b09565b601f19821693836102c0515260c0516102c05120916102c0515b86811061170857508360019596106116ef575b505050811b018155610ada565b015160001960f88460031b161c191690558380806116e2565b81830151845560c05160019094019392830192016116cf565b61175390836102c0515260c0516102c05120601f840160051c81019160c0518510610fb857601f0160051c0190612bd7565b83610aa2565b015190508c80610929565b90601f19831691846102c0515260c0516102c05120926102c0515b8181106117bb57509084600195949392106117a2575b505050811b019055610941565b015160001960f88460031b161c191690558b8080611795565b82840151855560c051600190950194938401930161177f565b61180690846102c0515260c0516102c05120601f850160051c81019160c0518610610fb857601f0160051c0190612bd7565b8b610908565b60405162461bcd60e51b815260c0516004820152602e60248201527f45524337323155524953746f726167653a2055524920736574206f66206e6f6e60448201526d32bc34b9ba32b73a103a37b5b2b760911b6064820152608490fd5b634e487b7160e01b6102c05152601160045260246102c051fd5b60405162461bcd60e51b815260c0516004820152601060248201526f14dd1bdc9e5391950e881c185d5cd95960821b6044820152606490fd5b60405162461bcd60e51b815260c0516004820152601c60248201527f4552433732313a20746f6b656e20616c7265616479206d696e746564000000006044820152606490fd5b60405162461bcd60e51b815260c0805160048301525160248201527f4552433732313a206d696e7420746f20746865207a65726f20616464726573736044820152606490fd5b60405162461bcd60e51b8152602060048201526014602482015273139bdd081b1a58d95b9cd959081d1bc81b5a5b9d60621b6044820152606490fd5b60203d6020116119cc575b8061199f602092610100516127d0565b6101005190810103126101be57610100515160a05260a051151560a051036101be5760a05160e052610697565b503d61198f565b60405162461bcd60e51b815260206004820152601860248201527f547765657420616c7265616479207265676973746572656400000000000000006044820152606490fd5b60405162461bcd60e51b815260206004820152601260248201527145786365656473206d617820737570706c7960701b6044820152606490fd5b60405162461bcd60e51b8152602060048201526016602482015275139bdd08185d5d1a1bdc9a5e9959081d1bc81b5a5b9d60521b6044820152606490fd5b346101be5760203660031901126101be57611ac3611aaf600435613076565b60405191829160208352602083019061270f565b0390f35b346101be5760803660031901126101be57611ae0612734565b611ae861274f565b90606435906044356001600160401b0383116101be57366023840112156101be576103ed93611b246108969436906024816004013591016128b0565b92611b37611b328433612bee565b6129e9565b611b42838383612c67565b613227565b346101be5760403660031901126101be57611b60612734565b611b6861293f565b6001600160a01b0390911690338214611bec57336102c05152600560205260406102c051206102c05150826102c05152602052611bb78160406102c051209060ff801983541691151516179055565b60405190151581527f17307eab39ab6107e8899845ad3d59bd9653f200f220920489ca2b5937696c3160203392a36102c05180f35b60405162461bcd60e51b815260206004820152601960248201527f4552433732313a20617070726f766520746f2063616c6c6572000000000000006044820152606490fd5b346101be576102c0513660031901126101be576102c051506040516102c051600154611c5c81612765565b8084529060018116908115611cc95750600114611c84575b611ac383611aaf818503826127d0565b6102c08051600190525160208120939250905b808210611caf57509091508101602001611aaf611c74565b919260018160209254838588010152019101909291611c97565b60ff191660208086019190915291151560051b84019091019150611aaf9050611c74565b346101be576102c0513660031901126101be57600b5460405160089190911c6001600160a01b03168152602090f35b346101be576102c0513660031901126101be57611d37612fa4565b611d3f6130c2565b600160ff19600b541617600b557f62e78cea01bee320cd4e420270b5ea74000d11b0c9f74754ebdbfc544b05a2586020604051338152a16102c05180f35b346101be576102c0513660031901126101be57611d98612fa4565b600b8054610100600160a81b031981169091556102c0519060081c6001600160a01b03167f8be0079c531659141344cd1fd0a4f28419497f9722a3daafe3b4186f6b6457e08280a36102c05180f35b346101be5760203660031901126101be576020611e0a611e05612734565b612aec565b604051908152f35b346101be576102c0513660031901126101be576020600f54604051908152f35b346101be5760203660031901126101be576020611e50600435612ac9565b6040516001600160a01b039091168152f35b346101be576102c0513660031901126101be57602060ff600b54166040519015158152f35b346101be5760203660031901126101be57600435600854811015611ebf57611eb0602091612a4c565b90549060031b1c604051908152f35b60405162461bcd60e51b815260206004820152602c60248201527f455243373231456e756d657261626c653a20676c6f62616c20696e646578206f60448201526b7574206f6620626f756e647360a01b6064820152608490fd5b346101be576103ed610896611f2d36612905565b60405192909190611f3f6020856127d0565b6102c0518452611b37611b328433612bee565b346101be576102c0513660031901126101be57611f6d612fa4565b600b5460ff811615611fb15760ff1916600b557f5db9ee0a495bf2e6ff9c91a7834c1ba4fdd244a5e8aa4e537bd38aeae4b073aa6020604051338152a16102c05180f35b60405162461bcd60e51b815260206004820152601460248201527314185d5cd8589b194e881b9bdd081c185d5cd95960621b6044820152606490fd5b346101be576102c0513660031901126101be576013546040516001600160a01b039091168152602090f35b346101be576102c0513660031901126101be57612033612fa4565b478015612063576102c051600b54909182918291829160081c6001600160a01b031682f115610efa576102c05180f35b60405162461bcd60e51b81526020600482015260146024820152734e6f2066756e647320746f20776974686472617760601b6044820152606490fd5b346101be5760403660031901126101be576120b8612734565b602435906120c581612aec565b8210156121005760018060a01b03166102c05152600660205260406102c05120906102c05152602052602060406102c0512054604051908152f35b60405162461bcd60e51b815260206004820152602b60248201527f455243373231456e756d657261626c653a206f776e657220696e646578206f7560448201526a74206f6620626f756e647360a81b6064820152608490fd5b346101be5760403660031901126101be576024356004356102c05152600d60205260406102c051206102c05150604051906121938261279f565b546001600160a01b03811680835260a09190911c6020830152156121f5575b6bffffffffffffffffffffffff602082015116918281029281840414901517156118695751604080516001600160a01b0390921682526127109092046020820152f35b506040516122028161279f565b600c546001600160a01b038116825260a01c60208201526121b2565b346101be576103ed61222f36612905565b9161223d611b328433612bee565b612c67565b346101be5760203660031901126101be576004356001600160401b0381116101be5760ff61228d602061227a819436906004016128e7565b81604051938285809451938492016126ec565b8101601281520301902054166040519015158152f35b346101be576102c0513660031901126101be576020600854604051908152f35b346101be5760203660031901126101be576004356102c0515260156020526102c051604090206122f2816127f1565b6122fe600183016127f1565b9161230b600282016127f1565b90600381015460ff166004820154906005830154906006840154600785015490600a8601612338906127f1565b93612345600b88016127f1565b95612352600c89016127f1565b97600d0161235f906127f1565b986040519b8c9b6101808d526101808d016123799161270f565b8c810360208e015261238a9161270f565b8b810360408d015261239b9161270f565b94151560608b015260808a015260a089015260c088015260e08701528581036101008701526123c99161270f565b8481036101208601526123db9161270f565b8381036101408501526123ed9161270f565b828103610160840152611ac39161270f565b346101be5760403660031901126101be57612418612734565b602435906001600160a01b0361242d83612ac9565b6001600160a01b03909216911681811461254e57803314908115612522575b50156124b7576102c080518390526004602052516040902080546001600160a01b031916821790556001600160a01b0361248583612ac9565b167f8c5be1e5ebec7d5bd14f71427d1e84f3dd0314c0f7b2291e5b200ac8c7c3b9256102c0516102c051a46102c05180f35b60405162461bcd60e51b815260206004820152603e60248201527f4552433732313a20617070726f76652063616c6c6572206973206e6f7420746f60448201527f6b656e206f776e6572206e6f7220617070726f76656420666f7220616c6c00006064820152608490fd5b6102c080519190915260056020908152815160408082203390925291529051205460ff1690508361244c565b60405162461bcd60e51b815260206004820152602160248201527f4552433732313a20617070726f76616c20746f2063757272656e74206f776e656044820152603960f91b6064820152608490fd5b346101be5760203660031901126101be576020611e506004356129ab565b346101be576102c0513660031901126101be576102c05160405181549091906125e381612765565b8084529060018116908115611cc9575060011461260a57611ac383611aaf818503826127d0565b6102c0805180525160208120939250905b80821061263357509091508101602001611aaf611c74565b91926001816020925483858801015201910190929161261b565b346101be5760203660031901126101be576004359063ffffffff60e01b82168092036101be5760209163152a902d60e11b811490811561268f575b5015158152f35b63780e9d6360e01b8114915081156126a9575b5083612688565b6380ac58cd60e01b8114915081156126db575b81156126ca575b50836126a2565b6301ffc9a760e01b149050836126c3565b635b5e139f60e01b811491506126bc565b60005b8381106126ff5750506000910152565b81810151838201526020016126ef565b90602091612728815180928185528580860191016126ec565b601f01601f1916010190565b600435906001600160a01b038216820361274a57565b600080fd5b602435906001600160a01b038216820361274a57565b90600182811c92168015612795575b602083101461277f57565b634e487b7160e01b600052602260045260246000fd5b91607f1691612774565b604081019081106001600160401b038211176127ba57604052565b634e487b7160e01b600052604160045260246000fd5b90601f801991011681019081106001600160401b038211176127ba57604052565b906040519182600082549261280584612765565b8084529360018116908115612873575060011461282c575b5061282a925003836127d0565b565b90506000929192526020600020906000915b81831061285757505090602061282a928201013861281d565b602091935080600191548385890101520191019091849261283e565b90506020925061282a94915060ff191682840152151560051b8201013861281d565b6001600160401b0381116127ba57601f01601f191660200190565b9291926128bc82612895565b916128ca60405193846127d0565b82948184528183011161274a578281602093846000960137010152565b9080601f8301121561274a57816020612902933591016128b0565b90565b606090600319011261274a576004356001600160a01b038116810361274a57906024356001600160a01b038116810361274a579060443590565b60243590811515820361274a57565b9181601f8401121561274a578235916001600160401b03831161274a576020838186019501011161274a57565b9181601f8401121561274a578235916001600160401b03831161274a576020808501948460051b01011161274a57565b6000818152600260205260409020546129ce906001600160a01b03161515612a7d565b6000908152600460205260409020546001600160a01b031690565b156129f057565b60405162461bcd60e51b815260206004820152602e60248201527f4552433732313a2063616c6c6572206973206e6f7420746f6b656e206f776e6560448201526d1c881b9bdc88185c1c1c9bdd995960921b6064820152608490fd5b600854811015612a6757600860005260206000200190600090565b634e487b7160e01b600052603260045260246000fd5b15612a8457565b60405162461bcd60e51b815260206004820152601860248201527f4552433732313a20696e76616c696420746f6b656e20494400000000000000006044820152606490fd5b6000908152600260205260409020546001600160a01b0316612902811515612a7d565b6001600160a01b03168015612b0c57600052600360205260406000205490565b60405162461bcd60e51b815260206004820152602960248201527f4552433732313a2061646472657373207a65726f206973206e6f7420612076616044820152683634b21037bbb732b960b91b6064820152608490fd5b929190926001600160401b0384116127ba578360051b906020604051612b8b828501826127d0565b80968152019181019183831161274a5781905b838210612bac575050505050565b81356001600160401b03811161274a57602091612bcc87849387016128e7565b815201910190612b9e565b818110612be2575050565b60008155600101612bd7565b906001600160a01b03612c0082612ac9565b6001600160a01b0390931692168281149291908315612c40575b508215612c2657505090565b9091506001600160a01b0390612c3b906129ab565b161490565b909250600052600560205260406000208160005260205260ff604060002054169138612c1a565b90612c7183612ac9565b6001600160a01b03838116929116829003612f51576001600160a01b038116928315612f005782612e4a575060085484600052600960205280604060002055600160401b8110156127ba5784612cd0826001612ce99401600855612a4c565b90919082549060031b91821b91600019901b1916179055565b600090828403612e16575b5060ff600b5416612dde5783815260046020526040812080546001600160a01b031916905583816001600160a01b03612d2c83612ac9565b167f8c5be1e5ebec7d5bd14f71427d1e84f3dd0314c0f7b2291e5b200ac8c7c3b9258280a48181526003602052604081208054600019810191908211612dca575582815260036020526040812080549060018201809211612dca575583815260026020526040812080546001600160a01b031916841790557fddf252ad1be2c89b69c2b068fc378daa952ba7f163c4a11628f55a4df523b3ef9080a4565b634e487b7160e01b83526011600452602483fd5b60405162461bcd60e51b815260206004820152601060248201526f14dd1bdc9e5391950e881c185d5cd95960821b6044820152606490fd5b612e1f90612aec565b8382526006602052604082208183526020528460408320558482526007602052604082205538612cf4565b838303612e58575b50612ce9565b612e6190612aec565b6000198101908111612eea57846000526007602052604060002054818103612eb7575b50846000526007602052600060408120558260005260066020526040600020906000526020526000604081205538612e52565b60008481526006602090815260408083208584528252808320548484528184208190558352600790915290205538612e84565b634e487b7160e01b600052601160045260246000fd5b60405162461bcd60e51b8152602060048201526024808201527f4552433732313a207472616e7366657220746f20746865207a65726f206164646044820152637265737360e01b6064820152608490fd5b60405162461bcd60e51b815260206004820152602560248201527f4552433732313a207472616e736665722066726f6d20696e636f72726563742060448201526437bbb732b960d91b6064820152608490fd5b600b5460081c6001600160a01b03163303612fbb57565b606460405162461bcd60e51b815260206004820152602060248201527f4f776e61626c653a2063616c6c6572206973206e6f7420746865206f776e65726044820152fd5b60809060208152603260208201527f4552433732313a207472616e7366657220746f206e6f6e20455243373231526560408201527131b2b4bb32b91034b6b83632b6b2b73a32b960711b60608201520190565b1561305957565b60405162461bcd60e51b81528061307260048201612fff565b0390fd5b600081815260026020526040902054613099906001600160a01b03161515612a7d565b600052600a6020526130ae60406000206127f1565b60006040516130be6020826127d0565b5290565b60ff600b54166130ce57565b60405162461bcd60e51b815260206004820152601060248201526f14185d5cd8589b194e881c185d5cd95960821b6044820152606490fd5b91823b1561321f5761314c926020926000604051809681958294630a85bd0160e11b8452336004850152846024850152604484015260806064840152608483019061270f565b03926001600160a01b03165af180916000916131d5575b50906131bf573d156131b8573d61317981612895565b9061318760405192836127d0565b81523d6000602083013e5b805190816131b35760405162461bcd60e51b81528061307260048201612fff565b602001fd5b6060613192565b6001600160e01b031916630a85bd0160e11b1490565b6020813d602011613217575b816131ee602093836127d0565b810103126132135751906001600160e01b031982168203613210575038613163565b80fd5b5080fd5b3d91506131e1565b505050600190565b919290803b156132775761314c93600060209460405196879586948593630a85bd0160e11b855233600486015260018060a01b03166024850152604484015260806064840152608483019061270f565b5050505060019056fea26469706673582212202fde2bcfc2cc2619b6164768039ec0c694a3524bcadb9cd42bdd341b9117341164736f6c634300081c0033a2646970667358221220cd3a054534cbb532ae3a718e903e126e520eebe4bc938d349235810dd44e0e1964736f6c634300081c0033",
  "linkReferences": {},
  "deployedLinkReferences": {}
}