{"contracts/StoryDeposit.sol":{"IP_Deposit":{"abi":[{"inputs":[],"stateMutability":"nonpayable","type":"constructor"},{"anonymous":false,"inputs":[{"indexed":true,"internalType":"uint256","name":"ipAmount","type":"uint256"},{"indexed":true,"internalType":"bytes32","name":"tweetHash","type":"bytes32"},{"indexed":true,"internalType":"address","name":"depositor","type":"address"},{"indexed":false,"internalType":"address","name":"recipient","type":"address"},{"indexed":false,"internalType":"string","name":"validation","type":"string"},{"indexed":false,"internalType":"address","name":"collectionAddress","type":"address"},{"components":[{"internalType":"string","name":"handle","type":"string"},{"internalType":"uint256","name":"mintPrice","type":"uint256"},{"internalType":"uint256","name":"maxSupply","type":"uint256"},{"internalType":"address","name":"royaltyReceiver","type":"address"},{"internalType":"uint96","name":"royaltyBP","type":"uint96"}],"indexed":false,"internalType":"struct IP_Deposit.CollectionConfig","name":"collectionConfig","type":"tuple"},{"indexed":false,"internalType":"bytes32","name":"tweetHashOut","type":"bytes32"},{"components":[{"internalType":"uint256","name":"defaultMintingFee","type":"uint256"},{"internalType":"address","name":"currency","type":"address"},{"internalType":"address","name":"royaltyPolicy","type":"address"},{"internalType":"bool","name":"transferable","type":"bool"},{"internalType":"uint256","name":"expiration","type":"uint256"},{"internalType":"bool","name":"commercialUse","type":"bool"},{"internalType":"bool","name":"commercialAttribution","type":"bool"},{"internalType":"uint256","name":"commercialRevShare","type":"uint256"},{"internalType":"uint256","name":"commercialRevCeiling","type":"uint256"},{"internalType":"bool","name":"derivativesAllowed","type":"bool"},{"internalType":"bool","name":"derivativesAttribution","type":"bool"},{"internalType":"bool","name":"derivativesApproval","type":"bool"},{"internalType":"bool","name":"derivativesReciprocal","type":"bool"},{"internalType":"uint256","name":"derivativeRevCeiling","type":"uint256"},{"internalType":"string","name":"uri","type":"string"}],"indexed":false,"internalType":"struct IP_Deposit.LicenseTermsConfig","name":"licenseTermsConfig","type":"tuple"},{"components":[{"internalType":"uint256","name":"licenseTermsId","type":"uint256"},{"internalType":"address","name":"licensorIpId","type":"address"},{"internalType":"address","name":"receiver","type":"address"},{"internalType":"uint256","name":"amount","type":"uint256"},{"internalType":"uint256","name":"maxMintingFee","type":"uint256"},{"internalType":"uint256","name":"maxRevenueShare","type":"uint256"}],"indexed":false,"internalType":"struct IP_Deposit.LicenseMintParams","name":"licenseMintParams","type":"tuple"},{"components":[{"internalType":"string","name":"name","type":"string"},{"internalType":"address","name":"wallet","type":"address"}],"indexed":false,"internalType":"struct IP_Deposit.CoCreator[]","name":"coCreators","type":"tuple[]"}],"name":"DepositProcessed","type":"event"},{"anonymous":false,"inputs":[{"indexed":true,"internalType":"bytes32","name":"tweetHash","type":"bytes32"},{"indexed":false,"internalType":"string","name":"newValidation","type":"string"}],"name":"ValidationUpdated","type":"event"},{"inputs":[{"internalType":"address","name":"recipient","type":"address"},{"internalType":"string","name":"validation","type":"string"},{"internalType":"bytes","name":"proof","type":"bytes"},{"internalType":"address","name":"collectionAddress","type":"address"},{"components":[{"internalType":"string","name":"handle","type":"string"},{"internalType":"uint256","name":"mintPrice","type":"uint256"},{"internalType":"uint256","name":"maxSupply","type":"uint256"},{"internalType":"address","name":"royaltyReceiver","type":"address"},{"internalType":"uint96","name":"royaltyBP","type":"uint96"}],"internalType":"struct IP_Deposit.CollectionConfig","name":"collectionConfig","type":"tuple"},{"internalType":"bytes32","name":"tweetHash","type":"bytes32"},{"components":[{"internalType":"uint256","name":"defaultMintingFee","type":"uint256"},{"internalType":"address","name":"currency","type":"address"},{"internalType":"address","name":"royaltyPolicy","type":"address"},{"internalType":"bool","name":"transferable","type":"bool"},{"internalType":"uint256","name":"expiration","type":"uint256"},{"internalType":"bool","name":"commercialUse","type":"bool"},{"internalType":"bool","name":"commercialAttribution","type":"bool"},{"internalType":"uint256","name":"commercialRevShare","type":"uint256"},{"internalType":"uint256","name":"commercialRevCeiling","type":"uint256"},{"internalType":"bool","name":"derivativesAllowed","type":"bool"},{"internalType":"bool","name":"derivativesAttribution","type":"bool"},{"internalType":"bool","name":"derivativesApproval","type":"bool"},{"internalType":"bool","name":"derivativesReciprocal","type":"bool"},{"internalType":"uint256","name":"derivativeRevCeiling","type":"uint256"},{"internalType":"string","name":"uri","type":"string"}],"internalType":"struct IP_Deposit.LicenseTermsConfig","name":"licenseTermsConfig","type":"tuple"},{"components":[{"internalType":"uint256","name":"licenseTermsId","type":"uint256"},{"internalType":"address","name":"licensorIpId","type":"address"},{"internalType":"address","name":"receiver","type":"address"},{"internalType":"uint256","name":"amount","type":"uint256"},{"internalType":"uint256","name":"maxMintingFee","type":"uint256"},{"internalType":"uint256","name":"maxRevenueShare","type":"uint256"}],"internalType":"struct IP_Deposit.LicenseMintParams","name":"licenseMintParams","type":"tuple"},{"components":[{"internalType":"string","name":"name","type":"string"},{"internalType":"address","name":"wallet","type":"address"}],"internalType":"struct IP_Deposit.CoCreator[]","name":"coCreators","type":"tuple[]"}],"name":"depositIP","outputs":[],"stateMutability":"payable","type":"function"},{"inputs":[{"internalType":"bytes32","name":"tweetHash","type":"bytes32"}],"name":"getByTweetHash","outputs":[{"components":[{"internalType":"address","name":"depositor","type":"address"},{"internalType":"address","name":"recipient","type":"address"},{"internalType":"string","name":"validation","type":"string"},{"internalType":"bytes","name":"proof","type":"bytes"},{"internalType":"address","name":"collectionAddress","type":"address"},{"components":[{"internalType":"string","name":"handle","type":"string"},{"internalType":"uint256","name":"mintPrice","type":"uint256"},{"internalType":"uint256","name":"maxSupply","type":"uint256"},{"internalType":"address","name":"royaltyReceiver","type":"address"},{"internalType":"uint96","name":"royaltyBP","type":"uint96"}],"internalType":"struct IP_Deposit.CollectionConfig","name":"collectionConfig","type":"tuple"},{"internalType":"bytes32","name":"tweetHash","type":"bytes32"},{"components":[{"internalType":"uint256","name":"defaultMintingFee","type":"uint256"},{"internalType":"address","name":"currency","type":"address"},{"internalType":"address","name":"royaltyPolicy","type":"address"},{"internalType":"bool","name":"transferable","type":"bool"},{"internalType":"uint256","name":"expiration","type":"uint256"},{"internalType":"bool","name":"commercialUse","type":"bool"},{"internalType":"bool","name":"commercialAttribution","type":"bool"},{"internalType":"uint256","name":"commercialRevShare","type":"uint256"},{"internalType":"uint256","name":"commercialRevCeiling","type":"uint256"},{"internalType":"bool","name":"derivativesAllowed","type":"bool"},{"internalType":"bool","name":"derivativesAttribution","type":"bool"},{"internalType":"bool","name":"derivativesApproval","type":"bool"},{"internalType":"bool","name":"derivativesReciprocal","type":"bool"},{"internalType":"uint256","name":"derivativeRevCeiling","type":"uint256"},{"internalType":"string","name":"uri","type":"string"}],"internalType":"struct IP_Deposit.LicenseTermsConfig","name":"licenseTermsConfig","type":"tuple"},{"components":[{"internalType":"uint256","name":"licenseTermsId","type":"uint256"},{"internalType":"address","name":"licensorIpId","type":"address"},{"internalType":"address","name":"receiver","type":"address"},{"internalType":"uint256","name":"amount","type":"uint256"},{"internalType":"uint256","name":"maxMintingFee","type":"uint256"},{"internalType":"uint256","name":"maxRevenueShare","type":"uint256"}],"internalType":"struct IP_Deposit.LicenseMintParams","name":"licenseMintParams","type":"tuple"},{"components":[{"internalType":"string","name":"name","type":"string"},{"internalType":"address","name":"wallet","type":"address"}],"internalType":"struct IP_Deposit.CoCreator[]","name":"coCreators","type":"tuple[]"}],"internalType":"struct IP_Deposit.DepositRecord","name":"","type":"tuple"}],"stateMutability":"view","type":"function"},{"inputs":[],"name":"owner","outputs":[{"internalType":"address","name":"","type":"address"}],"stateMutability":"view","type":"function"},{"inputs":[{"internalType":"bytes32","name":"tweetHash","type":"bytes32"},{"internalType":"string","name":"newValidation","type":"string"}],"name":"updateValidation","outputs":[],"stateMutability":"nonpayable","type":"function"},{"inputs":[],"name":"withdrawFunds","outputs":[],"stateMutability":"nonpayable","type":"function"},{"stateMutability":"payable","type":"receive"}],"evm":{"bytecode":{"linkReferences":{},"object":"60808060405234602757600080546001600160a01b03191633179055611aae908161002d8239f35b600080fdfe6080604052600436101561001b575b361561001957600080fd5b005b60003560e01c806324600fc31461164d57806347934a07146114af5780638da5cb5b14611486578063b07d65ea146107425763b4cd21b40361000e573461073d57602036600319011261073d57600435606061012060405161007c816117f0565b60008152600060208201528260408201528280820152600060808201526040516100a58161180c565b83815260006020820152600060408201526000848201526000608082015260a0820152600060c08201526040516100db81611827565b60008152600060208201526000604082015260008482015260006080820152600060a0820152600060c0820152600060e0820152600061010082015260008382015260006101408201526000610160820152600061018082015260006101a0820152836101c082015260e082015260405161015581611843565b60008152600060208201526000604082015260008482015260006080820152600060a082015261010082015201528060005260016020526101a460018060a01b0360406000205416151561187f565b60005260016020526040600020604051906101be826117f0565b80546001600160a01b039081168352600182015416602083019081526040516101f5816101ee81600287016119f5565b038261185e565b60408401908152604051906102188261021181600388016119f5565b038361185e565b6060850191825260048401546001600160a01b0316608086019081526040519092906102438161180c565b604051610257816101ee8160058b016119f5565b81526006860154602082015260078601546040820152600886015460018060a01b038116606083015260a01c608082015260a0870190815260098601549160c08801928352604051936102a985611827565b600a880154855260018060a01b03600b89015416602086015260ff600c89015460018060a01b038116604088015260a01c1615156060860152600d880154608086015260ff600e890154818116151560a088015260081c16151560c0860152600f88015460e0860152601088015461010086015260ff60118901548181161515610120880152818160081c161515610140880152818160101c16151561016088015260181c16151561018086015260128801546101a0860152604051610376816101ee8160138d016119f5565b6101c086015260e08901948552601a604051986103928a611843565b60148101548a5260158101546001600160a01b0390811660208c015260168201541660408b0152601781015460608b0152601881015460808b0152601981015460a08b01526101008b01998a5201805497906001600160401b0389116107275760409a9998979695949392919a519761041160208260051b018a61185e565b80895260208901916000526020600020916000905b8282106106bc57505050506101208901968752604051998a9960208b52600160a01b6001900390511660208b0152600160a01b6001900390511660408a015251606089016101e09052610200890161047d91611772565b9051888203601f190160808a01526104959190611772565b93600160a01b6001900390511660a08801525192601f198782030160c0880152835160a0825260a082016104c891611772565b936020810151602083015260408101516040830152600160a01b600190036060820151166060830152608001516001600160601b031690608001525160e086015251601f198583030161010086015280518252600160a01b600190036020820151166020830152600160a01b6001900360408201511660408301526060810151151560608301526080810151608083015260a0810151151560a083015260c0810151151560c083015260e081015160e083015261010081015161010083015261012081015115156101208301526101408101511515610140830152610160810151151561016083015261018081015115156101808301526101a08101516101a08301526101c00151906101c081016101e090526101e0016105e891611772565b915180516101208501526020808201516001600160a01b03908116610140870152604083015116610160860152606082015161018086015260808201516101a086015260a0909101516101c08501529051838303601f19016101e08501528051808452600581901b84018301939183019290916000918101905b83831061066f5786860387f35b919395509193602080600192601f198582030186528851908261069b8351604084526040840190611772565b9281878060a01b039101511691015297019301930190928695949293610662565b60409d9495969798999a9b9c9d51604081018181106001600160401b03821117610727576001926002926020926040526040516106fd816101ee818c6119f5565b8152848060a01b038589015416838201528152019401910190929c9b9a999897969594939c610426565b634e487b7160e01b600052604160045260246000fd5b600080fd5b6101c036600319011261073d576004356001600160a01b038116810361073d576024356001600160401b03811161073d57610781903690600401611731565b906044356001600160401b03811161073d576107a1903690600401611731565b9390606435906001600160a01b038216820361073d576001600160401b036084351161073d5760a06084353603600319011261073d576001600160401b0360c4351161073d576101e060c4353603600319011261073d5760c03660e319011261073d576001600160401b036101a4351161073d573660236101a43501121561073d576001600160401b036101a435600401351161073d573660246101a4356004013560051b6101a43501011161073d573415611452576001600160a01b038316156114195760a4356000908152600160205260409020546001600160a01b03166113e05760a435600090815260016020819052604090912080546001600160a01b03199081163317825591810180549092166001600160a01b0386161790915595600287016001600160401b038711610727576108e8876108e283546118b7565b836118f1565b600087601f811160011461137d578061091792600091611372575b508160011b916000199060031b1c19161790565b90555b60038701916001600160401b038211610727576109418261093b85546118b7565b856118f1565b600090601f831160011461130e5761097292916000918361121e575b50508160011b916000199060031b1c19161790565b90555b600485810180546001600160a01b0319166001600160a01b0384161790556109a1906084350180611964565b906001600160401b038211610727576109ca826109c160058a01546118b7565b60058a016118f1565b600090601f83116001146112a1576109fa9291600091836112965750508160011b916000199060031b1c19161790565b60058601555b60843560248101356006870155604481013560078701556008860193906001600160a01b0390610a3290606401611996565b85546001600160a01b0319169116178455608480350135936001600160601b038516850361073d5780546001600160a01b031660a086901b6001600160a01b03191617905560a4356009870155600460c43590810135600a880155610a9990602401611996565b600b870180546001600160a01b0319166001600160a01b03928316179055600c870190610aca60c435604401611996565b82546001600160a01b0319169116178155610ae960c4356064016119aa565b815460ff60a01b191690151560a01b60ff60a01b1617905560c4356084810135600d880155610b5c90600e880190610b3990610b279060a4016119aa565b829060ff801983541691151516179055565b610b4660c48035016119aa565b815461ff00191690151560081b61ff0016179055565b60e460c4350135600f87015561010460c43501356010870155610b9c610b8761012460c435016119aa565b601188019060ff801983541691151516179055565b610bca610bae61014460c435016119aa565b601188019061ff00825491151560081b169061ff001916179055565b610bd961016460c435016119aa565b1515601187015462ff000063ff000000610bf861018460c435016119aa565b151560181b169260101b169063ffff00001916171760118701556101a460c43501356012870155610c346101c460c4350160c435600401611964565b906001600160401b03821161072757610c5d82610c5460138b01546118b7565b60138b016118f1565b600090601f831160011461122957610c8d92916000918361121e5750508160011b916000199060031b1c19161790565b60138701555b60e4356014870155610104356001600160a01b038116900361073d576015860180546001600160a01b031916610104356001600160a01b039081169190911790915561012435908116900361073d576016860180546001600160a01b031916610124356001600160a01b031617905561014435601787015561016435601887015561018435601987015560005b6101a43560040135811015610f075760006062196101a43536030160248360051b6101a4350101351215610f0457601a8801549068010000000000000000821015610ef0576001820180601a8b0155821015610edc57601a890181526020812090610d9d6024600586901b6101a435908101820135010180611964565b91906001600160401b038311610ec857610dcb83610dc08760011b8701546118b7565b8760011b87016118f1565b81601f8411600114610e52579280600197969593610dff93899692610e475750508160011b916000199060031b1c19161790565b83831b8201555b610e23604460248660051b6101a4350101356101a4350101611996565b92821b010190838060a01b03166001600160601b0360a01b82541617905501610d20565b013590508e8061095d565b918560011b8501835260208320925b601f1985168110610eb0575092600196959492879492859383601f19811610610e96575b505050811b0183831b820155610e06565b0135600019600384901b60f8161c191690558d8080610e85565b90926020600181928686013581550194019101610e61565b634e487b7160e01b82526041600452602482fd5b634e487b7160e01b81526032600452602490fd5b634e487b7160e01b81526041600452602490fd5b80fd5b5090610f326110f492866040519560018060a01b031686526101a060208701526101a0860191611943565b6001600160a01b0390911660408401528281036060840152610f6a610f5c600460843501806119b7565b60a0845260a0840191611943565b60843560248101356020840152604481013560408401529091906001600160a01b0390610f999060640161175e565b16606082015260806001600160601b036000961691015260a435608084015282810360a084015260c43560040135815260018060a01b03610fde602460c4350161175e565b1660208201526001600160a01b03610ffa60c43560440161175e565b16604082015261100e606460c435016119e8565b15156060820152608460c4350135608082015261102f60a460c435016119e8565b151560a082015261104360c48035016119e8565b151560c082015260c43560e481013560e083015261010481013561010083015261107090610124016119e8565b151561012082015261108761014460c435016119e8565b151561014082015261109e61016460c435016119e8565b15156101608201526110b561018460c435016119e8565b15156101808201526101a460c43501356101a08201526101e06110e36101c460c4350160c4356004016119b7565b919092816101c08201520191611943565b60e43560c0830152610104356001600160a01b0390811660e0840152610124351661010083015261014435610120830152610164356101408301526101843561016083015281810361018083015260046101a4359081013580835260051b820160209081019392602490920191859181015b6101a4356004013583106111a8575050505033917fbd69c56d9327c6470b8fb7c1c0d854d4a7f22cdc58dd964f14446f90f50de2fc60a435928034930390a480f35b90919294601f198382030182528535906062196101a43536030182121561121a57602080916001936101a4350190826111f56111e760248501806119b7565b604085526040850191611943565b926112086044888060a01b03920161175e565b16910152970192019301919092611166565b8780fd5b01359050898061095d565b6013899392930183526020832090835b601f198416851061127e576001945083601f19811610611264575b505050811b016013870155610c93565b0135600019600384901b60f8161c19169055888080611254565b81810135835560209485019460019093019201611239565b01359050888061095d565b6005889392930183526020832090835b601f19841685106112f6576001945083601f198116106112dc575b505050811b016005860155610a00565b0135600019600384901b60f8161c191690558780806112cc565b818101358355602094850194600190930192016112b1565b8382526020822091601f198416815b81811061135a5750908460019594939210611340575b505050811b019055610975565b0135600019600384901b60f8161c19169055888080611333565b9193602060018192878701358155019501920161131d565b90508801358b610903565b50818152602081209088601f198116825b8181106113c55750106113ab575b5050600187811b01905561091a565b87013560001960038a901b60f8161c19169055888061139c565b8a84013585556001909401936020938401938c93500161138e565b60405162461bcd60e51b8152602060048201526011602482015270105b1c9958591e4819195c1bdcda5d1959607a1b6044820152606490fd5b60405162461bcd60e51b8152602060048201526011602482015270125b9d985b1a59081c9958da5c1a595b9d607a1b6044820152606490fd5b60405162461bcd60e51b815260206004820152600c60248201526b04d7573742073656e642049560a41b6044820152606490fd5b3461073d57600036600319011261073d576000546040516001600160a01b039091168152602090f35b3461073d57604036600319011261073d576004356024356001600160401b03811161073d576114e2903690600401611731565b91906114f960018060a01b036000541633146117b3565b60008281526001602052604090205461151c906001600160a01b0316151561187f565b8160005260016020526002604060002001926001600160401b038111610727576115508161154a86546118b7565b866118f1565b600093601f82116001146115cb576115a182807f59312de486ee184a19a6b54efd1601a3acbc980daad1366a50ba250e76fee4e396976000916115c057508160011b916000199060031b1c19161790565b90555b6115bb604051928392602084526020840191611943565b0390a2005b905085013588610903565b80855260208520601f19831695805b8781106116355750837f59312de486ee184a19a6b54efd1601a3acbc980daad1366a50ba250e76fee4e396971061161b575b5050600182811b0190556115a4565b840135600019600385901b60f8161c19169055858061160c565b909160206001819285890135815501930191016115da565b3461073d57600036600319011261073d576000546001600160a01b03166116753382146117b3565b4790811561170157600080809381935af13d156116fc573d6001600160401b03811161072757604051906116b3601f8201601f19166020018361185e565b8152600060203d92013e5b156116c557005b60405162461bcd60e51b815260206004820152600f60248201526e151c985b9cd9995c8819985a5b1959608a1b6044820152606490fd5b6116be565b60405162461bcd60e51b81526020600482015260086024820152674e6f2066756e647360c01b6044820152606490fd5b9181601f8401121561073d578235916001600160401b03831161073d576020838186019501011161073d57565b35906001600160a01b038216820361073d57565b919082519283825260005b84811061179e575050826000602080949584010152601f8019910116010190565b8060208092840101518282860101520161177d565b156117ba57565b60405162461bcd60e51b815260206004820152600e60248201526d139bdd08185d5d1a1bdc9a5e995960921b6044820152606490fd5b61014081019081106001600160401b0382111761072757604052565b60a081019081106001600160401b0382111761072757604052565b6101e081019081106001600160401b0382111761072757604052565b60c081019081106001600160401b0382111761072757604052565b90601f801991011681019081106001600160401b0382111761072757604052565b1561188657565b60405162461bcd60e51b8152602060048201526009602482015268139bdd08199bdd5b9960ba1b6044820152606490fd5b90600182811c921680156118e7575b60208310146118d157565b634e487b7160e01b600052602260045260246000fd5b91607f16916118c6565b601f82116118fe57505050565b6000526020600020906020601f840160051c83019310611939575b601f0160051c01905b81811061192d575050565b60008155600101611922565b9091508190611919565b908060209392818452848401376000828201840152601f01601f1916010190565b903590601e198136030182121561073d57018035906001600160401b03821161073d5760200191813603831361073d57565b356001600160a01b038116810361073d5790565b35801515810361073d5790565b9035601e198236030181121561073d5701602081359101916001600160401b03821161073d57813603831361073d57565b3590811515820361073d57565b60009291815491611a05836118b7565b8083529260018116908115611a5b5750600114611a2157505050565b60009081526020812093945091925b838310611a41575060209250010190565b600181602092949394548385870101520191019190611a30565b915050602093945060ff929192191683830152151560051b01019056fea264697066735822122095932d9615aebb6d97f457b10b6557654376a980f6d32dc5984f02d525b61b3864736f6c634300081c0033","opcodes":"PUSH1 0x80 DUP1 PUSH1 0x40 MSTORE CALLVALUE PUSH1 0x27 JUMPI PUSH1 0x0 DUP1 SLOAD PUSH1 0x1 PUSH1 0x1 PUSH1 0xA0 SHL SUB NOT AND CALLER OR SWAP1 SSTORE PUSH2 0x1AAE SWAP1 DUP2 PUSH2 0x2D DUP3 CODECOPY RETURN JUMPDEST PUSH1 0x0 DUP1 REVERT INVALID PUSH1 0x80 PUSH1 0x40 MSTORE PUSH1 0x4 CALLDATASIZE LT ISZERO PUSH2 0x1B JUMPI JUMPDEST CALLDATASIZE ISZERO PUSH2 0x19 JUMPI PUSH1 0x0 DUP1 REVERT JUMPDEST STOP JUMPDEST PUSH1 0x0 CALLDATALOAD PUSH1 0xE0 SHR DUP1 PUSH4 0x24600FC3 EQ PUSH2 0x164D JUMPI DUP1 PUSH4 0x47934A07 EQ PUSH2 0x14AF JUMPI DUP1 PUSH4 0x8DA5CB5B EQ PUSH2 0x1486 JUMPI DUP1 PUSH4 0xB07D65EA EQ PUSH2 0x742 JUMPI PUSH4 0xB4CD21B4 SUB PUSH2 0xE JUMPI CALLVALUE PUSH2 0x73D JUMPI PUSH1 0x20 CALLDATASIZE PUSH1 0x3 NOT ADD SLT PUSH2 0x73D JUMPI PUSH1 0x4 CALLDATALOAD PUSH1 0x60 PUSH2 0x120 PUSH1 0x40 MLOAD PUSH2 0x7C DUP2 PUSH2 0x17F0 JUMP JUMPDEST PUSH1 0x0 DUP2 MSTORE PUSH1 0x0 PUSH1 0x20 DUP3 ADD MSTORE DUP3 PUSH1 0x40 DUP3 ADD MSTORE DUP3 DUP1 DUP3 ADD MSTORE PUSH1 0x0 PUSH1 0x80 DUP3 ADD MSTORE PUSH1 0x40 MLOAD PUSH2 0xA5 DUP2 PUSH2 0x180C JUMP JUMPDEST DUP4 DUP2 MSTORE PUSH1 0x0 PUSH1 0x20 DUP3 ADD MSTORE PUSH1 0x0 PUSH1 0x40 DUP3 ADD MSTORE PUSH1 0x0 DUP5 DUP3 ADD MSTORE PUSH1 0x0 PUSH1 0x80 DUP3 ADD MSTORE PUSH1 0xA0 DUP3 ADD MSTORE PUSH1 0x0 PUSH1 0xC0 DUP3 ADD MSTORE PUSH1 0x40 MLOAD PUSH2 0xDB DUP2 PUSH2 0x1827 JUMP JUMPDEST PUSH1 0x0 DUP2 MSTORE PUSH1 0x0 PUSH1 0x20 DUP3 ADD MSTORE PUSH1 0x0 PUSH1 0x40 DUP3 ADD MSTORE PUSH1 0x0 DUP5 DUP3 ADD MSTORE PUSH1 0x0 PUSH1 0x80 DUP3 ADD MSTORE PUSH1 0x0 PUSH1 0xA0 DUP3 ADD MSTORE PUSH1 0x0 PUSH1 0xC0 DUP3 ADD MSTORE PUSH1 0x0 PUSH1 0xE0 DUP3 ADD MSTORE PUSH1 0x0 PUSH2 0x100 DUP3 ADD MSTORE PUSH1 0x0 DUP4 DUP3 ADD MSTORE PUSH1 0x0 PUSH2 0x140 DUP3 ADD MSTORE PUSH1 0x0 PUSH2 0x160 DUP3 ADD MSTORE PUSH1 0x0 PUSH2 0x180 DUP3 ADD MSTORE PUSH1 0x0 PUSH2 0x1A0 DUP3 ADD MSTORE DUP4 PUSH2 0x1C0 DUP3 ADD MSTORE PUSH1 0xE0 DUP3 ADD MSTORE PUSH1 0x40 MLOAD PUSH2 0x155 DUP2 PUSH2 0x1843 JUMP JUMPDEST PUSH1 0x0 DUP2 MSTORE PUSH1 0x0 PUSH1 0x20 DUP3 ADD MSTORE PUSH1 0x0 PUSH1 0x40 DUP3 ADD MSTORE PUSH1 0x0 DUP5 DUP3 ADD MSTORE PUSH1 0x0 PUSH1 0x80 DUP3 ADD MSTORE PUSH1 0x0 PUSH1 0xA0 DUP3 ADD MSTORE PUSH2 0x100 DUP3 ADD MSTORE ADD MSTORE DUP1 PUSH1 0x0 MSTORE PUSH1 0x1 PUSH1 0x20 MSTORE PUSH2 0x1A4 PUSH1 0x1 DUP1 PUSH1 0xA0 SHL SUB PUSH1 0x40 PUSH1 0x0 KECCAK256 SLOAD AND ISZERO ISZERO PUSH2 0x187F JUMP JUMPDEST PUSH1 0x0 MSTORE PUSH1 0x1 PUSH1 0x20 MSTORE PUSH1 0x40 PUSH1 0x0 KECCAK256 PUSH1 0x40 MLOAD SWAP1 PUSH2 0x1BE DUP3 PUSH2 0x17F0 JUMP JUMPDEST DUP1 SLOAD PUSH1 0x1 PUSH1 0x1 PUSH1 0xA0 SHL SUB SWAP1 DUP2 AND DUP4 MSTORE PUSH1 0x1 DUP3 ADD SLOAD AND PUSH1 0x20 DUP4 ADD SWAP1 DUP2 MSTORE PUSH1 0x40 MLOAD PUSH2 0x1F5 DUP2 PUSH2 0x1EE DUP2 PUSH1 0x2 DUP8 ADD PUSH2 0x19F5 JUMP JUMPDEST SUB DUP3 PUSH2 0x185E JUMP JUMPDEST PUSH1 0x40 DUP5 ADD SWAP1 DUP2 MSTORE PUSH1 0x40 MLOAD SWAP1 PUSH2 0x218 DUP3 PUSH2 0x211 DUP2 PUSH1 0x3 DUP9 ADD PUSH2 0x19F5 JUMP JUMPDEST SUB DUP4 PUSH2 0x185E JUMP JUMPDEST PUSH1 0x60 DUP6 ADD SWAP2 DUP3 MSTORE PUSH1 0x4 DUP5 ADD SLOAD PUSH1 0x1 PUSH1 0x1 PUSH1 0xA0 SHL SUB AND PUSH1 0x80 DUP7 ADD SWAP1 DUP2 MSTORE PUSH1 0x40 MLOAD SWAP1 SWAP3 SWAP1 PUSH2 0x243 DUP2 PUSH2 0x180C JUMP JUMPDEST PUSH1 0x40 MLOAD PUSH2 0x257 DUP2 PUSH2 0x1EE DUP2 PUSH1 0x5 DUP12 ADD PUSH2 0x19F5 JUMP JUMPDEST DUP2 MSTORE PUSH1 0x6 DUP7 ADD SLOAD PUSH1 0x20 DUP3 ADD MSTORE PUSH1 0x7 DUP7 ADD SLOAD PUSH1 0x40 DUP3 ADD MSTORE PUSH1 0x8 DUP7 ADD SLOAD PUSH1 0x1 DUP1 PUSH1 0xA0 SHL SUB DUP2 AND PUSH1 0x60 DUP4 ADD MSTORE PUSH1 0xA0 SHR PUSH1 0x80 DUP3 ADD MSTORE PUSH1 0xA0 DUP8 ADD SWAP1 DUP2 MSTORE PUSH1 0x9 DUP7 ADD SLOAD SWAP2 PUSH1 0xC0 DUP9 ADD SWAP3 DUP4 MSTORE PUSH1 0x40 MLOAD SWAP4 PUSH2 0x2A9 DUP6 PUSH2 0x1827 JUMP JUMPDEST PUSH1 0xA DUP9 ADD SLOAD DUP6 MSTORE PUSH1 0x1 DUP1 PUSH1 0xA0 SHL SUB PUSH1 0xB DUP10 ADD SLOAD AND PUSH1 0x20 DUP7 ADD MSTORE PUSH1 0xFF PUSH1 0xC DUP10 ADD SLOAD PUSH1 0x1 DUP1 PUSH1 0xA0 SHL SUB DUP2 AND PUSH1 0x40 DUP9 ADD MSTORE PUSH1 0xA0 SHR AND ISZERO ISZERO PUSH1 0x60 DUP7 ADD MSTORE PUSH1 0xD DUP9 ADD SLOAD PUSH1 0x80 DUP7 ADD MSTORE PUSH1 0xFF PUSH1 0xE DUP10 ADD SLOAD DUP2 DUP2 AND ISZERO ISZERO PUSH1 0xA0 DUP9 ADD MSTORE PUSH1 0x8 SHR AND ISZERO ISZERO PUSH1 0xC0 DUP7 ADD MSTORE PUSH1 0xF DUP9 ADD SLOAD PUSH1 0xE0 DUP7 ADD MSTORE PUSH1 0x10 DUP9 ADD SLOAD PUSH2 0x100 DUP7 ADD MSTORE PUSH1 0xFF PUSH1 0x11 DUP10 ADD SLOAD DUP2 DUP2 AND ISZERO ISZERO PUSH2 0x120 DUP9 ADD MSTORE DUP2 DUP2 PUSH1 0x8 SHR AND ISZERO ISZERO PUSH2 0x140 DUP9 ADD MSTORE DUP2 DUP2 PUSH1 0x10 SHR AND ISZERO ISZERO PUSH2 0x160 DUP9 ADD MSTORE PUSH1 0x18 SHR AND ISZERO ISZERO PUSH2 0x180 DUP7 ADD MSTORE PUSH1 0x12 DUP9 ADD SLOAD PUSH2 0x1A0 DUP7 ADD MSTORE PUSH1 0x40 MLOAD PUSH2 0x376 DUP2 PUSH2 0x1EE DUP2 PUSH1 0x13 DUP14 ADD PUSH2 0x19F5 JUMP JUMPDEST PUSH2 0x1C0 DUP7 ADD MSTORE PUSH1 0xE0 DUP10 ADD SWAP5 DUP6 MSTORE PUSH1 0x1A PUSH1 0x40 MLOAD SWAP9 PUSH2 0x392 DUP11 PUSH2 0x1843 JUMP JUMPDEST PUSH1 0x14 DUP2 ADD SLOAD DUP11 MSTORE PUSH1 0x15 DUP2 ADD SLOAD PUSH1 0x1 PUSH1 0x1 PUSH1 0xA0 SHL SUB SWAP1 DUP2 AND PUSH1 0x20 DUP13 ADD MSTORE PUSH1 0x16 DUP3 ADD SLOAD AND PUSH1 0x40 DUP12 ADD MSTORE PUSH1 0x17 DUP2 ADD SLOAD PUSH1 0x60 DUP12 ADD MSTORE PUSH1 0x18 DUP2 ADD SLOAD PUSH1 0x80 DUP12 ADD MSTORE PUSH1 0x19 DUP2 ADD SLOAD PUSH1 0xA0 DUP12 ADD MSTORE PUSH2 0x100 DUP12 ADD SWAP10 DUP11 MSTORE ADD DUP1 SLOAD SWAP8 SWAP1 PUSH1 0x1 PUSH1 0x1 PUSH1 0x40 SHL SUB DUP10 GT PUSH2 0x727 JUMPI PUSH1 0x40 SWAP11 SWAP10 SWAP9 SWAP8 SWAP7 SWAP6 SWAP5 SWAP4 SWAP3 SWAP2 SWAP11 MLOAD SWAP8 PUSH2 0x411 PUSH1 0x20 DUP3 PUSH1 0x5 SHL ADD DUP11 PUSH2 0x185E JUMP JUMPDEST DUP1 DUP10 MSTORE PUSH1 0x20 DUP10 ADD SWAP2 PUSH1 0x0 MSTORE PUSH1 0x20 PUSH1 0x0 KECCAK256 SWAP2 PUSH1 0x0 SWAP1 JUMPDEST DUP3 DUP3 LT PUSH2 0x6BC JUMPI POP POP POP POP PUSH2 0x120 DUP10 ADD SWAP7 DUP8 MSTORE PUSH1 0x40 MLOAD SWAP10 DUP11 SWAP10 PUSH1 0x20 DUP12 MSTORE PUSH1 0x1 PUSH1 0xA0 SHL PUSH1 0x1 SWAP1 SUB SWAP1 MLOAD AND PUSH1 0x20 DUP12 ADD MSTORE PUSH1 0x1 PUSH1 0xA0 SHL PUSH1 0x1 SWAP1 SUB SWAP1 MLOAD AND PUSH1 0x40 DUP11 ADD MSTORE MLOAD PUSH1 0x60 DUP10 ADD PUSH2 0x1E0 SWAP1 MSTORE PUSH2 0x200 DUP10 ADD PUSH2 0x47D SWAP2 PUSH2 0x1772 JUMP JUMPDEST SWAP1 MLOAD DUP9 DUP3 SUB PUSH1 0x1F NOT ADD PUSH1 0x80 DUP11 ADD MSTORE PUSH2 0x495 SWAP2 SWAP1 PUSH2 0x1772 JUMP JUMPDEST SWAP4 PUSH1 0x1 PUSH1 0xA0 SHL PUSH1 0x1 SWAP1 SUB SWAP1 MLOAD AND PUSH1 0xA0 DUP9 ADD MSTORE MLOAD SWAP3 PUSH1 0x1F NOT DUP8 DUP3 SUB ADD PUSH1 0xC0 DUP9 ADD MSTORE DUP4 MLOAD PUSH1 0xA0 DUP3 MSTORE PUSH1 0xA0 DUP3 ADD PUSH2 0x4C8 SWAP2 PUSH2 0x1772 JUMP JUMPDEST SWAP4 PUSH1 0x20 DUP2 ADD MLOAD PUSH1 0x20 DUP4 ADD MSTORE PUSH1 0x40 DUP2 ADD MLOAD PUSH1 0x40 DUP4 ADD MSTORE PUSH1 0x1 PUSH1 0xA0 SHL PUSH1 0x1 SWAP1 SUB PUSH1 0x60 DUP3 ADD MLOAD AND PUSH1 0x60 DUP4 ADD MSTORE PUSH1 0x80 ADD MLOAD PUSH1 0x1 PUSH1 0x1 PUSH1 0x60 SHL SUB AND SWAP1 PUSH1 0x80 ADD MSTORE MLOAD PUSH1 0xE0 DUP7 ADD MSTORE MLOAD PUSH1 0x1F NOT DUP6 DUP4 SUB ADD PUSH2 0x100 DUP7 ADD MSTORE DUP1 MLOAD DUP3 MSTORE PUSH1 0x1 PUSH1 0xA0 SHL PUSH1 0x1 SWAP1 SUB PUSH1 0x20 DUP3 ADD MLOAD AND PUSH1 0x20 DUP4 ADD MSTORE PUSH1 0x1 PUSH1 0xA0 SHL PUSH1 0x1 SWAP1 SUB PUSH1 0x40 DUP3 ADD MLOAD AND PUSH1 0x40 DUP4 ADD MSTORE PUSH1 0x60 DUP2 ADD MLOAD ISZERO ISZERO PUSH1 0x60 DUP4 ADD MSTORE PUSH1 0x80 DUP2 ADD MLOAD PUSH1 0x80 DUP4 ADD MSTORE PUSH1 0xA0 DUP2 ADD MLOAD ISZERO ISZERO PUSH1 0xA0 DUP4 ADD MSTORE PUSH1 0xC0 DUP2 ADD MLOAD ISZERO ISZERO PUSH1 0xC0 DUP4 ADD MSTORE PUSH1 0xE0 DUP2 ADD MLOAD PUSH1 0xE0 DUP4 ADD MSTORE PUSH2 0x100 DUP2 ADD MLOAD PUSH2 0x100 DUP4 ADD MSTORE PUSH2 0x120 DUP2 ADD MLOAD ISZERO ISZERO PUSH2 0x120 DUP4 ADD MSTORE PUSH2 0x140 DUP2 ADD MLOAD ISZERO ISZERO PUSH2 0x140 DUP4 ADD MSTORE PUSH2 0x160 DUP2 ADD MLOAD ISZERO ISZERO PUSH2 0x160 DUP4 ADD MSTORE PUSH2 0x180 DUP2 ADD MLOAD ISZERO ISZERO PUSH2 0x180 DUP4 ADD MSTORE PUSH2 0x1A0 DUP2 ADD MLOAD PUSH2 0x1A0 DUP4 ADD MSTORE PUSH2 0x1C0 ADD MLOAD SWAP1 PUSH2 0x1C0 DUP2 ADD PUSH2 0x1E0 SWAP1 MSTORE PUSH2 0x1E0 ADD PUSH2 0x5E8 SWAP2 PUSH2 0x1772 JUMP JUMPDEST SWAP2 MLOAD DUP1 MLOAD PUSH2 0x120 DUP6 ADD MSTORE PUSH1 0x20 DUP1 DUP3 ADD MLOAD PUSH1 0x1 PUSH1 0x1 PUSH1 0xA0 SHL SUB SWAP1 DUP2 AND PUSH2 0x140 DUP8 ADD MSTORE PUSH1 0x40 DUP4 ADD MLOAD AND PUSH2 0x160 DUP7 ADD MSTORE PUSH1 0x60 DUP3 ADD MLOAD PUSH2 0x180 DUP7 ADD MSTORE PUSH1 0x80 DUP3 ADD MLOAD PUSH2 0x1A0 DUP7 ADD MSTORE PUSH1 0xA0 SWAP1 SWAP2 ADD MLOAD PUSH2 0x1C0 DUP6 ADD MSTORE SWAP1 MLOAD DUP4 DUP4 SUB PUSH1 0x1F NOT ADD PUSH2 0x1E0 DUP6 ADD MSTORE DUP1 MLOAD DUP1 DUP5 MSTORE PUSH1 0x5 DUP2 SWAP1 SHL DUP5 ADD DUP4 ADD SWAP4 SWAP2 DUP4 ADD SWAP3 SWAP1 SWAP2 PUSH1 0x0 SWAP2 DUP2 ADD SWAP1 JUMPDEST DUP4 DUP4 LT PUSH2 0x66F JUMPI DUP7 DUP7 SUB DUP8 RETURN JUMPDEST SWAP2 SWAP4 SWAP6 POP SWAP2 SWAP4 PUSH1 0x20 DUP1 PUSH1 0x1 SWAP3 PUSH1 0x1F NOT DUP6 DUP3 SUB ADD DUP7 MSTORE DUP9 MLOAD SWAP1 DUP3 PUSH2 0x69B DUP4 MLOAD PUSH1 0x40 DUP5 MSTORE PUSH1 0x40 DUP5 ADD SWAP1 PUSH2 0x1772 JUMP JUMPDEST SWAP3 DUP2 DUP8 DUP1 PUSH1 0xA0 SHL SUB SWAP2 ADD MLOAD AND SWAP2 ADD MSTORE SWAP8 ADD SWAP4 ADD SWAP4 ADD SWAP1 SWAP3 DUP7 SWAP6 SWAP5 SWAP3 SWAP4 PUSH2 0x662 JUMP JUMPDEST PUSH1 0x40 SWAP14 SWAP5 SWAP6 SWAP7 SWAP8 SWAP9 SWAP10 SWAP11 SWAP12 SWAP13 SWAP14 MLOAD PUSH1 0x40 DUP2 ADD DUP2 DUP2 LT PUSH1 0x1 PUSH1 0x1 PUSH1 0x40 SHL SUB DUP3 GT OR PUSH2 0x727 JUMPI PUSH1 0x1 SWAP3 PUSH1 0x2 SWAP3 PUSH1 0x20 SWAP3 PUSH1 0x40 MSTORE PUSH1 0x40 MLOAD PUSH2 0x6FD DUP2 PUSH2 0x1EE DUP2 DUP13 PUSH2 0x19F5 JUMP JUMPDEST DUP2 MSTORE DUP5 DUP1 PUSH1 0xA0 SHL SUB DUP6 DUP10 ADD SLOAD AND DUP4 DUP3 ADD MSTORE DUP2 MSTORE ADD SWAP5 ADD SWAP2 ADD SWAP1 SWAP3 SWAP13 SWAP12 SWAP11 SWAP10 SWAP9 SWAP8 SWAP7 SWAP6 SWAP5 SWAP4 SWAP13 PUSH2 0x426 JUMP JUMPDEST PUSH4 0x4E487B71 PUSH1 0xE0 SHL PUSH1 0x0 MSTORE PUSH1 0x41 PUSH1 0x4 MSTORE PUSH1 0x24 PUSH1 0x0 REVERT JUMPDEST PUSH1 0x0 DUP1 REVERT JUMPDEST PUSH2 0x1C0 CALLDATASIZE PUSH1 0x3 NOT ADD SLT PUSH2 0x73D JUMPI PUSH1 0x4 CALLDATALOAD PUSH1 0x1 PUSH1 0x1 PUSH1 0xA0 SHL SUB DUP2 AND DUP2 SUB PUSH2 0x73D JUMPI PUSH1 0x24 CALLDATALOAD PUSH1 0x1 PUSH1 0x1 PUSH1 0x40 SHL SUB DUP2 GT PUSH2 0x73D JUMPI PUSH2 0x781 SWAP1 CALLDATASIZE SWAP1 PUSH1 0x4 ADD PUSH2 0x1731 JUMP JUMPDEST SWAP1 PUSH1 0x44 CALLDATALOAD PUSH1 0x1 PUSH1 0x1 PUSH1 0x40 SHL SUB DUP2 GT PUSH2 0x73D JUMPI PUSH2 0x7A1 SWAP1 CALLDATASIZE SWAP1 PUSH1 0x4 ADD PUSH2 0x1731 JUMP JUMPDEST SWAP4 SWAP1 PUSH1 0x64 CALLDATALOAD SWAP1 PUSH1 0x1 PUSH1 0x1 PUSH1 0xA0 SHL SUB DUP3 AND DUP3 SUB PUSH2 0x73D JUMPI PUSH1 0x1 PUSH1 0x1 PUSH1 0x40 SHL SUB PUSH1 0x84 CALLDATALOAD GT PUSH2 0x73D JUMPI PUSH1 0xA0 PUSH1 0x84 CALLDATALOAD CALLDATASIZE SUB PUSH1 0x3 NOT ADD SLT PUSH2 0x73D JUMPI PUSH1 0x1 PUSH1 0x1 PUSH1 0x40 SHL SUB PUSH1 0xC4 CALLDATALOAD GT PUSH2 0x73D JUMPI PUSH2 0x1E0 PUSH1 0xC4 CALLDATALOAD CALLDATASIZE SUB PUSH1 0x3 NOT ADD SLT PUSH2 0x73D JUMPI PUSH1 0xC0 CALLDATASIZE PUSH1 0xE3 NOT ADD SLT PUSH2 0x73D JUMPI PUSH1 0x1 PUSH1 0x1 PUSH1 0x40 SHL SUB PUSH2 0x1A4 CALLDATALOAD GT PUSH2 0x73D JUMPI CALLDATASIZE PUSH1 0x23 PUSH2 0x1A4 CALLDATALOAD ADD SLT ISZERO PUSH2 0x73D JUMPI PUSH1 0x1 PUSH1 0x1 PUSH1 0x40 SHL SUB PUSH2 0x1A4 CALLDATALOAD PUSH1 0x4 ADD CALLDATALOAD GT PUSH2 0x73D JUMPI CALLDATASIZE PUSH1 0x24 PUSH2 0x1A4 CALLDATALOAD PUSH1 0x4 ADD CALLDATALOAD PUSH1 0x5 SHL PUSH2 0x1A4 CALLDATALOAD ADD ADD GT PUSH2 0x73D JUMPI CALLVALUE ISZERO PUSH2 0x1452 JUMPI PUSH1 0x1 PUSH1 0x1 PUSH1 0xA0 SHL SUB DUP4 AND ISZERO PUSH2 0x1419 JUMPI PUSH1 0xA4 CALLDATALOAD PUSH1 0x0 SWAP1 DUP2 MSTORE PUSH1 0x1 PUSH1 0x20 MSTORE PUSH1 0x40 SWAP1 KECCAK256 SLOAD PUSH1 0x1 PUSH1 0x1 PUSH1 0xA0 SHL SUB AND PUSH2 0x13E0 JUMPI PUSH1 0xA4 CALLDATALOAD PUSH1 0x0 SWAP1 DUP2 MSTORE PUSH1 0x1 PUSH1 0x20 DUP2 SWAP1 MSTORE PUSH1 0x40 SWAP1 SWAP2 KECCAK256 DUP1 SLOAD PUSH1 0x1 PUSH1 0x1 PUSH1 0xA0 SHL SUB NOT SWAP1 DUP2 AND CALLER OR DUP3 SSTORE SWAP2 DUP2 ADD DUP1 SLOAD SWAP1 SWAP3 AND PUSH1 0x1 PUSH1 0x1 PUSH1 0xA0 SHL SUB DUP7 AND OR SWAP1 SWAP2 SSTORE SWAP6 PUSH1 0x2 DUP8 ADD PUSH1 0x1 PUSH1 0x1 PUSH1 0x40 SHL SUB DUP8 GT PUSH2 0x727 JUMPI PUSH2 0x8E8 DUP8 PUSH2 0x8E2 DUP4 SLOAD PUSH2 0x18B7 JUMP JUMPDEST DUP4 PUSH2 0x18F1 JUMP JUMPDEST PUSH1 0x0 DUP8 PUSH1 0x1F DUP2 GT PUSH1 0x1 EQ PUSH2 0x137D JUMPI DUP1 PUSH2 0x917 SWAP3 PUSH1 0x0 SWAP2 PUSH2 0x1372 JUMPI JUMPDEST POP DUP2 PUSH1 0x1 SHL SWAP2 PUSH1 0x0 NOT SWAP1 PUSH1 0x3 SHL SHR NOT AND OR SWAP1 JUMP JUMPDEST SWAP1 SSTORE JUMPDEST PUSH1 0x3 DUP8 ADD SWAP2 PUSH1 0x1 PUSH1 0x1 PUSH1 0x40 SHL SUB DUP3 GT PUSH2 0x727 JUMPI PUSH2 0x941 DUP3 PUSH2 0x93B DUP6 SLOAD PUSH2 0x18B7 JUMP JUMPDEST DUP6 PUSH2 0x18F1 JUMP JUMPDEST PUSH1 0x0 SWAP1 PUSH1 0x1F DUP4 GT PUSH1 0x1 EQ PUSH2 0x130E JUMPI PUSH2 0x972 SWAP3 SWAP2 PUSH1 0x0 SWAP2 DUP4 PUSH2 0x121E JUMPI JUMPDEST POP POP DUP2 PUSH1 0x1 SHL SWAP2 PUSH1 0x0 NOT SWAP1 PUSH1 0x3 SHL SHR NOT AND OR SWAP1 JUMP JUMPDEST SWAP1 SSTORE JUMPDEST PUSH1 0x4 DUP6 DUP2 ADD DUP1 SLOAD PUSH1 0x1 PUSH1 0x1 PUSH1 0xA0 SHL SUB NOT AND PUSH1 0x1 PUSH1 0x1 PUSH1 0xA0 SHL SUB DUP5 AND OR SWAP1 SSTORE PUSH2 0x9A1 SWAP1 PUSH1 0x84 CALLDATALOAD ADD DUP1 PUSH2 0x1964 JUMP JUMPDEST SWAP1 PUSH1 0x1 PUSH1 0x1 PUSH1 0x40 SHL SUB DUP3 GT PUSH2 0x727 JUMPI PUSH2 0x9CA DUP3 PUSH2 0x9C1 PUSH1 0x5 DUP11 ADD SLOAD PUSH2 0x18B7 JUMP JUMPDEST PUSH1 0x5 DUP11 ADD PUSH2 0x18F1 JUMP JUMPDEST PUSH1 0x0 SWAP1 PUSH1 0x1F DUP4 GT PUSH1 0x1 EQ PUSH2 0x12A1 JUMPI PUSH2 0x9FA SWAP3 SWAP2 PUSH1 0x0 SWAP2 DUP4 PUSH2 0x1296 JUMPI POP POP DUP2 PUSH1 0x1 SHL SWAP2 PUSH1 0x0 NOT SWAP1 PUSH1 0x3 SHL SHR NOT AND OR SWAP1 JUMP JUMPDEST PUSH1 0x5 DUP7 ADD SSTORE JUMPDEST PUSH1 0x84 CALLDATALOAD PUSH1 0x24 DUP2 ADD CALLDATALOAD PUSH1 0x6 DUP8 ADD SSTORE PUSH1 0x44 DUP2 ADD CALLDATALOAD PUSH1 0x7 DUP8 ADD SSTORE PUSH1 0x8 DUP7 ADD SWAP4 SWAP1 PUSH1 0x1 PUSH1 0x1 PUSH1 0xA0 SHL SUB SWAP1 PUSH2 0xA32 SWAP1 PUSH1 0x64 ADD PUSH2 0x1996 JUMP JUMPDEST DUP6 SLOAD PUSH1 0x1 PUSH1 0x1 PUSH1 0xA0 SHL SUB NOT AND SWAP2 AND OR DUP5 SSTORE PUSH1 0x84 DUP1 CALLDATALOAD ADD CALLDATALOAD SWAP4 PUSH1 0x1 PUSH1 0x1 PUSH1 0x60 SHL SUB DUP6 AND DUP6 SUB PUSH2 0x73D JUMPI DUP1 SLOAD PUSH1 0x1 PUSH1 0x1 PUSH1 0xA0 SHL SUB AND PUSH1 0xA0 DUP7 SWAP1 SHL PUSH1 0x1 PUSH1 0x1 PUSH1 0xA0 SHL SUB NOT AND OR SWAP1 SSTORE PUSH1 0xA4 CALLDATALOAD PUSH1 0x9 DUP8 ADD SSTORE PUSH1 0x4 PUSH1 0xC4 CALLDATALOAD SWAP1 DUP2 ADD CALLDATALOAD PUSH1 0xA DUP9 ADD SSTORE PUSH2 0xA99 SWAP1 PUSH1 0x24 ADD PUSH2 0x1996 JUMP JUMPDEST PUSH1 0xB DUP8 ADD DUP1 SLOAD PUSH1 0x1 PUSH1 0x1 PUSH1 0xA0 SHL SUB NOT AND PUSH1 0x1 PUSH1 0x1 PUSH1 0xA0 SHL SUB SWAP3 DUP4 AND OR SWAP1 SSTORE PUSH1 0xC DUP8 ADD SWAP1 PUSH2 0xACA PUSH1 0xC4 CALLDATALOAD PUSH1 0x44 ADD PUSH2 0x1996 JUMP JUMPDEST DUP3 SLOAD PUSH1 0x1 PUSH1 0x1 PUSH1 0xA0 SHL SUB NOT AND SWAP2 AND OR DUP2 SSTORE PUSH2 0xAE9 PUSH1 0xC4 CALLDATALOAD PUSH1 0x64 ADD PUSH2 0x19AA JUMP JUMPDEST DUP2 SLOAD PUSH1 0xFF PUSH1 0xA0 SHL NOT AND SWAP1 ISZERO ISZERO PUSH1 0xA0 SHL PUSH1 0xFF PUSH1 0xA0 SHL AND OR SWAP1 SSTORE PUSH1 0xC4 CALLDATALOAD PUSH1 0x84 DUP2 ADD CALLDATALOAD PUSH1 0xD DUP9 ADD SSTORE PUSH2 0xB5C SWAP1 PUSH1 0xE DUP9 ADD SWAP1 PUSH2 0xB39 SWAP1 PUSH2 0xB27 SWAP1 PUSH1 0xA4 ADD PUSH2 0x19AA JUMP JUMPDEST DUP3 SWAP1 PUSH1 0xFF DUP1 NOT DUP4 SLOAD AND SWAP2 ISZERO ISZERO AND OR SWAP1 SSTORE JUMP JUMPDEST PUSH2 0xB46 PUSH1 0xC4 DUP1 CALLDATALOAD ADD PUSH2 0x19AA JUMP JUMPDEST DUP2 SLOAD PUSH2 0xFF00 NOT AND SWAP1 ISZERO ISZERO PUSH1 0x8 SHL PUSH2 0xFF00 AND OR SWAP1 SSTORE JUMP JUMPDEST PUSH1 0xE4 PUSH1 0xC4 CALLDATALOAD ADD CALLDATALOAD PUSH1 0xF DUP8 ADD SSTORE PUSH2 0x104 PUSH1 0xC4 CALLDATALOAD ADD CALLDATALOAD PUSH1 0x10 DUP8 ADD SSTORE PUSH2 0xB9C PUSH2 0xB87 PUSH2 0x124 PUSH1 0xC4 CALLDATALOAD ADD PUSH2 0x19AA JUMP JUMPDEST PUSH1 0x11 DUP9 ADD SWAP1 PUSH1 0xFF DUP1 NOT DUP4 SLOAD AND SWAP2 ISZERO ISZERO AND OR SWAP1 SSTORE JUMP JUMPDEST PUSH2 0xBCA PUSH2 0xBAE PUSH2 0x144 PUSH1 0xC4 CALLDATALOAD ADD PUSH2 0x19AA JUMP JUMPDEST PUSH1 0x11 DUP9 ADD SWAP1 PUSH2 0xFF00 DUP3 SLOAD SWAP2 ISZERO ISZERO PUSH1 0x8 SHL AND SWAP1 PUSH2 0xFF00 NOT AND OR SWAP1 SSTORE JUMP JUMPDEST PUSH2 0xBD9 PUSH2 0x164 PUSH1 0xC4 CALLDATALOAD ADD PUSH2 0x19AA JUMP JUMPDEST ISZERO ISZERO PUSH1 0x11 DUP8 ADD SLOAD PUSH3 0xFF0000 PUSH4 0xFF000000 PUSH2 0xBF8 PUSH2 0x184 PUSH1 0xC4 CALLDATALOAD ADD PUSH2 0x19AA JUMP JUMPDEST ISZERO ISZERO PUSH1 0x18 SHL AND SWAP3 PUSH1 0x10 SHL AND SWAP1 PUSH4 0xFFFF0000 NOT AND OR OR PUSH1 0x11 DUP8 ADD SSTORE PUSH2 0x1A4 PUSH1 0xC4 CALLDATALOAD ADD CALLDATALOAD PUSH1 0x12 DUP8 ADD SSTORE PUSH2 0xC34 PUSH2 0x1C4 PUSH1 0xC4 CALLDATALOAD ADD PUSH1 0xC4 CALLDATALOAD PUSH1 0x4 ADD PUSH2 0x1964 JUMP JUMPDEST SWAP1 PUSH1 0x1 PUSH1 0x1 PUSH1 0x40 SHL SUB DUP3 GT PUSH2 0x727 JUMPI PUSH2 0xC5D DUP3 PUSH2 0xC54 PUSH1 0x13 DUP12 ADD SLOAD PUSH2 0x18B7 JUMP JUMPDEST PUSH1 0x13 DUP12 ADD PUSH2 0x18F1 JUMP JUMPDEST PUSH1 0x0 SWAP1 PUSH1 0x1F DUP4 GT PUSH1 0x1 EQ PUSH2 0x1229 JUMPI PUSH2 0xC8D SWAP3 SWAP2 PUSH1 0x0 SWAP2 DUP4 PUSH2 0x121E JUMPI POP POP DUP2 PUSH1 0x1 SHL SWAP2 PUSH1 0x0 NOT SWAP1 PUSH1 0x3 SHL SHR NOT AND OR SWAP1 JUMP JUMPDEST PUSH1 0x13 DUP8 ADD SSTORE JUMPDEST PUSH1 0xE4 CALLDATALOAD PUSH1 0x14 DUP8 ADD SSTORE PUSH2 0x104 CALLDATALOAD PUSH1 0x1 PUSH1 0x1 PUSH1 0xA0 SHL SUB DUP2 AND SWAP1 SUB PUSH2 0x73D JUMPI PUSH1 0x15 DUP7 ADD DUP1 SLOAD PUSH1 0x1 PUSH1 0x1 PUSH1 0xA0 SHL SUB NOT AND PUSH2 0x104 CALLDATALOAD PUSH1 0x1 PUSH1 0x1 PUSH1 0xA0 SHL SUB SWAP1 DUP2 AND SWAP2 SWAP1 SWAP2 OR SWAP1 SWAP2 SSTORE PUSH2 0x124 CALLDATALOAD SWAP1 DUP2 AND SWAP1 SUB PUSH2 0x73D JUMPI PUSH1 0x16 DUP7 ADD DUP1 SLOAD PUSH1 0x1 PUSH1 0x1 PUSH1 0xA0 SHL SUB NOT AND PUSH2 0x124 CALLDATALOAD PUSH1 0x1 PUSH1 0x1 PUSH1 0xA0 SHL SUB AND OR SWAP1 SSTORE PUSH2 0x144 CALLDATALOAD PUSH1 0x17 DUP8 ADD SSTORE PUSH2 0x164 CALLDATALOAD PUSH1 0x18 DUP8 ADD SSTORE PUSH2 0x184 CALLDATALOAD PUSH1 0x19 DUP8 ADD SSTORE PUSH1 0x0 JUMPDEST PUSH2 0x1A4 CALLDATALOAD PUSH1 0x4 ADD CALLDATALOAD DUP2 LT ISZERO PUSH2 0xF07 JUMPI PUSH1 0x0 PUSH1 0x62 NOT PUSH2 0x1A4 CALLDATALOAD CALLDATASIZE SUB ADD PUSH1 0x24 DUP4 PUSH1 0x5 SHL PUSH2 0x1A4 CALLDATALOAD ADD ADD CALLDATALOAD SLT ISZERO PUSH2 0xF04 JUMPI PUSH1 0x1A DUP9 ADD SLOAD SWAP1 PUSH9 0x10000000000000000 DUP3 LT ISZERO PUSH2 0xEF0 JUMPI PUSH1 0x1 DUP3 ADD DUP1 PUSH1 0x1A DUP12 ADD SSTORE DUP3 LT ISZERO PUSH2 0xEDC JUMPI PUSH1 0x1A DUP10 ADD DUP2 MSTORE PUSH1 0x20 DUP2 KECCAK256 SWAP1 PUSH2 0xD9D PUSH1 0x24 PUSH1 0x5 DUP7 SWAP1 SHL PUSH2 0x1A4 CALLDATALOAD SWAP1 DUP2 ADD DUP3 ADD CALLDATALOAD ADD ADD DUP1 PUSH2 0x1964 JUMP JUMPDEST SWAP2 SWAP1 PUSH1 0x1 PUSH1 0x1 PUSH1 0x40 SHL SUB DUP4 GT PUSH2 0xEC8 JUMPI PUSH2 0xDCB DUP4 PUSH2 0xDC0 DUP8 PUSH1 0x1 SHL DUP8 ADD SLOAD PUSH2 0x18B7 JUMP JUMPDEST DUP8 PUSH1 0x1 SHL DUP8 ADD PUSH2 0x18F1 JUMP JUMPDEST DUP2 PUSH1 0x1F DUP5 GT PUSH1 0x1 EQ PUSH2 0xE52 JUMPI SWAP3 DUP1 PUSH1 0x1 SWAP8 SWAP7 SWAP6 SWAP4 PUSH2 0xDFF SWAP4 DUP10 SWAP7 SWAP3 PUSH2 0xE47 JUMPI POP POP DUP2 PUSH1 0x1 SHL SWAP2 PUSH1 0x0 NOT SWAP1 PUSH1 0x3 SHL SHR NOT AND OR SWAP1 JUMP JUMPDEST DUP4 DUP4 SHL DUP3 ADD SSTORE JUMPDEST PUSH2 0xE23 PUSH1 0x44 PUSH1 0x24 DUP7 PUSH1 0x5 SHL PUSH2 0x1A4 CALLDATALOAD ADD ADD CALLDATALOAD PUSH2 0x1A4 CALLDATALOAD ADD ADD PUSH2 0x1996 JUMP JUMPDEST SWAP3 DUP3 SHL ADD ADD SWAP1 DUP4 DUP1 PUSH1 0xA0 SHL SUB AND PUSH1 0x1 PUSH1 0x1 PUSH1 0x60 SHL SUB PUSH1 0xA0 SHL DUP3 SLOAD AND OR SWAP1 SSTORE ADD PUSH2 0xD20 JUMP JUMPDEST ADD CALLDATALOAD SWAP1 POP DUP15 DUP1 PUSH2 0x95D JUMP JUMPDEST SWAP2 DUP6 PUSH1 0x1 SHL DUP6 ADD DUP4 MSTORE PUSH1 0x20 DUP4 KECCAK256 SWAP3 JUMPDEST PUSH1 0x1F NOT DUP6 AND DUP2 LT PUSH2 0xEB0 JUMPI POP SWAP3 PUSH1 0x1 SWAP7 SWAP6 SWAP5 SWAP3 DUP8 SWAP5 SWAP3 DUP6 SWAP4 DUP4 PUSH1 0x1F NOT DUP2 AND LT PUSH2 0xE96 JUMPI JUMPDEST POP POP POP DUP2 SHL ADD DUP4 DUP4 SHL DUP3 ADD SSTORE PUSH2 0xE06 JUMP JUMPDEST ADD CALLDATALOAD PUSH1 0x0 NOT PUSH1 0x3 DUP5 SWAP1 SHL PUSH1 0xF8 AND SHR NOT AND SWAP1 SSTORE DUP14 DUP1 DUP1 PUSH2 0xE85 JUMP JUMPDEST SWAP1 SWAP3 PUSH1 0x20 PUSH1 0x1 DUP2 SWAP3 DUP7 DUP7 ADD CALLDATALOAD DUP2 SSTORE ADD SWAP5 ADD SWAP2 ADD PUSH2 0xE61 JUMP JUMPDEST PUSH4 0x4E487B71 PUSH1 0xE0 SHL DUP3 MSTORE PUSH1 0x41 PUSH1 0x4 MSTORE PUSH1 0x24 DUP3 REVERT JUMPDEST PUSH4 0x4E487B71 PUSH1 0xE0 SHL DUP2 MSTORE PUSH1 0x32 PUSH1 0x4 MSTORE PUSH1 0x24 SWAP1 REVERT JUMPDEST PUSH4 0x4E487B71 PUSH1 0xE0 SHL DUP2 MSTORE PUSH1 0x41 PUSH1 0x4 MSTORE PUSH1 0x24 SWAP1 REVERT JUMPDEST DUP1 REVERT JUMPDEST POP SWAP1 PUSH2 0xF32 PUSH2 0x10F4 SWAP3 DUP7 PUSH1 0x40 MLOAD SWAP6 PUSH1 0x1 DUP1 PUSH1 0xA0 SHL SUB AND DUP7 MSTORE PUSH2 0x1A0 PUSH1 0x20 DUP8 ADD MSTORE PUSH2 0x1A0 DUP7 ADD SWAP2 PUSH2 0x1943 JUMP JUMPDEST PUSH1 0x1 PUSH1 0x1 PUSH1 0xA0 SHL SUB SWAP1 SWAP2 AND PUSH1 0x40 DUP5 ADD MSTORE DUP3 DUP2 SUB PUSH1 0x60 DUP5 ADD MSTORE PUSH2 0xF6A PUSH2 0xF5C PUSH1 0x4 PUSH1 0x84 CALLDATALOAD ADD DUP1 PUSH2 0x19B7 JUMP JUMPDEST PUSH1 0xA0 DUP5 MSTORE PUSH1 0xA0 DUP5 ADD SWAP2 PUSH2 0x1943 JUMP JUMPDEST PUSH1 0x84 CALLDATALOAD PUSH1 0x24 DUP2 ADD CALLDATALOAD PUSH1 0x20 DUP5 ADD MSTORE PUSH1 0x44 DUP2 ADD CALLDATALOAD PUSH1 0x40 DUP5 ADD MSTORE SWAP1 SWAP2 SWAP1 PUSH1 0x1 PUSH1 0x1 PUSH1 0xA0 SHL SUB SWAP1 PUSH2 0xF99 SWAP1 PUSH1 0x64 ADD PUSH2 0x175E JUMP JUMPDEST AND PUSH1 0x60 DUP3 ADD MSTORE PUSH1 0x80 PUSH1 0x1 PUSH1 0x1 PUSH1 0x60 SHL SUB PUSH1 0x0 SWAP7 AND SWAP2 ADD MSTORE PUSH1 0xA4 CALLDATALOAD PUSH1 0x80 DUP5 ADD MSTORE DUP3 DUP2 SUB PUSH1 0xA0 DUP5 ADD MSTORE PUSH1 0xC4 CALLDATALOAD PUSH1 0x4 ADD CALLDATALOAD DUP2 MSTORE PUSH1 0x1 DUP1 PUSH1 0xA0 SHL SUB PUSH2 0xFDE PUSH1 0x24 PUSH1 0xC4 CALLDATALOAD ADD PUSH2 0x175E JUMP JUMPDEST AND PUSH1 0x20 DUP3 ADD MSTORE PUSH1 0x1 PUSH1 0x1 PUSH1 0xA0 SHL SUB PUSH2 0xFFA PUSH1 0xC4 CALLDATALOAD PUSH1 0x44 ADD PUSH2 0x175E JUMP JUMPDEST AND PUSH1 0x40 DUP3 ADD MSTORE PUSH2 0x100E PUSH1 0x64 PUSH1 0xC4 CALLDATALOAD ADD PUSH2 0x19E8 JUMP JUMPDEST ISZERO ISZERO PUSH1 0x60 DUP3 ADD MSTORE PUSH1 0x84 PUSH1 0xC4 CALLDATALOAD ADD CALLDATALOAD PUSH1 0x80 DUP3 ADD MSTORE PUSH2 0x102F PUSH1 0xA4 PUSH1 0xC4 CALLDATALOAD ADD PUSH2 0x19E8 JUMP JUMPDEST ISZERO ISZERO PUSH1 0xA0 DUP3 ADD MSTORE PUSH2 0x1043 PUSH1 0xC4 DUP1 CALLDATALOAD ADD PUSH2 0x19E8 JUMP JUMPDEST ISZERO ISZERO PUSH1 0xC0 DUP3 ADD MSTORE PUSH1 0xC4 CALLDATALOAD PUSH1 0xE4 DUP2 ADD CALLDATALOAD PUSH1 0xE0 DUP4 ADD MSTORE PUSH2 0x104 DUP2 ADD CALLDATALOAD PUSH2 0x100 DUP4 ADD MSTORE PUSH2 0x1070 SWAP1 PUSH2 0x124 ADD PUSH2 0x19E8 JUMP JUMPDEST ISZERO ISZERO PUSH2 0x120 DUP3 ADD MSTORE PUSH2 0x1087 PUSH2 0x144 PUSH1 0xC4 CALLDATALOAD ADD PUSH2 0x19E8 JUMP JUMPDEST ISZERO ISZERO PUSH2 0x140 DUP3 ADD MSTORE PUSH2 0x109E PUSH2 0x164 PUSH1 0xC4 CALLDATALOAD ADD PUSH2 0x19E8 JUMP JUMPDEST ISZERO ISZERO PUSH2 0x160 DUP3 ADD MSTORE PUSH2 0x10B5 PUSH2 0x184 PUSH1 0xC4 CALLDATALOAD ADD PUSH2 0x19E8 JUMP JUMPDEST ISZERO ISZERO PUSH2 0x180 DUP3 ADD MSTORE PUSH2 0x1A4 PUSH1 0xC4 CALLDATALOAD ADD CALLDATALOAD PUSH2 0x1A0 DUP3 ADD MSTORE PUSH2 0x1E0 PUSH2 0x10E3 PUSH2 0x1C4 PUSH1 0xC4 CALLDATALOAD ADD PUSH1 0xC4 CALLDATALOAD PUSH1 0x4 ADD PUSH2 0x19B7 JUMP JUMPDEST SWAP2 SWAP1 SWAP3 DUP2 PUSH2 0x1C0 DUP3 ADD MSTORE ADD SWAP2 PUSH2 0x1943 JUMP JUMPDEST PUSH1 0xE4 CALLDATALOAD PUSH1 0xC0 DUP4 ADD MSTORE PUSH2 0x104 CALLDATALOAD PUSH1 0x1 PUSH1 0x1 PUSH1 0xA0 SHL SUB SWAP1 DUP2 AND PUSH1 0xE0 DUP5 ADD MSTORE PUSH2 0x124 CALLDATALOAD AND PUSH2 0x100 DUP4 ADD MSTORE PUSH2 0x144 CALLDATALOAD PUSH2 0x120 DUP4 ADD MSTORE PUSH2 0x164 CALLDATALOAD PUSH2 0x140 DUP4 ADD MSTORE PUSH2 0x184 CALLDATALOAD PUSH2 0x160 DUP4 ADD MSTORE DUP2 DUP2 SUB PUSH2 0x180 DUP4 ADD MSTORE PUSH1 0x4 PUSH2 0x1A4 CALLDATALOAD SWAP1 DUP2 ADD CALLDATALOAD DUP1 DUP4 MSTORE PUSH1 0x5 SHL DUP3 ADD PUSH1 0x20 SWAP1 DUP2 ADD SWAP4 SWAP3 PUSH1 0x24 SWAP1 SWAP3 ADD SWAP2 DUP6 SWAP2 DUP2 ADD JUMPDEST PUSH2 0x1A4 CALLDATALOAD PUSH1 0x4 ADD CALLDATALOAD DUP4 LT PUSH2 0x11A8 JUMPI POP POP POP POP CALLER SWAP2 PUSH32 0xBD69C56D9327C6470B8FB7C1C0D854D4A7F22CDC58DD964F14446F90F50DE2FC PUSH1 0xA4 CALLDATALOAD SWAP3 DUP1 CALLVALUE SWAP4 SUB SWAP1 LOG4 DUP1 RETURN JUMPDEST SWAP1 SWAP2 SWAP3 SWAP5 PUSH1 0x1F NOT DUP4 DUP3 SUB ADD DUP3 MSTORE DUP6 CALLDATALOAD SWAP1 PUSH1 0x62 NOT PUSH2 0x1A4 CALLDATALOAD CALLDATASIZE SUB ADD DUP3 SLT ISZERO PUSH2 0x121A JUMPI PUSH1 0x20 DUP1 SWAP2 PUSH1 0x1 SWAP4 PUSH2 0x1A4 CALLDATALOAD ADD SWAP1 DUP3 PUSH2 0x11F5 PUSH2 0x11E7 PUSH1 0x24 DUP6 ADD DUP1 PUSH2 0x19B7 JUMP JUMPDEST PUSH1 0x40 DUP6 MSTORE PUSH1 0x40 DUP6 ADD SWAP2 PUSH2 0x1943 JUMP JUMPDEST SWAP3 PUSH2 0x1208 PUSH1 0x44 DUP9 DUP1 PUSH1 0xA0 SHL SUB SWAP3 ADD PUSH2 0x175E JUMP JUMPDEST AND SWAP2 ADD MSTORE SWAP8 ADD SWAP3 ADD SWAP4 ADD SWAP2 SWAP1 SWAP3 PUSH2 0x1166 JUMP JUMPDEST DUP8 DUP1 REVERT JUMPDEST ADD CALLDATALOAD SWAP1 POP DUP10 DUP1 PUSH2 0x95D JUMP JUMPDEST PUSH1 0x13 DUP10 SWAP4 SWAP3 SWAP4 ADD DUP4 MSTORE PUSH1 0x20 DUP4 KECCAK256 SWAP1 DUP4 JUMPDEST PUSH1 0x1F NOT DUP5 AND DUP6 LT PUSH2 0x127E JUMPI PUSH1 0x1 SWAP5 POP DUP4 PUSH1 0x1F NOT DUP2 AND LT PUSH2 0x1264 JUMPI JUMPDEST POP POP POP DUP2 SHL ADD PUSH1 0x13 DUP8 ADD SSTORE PUSH2 0xC93 JUMP JUMPDEST ADD CALLDATALOAD PUSH1 0x0 NOT PUSH1 0x3 DUP5 SWAP1 SHL PUSH1 0xF8 AND SHR NOT AND SWAP1 SSTORE DUP9 DUP1 DUP1 PUSH2 0x1254 JUMP JUMPDEST DUP2 DUP2 ADD CALLDATALOAD DUP4 SSTORE PUSH1 0x20 SWAP5 DUP6 ADD SWAP5 PUSH1 0x1 SWAP1 SWAP4 ADD SWAP3 ADD PUSH2 0x1239 JUMP JUMPDEST ADD CALLDATALOAD SWAP1 POP DUP9 DUP1 PUSH2 0x95D JUMP JUMPDEST PUSH1 0x5 DUP9 SWAP4 SWAP3 SWAP4 ADD DUP4 MSTORE PUSH1 0x20 DUP4 KECCAK256 SWAP1 DUP4 JUMPDEST PUSH1 0x1F NOT DUP5 AND DUP6 LT PUSH2 0x12F6 JUMPI PUSH1 0x1 SWAP5 POP DUP4 PUSH1 0x1F NOT DUP2 AND LT PUSH2 0x12DC JUMPI JUMPDEST POP POP POP DUP2 SHL ADD PUSH1 0x5 DUP7 ADD SSTORE PUSH2 0xA00 JUMP JUMPDEST ADD CALLDATALOAD PUSH1 0x0 NOT PUSH1 0x3 DUP5 SWAP1 SHL PUSH1 0xF8 AND SHR NOT AND SWAP1 SSTORE DUP8 DUP1 DUP1 PUSH2 0x12CC JUMP JUMPDEST DUP2 DUP2 ADD CALLDATALOAD DUP4 SSTORE PUSH1 0x20 SWAP5 DUP6 ADD SWAP5 PUSH1 0x1 SWAP1 SWAP4 ADD SWAP3 ADD PUSH2 0x12B1 JUMP JUMPDEST DUP4 DUP3 MSTORE PUSH1 0x20 DUP3 KECCAK256 SWAP2 PUSH1 0x1F NOT DUP5 AND DUP2 JUMPDEST DUP2 DUP2 LT PUSH2 0x135A JUMPI POP SWAP1 DUP5 PUSH1 0x1 SWAP6 SWAP5 SWAP4 SWAP3 LT PUSH2 0x1340 JUMPI JUMPDEST POP POP POP DUP2 SHL ADD SWAP1 SSTORE PUSH2 0x975 JUMP JUMPDEST ADD CALLDATALOAD PUSH1 0x0 NOT PUSH1 0x3 DUP5 SWAP1 SHL PUSH1 0xF8 AND SHR NOT AND SWAP1 SSTORE DUP9 DUP1 DUP1 PUSH2 0x1333 JUMP JUMPDEST SWAP2 SWAP4 PUSH1 0x20 PUSH1 0x1 DUP2 SWAP3 DUP8 DUP8 ADD CALLDATALOAD DUP2 SSTORE ADD SWAP6 ADD SWAP3 ADD PUSH2 0x131D JUMP JUMPDEST SWAP1 POP DUP9 ADD CALLDATALOAD DUP12 PUSH2 0x903 JUMP JUMPDEST POP DUP2 DUP2 MSTORE PUSH1 0x20 DUP2 KECCAK256 SWAP1 DUP9 PUSH1 0x1F NOT DUP2 AND DUP3 JUMPDEST DUP2 DUP2 LT PUSH2 0x13C5 JUMPI POP LT PUSH2 0x13AB JUMPI JUMPDEST POP POP PUSH1 0x1 DUP8 DUP2 SHL ADD SWAP1 SSTORE PUSH2 0x91A JUMP JUMPDEST DUP8 ADD CALLDATALOAD PUSH1 0x0 NOT PUSH1 0x3 DUP11 SWAP1 SHL PUSH1 0xF8 AND SHR NOT AND SWAP1 SSTORE DUP9 DUP1 PUSH2 0x139C JUMP JUMPDEST DUP11 DUP5 ADD CALLDATALOAD DUP6 SSTORE PUSH1 0x1 SWAP1 SWAP5 ADD SWAP4 PUSH1 0x20 SWAP4 DUP5 ADD SWAP4 DUP13 SWAP4 POP ADD PUSH2 0x138E JUMP JUMPDEST PUSH1 0x40 MLOAD PUSH3 0x461BCD PUSH1 0xE5 SHL DUP2 MSTORE PUSH1 0x20 PUSH1 0x4 DUP3 ADD MSTORE PUSH1 0x11 PUSH1 0x24 DUP3 ADD MSTORE PUSH17 0x105B1C9958591E4819195C1BDCDA5D1959 PUSH1 0x7A SHL PUSH1 0x44 DUP3 ADD MSTORE PUSH1 0x64 SWAP1 REVERT JUMPDEST PUSH1 0x40 MLOAD PUSH3 0x461BCD PUSH1 0xE5 SHL DUP2 MSTORE PUSH1 0x20 PUSH1 0x4 DUP3 ADD MSTORE PUSH1 0x11 PUSH1 0x24 DUP3 ADD MSTORE PUSH17 0x125B9D985B1A59081C9958DA5C1A595B9D PUSH1 0x7A SHL PUSH1 0x44 DUP3 ADD MSTORE PUSH1 0x64 SWAP1 REVERT JUMPDEST PUSH1 0x40 MLOAD PUSH3 0x461BCD PUSH1 0xE5 SHL DUP2 MSTORE PUSH1 0x20 PUSH1 0x4 DUP3 ADD MSTORE PUSH1 0xC PUSH1 0x24 DUP3 ADD MSTORE PUSH12 0x4D7573742073656E6420495 PUSH1 0xA4 SHL PUSH1 0x44 DUP3 ADD MSTORE PUSH1 0x64 SWAP1 REVERT JUMPDEST CALLVALUE PUSH2 0x73D JUMPI PUSH1 0x0 CALLDATASIZE PUSH1 0x3 NOT ADD SLT PUSH2 0x73D JUMPI PUSH1 0x0 SLOAD PUSH1 0x40 MLOAD PUSH1 0x1 PUSH1 0x1 PUSH1 0xA0 SHL SUB SWAP1 SWAP2 AND DUP2 MSTORE PUSH1 0x20 SWAP1 RETURN JUMPDEST CALLVALUE PUSH2 0x73D JUMPI PUSH1 0x40 CALLDATASIZE PUSH1 0x3 NOT ADD SLT PUSH2 0x73D JUMPI PUSH1 0x4 CALLDATALOAD PUSH1 0x24 CALLDATALOAD PUSH1 0x1 PUSH1 0x1 PUSH1 0x40 SHL SUB DUP2 GT PUSH2 0x73D JUMPI PUSH2 0x14E2 SWAP1 CALLDATASIZE SWAP1 PUSH1 0x4 ADD PUSH2 0x1731 JUMP JUMPDEST SWAP2 SWAP1 PUSH2 0x14F9 PUSH1 0x1 DUP1 PUSH1 0xA0 SHL SUB PUSH1 0x0 SLOAD AND CALLER EQ PUSH2 0x17B3 JUMP JUMPDEST PUSH1 0x0 DUP3 DUP2 MSTORE PUSH1 0x1 PUSH1 0x20 MSTORE PUSH1 0x40 SWAP1 KECCAK256 SLOAD PUSH2 0x151C SWAP1 PUSH1 0x1 PUSH1 0x1 PUSH1 0xA0 SHL SUB AND ISZERO ISZERO PUSH2 0x187F JUMP JUMPDEST DUP2 PUSH1 0x0 MSTORE PUSH1 0x1 PUSH1 0x20 MSTORE PUSH1 0x2 PUSH1 0x40 PUSH1 0x0 KECCAK256 ADD SWAP3 PUSH1 0x1 PUSH1 0x1 PUSH1 0x40 SHL SUB DUP2 GT PUSH2 0x727 JUMPI PUSH2 0x1550 DUP2 PUSH2 0x154A DUP7 SLOAD PUSH2 0x18B7 JUMP JUMPDEST DUP7 PUSH2 0x18F1 JUMP JUMPDEST PUSH1 0x0 SWAP4 PUSH1 0x1F DUP3 GT PUSH1 0x1 EQ PUSH2 0x15CB JUMPI PUSH2 0x15A1 DUP3 DUP1 PUSH32 0x59312DE486EE184A19A6B54EFD1601A3ACBC980DAAD1366A50BA250E76FEE4E3 SWAP7 SWAP8 PUSH1 0x0 SWAP2 PUSH2 0x15C0 JUMPI POP DUP2 PUSH1 0x1 SHL SWAP2 PUSH1 0x0 NOT SWAP1 PUSH1 0x3 SHL SHR NOT AND OR SWAP1 JUMP JUMPDEST SWAP1 SSTORE JUMPDEST PUSH2 0x15BB PUSH1 0x40 MLOAD SWAP3 DUP4 SWAP3 PUSH1 0x20 DUP5 MSTORE PUSH1 0x20 DUP5 ADD SWAP2 PUSH2 0x1943 JUMP JUMPDEST SUB SWAP1 LOG2 STOP JUMPDEST SWAP1 POP DUP6 ADD CALLDATALOAD DUP9 PUSH2 0x903 JUMP JUMPDEST DUP1 DUP6 MSTORE PUSH1 0x20 DUP6 KECCAK256 PUSH1 0x1F NOT DUP4 AND SWAP6 DUP1 JUMPDEST DUP8 DUP2 LT PUSH2 0x1635 JUMPI POP DUP4 PUSH32 0x59312DE486EE184A19A6B54EFD1601A3ACBC980DAAD1366A50BA250E76FEE4E3 SWAP7 SWAP8 LT PUSH2 0x161B JUMPI JUMPDEST POP POP PUSH1 0x1 DUP3 DUP2 SHL ADD SWAP1 SSTORE PUSH2 0x15A4 JUMP JUMPDEST DUP5 ADD CALLDATALOAD PUSH1 0x0 NOT PUSH1 0x3 DUP6 SWAP1 SHL PUSH1 0xF8 AND SHR NOT AND SWAP1 SSTORE DUP6 DUP1 PUSH2 0x160C JUMP JUMPDEST SWAP1 SWAP2 PUSH1 0x20 PUSH1 0x1 DUP2 SWAP3 DUP6 DUP10 ADD CALLDATALOAD DUP2 SSTORE ADD SWAP4 ADD SWAP2 ADD PUSH2 0x15DA JUMP JUMPDEST CALLVALUE PUSH2 0x73D JUMPI PUSH1 0x0 CALLDATASIZE PUSH1 0x3 NOT ADD SLT PUSH2 0x73D JUMPI PUSH1 0x0 SLOAD PUSH1 0x1 PUSH1 0x1 PUSH1 0xA0 SHL SUB AND PUSH2 0x1675 CALLER DUP3 EQ PUSH2 0x17B3 JUMP JUMPDEST SELFBALANCE SWAP1 DUP2 ISZERO PUSH2 0x1701 JUMPI PUSH1 0x0 DUP1 DUP1 SWAP4 DUP2 SWAP4 GAS CALL RETURNDATASIZE ISZERO PUSH2 0x16FC JUMPI RETURNDATASIZE PUSH1 0x1 PUSH1 0x1 PUSH1 0x40 SHL SUB DUP2 GT PUSH2 0x727 JUMPI PUSH1 0x40 MLOAD SWAP1 PUSH2 0x16B3 PUSH1 0x1F DUP3 ADD PUSH1 0x1F NOT AND PUSH1 0x20 ADD DUP4 PUSH2 0x185E JUMP JUMPDEST DUP2 MSTORE PUSH1 0x0 PUSH1 0x20 RETURNDATASIZE SWAP3 ADD RETURNDATACOPY JUMPDEST ISZERO PUSH2 0x16C5 JUMPI STOP JUMPDEST PUSH1 0x40 MLOAD PUSH3 0x461BCD PUSH1 0xE5 SHL DUP2 MSTORE PUSH1 0x20 PUSH1 0x4 DUP3 ADD MSTORE PUSH1 0xF PUSH1 0x24 DUP3 ADD MSTORE PUSH15 0x151C985B9CD9995C8819985A5B1959 PUSH1 0x8A SHL PUSH1 0x44 DUP3 ADD MSTORE PUSH1 0x64 SWAP1 REVERT JUMPDEST PUSH2 0x16BE JUMP JUMPDEST PUSH1 0x40 MLOAD PUSH3 0x461BCD PUSH1 0xE5 SHL DUP2 MSTORE PUSH1 0x20 PUSH1 0x4 DUP3 ADD MSTORE PUSH1 0x8 PUSH1 0x24 DUP3 ADD MSTORE PUSH8 0x4E6F2066756E6473 PUSH1 0xC0 SHL PUSH1 0x44 DUP3 ADD MSTORE PUSH1 0x64 SWAP1 REVERT JUMPDEST SWAP2 DUP2 PUSH1 0x1F DUP5 ADD SLT ISZERO PUSH2 0x73D JUMPI DUP3 CALLDATALOAD SWAP2 PUSH1 0x1 PUSH1 0x1 PUSH1 0x40 SHL SUB DUP4 GT PUSH2 0x73D JUMPI PUSH1 0x20 DUP4 DUP2 DUP7 ADD SWAP6 ADD ADD GT PUSH2 0x73D JUMPI JUMP JUMPDEST CALLDATALOAD SWAP1 PUSH1 0x1 PUSH1 0x1 PUSH1 0xA0 SHL SUB DUP3 AND DUP3 SUB PUSH2 0x73D JUMPI JUMP JUMPDEST SWAP2 SWAP1 DUP3 MLOAD SWAP3 DUP4 DUP3 MSTORE PUSH1 0x0 JUMPDEST DUP5 DUP2 LT PUSH2 0x179E JUMPI POP POP DUP3 PUSH1 0x0 PUSH1 0x20 DUP1 SWAP5 SWAP6 DUP5 ADD ADD MSTORE PUSH1 0x1F DUP1 NOT SWAP2 ADD AND ADD ADD SWAP1 JUMP JUMPDEST DUP1 PUSH1 0x20 DUP1 SWAP3 DUP5 ADD ADD MLOAD DUP3 DUP3 DUP7 ADD ADD MSTORE ADD PUSH2 0x177D JUMP JUMPDEST ISZERO PUSH2 0x17BA JUMPI JUMP JUMPDEST PUSH1 0x40 MLOAD PUSH3 0x461BCD PUSH1 0xE5 SHL DUP2 MSTORE PUSH1 0x20 PUSH1 0x4 DUP3 ADD MSTORE PUSH1 0xE PUSH1 0x24 DUP3 ADD MSTORE PUSH14 0x139BDD08185D5D1A1BDC9A5E9959 PUSH1 0x92 SHL PUSH1 0x44 DUP3 ADD MSTORE PUSH1 0x64 SWAP1 REVERT JUMPDEST PUSH2 0x140 DUP2 ADD SWAP1 DUP2 LT PUSH1 0x1 PUSH1 0x1 PUSH1 0x40 SHL SUB DUP3 GT OR PUSH2 0x727 JUMPI PUSH1 0x40 MSTORE JUMP JUMPDEST PUSH1 0xA0 DUP2 ADD SWAP1 DUP2 LT PUSH1 0x1 PUSH1 0x1 PUSH1 0x40 SHL SUB DUP3 GT OR PUSH2 0x727 JUMPI PUSH1 0x40 MSTORE JUMP JUMPDEST PUSH2 0x1E0 DUP2 ADD SWAP1 DUP2 LT PUSH1 0x1 PUSH1 0x1 PUSH1 0x40 SHL SUB DUP3 GT OR PUSH2 0x727 JUMPI PUSH1 0x40 MSTORE JUMP JUMPDEST PUSH1 0xC0 DUP2 ADD SWAP1 DUP2 LT PUSH1 0x1 PUSH1 0x1 PUSH1 0x40 SHL SUB DUP3 GT OR PUSH2 0x727 JUMPI PUSH1 0x40 MSTORE JUMP JUMPDEST SWAP1 PUSH1 0x1F DUP1 NOT SWAP2 ADD AND DUP2 ADD SWAP1 DUP2 LT PUSH1 0x1 PUSH1 0x1 PUSH1 0x40 SHL SUB DUP3 GT OR PUSH2 0x727 JUMPI PUSH1 0x40 MSTORE JUMP JUMPDEST ISZERO PUSH2 0x1886 JUMPI JUMP JUMPDEST PUSH1 0x40 MLOAD PUSH3 0x461BCD PUSH1 0xE5 SHL DUP2 MSTORE PUSH1 0x20 PUSH1 0x4 DUP3 ADD MSTORE PUSH1 0x9 PUSH1 0x24 DUP3 ADD MSTORE PUSH9 0x139BDD08199BDD5B99 PUSH1 0xBA SHL PUSH1 0x44 DUP3 ADD MSTORE PUSH1 0x64 SWAP1 REVERT JUMPDEST SWAP1 PUSH1 0x1 DUP3 DUP2 SHR SWAP3 AND DUP1 ISZERO PUSH2 0x18E7 JUMPI JUMPDEST PUSH1 0x20 DUP4 LT EQ PUSH2 0x18D1 JUMPI JUMP JUMPDEST PUSH4 0x4E487B71 PUSH1 0xE0 SHL PUSH1 0x0 MSTORE PUSH1 0x22 PUSH1 0x4 MSTORE PUSH1 0x24 PUSH1 0x0 REVERT JUMPDEST SWAP2 PUSH1 0x7F AND SWAP2 PUSH2 0x18C6 JUMP JUMPDEST PUSH1 0x1F DUP3 GT PUSH2 0x18FE JUMPI POP POP POP JUMP JUMPDEST PUSH1 0x0 MSTORE PUSH1 0x20 PUSH1 0x0 KECCAK256 SWAP1 PUSH1 0x20 PUSH1 0x1F DUP5 ADD PUSH1 0x5 SHR DUP4 ADD SWAP4 LT PUSH2 0x1939 JUMPI JUMPDEST PUSH1 0x1F ADD PUSH1 0x5 SHR ADD SWAP1 JUMPDEST DUP2 DUP2 LT PUSH2 0x192D JUMPI POP POP JUMP JUMPDEST PUSH1 0x0 DUP2 SSTORE PUSH1 0x1 ADD PUSH2 0x1922 JUMP JUMPDEST SWAP1 SWAP2 POP DUP2 SWAP1 PUSH2 0x1919 JUMP JUMPDEST SWAP1 DUP1 PUSH1 0x20 SWAP4 SWAP3 DUP2 DUP5 MSTORE DUP5 DUP5 ADD CALLDATACOPY PUSH1 0x0 DUP3 DUP3 ADD DUP5 ADD MSTORE PUSH1 0x1F ADD PUSH1 0x1F NOT AND ADD ADD SWAP1 JUMP JUMPDEST SWAP1 CALLDATALOAD SWAP1 PUSH1 0x1E NOT DUP2 CALLDATASIZE SUB ADD DUP3 SLT ISZERO PUSH2 0x73D JUMPI ADD DUP1 CALLDATALOAD SWAP1 PUSH1 0x1 PUSH1 0x1 PUSH1 0x40 SHL SUB DUP3 GT PUSH2 0x73D JUMPI PUSH1 0x20 ADD SWAP2 DUP2 CALLDATASIZE SUB DUP4 SGT PUSH2 0x73D JUMPI JUMP JUMPDEST CALLDATALOAD PUSH1 0x1 PUSH1 0x1 PUSH1 0xA0 SHL SUB DUP2 AND DUP2 SUB PUSH2 0x73D JUMPI SWAP1 JUMP JUMPDEST CALLDATALOAD DUP1 ISZERO ISZERO DUP2 SUB PUSH2 0x73D JUMPI SWAP1 JUMP JUMPDEST SWAP1 CALLDATALOAD PUSH1 0x1E NOT DUP3 CALLDATASIZE SUB ADD DUP2 SLT ISZERO PUSH2 0x73D JUMPI ADD PUSH1 0x20 DUP2 CALLDATALOAD SWAP2 ADD SWAP2 PUSH1 0x1 PUSH1 0x1 PUSH1 0x40 SHL SUB DUP3 GT PUSH2 0x73D JUMPI DUP2 CALLDATASIZE SUB DUP4 SGT PUSH2 0x73D JUMPI JUMP JUMPDEST CALLDATALOAD SWAP1 DUP2 ISZERO ISZERO DUP3 SUB PUSH2 0x73D JUMPI JUMP JUMPDEST PUSH1 0x0 SWAP3 SWAP2 DUP2 SLOAD SWAP2 PUSH2 0x1A05 DUP4 PUSH2 0x18B7 JUMP JUMPDEST DUP1 DUP4 MSTORE SWAP3 PUSH1 0x1 DUP2 AND SWAP1 DUP2 ISZERO PUSH2 0x1A5B JUMPI POP PUSH1 0x1 EQ PUSH2 0x1A21 JUMPI POP POP POP JUMP JUMPDEST PUSH1 0x0 SWAP1 DUP2 MSTORE PUSH1 0x20 DUP2 KECCAK256 SWAP4 SWAP5 POP SWAP2 SWAP3 JUMPDEST DUP4 DUP4 LT PUSH2 0x1A41 JUMPI POP PUSH1 0x20 SWAP3 POP ADD ADD SWAP1 JUMP JUMPDEST PUSH1 0x1 DUP2 PUSH1 0x20 SWAP3 SWAP5 SWAP4 SWAP5 SLOAD DUP4 DUP6 DUP8 ADD ADD MSTORE ADD SWAP2 ADD SWAP2 SWAP1 PUSH2 0x1A30 JUMP JUMPDEST SWAP2 POP POP PUSH1 0x20 SWAP4 SWAP5 POP PUSH1 0xFF SWAP3 SWAP2 SWAP3 NOT AND DUP4 DUP4 ADD MSTORE ISZERO ISZERO PUSH1 0x5 SHL ADD ADD SWAP1 JUMP INVALID LOG2 PUSH5 0x6970667358 0x22 SLT KECCAK256 SWAP6 SWAP4 0x2D SWAP7 ISZERO 0xAE 0xBB PUSH14 0x97F457B10B6557654376A980F6D3 0x2D 0xC5 SWAP9 0x4F MUL 0xD5 0x25 0xB6 SHL CODESIZE PUSH5 0x736F6C6343 STOP ADDMOD SHR STOP CALLER "},"methodIdentifiers":{"depositIP(address,string,bytes,address,(string,uint256,uint256,address,uint96),bytes32,(uint256,address,address,bool,uint256,bool,bool,uint256,uint256,bool,bool,bool,bool,uint256,string),(uint256,address,address,uint256,uint256,uint256),(string,address)[])":"b07d65ea","getByTweetHash(bytes32)":"b4cd21b4","owner()":"8da5cb5b","updateValidation(bytes32,string)":"47934a07","withdrawFunds()":"24600fc3"}}}}}