{"contracts/lib/AccessPermission.sol":{"AccessPermission":{"abi":[{"inputs":[],"name":"ABSTAIN","outputs":[{"internalType":"uint8","name":"","type":"uint8"}],"stateMutability":"view","type":"function"},{"inputs":[],"name":"ALLOW","outputs":[{"internalType":"uint8","name":"","type":"uint8"}],"stateMutability":"view","type":"function"},{"inputs":[],"name":"DENY","outputs":[{"internalType":"uint8","name":"","type":"uint8"}],"stateMutability":"view","type":"function"}],"evm":{"bytecode":{"linkReferences":{},"object":"6080806040523460175760b79081601d823930815050f35b600080fdfe6080806040526004361015601257600080fd5b60003560e01c9081630b5dfc3914606d57508063463ea0c11460575763a1731a2b14603c57600080fd5b6000366003190112605257602060405160008152f35b600080fd5b6000366003190112605257602060405160028152f35b600036600319011260525780600160209252f3fea2646970667358221220e6666ff2c3e151793fc7e28f8924711d04a832b8fb5086ef9f306a8de5088e9064736f6c634300081a0033","opcodes":"PUSH1 0x80 DUP1 PUSH1 0x40 MSTORE CALLVALUE PUSH1 0x17 JUMPI PUSH1 0xB7 SWAP1 DUP2 PUSH1 0x1D DUP3 CODECOPY ADDRESS DUP2 POP POP RETURN JUMPDEST PUSH1 0x0 DUP1 REVERT INVALID PUSH1 0x80 DUP1 PUSH1 0x40 MSTORE PUSH1 0x4 CALLDATASIZE LT ISZERO PUSH1 0x12 JUMPI PUSH1 0x0 DUP1 REVERT JUMPDEST PUSH1 0x0 CALLDATALOAD PUSH1 0xE0 SHR SWAP1 DUP2 PUSH4 0xB5DFC39 EQ PUSH1 0x6D JUMPI POP DUP1 PUSH4 0x463EA0C1 EQ PUSH1 0x57 JUMPI PUSH4 0xA1731A2B EQ PUSH1 0x3C JUMPI PUSH1 0x0 DUP1 REVERT JUMPDEST PUSH1 0x0 CALLDATASIZE PUSH1 0x3 NOT ADD SLT PUSH1 0x52 JUMPI PUSH1 0x20 PUSH1 0x40 MLOAD PUSH1 0x0 DUP2 MSTORE RETURN JUMPDEST PUSH1 0x0 DUP1 REVERT JUMPDEST PUSH1 0x0 CALLDATASIZE PUSH1 0x3 NOT ADD SLT PUSH1 0x52 JUMPI PUSH1 0x20 PUSH1 0x40 MLOAD PUSH1 0x2 DUP2 MSTORE RETURN JUMPDEST PUSH1 0x0 CALLDATASIZE PUSH1 0x3 NOT ADD SLT PUSH1 0x52 JUMPI DUP1 PUSH1 0x1 PUSH1 0x20 SWAP3 MSTORE RETURN INVALID LOG2 PUSH5 0x6970667358 0x22 SLT KECCAK256 0xE6 PUSH7 0x6FF2C3E151793F 0xC7 0xE2 DUP16 DUP10 0x24 PUSH18 0x1D04A832B8FB5086EF9F306A8DE5088E9064 PUSH20 0x6F6C634300081A00330000000000000000000000 "},"methodIdentifiers":{"ABSTAIN()":"a1731a2b","ALLOW()":"0b5dfc39","DENY()":"463ea0c1"}}}}}