{"contracts/lib/PILFlavors.sol":{"PILFlavors":{"abi":[{"inputs":[],"name":"EMPTY_BYTES","outputs":[{"internalType":"bytes","name":"","type":"bytes"}],"stateMutability":"view","type":"function"}],"evm":{"bytecode":{"linkReferences":{},"object":"6080806040523460185760e8908161001e823930815050f35b600080fdfe60806004361015600e57600080fd5b60003560e01c63036945b714602257600080fd5b600036600319011260ad576020810181811067ffffffffffffffff8211176097576040526000815260405190602082528181519182602083015260005b83811060805750508160006040809484010152601f80199101168101030190f35b60208282018101516040878401015285935001605f565b634e487b7160e01b600052604160045260246000fd5b600080fdfea2646970667358221220e9de028daef09c8aedc856d9b4af05c88f21698ec62694c51eb1c1d6c4fa04e464736f6c634300081a0033","opcodes":"PUSH1 0x80 DUP1 PUSH1 0x40 MSTORE CALLVALUE PUSH1 0x18 JUMPI PUSH1 0xE8 SWAP1 DUP2 PUSH2 0x1E DUP3 CODECOPY ADDRESS DUP2 POP POP RETURN JUMPDEST PUSH1 0x0 DUP1 REVERT INVALID PUSH1 0x80 PUSH1 0x4 CALLDATASIZE LT ISZERO PUSH1 0xE JUMPI PUSH1 0x0 DUP1 REVERT JUMPDEST PUSH1 0x0 CALLDATALOAD PUSH1 0xE0 SHR PUSH4 0x36945B7 EQ PUSH1 0x22 JUMPI PUSH1 0x0 DUP1 REVERT JUMPDEST PUSH1 0x0 CALLDATASIZE PUSH1 0x3 NOT ADD SLT PUSH1 0xAD JUMPI PUSH1 0x20 DUP2 ADD DUP2 DUP2 LT PUSH8 0xFFFFFFFFFFFFFFFF DUP3 GT OR PUSH1 0x97 JUMPI PUSH1 0x40 MSTORE PUSH1 0x0 DUP2 MSTORE PUSH1 0x40 MLOAD SWAP1 PUSH1 0x20 DUP3 MSTORE DUP2 DUP2 MLOAD SWAP2 DUP3 PUSH1 0x20 DUP4 ADD MSTORE PUSH1 0x0 JUMPDEST DUP4 DUP2 LT PUSH1 0x80 JUMPI POP POP DUP2 PUSH1 0x0 PUSH1 0x40 DUP1 SWAP5 DUP5 ADD ADD MSTORE PUSH1 0x1F DUP1 NOT SWAP2 ADD AND DUP2 ADD SUB ADD SWAP1 RETURN JUMPDEST PUSH1 0x20 DUP3 DUP3 ADD DUP2 ADD MLOAD PUSH1 0x40 DUP8 DUP5 ADD ADD MSTORE DUP6 SWAP4 POP ADD PUSH1 0x5F JUMP JUMPDEST PUSH4 0x4E487B71 PUSH1 0xE0 SHL PUSH1 0x0 MSTORE PUSH1 0x41 PUSH1 0x4 MSTORE PUSH1 0x24 PUSH1 0x0 REVERT JUMPDEST PUSH1 0x0 DUP1 REVERT INVALID LOG2 PUSH5 0x6970667358 0x22 SLT KECCAK256 0xE9 0xDE MUL DUP14 0xAE CREATE SWAP13 DUP11 0xED 0xC8 JUMP 0xD9 0xB4 0xAF SDIV 0xC8 DUP16 0x21 PUSH10 0x8EC62694C51EB1C1D6C4 STATICCALL DIV 0xE4 PUSH5 0x736F6C6343 STOP ADDMOD BYTE STOP CALLER "},"methodIdentifiers":{"EMPTY_BYTES()":"036945b7"}}}}}