{"contracts/StoryNFT.sol":{"StoryNFT":{"abi":[{"inputs":[{"internalType":"string","name":"name_","type":"string"},{"internalType":"string","name":"symbol_","type":"string"},{"internalType":"uint256","name":"mintPrice_","type":"uint256"},{"internalType":"uint256","name":"maxSupply_","type":"uint256"},{"internalType":"address","name":"royaltyReceiver_","type":"address"},{"internalType":"uint96","name":"royaltyBP_","type":"uint96"},{"internalType":"address","name":"ipAssetRegistry_","type":"address"},{"internalType":"address","name":"metadataModule_","type":"address"},{"internalType":"address","name":"licenseRegistry_","type":"address"},{"internalType":"address","name":"licensingModule_","type":"address"},{"internalType":"address","name":"pilTemplate_","type":"address"},{"internalType":"address","name":"royaltyPolicyLAP_","type":"address"},{"internalType":"address","name":"currencyToken_","type":"address"}],"stateMutability":"nonpayable","type":"constructor"},{"anonymous":false,"inputs":[{"indexed":true,"internalType":"address","name":"owner","type":"address"},{"indexed":true,"internalType":"address","name":"approved","type":"address"},{"indexed":true,"internalType":"uint256","name":"tokenId","type":"uint256"}],"name":"Approval","type":"event"},{"anonymous":false,"inputs":[{"indexed":true,"internalType":"address","name":"owner","type":"address"},{"indexed":true,"internalType":"address","name":"operator","type":"address"},{"indexed":false,"internalType":"bool","name":"approved","type":"bool"}],"name":"ApprovalForAll","type":"event"},{"anonymous":false,"inputs":[{"indexed":true,"internalType":"uint256","name":"tokenId","type":"uint256"},{"indexed":true,"internalType":"address","name":"ipId","type":"address"},{"indexed":true,"internalType":"uint256","name":"licenseTokenId","type":"uint256"}],"name":"DerivativeRegistered","type":"event"},{"anonymous":false,"inputs":[{"indexed":true,"internalType":"address","name":"previousOwner","type":"address"},{"indexed":true,"internalType":"address","name":"newOwner","type":"address"}],"name":"OwnershipTransferred","type":"event"},{"anonymous":false,"inputs":[{"indexed":false,"internalType":"address","name":"account","type":"address"}],"name":"Paused","type":"event"},{"anonymous":false,"inputs":[{"indexed":true,"internalType":"uint256","name":"tokenId","type":"uint256"},{"indexed":true,"internalType":"address","name":"ipId","type":"address"},{"indexed":true,"internalType":"uint256","name":"licenseTermsId","type":"uint256"}],"name":"TermsCreatedAndAttached","type":"event"},{"anonymous":false,"inputs":[{"indexed":true,"internalType":"address","name":"from","type":"address"},{"indexed":true,"internalType":"address","name":"to","type":"address"},{"indexed":true,"internalType":"uint256","name":"tokenId","type":"uint256"}],"name":"Transfer","type":"event"},{"anonymous":false,"inputs":[{"indexed":true,"internalType":"uint256","name":"tokenId","type":"uint256"},{"indexed":true,"internalType":"string","name":"tweetId","type":"string"},{"indexed":false,"internalType":"string","name":"name","type":"string"},{"indexed":false,"internalType":"string","name":"handle","type":"string"},{"indexed":false,"internalType":"string","name":"timestamp","type":"string"},{"indexed":false,"internalType":"bool","name":"verified","type":"bool"},{"indexed":false,"internalType":"uint256","name":"comments","type":"uint256"},{"indexed":false,"internalType":"uint256","name":"retweets","type":"uint256"},{"indexed":false,"internalType":"uint256","name":"likes","type":"uint256"},{"indexed":false,"internalType":"uint256","name":"analytics","type":"uint256"},{"indexed":false,"internalType":"string[]","name":"tags","type":"string[]"},{"indexed":false,"internalType":"string[]","name":"mentions","type":"string[]"},{"indexed":false,"internalType":"string","name":"profileImage","type":"string"},{"indexed":false,"internalType":"string","name":"tweetLink","type":"string"},{"indexed":false,"internalType":"string","name":"ipfsScreenshot","type":"string"}],"name":"TweetMinted","type":"event"},{"anonymous":false,"inputs":[{"indexed":true,"internalType":"uint256","name":"tokenId","type":"uint256"},{"indexed":true,"internalType":"string","name":"tweetId","type":"string"},{"indexed":true,"internalType":"address","name":"owner","type":"address"},{"indexed":false,"internalType":"address","name":"ipId","type":"address"}],"name":"TweetRegistered","type":"event"},{"anonymous":false,"inputs":[{"indexed":false,"internalType":"address","name":"account","type":"address"}],"name":"Unpaused","type":"event"},{"inputs":[],"name":"CURRENCY_TOKEN","outputs":[{"internalType":"address","name":"","type":"address"}],"stateMutability":"view","type":"function"},{"inputs":[],"name":"IP_ASSET_REGISTRY","outputs":[{"internalType":"contract IIPAssetRegistry","name":"","type":"address"}],"stateMutability":"view","type":"function"},{"inputs":[],"name":"LICENSE_REGISTRY","outputs":[{"internalType":"contract ILicenseRegistry","name":"","type":"address"}],"stateMutability":"view","type":"function"},{"inputs":[],"name":"LICENSING_MODULE","outputs":[{"internalType":"contract ILicensingModule","name":"","type":"address"}],"stateMutability":"view","type":"function"},{"inputs":[],"name":"METADATA_MODULE","outputs":[{"internalType":"contract ICoreMetadataModule","name":"","type":"address"}],"stateMutability":"view","type":"function"},{"inputs":[],"name":"PIL_TEMPLATE","outputs":[{"internalType":"contract IPILicenseTemplate","name":"","type":"address"}],"stateMutability":"view","type":"function"},{"inputs":[],"name":"ROYALTY_POLICY_LAP","outputs":[{"internalType":"address","name":"","type":"address"}],"stateMutability":"view","type":"function"},{"inputs":[{"internalType":"address","name":"to","type":"address"},{"internalType":"uint256","name":"tokenId","type":"uint256"}],"name":"approve","outputs":[],"stateMutability":"nonpayable","type":"function"},{"inputs":[{"internalType":"address","name":"owner","type":"address"}],"name":"balanceOf","outputs":[{"internalType":"uint256","name":"","type":"uint256"}],"stateMutability":"view","type":"function"},{"inputs":[{"internalType":"uint256","name":"tokenId","type":"uint256"}],"name":"getApproved","outputs":[{"internalType":"address","name":"","type":"address"}],"stateMutability":"view","type":"function"},{"inputs":[{"internalType":"uint256","name":"tokenId","type":"uint256"}],"name":"getTweetMetadata","outputs":[{"components":[{"internalType":"string","name":"name","type":"string"},{"internalType":"string","name":"handle","type":"string"},{"internalType":"string","name":"timestamp","type":"string"},{"internalType":"bool","name":"verified","type":"bool"},{"internalType":"uint256","name":"comments","type":"uint256"},{"internalType":"uint256","name":"retweets","type":"uint256"},{"internalType":"uint256","name":"likes","type":"uint256"},{"internalType":"uint256","name":"analytics","type":"uint256"},{"internalType":"string[]","name":"tags","type":"string[]"},{"internalType":"string[]","name":"mentions","type":"string[]"},{"internalType":"string","name":"profileImage","type":"string"},{"internalType":"string","name":"tweetLink","type":"string"},{"internalType":"string","name":"tweetId","type":"string"},{"internalType":"string","name":"ipfsScreenshot","type":"string"}],"internalType":"struct StoryNFT.TweetMetadata","name":"","type":"tuple"}],"stateMutability":"view","type":"function"},{"inputs":[{"internalType":"address","name":"owner","type":"address"},{"internalType":"address","name":"operator","type":"address"}],"name":"isApprovedForAll","outputs":[{"internalType":"bool","name":"","type":"bool"}],"stateMutability":"view","type":"function"},{"inputs":[],"name":"maxSupply","outputs":[{"internalType":"uint256","name":"","type":"uint256"}],"stateMutability":"view","type":"function"},{"inputs":[{"internalType":"address","name":"receiver","type":"address"}],"name":"mintAndRegisterAndCreateTermsAndAttach","outputs":[{"internalType":"uint256","name":"tokenId","type":"uint256"},{"internalType":"address","name":"ipId","type":"address"},{"internalType":"uint256","name":"licenseTermsId","type":"uint256"}],"stateMutability":"nonpayable","type":"function"},{"inputs":[{"internalType":"address","name":"parentIpId","type":"address"},{"internalType":"uint256","name":"licenseTermsId","type":"uint256"},{"internalType":"address","name":"receiver","type":"address"}],"name":"mintLicenseTokenAndRegisterDerivative","outputs":[{"internalType":"uint256","name":"childTokenId","type":"uint256"},{"internalType":"address","name":"childIpId","type":"address"},{"internalType":"uint256","name":"licenseTokenId","type":"uint256"}],"stateMutability":"nonpayable","type":"function"},{"inputs":[],"name":"mintPrice","outputs":[{"internalType":"uint256","name":"","type":"uint256"}],"stateMutability":"view","type":"function"},{"inputs":[{"internalType":"string","name":"","type":"string"}],"name":"mintedTweet","outputs":[{"internalType":"bool","name":"","type":"bool"}],"stateMutability":"view","type":"function"},{"inputs":[{"internalType":"address","name":"","type":"address"}],"name":"minters","outputs":[{"internalType":"bool","name":"","type":"bool"}],"stateMutability":"view","type":"function"},{"inputs":[],"name":"name","outputs":[{"internalType":"string","name":"","type":"string"}],"stateMutability":"view","type":"function"},{"inputs":[{"internalType":"address","name":"","type":"address"},{"internalType":"address","name":"","type":"address"},{"internalType":"uint256","name":"","type":"uint256"},{"internalType":"bytes","name":"","type":"bytes"}],"name":"onERC721Received","outputs":[{"internalType":"bytes4","name":"","type":"bytes4"}],"stateMutability":"nonpayable","type":"function"},{"inputs":[],"name":"owner","outputs":[{"internalType":"address","name":"","type":"address"}],"stateMutability":"view","type":"function"},{"inputs":[{"internalType":"uint256","name":"tokenId","type":"uint256"}],"name":"ownerOf","outputs":[{"internalType":"address","name":"","type":"address"}],"stateMutability":"view","type":"function"},{"inputs":[],"name":"pause","outputs":[],"stateMutability":"nonpayable","type":"function"},{"inputs":[],"name":"paused","outputs":[{"internalType":"bool","name":"","type":"bool"}],"stateMutability":"view","type":"function"},{"inputs":[],"name":"renounceOwnership","outputs":[],"stateMutability":"nonpayable","type":"function"},{"inputs":[{"internalType":"uint256","name":"_tokenId","type":"uint256"},{"internalType":"uint256","name":"_salePrice","type":"uint256"}],"name":"royaltyInfo","outputs":[{"internalType":"address","name":"","type":"address"},{"internalType":"uint256","name":"","type":"uint256"}],"stateMutability":"view","type":"function"},{"inputs":[{"internalType":"address","name":"to","type":"address"},{"internalType":"string","name":"uri","type":"string"},{"internalType":"string","name":"name_","type":"string"},{"internalType":"string","name":"handle_","type":"string"},{"internalType":"string","name":"timestamp_","type":"string"},{"internalType":"bool","name":"verified_","type":"bool"},{"internalType":"uint256","name":"comments_","type":"uint256"},{"internalType":"uint256","name":"retweets_","type":"uint256"},{"internalType":"uint256","name":"likes_","type":"uint256"},{"internalType":"uint256","name":"analytics_","type":"uint256"},{"internalType":"string[]","name":"tags_","type":"string[]"},{"internalType":"string[]","name":"mentions_","type":"string[]"},{"internalType":"string","name":"profileImage_","type":"string"},{"internalType":"string","name":"tweetLink_","type":"string"},{"internalType":"string","name":"tweetId_","type":"string"},{"internalType":"string","name":"ipfsScreenshot_","type":"string"}],"name":"safeMint","outputs":[],"stateMutability":"nonpayable","type":"function"},{"inputs":[{"internalType":"address","name":"from","type":"address"},{"internalType":"address","name":"to","type":"address"},{"internalType":"uint256","name":"tokenId","type":"uint256"}],"name":"safeTransferFrom","outputs":[],"stateMutability":"nonpayable","type":"function"},{"inputs":[{"internalType":"address","name":"from","type":"address"},{"internalType":"address","name":"to","type":"address"},{"internalType":"uint256","name":"tokenId","type":"uint256"},{"internalType":"bytes","name":"data","type":"bytes"}],"name":"safeTransferFrom","outputs":[],"stateMutability":"nonpayable","type":"function"},{"inputs":[{"internalType":"address","name":"operator","type":"address"},{"internalType":"bool","name":"approved","type":"bool"}],"name":"setApprovalForAll","outputs":[],"stateMutability":"nonpayable","type":"function"},{"inputs":[{"internalType":"uint256","name":"p","type":"uint256"}],"name":"setMintPrice","outputs":[],"stateMutability":"nonpayable","type":"function"},{"inputs":[{"internalType":"address","name":"who","type":"address"},{"internalType":"bool","name":"allowed","type":"bool"}],"name":"setMinter","outputs":[],"stateMutability":"nonpayable","type":"function"},{"inputs":[{"internalType":"bytes4","name":"interfaceId","type":"bytes4"}],"name":"supportsInterface","outputs":[{"internalType":"bool","name":"","type":"bool"}],"stateMutability":"view","type":"function"},{"inputs":[],"name":"symbol","outputs":[{"internalType":"string","name":"","type":"string"}],"stateMutability":"view","type":"function"},{"inputs":[{"internalType":"uint256","name":"index","type":"uint256"}],"name":"tokenByIndex","outputs":[{"internalType":"uint256","name":"","type":"uint256"}],"stateMutability":"view","type":"function"},{"inputs":[{"internalType":"address","name":"owner","type":"address"},{"internalType":"uint256","name":"index","type":"uint256"}],"name":"tokenOfOwnerByIndex","outputs":[{"internalType":"uint256","name":"","type":"uint256"}],"stateMutability":"view","type":"function"},{"inputs":[{"internalType":"uint256","name":"id","type":"uint256"}],"name":"tokenURI","outputs":[{"internalType":"string","name":"","type":"string"}],"stateMutability":"view","type":"function"},{"inputs":[],"name":"totalSupply","outputs":[{"internalType":"uint256","name":"","type":"uint256"}],"stateMutability":"view","type":"function"},{"inputs":[{"internalType":"address","name":"from","type":"address"},{"internalType":"address","name":"to","type":"address"},{"internalType":"uint256","name":"tokenId","type":"uint256"}],"name":"transferFrom","outputs":[],"stateMutability":"nonpayable","type":"function"},{"inputs":[{"internalType":"address","name":"newOwner","type":"address"}],"name":"transferOwnership","outputs":[],"stateMutability":"nonpayable","type":"function"},{"inputs":[{"internalType":"uint256","name":"","type":"uint256"}],"name":"tweetMetadata","outputs":[{"internalType":"string","name":"name","type":"string"},{"internalType":"string","name":"handle","type":"string"},{"internalType":"string","name":"timestamp","type":"string"},{"internalType":"bool","name":"verified","type":"bool"},{"internalType":"uint256","name":"comments","type":"uint256"},{"internalType":"uint256","name":"retweets","type":"uint256"},{"internalType":"uint256","name":"likes","type":"uint256"},{"internalType":"uint256","name":"analytics","type":"uint256"},{"internalType":"string","name":"profileImage","type":"string"},{"internalType":"string","name":"tweetLink","type":"string"},{"internalType":"string","name":"tweetId","type":"string"},{"internalType":"string","name":"ipfsScreenshot","type":"string"}],"stateMutability":"view","type":"function"},{"inputs":[],"name":"unpause","outputs":[],"stateMutability":"nonpayable","type":"function"}],"evm":{"bytecode":{"linkReferences":{},"object":"610160604052346105f2576147a48038038061001a816105f7565b9283398101906101a0818303126105f25780516001600160401b0381116105f2578261004791830161061c565b602082015190926001600160401b0382116105f25761006791830161061c565b604082015160608301519061007e60808501610687565b60a08501516001600160601b0381168082036105f2576100a060c08801610687565b916100ad60e08901610687565b936100bb6101008a01610687565b956100c96101208b01610687565b976100d76101408c01610687565b996100e56101608d01610687565b9b610180016100f390610687565b8d51909d6001600160401b0382116103555760005490600182811c921680156105e8575b60208310146104e85781601f849311610579575b50602090601f831160011461051357600092610508575b50508160011b916000199060031b1c1916176000555b8051906001600160401b0382116103555760015490600182811c921680156104fe575b60208310146104e85781601f849311610478575b50602090601f831160011461041057600092610405575b50508160011b916000199060031b1c1916176001555b600b80546001600160a81b0319811633600881811b610100600160a81b031692909217909355604051949291901c6001600160a01b03167f8be0079c531659141344cd1fd0a4f28419497f9722a3daafe3b4186f6b6457e0600080a3600f5560105561271084116103b057506001600160a01b031691821561036b5760408051908101906001600160401b0382118183101761035557604091825284815260209081019290925260a092831b6001600160a01b031916909317600c556001600160a01b03938416608052938316905292811660c05292831660e05292909116610100526101209290925261014092909252336000908152601190925290819020805460ff1916600117905551614108908161069c82396080518181816105e3015281816113240152818161253c0152612a26015260a05181612a6d015260c05181610362015260e051818181610932015281816125fa01526128bf015261010051818181610621015281816125970152612db0015261012051818181610692015261249a01526101405181818161041301526107270152f35b634e487b7160e01b600052604160045260246000fd5b60405162461bcd60e51b815260206004820152601960248201527f455243323938313a20696e76616c6964207265636569766572000000000000006044820152606490fd5b62461bcd60e51b815260206004820152602a60248201527f455243323938313a20726f79616c7479206665652077696c6c206578636565646044820152692073616c65507269636560b01b6064820152608490fd5b0151905038806101a6565b600160009081528281209350601f198516905b8181106104605750908460019594939210610447575b505050811b016001556101bc565b015160001960f88460031b161c19169055388080610439565b92936020600181928786015181550195019301610423565b60016000529091507fb10e2d527612073b26eecdfd717e6a320cf44b4afac2b0732d9fcbe2b7fa0cf6601f840160051c810191602085106104de575b90601f859493920160051c01905b8181106104cf575061018f565b600081558493506001016104c2565b90915081906104b4565b634e487b7160e01b600052602260045260246000fd5b91607f169161017b565b015190503880610142565b60008080528281209350601f198516905b8181106105615750908460019594939210610548575b505050811b01600055610158565b015160001960f88460031b161c1916905538808061053a565b92936020600181928786015181550195019301610524565b600080529091507f290decd9548b62a8d60345a988386fc84ba6bc95484008f6362f93160ef3e563601f840160051c810191602085106105de575b90601f859493920160051c01905b8181106105cf575061012b565b600081558493506001016105c2565b90915081906105b4565b91607f1691610117565b600080fd5b6040519190601f01601f191682016001600160401b0381118382101761035557604052565b81601f820112156105f2578051906001600160401b0382116103555761064b601f8301601f19166020016105f7565b92828452602083830101116105f25760005b82811061067257505060206000918301015290565b8060208092840101518282870101520161065d565b51906001600160a01b03821682036105f25756fe6103c080604052600436101561001457600080fd5b60006103a0526103a0513560e01c90816301ffc9a71461302d5750806306fdde0314612f9b578063081812fc14612f7d578063095ea7b314612ddf57806312c4ce8814612d98578063150b7a0214612d7557806318160ddd14612d555780632367a4d714612cf457806323b872dd14612cd05780632a55205a14612bf15780632f745c5914612b375780633f4ba83a14612a9c5780633f7da2f414612a5557806341c782c514612a0e57806342842e0e146129d55780634f6ccce7146129435780635c975abb1461291e5780636352211e146128ee57806365165aa5146128a75780636817c76c1461288757806370a082311461285c578063715018a6146127f257806371c4a251146124c957806383b43b97146124825780638456cb591461242157806385c7584f1461216d5780638da5cb5b1461213e57806395d89b4114612082578063a22cb46514611fa1578063b88d4fde14611f63578063c87b56dd14611f30578063ce8f577214610b17578063cf456ae714610ab9578063d5abeb0114610a99578063da3e798b14610582578063e31edafa14610442578063e72531c8146103fb578063e985e9c514610391578063f0ebdc831461034a578063f2fde38b14610266578063f46eccc4146102235763f4a0a528146101f657600080fd5b3461021c57602036600319011261021c5761020f613b84565b600435600f556103a05180f35b6103a05180fd5b3461021c57602036600319011261021c576001600160a01b03610244613114565b166103a051526011602052602060ff60406103a0512054166040519015158152f35b3461021c57602036600319011261021c5761027f613114565b610287613b84565b6001600160a01b0381169081156102f657600b8054610100600160a81b03198116600893841b610100600160a81b0316179091556103a051911c6001600160a01b0316907f8be0079c531659141344cd1fd0a4f28419497f9722a3daafe3b4186f6b6457e09080a36103a05180f35b60405162461bcd60e51b815260206004820152602660248201527f4f776e61626c653a206e6577206f776e657220697320746865207a65726f206160448201526564647265737360d01b6064820152608490fd5b3461021c576103a05136600319011261021c576040517f00000000000000000000000000000000000000000000000000000000000000006001600160a01b03168152602090f35b3461021c57604036600319011261021c576103aa613114565b602435906001600160a01b038216820361021c5760018060a01b03166103a05152600560205260406103a051209060018060a01b0316600052602052602060ff604060002054166040519015158152f35b3461021c576103a05136600319011261021c576040517f00000000000000000000000000000000000000000000000000000000000000006001600160a01b03168152602090f35b3461021c57602036600319011261021c576004356103a0515260136020526103a05160409020610471816133c5565b61047d600183016133c5565b9161048a600282016133c5565b90600381015460ff166004820154906005830154906006840154600785015490600a86016104b7906133c5565b936104c4600b88016133c5565b956104d1600c89016133c5565b97600d016104de906133c5565b986040519b8c9b6101808d526101808d016104f8916130ef565b8c810360208e0152610509916130ef565b8b810360408d015261051a916130ef565b94151560608b015260808a015260a089015260c088015260e0870152858103610100870152610548916130ef565b84810361012086015261055a916130ef565b83810361014085015261056c916130ef565b82810361016084015261057e916130ef565b0390f35b3461021c57602036600319011261021c5761059b613114565b600e549060018201600e556105b08230613bdf565b604051633f2891eb60e21b8152466004820152306024820152604481018390526103a051909290602090849060649082907f00000000000000000000000000000000000000000000000000000000000000006001600160a01b03165af1928315610a25576103a05193610a68575b507f00000000000000000000000000000000000000000000000000000000000000006001600160a01b031691610652613ece565b5061065b613ece565b50602093610914856040516106708282613193565b6103a0518152604051906106838261315c565b60018083526001600160a01b037f00000000000000000000000000000000000000000000000000000000000000008116858501526103a08051604080870191909152815160608701526080860184905260a0808701859052825160c088015260e08701959095526301312d0061010087015281516101208701526101408601849052610160860184905281516101808701526101a0860193909352516101c08501527f0000000000000000000000000000000000000000000000000000000000000000166101e084015251906107599082613193565b607a81527f68747470733a2f2f6769746875622e636f6d2f7069706c6162732f70696c2d64838201527f6f63756d656e742f626c6f622f6164363762623633326133313064323535376660408201527f3861626363636434323865346339633739386462312f6f66662d636861696e2d60608201527f7465726d732f436f6d6d65726369616c52656d69782e6a736f6e0000000000006080820152610200820152604051809381926306e1b8d960e41b835284600484015280511515602484015260018060a01b038582015116604484015260408101516064840152606081015160848401526080810151151560a484015260a0810151151560c484015260018060a01b0360c08201511660e484015261020061088860e08301516102206101048701526102448601906130ef565b61010083015163ffffffff166101248601526101208301516101448601526101408301511515610164860152610160830151151561018486015261018083015115156101a48601526101a083015115156101c48601526101c08301516101e48601526101e08301516001600160a01b0316610204860152910151838203602319016102248501526130ef565b03816103a051895af1958615610a25576103a05196610a33575b50507f00000000000000000000000000000000000000000000000000000000000000006001600160a01b031691823b1561021c576040519262a904c360e61b845260018060a01b038316958660048601526024850152866044850152836064816103a051936103a051905af1928315610a25578693610a05575b50926109b88161057e9530613851565b604051958695827f7ab5c9eba5691e5c0cd5a034124588208fbd6e77ba26469022afa4898487f3c76103a0516103a051a484526001600160a01b0316602084015260408301526060820190565b610a159193506103a05190613193565b6103a05161021c578491866109a8565b6040513d6103a051823e3d90fd5b9080929650813d8311610a61575b610a4b8183613193565b81010312610a5c575193858061092e565b600080fd5b503d610a41565b610a8b91935060203d602011610a92575b610a838183613193565b810190613621565b918361061e565b503d610a79565b3461021c576103a05136600319011261021c576020601054604051908152f35b3461021c57604036600319011261021c57610b10610ad5613114565b610add61331f565b90610ae6613b84565b60018060a01b03166103a05152601160205260406103a051209060ff801983541691151516179055565b6103a05180f35b3461021c5761020036600319011261021c57610b31613114565b60c0526024356001600160401b03811161021c57610b5390369060040161332e565b61034052610380526044356001600160401b03811161021c57610b7a90369060040161332e565b61014052610300526064356001600160401b03811161021c57610ba190369060040161332e565b61032052610260526084356001600160401b03811161021c57610bc890369060040161332e565b610120526101605260a4356101a0819052801515900361021c57610144356001600160401b03811161021c57610c0290369060040161335b565b610180526101c052610164356001600160401b03811161021c57610c2a90369060040161335b565b6101e05261020052610184356001600160401b03811161021c57610c5290369060040161332e565b61022052610240526101a4356001600160401b03811161021c57610c7a90369060040161332e565b610280526102c0526101c4356001600160401b03811161021c57610ca290369060040161332e565b6101005260e0526101e4356001600160401b03811161021c57610cc990369060040161332e565b610360526102e052336103a05152601160205260ff60406103a05120541615611ef257610cf4613e8a565b600e546102a0526010546102a0511015611eb85760ff6040516101005160e051823760208161010051810160128152030190205416611e7e5760016102a05101600e556040516101005160e05182376020816101005181016012815203019020600160ff19825416179055610d6e6102a05160c051613bdf565b610d7f3661034051610380516131cf565b6102a0516000908152600260205260409020546001600160a01b031615611e22576102a0516103a05152600a60205260406103a05120908051906001600160401b03821161161457610dd1835461338b565b601f8111611dec575b506020906001601f841114611d7b57918091610e0f936103a0519261162e575b50508160011b916000199060031b1c19161790565b90555b60405160a052610e2360a05161312a565b610e343661014051610300516131cf565b60a05152610e493661032051610260516131cf565b602060a0510152610e613661012051610160516131cf565b604060a05101526101a0511515606060a051015260c435608060a051015260e43560a0805101526101043560c060a05101526101243560e060a0510152610eaf36610180516101c0516136af565b61010060a0510152610ec8366101e051610200516136af565b61012060a0510152610ee13661022051610240516131cf565b61014060a0510152610efa36610280516102c0516131cf565b61016060a0510152610f12366101005160e0516131cf565b61018060a0510152610f2b36610360516102e0516131cf565b6101a060a05101526102a0516103a05152601360205260406103a0512060a051519081516001600160401b03811161161457610f67825461338b565b601f8111611d45575b506020926001601f831114611cdc57610fa4929382916103a0519261162e5750508160011b916000199060031b1c19161790565b81555b602060a05101519081516001600160401b03811161161457610fcc600183015461338b565b601f8111611ca3575b506020926001601f831114611c3457611009929382916103a0519261162e5750508160011b916000199060031b1c19161790565b60018201555b604060a05101519081516001600160401b03811161161457611034600283015461338b565b601f8111611bfb575b506020926001601f831114611b8c57611071929382916103a0519261162e5750508160011b916000199060031b1c19161790565b60028201555b611098606060a05101511515600383019060ff801983541691151516179055565b60a080516080810151600484015590810151600583015560c0810151600683015560e081015160078301556101000151805190600160401b8211611614576008830154826008850155808310611afd575b506103a080516008850190525160208082209392015b8282106119e4578461012060a0510151805190600160401b8211611614576009830154826009850155808310611955575b506103a080516009850190525160208082209392015b828210611831578461014060a05101519081516001600160401b03811161161457611174600a83015461338b565b601f81116117f8575b506020926001601f831114611789576111b1929382916103a0519261162e5750508160011b916000199060031b1c19161790565b600a8201555b61016060a05101519081516001600160401b038111611614576111dd600b83015461338b565b601f8111611750575b506020926001601f8311146116e15761121a929382916103a0519261162e5750508160011b916000199060031b1c19161790565b600b8201555b61018060a05101519081516001600160401b03811161161457611246600c83015461338b565b601f81116116a8575b506020926001601f83111461163957611283929382916103a0519261162e5750508160011b916000199060031b1c19161790565b600c8201555b6101a060a05101518051906001600160401b038211611614576112af600d84015461338b565b601f81116115d0575b506020906001601f84111461155b5791806112ee92600d946103a051926115505750508160011b916000199060031b1c19161790565b9101555b604051633f2891eb60e21b81526102a05146600483015230602483015260448201526103a051602090829060649082907f00000000000000000000000000000000000000000000000000000000000000006001600160a01b03165af1908115610a25576103a05191611531575b506040516101005160e051823761010051600090820190815281900390206040516001600160a01b03928316815260c0516102a051931692907fe5cff0496ba497c569f4b79f383df03f9fbf478803b79e8926eb772db4fcf38c90602090a46040516101005160e051823780610100518101600081520390206040516080526101a0608051526114de6114c46114aa61149061144061142761140e6101a0608051016101405161030051613731565b6080518103602060805101526103205161026051613731565b6080518103604060805101526101205161016051613731565b6101a05115156060608051015260c43560808051015260e43560a060805101526101043560c060805101526101243560e0608051015260805181036101006080510152610180516101c051613752565b608051810361012060805101526101e05161020051613752565b608051810361014060805101526102205161024051613731565b60805181036101606080510152610280516102c051613731565b608051810361018060805101527f7b78166b40ce1acf69b533ea2a814f68519e9f4a4d3fecb7057e107801d1d0b86102a0519161152560805191610360516102e051613731565b03608051a36103a05180f35b61154a915060203d602011610a9257610a838183613193565b8161135f565b015190508580610dfa565b90600d84016103a05152806103a05120916103a0515b601f19851681106115b85750918391600193600d95601f1981161061159f575b505050811b019101556112f2565b015160001960f88460031b161c19169055848080611591565b91926020600181928685015181550194019201611571565b61160490600d85016103a0515260206103a05120601f850160051c8101916020861061160a575b601f0160051c019061371a565b836112b8565b90915081906115f7565b634e487b7160e01b6103a05152604160045260246103a051fd5b015190508480610dfa565b601f19821693600c84016103a05152806103a05120916103a0515b8681106116905750836001959610611677575b505050811b01600c820155611289565b015160001960f88460031b161c19169055838080611667565b91926020600181928685015181550194019201611654565b6116db90600c84016103a0515260206103a05120601f840160051c8101916020851061160a57601f0160051c019061371a565b8361124f565b601f19821693600b84016103a05152806103a05120916103a0515b868110611738575083600195961061171f575b505050811b01600b820155611220565b015160001960f88460031b161c1916905583808061170f565b919260206001819286850151815501940192016116fc565b61178390600b84016103a0515260206103a05120601f840160051c8101916020851061160a57601f0160051c019061371a565b836111e6565b601f19821693600a84016103a05152806103a05120916103a0515b8681106117e057508360019596106117c7575b505050811b01600a8201556111b7565b015160001960f88460031b161c191690558380806117b7565b919260206001819286850151815501940192016117a4565b61182b90600a84016103a0515260206103a05120601f840160051c8101916020851061160a57601f0160051c019061371a565b8361117d565b80518051906001600160401b0382116116145761184e865461338b565b601f811161191f575b506020906001601f8411146118ac5792611892836001959460209487966103a051926118a15750508160011b916000199060031b1c19161790565b87555b01940191019092611146565b015190508b80610dfa565b90601f19831691876103a05152816103a05120926103a0515b81811061190757509360209360019693879693838895106118ee575b505050811b018755611895565b015160001960f88460031b161c191690558a80806118e1565b929360206001819287860151815501950193016118c5565b61194f90876103a0515260206103a05120601f850160051c8101916020861061160a57601f0160051c019061371a565b87611857565b600984016103a0515260206103a05120908382015b818301811061197a575050611130565b806119876001925461338b565b80611994575b500161196a565b601f811183146119ac57506103a05181555b8761198d565b6119ce90826103a0515283601f60206103a05120920160051c8201910161371a565b6103a080518290525160208120818355556119a6565b80518051906001600160401b03821161161457611a01865461338b565b601f8111611ac7575b506020906001601f841114611a545792611a45836001959460209487966103a051926118a15750508160011b916000199060031b1c19161790565b87555b019401910190926110ff565b90601f19831691876103a05152816103a05120926103a0515b818110611aaf5750936020936001969387969383889510611a96575b505050811b018755611a48565b015160001960f88460031b161c191690558a8080611a89565b92936020600181928786015181550195019301611a6d565b611af790876103a0515260206103a05120601f850160051c8101916020861061160a57601f0160051c019061371a565b87611a0a565b600884016103a0515260206103a05120908382015b8183018110611b225750506110e9565b80611b2f6001925461338b565b80611b3c575b5001611b12565b601f81118314611b5457506103a05181555b87611b35565b611b7690826103a0515283601f60206103a05120920160051c8201910161371a565b6103a08051829052516020812081835555611b4e565b601f19821693600284016103a05152806103a05120916103a0515b868110611be35750836001959610611bca575b505050811b016002820155611077565b015160001960f88460031b161c19169055838080611bba565b91926020600181928685015181550194019201611ba7565b611c2e90600284016103a0515260206103a05120601f840160051c8101916020851061160a57601f0160051c019061371a565b8361103d565b601f19821693600184016103a05152806103a05120916103a0515b868110611c8b5750836001959610611c72575b505050811b01600182015561100f565b015160001960f88460031b161c19169055838080611c62565b91926020600181928685015181550194019201611c4f565b611cd690600184016103a0515260206103a05120601f840160051c8101916020851061160a57601f0160051c019061371a565b83610fd5565b601f19821693836103a05152806103a05120916103a0515b868110611d2d5750836001959610611d14575b505050811b018155610fa7565b015160001960f88460031b161c19169055838080611d07565b91926020600181928685015181550194019201611cf4565b611d7590836103a0515260206103a05120601f840160051c8101916020851061160a57601f0160051c019061371a565b83610f70565b9190836103a05152806103a05120906103a051935b601f1984168510611dd1576001945083601f19811610611db8575b505050811b019055610e12565b015160001960f88460031b161c19169055838080611dab565b81810151835560209485019460019093019290910190611d90565b611e1c90846103a0515260206103a05120601f850160051c8101916020861061160a57601f0160051c019061371a565b83610dda565b60405162461bcd60e51b815260206004820152602e60248201527f45524337323155524953746f726167653a2055524920736574206f66206e6f6e60448201526d32bc34b9ba32b73a103a37b5b2b760911b6064820152608490fd5b60405162461bcd60e51b8152602060048201526012602482015271151dd9595d08185b1c9958591e481d5cd95960721b6044820152606490fd5b60405162461bcd60e51b815260206004820152601260248201527113585e081cdd5c1c1b1e481c995858da195960721b6044820152606490fd5b60405162461bcd60e51b8152602060048201526016602482015275139bdd08185d5d1a1bdc9a5e9959081d1bc81b5a5b9d60521b6044820152606490fd5b3461021c57602036600319011261021c5761057e611f4f600435613e3e565b6040519182916020835260208301906130ef565b3461021c57610b10611f9c611f7736613206565b92611f8c611f87839493336137d8565b6134a7565b611f97838383613851565b614079565b613e1a565b3461021c57604036600319011261021c57611fba613114565b611fc261331f565b6001600160a01b039091169033821461203d57336103a05152600560205260406103a05120826000526020526120088160406000209060ff801983541691151516179055565b60405190151581527f17307eab39ab6107e8899845ad3d59bd9653f200f220920489ca2b5937696c3160203392a36103a05180f35b60405162461bcd60e51b815260206004820152601960248201527f4552433732313a20617070726f766520746f2063616c6c6572000000000000006044820152606490fd5b3461021c576103a05136600319011261021c576103a051506040516103a0516001546120ad8161338b565b808452906001811690811561211a57506001146120d5575b61057e83611f4f81850382613193565b6103a08051600190525160208120939250905b80821061210057509091508101602001611f4f6120c5565b9192600181602092548385880101520191019092916120e8565b60ff191660208086019190915291151560051b84019091019150611f4f90506120c5565b3461021c576103a05136600319011261021c57600b5460405160089190911c6001600160a01b03168152602090f35b3461021c57602036600319011261021c5760405161218a8161312a565b60608152602081016060905260408101606090526103a05160608201526103a05160808201526103a05160a08201526103a05160c08201526103a05160e08201526101008101606090526101208101606090526101408101606090526101608101606090526101808101606090526101a001606090526004356103a0515260136020526103a051604090206040516122218161312a565b61222a826133c5565b8152612238600183016133c5565b602082019081529161224c600282016133c5565b9060408301918252600381015460ff166060840190151581526004820154906080850191825260058301549060a0860191825260068401549060c08701918252600785015460e08801908152600886016122a590613657565b6101008901908152906122ba60098801613657565b6101208a01908152936122cf600a89016133c5565b6101408b01908152956122e4600b8a016133c5565b6101608c01908152976122f9600c8b016133c5565b996101808d019a8b52600d0161230e906133c5565b9a6101a08d019b8c52604051809e819e6020835251602083016101c090526101e0830161233a916130ef565b905191601f19818303019060400152612352916130ef565b90518d8203601f190160608f015261236a91906130ef565b9551151560808d01525160a08c01525160c08b01525160e08a01525161010089015251878203601f19016101208901526123a491906132c6565b9051868203601f19016101408801526123bd91906132c6565b9051858203601f19016101608701526123d691906130ef565b9051848203601f19016101808601526123ef91906130ef565b9051838203601f19016101a085015261240891906130ef565b9051828203601f19016101c084015261057e91906130ef565b3461021c576103a05136600319011261021c5761243c613b84565b612444613e8a565b600160ff19600b541617600b557f62e78cea01bee320cd4e420270b5ea74000d11b0c9f74754ebdbfc544b05a2586020604051338152a16103a05180f35b3461021c576103a05136600319011261021c576040517f00000000000000000000000000000000000000000000000000000000000000006001600160a01b03168152602090f35b3461021c57606036600319011261021c576124e2613114565b6044356001600160a01b038116810361021c57600e5460018101600e556125098130613bdf565b604051633f2891eb60e21b8152466004820152306024820152604481018290526103a051909190602090839060649082907f00000000000000000000000000000000000000000000000000000000000000006001600160a01b03165af1918215610a25576103a051926127d1575b506040516302bf96a560e01b81526001600160a01b0394851660048201527f000000000000000000000000000000000000000000000000000000000000000085166024808301919091523560448201526001606482015230608482015261010060a48201526103a08051610104830152805160c4830152805160e48301525190947f00000000000000000000000000000000000000000000000000000000000000001693906020908690610124908290885af1948515610a25576103a0519561279d575b50604080519490919061264e8387613193565b6001865260208601601f19840136823786511561278357878152813b1561021c57835180926349c5bdbd60e11b82526084820160018060a01b038916998a6004850152608060248501525180915260a4830193906103a0515b81811061276a5750505081830392600319840160448401526103a05190526103a05160648301528160206103a0519401916103a051905af1801561275d578488959361057e9795936126ff9361274a575b5030613851565b51958695827f207157178118b7cb05400c84d22fa689c2a3716eeeae7c28c0c34ac685abf9186103a0516103a051a484526001600160a01b0316602084015260408301526060820190565b6103a05161275791613193565b8a6126f8565b83513d6103a051823e3d90fd5b82518652602095860195879550909201916001016126a7565b634e487b7160e01b6103a05152603260045260246103a051fd5b9094506020813d6020116127c9575b816127b960209383613193565b8101031261021c5751938561263b565b3d91506127ac565b6127eb91925060203d602011610a9257610a838183613193565b9084612577565b3461021c576103a05136600319011261021c5761280d613b84565b600b8054610100600160a81b031981169091556103a0519060081c6001600160a01b03167f8be0079c531659141344cd1fd0a4f28419497f9722a3daafe3b4186f6b6457e08280a36103a05180f35b3461021c57602036600319011261021c57602061287f61287a613114565b6135aa565b604051908152f35b3461021c576103a05136600319011261021c576020600f54604051908152f35b3461021c576103a05136600319011261021c576040517f00000000000000000000000000000000000000000000000000000000000000006001600160a01b03168152602090f35b3461021c57602036600319011261021c57602061290c600435613587565b6040516001600160a01b039091168152f35b3461021c576103a05136600319011261021c57602060ff600b54166040519015158152f35b3461021c57602036600319011261021c5760043560085481101561297b5761296c60209161350a565b90549060031b1c604051908152f35b60405162461bcd60e51b815260206004820152602c60248201527f455243373231456e756d657261626c653a20676c6f62616c20696e646578206f60448201526b7574206f6620626f756e647360a01b6064820152608490fd5b3461021c57610b10611f9c6129e93661328c565b604051929091906129fb602085613193565b6103a0518452611f8c611f8784336137d8565b3461021c576103a05136600319011261021c576040517f00000000000000000000000000000000000000000000000000000000000000006001600160a01b03168152602090f35b3461021c576103a05136600319011261021c576040517f00000000000000000000000000000000000000000000000000000000000000006001600160a01b03168152602090f35b3461021c576103a05136600319011261021c57612ab7613b84565b600b5460ff811615612afb5760ff1916600b557f5db9ee0a495bf2e6ff9c91a7834c1ba4fdd244a5e8aa4e537bd38aeae4b073aa6020604051338152a16103a05180f35b60405162461bcd60e51b815260206004820152601460248201527314185d5cd8589b194e881b9bdd081c185d5cd95960621b6044820152606490fd5b3461021c57604036600319011261021c57612b50613114565b60243590612b5d816135aa565b821015612b985760018060a01b03166103a05152600660205260406103a05120906103a05152602052602060406103a0512054604051908152f35b60405162461bcd60e51b815260206004820152602b60248201527f455243373231456e756d657261626c653a206f776e657220696e646578206f7560448201526a74206f6620626f756e647360a81b6064820152608490fd5b3461021c57604036600319011261021c576024356004356103a05152600d60205260406103a051206103a0515060405190612c2b82613178565b546001600160a01b03811680835260a09190911c602083015215612ca7575b6bffffffffffffffffffffffff60208201511691828102928184041490151715612c8d5751604080516001600160a01b0390921682526127109092046020820152f35b634e487b7160e01b6103a05152601160045260246103a051fd5b50604051612cb481613178565b600c546001600160a01b038116825260a01c6020820152612c4a565b3461021c57610b10612ce13661328c565b91612cef611f8784336137d8565b613851565b3461021c57602036600319011261021c576004356001600160401b03811161021c5760ff612d3f6020612d2c81943690600401613271565b81604051938285809451938492016130cc565b8101601281520301902054166040519015158152f35b3461021c576103a05136600319011261021c576020600854604051908152f35b3461021c57612d8336613206565b505050506020604051630a85bd0160e11b8152f35b3461021c576103a05136600319011261021c576040517f00000000000000000000000000000000000000000000000000000000000000006001600160a01b03168152602090f35b3461021c57604036600319011261021c57612df8613114565b602435906001600160a01b03612e0d83613587565b6001600160a01b039092169116818114612f2e57803314908115612f02575b5015612e97576103a080518390526004602052516040902080546001600160a01b031916821790556001600160a01b03612e6583613587565b167f8c5be1e5ebec7d5bd14f71427d1e84f3dd0314c0f7b2291e5b200ac8c7c3b9256103a0516103a051a46103a05180f35b60405162461bcd60e51b815260206004820152603e60248201527f4552433732313a20617070726f76652063616c6c6572206973206e6f7420746f60448201527f6b656e206f776e6572206e6f7220617070726f76656420666f7220616c6c00006064820152608490fd5b6103a080519190915260056020908152815160408082203390925291529051205460ff16905083612e2c565b60405162461bcd60e51b815260206004820152602160248201527f4552433732313a20617070726f76616c20746f2063757272656e74206f776e656044820152603960f91b6064820152608490fd5b3461021c57602036600319011261021c57602061290c600435613469565b3461021c576103a05136600319011261021c576103a0516040518154909190612fc38161338b565b808452906001811690811561211a5750600114612fea5761057e83611f4f81850382613193565b6103a0805180525160208120939250905b80821061301357509091508101602001611f4f6120c5565b919260018160209254838588010152019101909291612ffb565b3461021c57602036600319011261021c576004359063ffffffff60e01b821680920361021c5760209163152a902d60e11b811490811561306f575b5015158152f35b63780e9d6360e01b811491508115613089575b5083613068565b6380ac58cd60e01b8114915081156130bb575b81156130aa575b5083613082565b6301ffc9a760e01b149050836130a3565b635b5e139f60e01b8114915061309c565b60005b8381106130df5750506000910152565b81810151838201526020016130cf565b90602091613108815180928185528580860191016130cc565b601f01601f1916010190565b600435906001600160a01b0382168203610a5c57565b6101c081019081106001600160401b0382111761314657604052565b634e487b7160e01b600052604160045260246000fd5b61022081019081106001600160401b0382111761314657604052565b604081019081106001600160401b0382111761314657604052565b90601f801991011681019081106001600160401b0382111761314657604052565b6001600160401b03811161314657601f01601f191660200190565b9291926131db826131b4565b916131e96040519384613193565b829481845281830111610a5c578281602093846000960137010152565b906080600319830112610a5c576004356001600160a01b0381168103610a5c57916024356001600160a01b0381168103610a5c579160443591606435906001600160401b038211610a5c5780602383011215610a5c5781602461326e936004013591016131cf565b90565b9080601f83011215610a5c5781602061326e933591016131cf565b6060906003190112610a5c576004356001600160a01b0381168103610a5c57906024356001600160a01b0381168103610a5c579060443590565b9080602083519182815201916020808360051b8301019401926000915b8383106132f257505050505090565b9091929394602080613310600193601f1986820301875289516130ef565b970193019301919392906132e3565b602435908115158203610a5c57565b9181601f84011215610a5c578235916001600160401b038311610a5c5760208381860195010111610a5c57565b9181601f84011215610a5c578235916001600160401b038311610a5c576020808501948460051b010111610a5c57565b90600182811c921680156133bb575b60208310146133a557565b634e487b7160e01b600052602260045260246000fd5b91607f169161339a565b90604051918260008254926133d98461338b565b80845293600181169081156134475750600114613400575b506133fe92500383613193565b565b90506000929192526020600020906000915b81831061342b5750509060206133fe92820101386133f1565b6020919350806001915483858901015201910190918492613412565b9050602092506133fe94915060ff191682840152151560051b820101386133f1565b60008181526002602052604090205461348c906001600160a01b0316151561353b565b6000908152600460205260409020546001600160a01b031690565b156134ae57565b60405162461bcd60e51b815260206004820152602e60248201527f4552433732313a2063616c6c6572206973206e6f7420746f6b656e206f776e6560448201526d1c881b9bdc88185c1c1c9bdd995960921b6064820152608490fd5b60085481101561352557600860005260206000200190600090565b634e487b7160e01b600052603260045260246000fd5b1561354257565b60405162461bcd60e51b815260206004820152601860248201527f4552433732313a20696e76616c696420746f6b656e20494400000000000000006044820152606490fd5b6000908152600260205260409020546001600160a01b031661326e81151561353b565b6001600160a01b031680156135ca57600052600360205260406000205490565b60405162461bcd60e51b815260206004820152602960248201527f4552433732313a2061646472657373207a65726f206973206e6f7420612076616044820152683634b21037bbb732b960b91b6064820152608490fd5b90816020910312610a5c57516001600160a01b0381168103610a5c5790565b6001600160401b0381116131465760051b60200190565b90815461366381613640565b926136716040519485613193565b818452602084019060005260206000206000915b8383106136925750505050565b6001602081926136a1856133c5565b815201920192019190613685565b9291906136bb81613640565b936136c96040519586613193565b602085838152019160051b810191838311610a5c5781905b8382106136ef575050505050565b81356001600160401b038111610a5c5760209161370f8784938701613271565b8152019101906136e1565b818110613725575050565b6000815560010161371a565b908060209392818452848401376000828201840152601f01601f1916010190565b90602083828152019060208160051b85010193836000915b83831061377a5750505050505090565b909192939495601f198282030186528635601e1984360301811215610a5c57830190602082359201916001600160401b038111610a5c578036038313610a5c576137ca6020928392600195613731565b98019601949301919061376a565b906001600160a01b036137ea82613587565b6001600160a01b039093169216828114929190831561382a575b50821561381057505090565b9091506001600160a01b039061382590613469565b161490565b909250600052600560205260406000208160005260205260ff604060002054169138613804565b9061385b83613587565b6001600160a01b03838116929116829003613b31576001600160a01b038116928315613ae05782613a2a575060085484600052600960205280604060002055600160401b81101561314657846138ba8260016138d3940160085561350a565b90919082549060031b91821b91600019901b1916179055565b6000908284036139f6575b5060ff600b54166139c85783815260046020526040812080546001600160a01b031916905583816001600160a01b0361391683613587565b167f8c5be1e5ebec7d5bd14f71427d1e84f3dd0314c0f7b2291e5b200ac8c7c3b9258280a481815260036020526040812080546000198101919082116139b45755828152600360205260408120805490600182018092116139b4575583815260026020526040812080546001600160a01b031916841790557fddf252ad1be2c89b69c2b068fc378daa952ba7f163c4a11628f55a4df523b3ef9080a4565b634e487b7160e01b83526011600452602483fd5b60405162461bcd60e51b815260206004820152600660248201526514185d5cd95960d21b6044820152606490fd5b6139ff906135aa565b83825260066020526040822081835260205284604083205584825260076020526040822055386138de565b838303613a38575b506138d3565b613a41906135aa565b6000198101908111613aca57846000526007602052604060002054818103613a97575b50846000526007602052600060408120558260005260066020526040600020906000526020526000604081205538613a32565b60008481526006602090815260408083208584528252808320548484528184208190558352600790915290205538613a64565b634e487b7160e01b600052601160045260246000fd5b60405162461bcd60e51b8152602060048201526024808201527f4552433732313a207472616e7366657220746f20746865207a65726f206164646044820152637265737360e01b6064820152608490fd5b60405162461bcd60e51b815260206004820152602560248201527f4552433732313a207472616e736665722066726f6d20696e636f72726563742060448201526437bbb732b960d91b6064820152608490fd5b600b5460081c6001600160a01b03163303613b9b57565b606460405162461bcd60e51b815260206004820152602060248201527f4f776e61626c653a2063616c6c6572206973206e6f7420746865206f776e65726044820152fd5b60405191906020613bf08185613193565b600084526001600160a01b038216908115613d84576000848152600260205260409020546001600160a01b0316613d4057600854846000526009825280604060002055600160401b81101561314657846138ba826001613c53940160085561350a565b600090613c5f846135aa565b8383526006825260408320818452825285604084205585835260078252604083205560ff600b5416613d1357828252600381526040822080549060018201809211613cff5792600287959293611f9c98946133fe9a9896558483525260408120826bffffffffffffffffffffffff60a01b8254161790557fddf252ad1be2c89b69c2b068fc378daa952ba7f163c4a11628f55a4df523b3ef8180a4613f58565b634e487b7160e01b84526011600452602484fd5b6064906040519062461bcd60e51b82526004820152600660248201526514185d5cd95960d21b6044820152fd5b6064906040519062461bcd60e51b82526004820152601c60248201527f4552433732313a20746f6b656e20616c7265616479206d696e746564000000006044820152fd5b6064906040519062461bcd60e51b825280600483015260248201527f4552433732313a206d696e7420746f20746865207a65726f20616464726573736044820152fd5b60809060208152603260208201527f4552433732313a207472616e7366657220746f206e6f6e20455243373231526560408201527131b2b4bb32b91034b6b83632b6b2b73a32b960711b60608201520190565b15613e2157565b60405162461bcd60e51b815280613e3a60048201613dc7565b0390fd5b600081815260026020526040902054613e61906001600160a01b0316151561353b565b600052600a602052613e7660406000206133c5565b6000604051613e86602082613193565b5290565b60ff600b5416613e9657565b60405162461bcd60e51b815260206004820152601060248201526f14185d5cd8589b194e881c185d5cd95960821b6044820152606490fd5b60405190613edb8261315c565b60606102008360008152600060208201526000604082015260008382015260006080820152600060a0820152600060c08201528260e08201526000610100820152600061012082015260006101408201526000610160820152600061018082015260006101a082015260006101c082015260006101e08201520152565b91823b1561407157613f9e926020926000604051809681958294630a85bd0160e11b845233600485015284602485015260448401526080606484015260848301906130ef565b03926001600160a01b03165af18091600091614027575b5090614011573d1561400a573d613fcb816131b4565b90613fd96040519283613193565b81523d6000602083013e5b805190816140055760405162461bcd60e51b815280613e3a60048201613dc7565b602001fd5b6060613fe4565b6001600160e01b031916630a85bd0160e11b1490565b6020813d602011614069575b8161404060209383613193565b810103126140655751906001600160e01b031982168203614062575038613fb5565b80fd5b5080fd5b3d9150614033565b505050600190565b919290803b156140c957613f9e93600060209460405196879586948593630a85bd0160e11b855233600486015260018060a01b0316602485015260448401526080606484015260848301906130ef565b5050505060019056fea264697066735822122062ed5b3df796a1218b39f56ec94531dd16e82a15243ff05132d53c421c13788064736f6c634300081a0033","opcodes":"PUSH2 0x160 PUSH1 0x40 MSTORE CALLVALUE PUSH2 0x5F2 JUMPI PUSH2 0x47A4 DUP1 CODESIZE SUB DUP1 PUSH2 0x1A DUP2 PUSH2 0x5F7 JUMP JUMPDEST SWAP3 DUP4 CODECOPY DUP2 ADD SWAP1 PUSH2 0x1A0 DUP2 DUP4 SUB SLT PUSH2 0x5F2 JUMPI DUP1 MLOAD PUSH1 0x1 PUSH1 0x1 PUSH1 0x40 SHL SUB DUP2 GT PUSH2 0x5F2 JUMPI DUP3 PUSH2 0x47 SWAP2 DUP4 ADD PUSH2 0x61C JUMP JUMPDEST PUSH1 0x20 DUP3 ADD MLOAD SWAP1 SWAP3 PUSH1 0x1 PUSH1 0x1 PUSH1 0x40 SHL SUB DUP3 GT PUSH2 0x5F2 JUMPI PUSH2 0x67 SWAP2 DUP4 ADD PUSH2 0x61C JUMP JUMPDEST PUSH1 0x40 DUP3 ADD MLOAD PUSH1 0x60 DUP4 ADD MLOAD SWAP1 PUSH2 0x7E PUSH1 0x80 DUP6 ADD PUSH2 0x687 JUMP JUMPDEST PUSH1 0xA0 DUP6 ADD MLOAD PUSH1 0x1 PUSH1 0x1 PUSH1 0x60 SHL SUB DUP2 AND DUP1 DUP3 SUB PUSH2 0x5F2 JUMPI PUSH2 0xA0 PUSH1 0xC0 DUP9 ADD PUSH2 0x687 JUMP JUMPDEST SWAP2 PUSH2 0xAD PUSH1 0xE0 DUP10 ADD PUSH2 0x687 JUMP JUMPDEST SWAP4 PUSH2 0xBB PUSH2 0x100 DUP11 ADD PUSH2 0x687 JUMP JUMPDEST SWAP6 PUSH2 0xC9 PUSH2 0x120 DUP12 ADD PUSH2 0x687 JUMP JUMPDEST SWAP8 PUSH2 0xD7 PUSH2 0x140 DUP13 ADD PUSH2 0x687 JUMP JUMPDEST SWAP10 PUSH2 0xE5 PUSH2 0x160 DUP14 ADD PUSH2 0x687 JUMP JUMPDEST SWAP12 PUSH2 0x180 ADD PUSH2 0xF3 SWAP1 PUSH2 0x687 JUMP JUMPDEST DUP14 MLOAD SWAP1 SWAP14 PUSH1 0x1 PUSH1 0x1 PUSH1 0x40 SHL SUB DUP3 GT PUSH2 0x355 JUMPI PUSH1 0x0 SLOAD SWAP1 PUSH1 0x1 DUP3 DUP2 SHR SWAP3 AND DUP1 ISZERO PUSH2 0x5E8 JUMPI JUMPDEST PUSH1 0x20 DUP4 LT EQ PUSH2 0x4E8 JUMPI DUP2 PUSH1 0x1F DUP5 SWAP4 GT PUSH2 0x579 JUMPI JUMPDEST POP PUSH1 0x20 SWAP1 PUSH1 0x1F DUP4 GT PUSH1 0x1 EQ PUSH2 0x513 JUMPI PUSH1 0x0 SWAP3 PUSH2 0x508 JUMPI JUMPDEST POP POP DUP2 PUSH1 0x1 SHL SWAP2 PUSH1 0x0 NOT SWAP1 PUSH1 0x3 SHL SHR NOT AND OR PUSH1 0x0 SSTORE JUMPDEST DUP1 MLOAD SWAP1 PUSH1 0x1 PUSH1 0x1 PUSH1 0x40 SHL SUB DUP3 GT PUSH2 0x355 JUMPI PUSH1 0x1 SLOAD SWAP1 PUSH1 0x1 DUP3 DUP2 SHR SWAP3 AND DUP1 ISZERO PUSH2 0x4FE JUMPI JUMPDEST PUSH1 0x20 DUP4 LT EQ PUSH2 0x4E8 JUMPI DUP2 PUSH1 0x1F DUP5 SWAP4 GT PUSH2 0x478 JUMPI JUMPDEST POP PUSH1 0x20 SWAP1 PUSH1 0x1F DUP4 GT PUSH1 0x1 EQ PUSH2 0x410 JUMPI PUSH1 0x0 SWAP3 PUSH2 0x405 JUMPI JUMPDEST POP POP DUP2 PUSH1 0x1 SHL SWAP2 PUSH1 0x0 NOT SWAP1 PUSH1 0x3 SHL SHR NOT AND OR PUSH1 0x1 SSTORE JUMPDEST PUSH1 0xB DUP1 SLOAD PUSH1 0x1 PUSH1 0x1 PUSH1 0xA8 SHL SUB NOT DUP2 AND CALLER PUSH1 0x8 DUP2 DUP2 SHL PUSH2 0x100 PUSH1 0x1 PUSH1 0xA8 SHL SUB AND SWAP3 SWAP1 SWAP3 OR SWAP1 SWAP4 SSTORE PUSH1 0x40 MLOAD SWAP5 SWAP3 SWAP2 SWAP1 SHR PUSH1 0x1 PUSH1 0x1 PUSH1 0xA0 SHL SUB AND PUSH32 0x8BE0079C531659141344CD1FD0A4F28419497F9722A3DAAFE3B4186F6B6457E0 PUSH1 0x0 DUP1 LOG3 PUSH1 0xF SSTORE PUSH1 0x10 SSTORE PUSH2 0x2710 DUP5 GT PUSH2 0x3B0 JUMPI POP PUSH1 0x1 PUSH1 0x1 PUSH1 0xA0 SHL SUB AND SWAP2 DUP3 ISZERO PUSH2 0x36B JUMPI PUSH1 0x40 DUP1 MLOAD SWAP1 DUP2 ADD SWAP1 PUSH1 0x1 PUSH1 0x1 PUSH1 0x40 SHL SUB DUP3 GT DUP2 DUP4 LT OR PUSH2 0x355 JUMPI PUSH1 0x40 SWAP2 DUP3 MSTORE DUP5 DUP2 MSTORE PUSH1 0x20 SWAP1 DUP2 ADD SWAP3 SWAP1 SWAP3 MSTORE PUSH1 0xA0 SWAP3 DUP4 SHL PUSH1 0x1 PUSH1 0x1 PUSH1 0xA0 SHL SUB NOT AND SWAP1 SWAP4 OR PUSH1 0xC SSTORE PUSH1 0x1 PUSH1 0x1 PUSH1 0xA0 SHL SUB SWAP4 DUP5 AND PUSH1 0x80 MSTORE SWAP4 DUP4 AND SWAP1 MSTORE SWAP3 DUP2 AND PUSH1 0xC0 MSTORE SWAP3 DUP4 AND PUSH1 0xE0 MSTORE SWAP3 SWAP1 SWAP2 AND PUSH2 0x100 MSTORE PUSH2 0x120 SWAP3 SWAP1 SWAP3 MSTORE PUSH2 0x140 SWAP3 SWAP1 SWAP3 MSTORE CALLER PUSH1 0x0 SWAP1 DUP2 MSTORE PUSH1 0x11 SWAP1 SWAP3 MSTORE SWAP1 DUP2 SWAP1 KECCAK256 DUP1 SLOAD PUSH1 0xFF NOT AND PUSH1 0x1 OR SWAP1 SSTORE MLOAD PUSH2 0x4108 SWAP1 DUP2 PUSH2 0x69C DUP3 CODECOPY PUSH1 0x80 MLOAD DUP2 DUP2 DUP2 PUSH2 0x5E3 ADD MSTORE DUP2 DUP2 PUSH2 0x1324 ADD MSTORE DUP2 DUP2 PUSH2 0x253C ADD MSTORE PUSH2 0x2A26 ADD MSTORE PUSH1 0xA0 MLOAD DUP2 PUSH2 0x2A6D ADD MSTORE PUSH1 0xC0 MLOAD DUP2 PUSH2 0x362 ADD MSTORE PUSH1 0xE0 MLOAD DUP2 DUP2 DUP2 PUSH2 0x932 ADD MSTORE DUP2 DUP2 PUSH2 0x25FA ADD MSTORE PUSH2 0x28BF ADD MSTORE PUSH2 0x100 MLOAD DUP2 DUP2 DUP2 PUSH2 0x621 ADD MSTORE DUP2 DUP2 PUSH2 0x2597 ADD MSTORE PUSH2 0x2DB0 ADD MSTORE PUSH2 0x120 MLOAD DUP2 DUP2 DUP2 PUSH2 0x692 ADD MSTORE PUSH2 0x249A ADD MSTORE PUSH2 0x140 MLOAD DUP2 DUP2 DUP2 PUSH2 0x413 ADD MSTORE PUSH2 0x727 ADD MSTORE RETURN JUMPDEST PUSH4 0x4E487B71 PUSH1 0xE0 SHL PUSH1 0x0 MSTORE PUSH1 0x41 PUSH1 0x4 MSTORE PUSH1 0x24 PUSH1 0x0 REVERT JUMPDEST PUSH1 0x40 MLOAD PUSH3 0x461BCD PUSH1 0xE5 SHL DUP2 MSTORE PUSH1 0x20 PUSH1 0x4 DUP3 ADD MSTORE PUSH1 0x19 PUSH1 0x24 DUP3 ADD MSTORE PUSH32 0x455243323938313A20696E76616C696420726563656976657200000000000000 PUSH1 0x44 DUP3 ADD MSTORE PUSH1 0x64 SWAP1 REVERT JUMPDEST PUSH3 0x461BCD PUSH1 0xE5 SHL DUP2 MSTORE PUSH1 0x20 PUSH1 0x4 DUP3 ADD MSTORE PUSH1 0x2A PUSH1 0x24 DUP3 ADD MSTORE PUSH32 0x455243323938313A20726F79616C7479206665652077696C6C20657863656564 PUSH1 0x44 DUP3 ADD MSTORE PUSH10 0x2073616C655072696365 PUSH1 0xB0 SHL PUSH1 0x64 DUP3 ADD MSTORE PUSH1 0x84 SWAP1 REVERT JUMPDEST ADD MLOAD SWAP1 POP CODESIZE DUP1 PUSH2 0x1A6 JUMP JUMPDEST PUSH1 0x1 PUSH1 0x0 SWAP1 DUP2 MSTORE DUP3 DUP2 KECCAK256 SWAP4 POP PUSH1 0x1F NOT DUP6 AND SWAP1 JUMPDEST DUP2 DUP2 LT PUSH2 0x460 JUMPI POP SWAP1 DUP5 PUSH1 0x1 SWAP6 SWAP5 SWAP4 SWAP3 LT PUSH2 0x447 JUMPI JUMPDEST POP POP POP DUP2 SHL ADD PUSH1 0x1 SSTORE PUSH2 0x1BC JUMP JUMPDEST ADD MLOAD PUSH1 0x0 NOT PUSH1 0xF8 DUP5 PUSH1 0x3 SHL AND SHR NOT AND SWAP1 SSTORE CODESIZE DUP1 DUP1 PUSH2 0x439 JUMP JUMPDEST SWAP3 SWAP4 PUSH1 0x20 PUSH1 0x1 DUP2 SWAP3 DUP8 DUP7 ADD MLOAD DUP2 SSTORE ADD SWAP6 ADD SWAP4 ADD PUSH2 0x423 JUMP JUMPDEST PUSH1 0x1 PUSH1 0x0 MSTORE SWAP1 SWAP2 POP PUSH32 0xB10E2D527612073B26EECDFD717E6A320CF44B4AFAC2B0732D9FCBE2B7FA0CF6 PUSH1 0x1F DUP5 ADD PUSH1 0x5 SHR DUP2 ADD SWAP2 PUSH1 0x20 DUP6 LT PUSH2 0x4DE JUMPI JUMPDEST SWAP1 PUSH1 0x1F DUP6 SWAP5 SWAP4 SWAP3 ADD PUSH1 0x5 SHR ADD SWAP1 JUMPDEST DUP2 DUP2 LT PUSH2 0x4CF JUMPI POP PUSH2 0x18F JUMP JUMPDEST PUSH1 0x0 DUP2 SSTORE DUP5 SWAP4 POP PUSH1 0x1 ADD PUSH2 0x4C2 JUMP JUMPDEST SWAP1 SWAP2 POP DUP2 SWAP1 PUSH2 0x4B4 JUMP JUMPDEST PUSH4 0x4E487B71 PUSH1 0xE0 SHL PUSH1 0x0 MSTORE PUSH1 0x22 PUSH1 0x4 MSTORE PUSH1 0x24 PUSH1 0x0 REVERT JUMPDEST SWAP2 PUSH1 0x7F AND SWAP2 PUSH2 0x17B JUMP JUMPDEST ADD MLOAD SWAP1 POP CODESIZE DUP1 PUSH2 0x142 JUMP JUMPDEST PUSH1 0x0 DUP1 DUP1 MSTORE DUP3 DUP2 KECCAK256 SWAP4 POP PUSH1 0x1F NOT DUP6 AND SWAP1 JUMPDEST DUP2 DUP2 LT PUSH2 0x561 JUMPI POP SWAP1 DUP5 PUSH1 0x1 SWAP6 SWAP5 SWAP4 SWAP3 LT PUSH2 0x548 JUMPI JUMPDEST POP POP POP DUP2 SHL ADD PUSH1 0x0 SSTORE PUSH2 0x158 JUMP JUMPDEST ADD MLOAD PUSH1 0x0 NOT PUSH1 0xF8 DUP5 PUSH1 0x3 SHL AND SHR NOT AND SWAP1 SSTORE CODESIZE DUP1 DUP1 PUSH2 0x53A JUMP JUMPDEST SWAP3 SWAP4 PUSH1 0x20 PUSH1 0x1 DUP2 SWAP3 DUP8 DUP7 ADD MLOAD DUP2 SSTORE ADD SWAP6 ADD SWAP4 ADD PUSH2 0x524 JUMP JUMPDEST PUSH1 0x0 DUP1 MSTORE SWAP1 SWAP2 POP PUSH32 0x290DECD9548B62A8D60345A988386FC84BA6BC95484008F6362F93160EF3E563 PUSH1 0x1F DUP5 ADD PUSH1 0x5 SHR DUP2 ADD SWAP2 PUSH1 0x20 DUP6 LT PUSH2 0x5DE JUMPI JUMPDEST SWAP1 PUSH1 0x1F DUP6 SWAP5 SWAP4 SWAP3 ADD PUSH1 0x5 SHR ADD SWAP1 JUMPDEST DUP2 DUP2 LT PUSH2 0x5CF JUMPI POP PUSH2 0x12B JUMP JUMPDEST PUSH1 0x0 DUP2 SSTORE DUP5 SWAP4 POP PUSH1 0x1 ADD PUSH2 0x5C2 JUMP JUMPDEST SWAP1 SWAP2 POP DUP2 SWAP1 PUSH2 0x5B4 JUMP JUMPDEST SWAP2 PUSH1 0x7F AND SWAP2 PUSH2 0x117 JUMP JUMPDEST PUSH1 0x0 DUP1 REVERT JUMPDEST PUSH1 0x40 MLOAD SWAP2 SWAP1 PUSH1 0x1F ADD PUSH1 0x1F NOT AND DUP3 ADD PUSH1 0x1 PUSH1 0x1 PUSH1 0x40 SHL SUB DUP2 GT DUP4 DUP3 LT OR PUSH2 0x355 JUMPI PUSH1 0x40 MSTORE JUMP JUMPDEST DUP2 PUSH1 0x1F DUP3 ADD SLT ISZERO PUSH2 0x5F2 JUMPI DUP1 MLOAD SWAP1 PUSH1 0x1 PUSH1 0x1 PUSH1 0x40 SHL SUB DUP3 GT PUSH2 0x355 JUMPI PUSH2 0x64B PUSH1 0x1F DUP4 ADD PUSH1 0x1F NOT AND PUSH1 0x20 ADD PUSH2 0x5F7 JUMP JUMPDEST SWAP3 DUP3 DUP5 MSTORE PUSH1 0x20 DUP4 DUP4 ADD ADD GT PUSH2 0x5F2 JUMPI PUSH1 0x0 JUMPDEST DUP3 DUP2 LT PUSH2 0x672 JUMPI POP POP PUSH1 0x20 PUSH1 0x0 SWAP2 DUP4 ADD ADD MSTORE SWAP1 JUMP JUMPDEST DUP1 PUSH1 0x20 DUP1 SWAP3 DUP5 ADD ADD MLOAD DUP3 DUP3 DUP8 ADD ADD MSTORE ADD PUSH2 0x65D JUMP JUMPDEST MLOAD SWAP1 PUSH1 0x1 PUSH1 0x1 PUSH1 0xA0 SHL SUB DUP3 AND DUP3 SUB PUSH2 0x5F2 JUMPI JUMP INVALID PUSH2 0x3C0 DUP1 PUSH1 0x40 MSTORE PUSH1 0x4 CALLDATASIZE LT ISZERO PUSH2 0x14 JUMPI PUSH1 0x0 DUP1 REVERT JUMPDEST PUSH1 0x0 PUSH2 0x3A0 MSTORE PUSH2 0x3A0 MLOAD CALLDATALOAD PUSH1 0xE0 SHR SWAP1 DUP2 PUSH4 0x1FFC9A7 EQ PUSH2 0x302D JUMPI POP DUP1 PUSH4 0x6FDDE03 EQ PUSH2 0x2F9B JUMPI DUP1 PUSH4 0x81812FC EQ PUSH2 0x2F7D JUMPI DUP1 PUSH4 0x95EA7B3 EQ PUSH2 0x2DDF JUMPI DUP1 PUSH4 0x12C4CE88 EQ PUSH2 0x2D98 JUMPI DUP1 PUSH4 0x150B7A02 EQ PUSH2 0x2D75 JUMPI DUP1 PUSH4 0x18160DDD EQ PUSH2 0x2D55 JUMPI DUP1 PUSH4 0x2367A4D7 EQ PUSH2 0x2CF4 JUMPI DUP1 PUSH4 0x23B872DD EQ PUSH2 0x2CD0 JUMPI DUP1 PUSH4 0x2A55205A EQ PUSH2 0x2BF1 JUMPI DUP1 PUSH4 0x2F745C59 EQ PUSH2 0x2B37 JUMPI DUP1 PUSH4 0x3F4BA83A EQ PUSH2 0x2A9C JUMPI DUP1 PUSH4 0x3F7DA2F4 EQ PUSH2 0x2A55 JUMPI DUP1 PUSH4 0x41C782C5 EQ PUSH2 0x2A0E JUMPI DUP1 PUSH4 0x42842E0E EQ PUSH2 0x29D5 JUMPI DUP1 PUSH4 0x4F6CCCE7 EQ PUSH2 0x2943 JUMPI DUP1 PUSH4 0x5C975ABB EQ PUSH2 0x291E JUMPI DUP1 PUSH4 0x6352211E EQ PUSH2 0x28EE JUMPI DUP1 PUSH4 0x65165AA5 EQ PUSH2 0x28A7 JUMPI DUP1 PUSH4 0x6817C76C EQ PUSH2 0x2887 JUMPI DUP1 PUSH4 0x70A08231 EQ PUSH2 0x285C JUMPI DUP1 PUSH4 0x715018A6 EQ PUSH2 0x27F2 JUMPI DUP1 PUSH4 0x71C4A251 EQ PUSH2 0x24C9 JUMPI DUP1 PUSH4 0x83B43B97 EQ PUSH2 0x2482 JUMPI DUP1 PUSH4 0x8456CB59 EQ PUSH2 0x2421 JUMPI DUP1 PUSH4 0x85C7584F EQ PUSH2 0x216D JUMPI DUP1 PUSH4 0x8DA5CB5B EQ PUSH2 0x213E JUMPI DUP1 PUSH4 0x95D89B41 EQ PUSH2 0x2082 JUMPI DUP1 PUSH4 0xA22CB465 EQ PUSH2 0x1FA1 JUMPI DUP1 PUSH4 0xB88D4FDE EQ PUSH2 0x1F63 JUMPI DUP1 PUSH4 0xC87B56DD EQ PUSH2 0x1F30 JUMPI DUP1 PUSH4 0xCE8F5772 EQ PUSH2 0xB17 JUMPI DUP1 PUSH4 0xCF456AE7 EQ PUSH2 0xAB9 JUMPI DUP1 PUSH4 0xD5ABEB01 EQ PUSH2 0xA99 JUMPI DUP1 PUSH4 0xDA3E798B EQ PUSH2 0x582 JUMPI DUP1 PUSH4 0xE31EDAFA EQ PUSH2 0x442 JUMPI DUP1 PUSH4 0xE72531C8 EQ PUSH2 0x3FB JUMPI DUP1 PUSH4 0xE985E9C5 EQ PUSH2 0x391 JUMPI DUP1 PUSH4 0xF0EBDC83 EQ PUSH2 0x34A JUMPI DUP1 PUSH4 0xF2FDE38B EQ PUSH2 0x266 JUMPI DUP1 PUSH4 0xF46ECCC4 EQ PUSH2 0x223 JUMPI PUSH4 0xF4A0A528 EQ PUSH2 0x1F6 JUMPI PUSH1 0x0 DUP1 REVERT JUMPDEST CALLVALUE PUSH2 0x21C JUMPI PUSH1 0x20 CALLDATASIZE PUSH1 0x3 NOT ADD SLT PUSH2 0x21C JUMPI PUSH2 0x20F PUSH2 0x3B84 JUMP JUMPDEST PUSH1 0x4 CALLDATALOAD PUSH1 0xF SSTORE PUSH2 0x3A0 MLOAD DUP1 RETURN JUMPDEST PUSH2 0x3A0 MLOAD DUP1 REVERT JUMPDEST CALLVALUE PUSH2 0x21C JUMPI PUSH1 0x20 CALLDATASIZE PUSH1 0x3 NOT ADD SLT PUSH2 0x21C JUMPI PUSH1 0x1 PUSH1 0x1 PUSH1 0xA0 SHL SUB PUSH2 0x244 PUSH2 0x3114 JUMP JUMPDEST AND PUSH2 0x3A0 MLOAD MSTORE PUSH1 0x11 PUSH1 0x20 MSTORE PUSH1 0x20 PUSH1 0xFF PUSH1 0x40 PUSH2 0x3A0 MLOAD KECCAK256 SLOAD AND PUSH1 0x40 MLOAD SWAP1 ISZERO ISZERO DUP2 MSTORE RETURN JUMPDEST CALLVALUE PUSH2 0x21C JUMPI PUSH1 0x20 CALLDATASIZE PUSH1 0x3 NOT ADD SLT PUSH2 0x21C JUMPI PUSH2 0x27F PUSH2 0x3114 JUMP JUMPDEST PUSH2 0x287 PUSH2 0x3B84 JUMP JUMPDEST PUSH1 0x1 PUSH1 0x1 PUSH1 0xA0 SHL SUB DUP2 AND SWAP1 DUP2 ISZERO PUSH2 0x2F6 JUMPI PUSH1 0xB DUP1 SLOAD PUSH2 0x100 PUSH1 0x1 PUSH1 0xA8 SHL SUB NOT DUP2 AND PUSH1 0x8 SWAP4 DUP5 SHL PUSH2 0x100 PUSH1 0x1 PUSH1 0xA8 SHL SUB AND OR SWAP1 SWAP2 SSTORE PUSH2 0x3A0 MLOAD SWAP2 SHR PUSH1 0x1 PUSH1 0x1 PUSH1 0xA0 SHL SUB AND SWAP1 PUSH32 0x8BE0079C531659141344CD1FD0A4F28419497F9722A3DAAFE3B4186F6B6457E0 SWAP1 DUP1 LOG3 PUSH2 0x3A0 MLOAD DUP1 RETURN JUMPDEST PUSH1 0x40 MLOAD PUSH3 0x461BCD PUSH1 0xE5 SHL DUP2 MSTORE PUSH1 0x20 PUSH1 0x4 DUP3 ADD MSTORE PUSH1 0x26 PUSH1 0x24 DUP3 ADD MSTORE PUSH32 0x4F776E61626C653A206E6577206F776E657220697320746865207A65726F2061 PUSH1 0x44 DUP3 ADD MSTORE PUSH6 0x646472657373 PUSH1 0xD0 SHL PUSH1 0x64 DUP3 ADD MSTORE PUSH1 0x84 SWAP1 REVERT JUMPDEST CALLVALUE PUSH2 0x21C JUMPI PUSH2 0x3A0 MLOAD CALLDATASIZE PUSH1 0x3 NOT ADD SLT PUSH2 0x21C JUMPI PUSH1 0x40 MLOAD PUSH32 0x0 PUSH1 0x1 PUSH1 0x1 PUSH1 0xA0 SHL SUB AND DUP2 MSTORE PUSH1 0x20 SWAP1 RETURN JUMPDEST CALLVALUE PUSH2 0x21C JUMPI PUSH1 0x40 CALLDATASIZE PUSH1 0x3 NOT ADD SLT PUSH2 0x21C JUMPI PUSH2 0x3AA PUSH2 0x3114 JUMP JUMPDEST PUSH1 0x24 CALLDATALOAD SWAP1 PUSH1 0x1 PUSH1 0x1 PUSH1 0xA0 SHL SUB DUP3 AND DUP3 SUB PUSH2 0x21C JUMPI PUSH1 0x1 DUP1 PUSH1 0xA0 SHL SUB AND PUSH2 0x3A0 MLOAD MSTORE PUSH1 0x5 PUSH1 0x20 MSTORE PUSH1 0x40 PUSH2 0x3A0 MLOAD KECCAK256 SWAP1 PUSH1 0x1 DUP1 PUSH1 0xA0 SHL SUB AND PUSH1 0x0 MSTORE PUSH1 0x20 MSTORE PUSH1 0x20 PUSH1 0xFF PUSH1 0x40 PUSH1 0x0 KECCAK256 SLOAD AND PUSH1 0x40 MLOAD SWAP1 ISZERO ISZERO DUP2 MSTORE RETURN JUMPDEST CALLVALUE PUSH2 0x21C JUMPI PUSH2 0x3A0 MLOAD CALLDATASIZE PUSH1 0x3 NOT ADD SLT PUSH2 0x21C JUMPI PUSH1 0x40 MLOAD PUSH32 0x0 PUSH1 0x1 PUSH1 0x1 PUSH1 0xA0 SHL SUB AND DUP2 MSTORE PUSH1 0x20 SWAP1 RETURN JUMPDEST CALLVALUE PUSH2 0x21C JUMPI PUSH1 0x20 CALLDATASIZE PUSH1 0x3 NOT ADD SLT PUSH2 0x21C JUMPI PUSH1 0x4 CALLDATALOAD PUSH2 0x3A0 MLOAD MSTORE PUSH1 0x13 PUSH1 0x20 MSTORE PUSH2 0x3A0 MLOAD PUSH1 0x40 SWAP1 KECCAK256 PUSH2 0x471 DUP2 PUSH2 0x33C5 JUMP JUMPDEST PUSH2 0x47D PUSH1 0x1 DUP4 ADD PUSH2 0x33C5 JUMP JUMPDEST SWAP2 PUSH2 0x48A PUSH1 0x2 DUP3 ADD PUSH2 0x33C5 JUMP JUMPDEST SWAP1 PUSH1 0x3 DUP2 ADD SLOAD PUSH1 0xFF AND PUSH1 0x4 DUP3 ADD SLOAD SWAP1 PUSH1 0x5 DUP4 ADD SLOAD SWAP1 PUSH1 0x6 DUP5 ADD SLOAD PUSH1 0x7 DUP6 ADD SLOAD SWAP1 PUSH1 0xA DUP7 ADD PUSH2 0x4B7 SWAP1 PUSH2 0x33C5 JUMP JUMPDEST SWAP4 PUSH2 0x4C4 PUSH1 0xB DUP9 ADD PUSH2 0x33C5 JUMP JUMPDEST SWAP6 PUSH2 0x4D1 PUSH1 0xC DUP10 ADD PUSH2 0x33C5 JUMP JUMPDEST SWAP8 PUSH1 0xD ADD PUSH2 0x4DE SWAP1 PUSH2 0x33C5 JUMP JUMPDEST SWAP9 PUSH1 0x40 MLOAD SWAP12 DUP13 SWAP12 PUSH2 0x180 DUP14 MSTORE PUSH2 0x180 DUP14 ADD PUSH2 0x4F8 SWAP2 PUSH2 0x30EF JUMP JUMPDEST DUP13 DUP2 SUB PUSH1 0x20 DUP15 ADD MSTORE PUSH2 0x509 SWAP2 PUSH2 0x30EF JUMP JUMPDEST DUP12 DUP2 SUB PUSH1 0x40 DUP14 ADD MSTORE PUSH2 0x51A SWAP2 PUSH2 0x30EF JUMP JUMPDEST SWAP5 ISZERO ISZERO PUSH1 0x60 DUP12 ADD MSTORE PUSH1 0x80 DUP11 ADD MSTORE PUSH1 0xA0 DUP10 ADD MSTORE PUSH1 0xC0 DUP9 ADD MSTORE PUSH1 0xE0 DUP8 ADD MSTORE DUP6 DUP2 SUB PUSH2 0x100 DUP8 ADD MSTORE PUSH2 0x548 SWAP2 PUSH2 0x30EF JUMP JUMPDEST DUP5 DUP2 SUB PUSH2 0x120 DUP7 ADD MSTORE PUSH2 0x55A SWAP2 PUSH2 0x30EF JUMP JUMPDEST DUP4 DUP2 SUB PUSH2 0x140 DUP6 ADD MSTORE PUSH2 0x56C SWAP2 PUSH2 0x30EF JUMP JUMPDEST DUP3 DUP2 SUB PUSH2 0x160 DUP5 ADD MSTORE PUSH2 0x57E SWAP2 PUSH2 0x30EF JUMP JUMPDEST SUB SWAP1 RETURN JUMPDEST CALLVALUE PUSH2 0x21C JUMPI PUSH1 0x20 CALLDATASIZE PUSH1 0x3 NOT ADD SLT PUSH2 0x21C JUMPI PUSH2 0x59B PUSH2 0x3114 JUMP JUMPDEST PUSH1 0xE SLOAD SWAP1 PUSH1 0x1 DUP3 ADD PUSH1 0xE SSTORE PUSH2 0x5B0 DUP3 ADDRESS PUSH2 0x3BDF JUMP JUMPDEST PUSH1 0x40 MLOAD PUSH4 0x3F2891EB PUSH1 0xE2 SHL DUP2 MSTORE CHAINID PUSH1 0x4 DUP3 ADD MSTORE ADDRESS PUSH1 0x24 DUP3 ADD MSTORE PUSH1 0x44 DUP2 ADD DUP4 SWAP1 MSTORE PUSH2 0x3A0 MLOAD SWAP1 SWAP3 SWAP1 PUSH1 0x20 SWAP1 DUP5 SWAP1 PUSH1 0x64 SWAP1 DUP3 SWAP1 PUSH32 0x0 PUSH1 0x1 PUSH1 0x1 PUSH1 0xA0 SHL SUB AND GAS CALL SWAP3 DUP4 ISZERO PUSH2 0xA25 JUMPI PUSH2 0x3A0 MLOAD SWAP4 PUSH2 0xA68 JUMPI JUMPDEST POP PUSH32 0x0 PUSH1 0x1 PUSH1 0x1 PUSH1 0xA0 SHL SUB AND SWAP2 PUSH2 0x652 PUSH2 0x3ECE JUMP JUMPDEST POP PUSH2 0x65B PUSH2 0x3ECE JUMP JUMPDEST POP PUSH1 0x20 SWAP4 PUSH2 0x914 DUP6 PUSH1 0x40 MLOAD PUSH2 0x670 DUP3 DUP3 PUSH2 0x3193 JUMP JUMPDEST PUSH2 0x3A0 MLOAD DUP2 MSTORE PUSH1 0x40 MLOAD SWAP1 PUSH2 0x683 DUP3 PUSH2 0x315C JUMP JUMPDEST PUSH1 0x1 DUP1 DUP4 MSTORE PUSH1 0x1 PUSH1 0x1 PUSH1 0xA0 SHL SUB PUSH32 0x0 DUP2 AND DUP6 DUP6 ADD MSTORE PUSH2 0x3A0 DUP1 MLOAD PUSH1 0x40 DUP1 DUP8 ADD SWAP2 SWAP1 SWAP2 MSTORE DUP2 MLOAD PUSH1 0x60 DUP8 ADD MSTORE PUSH1 0x80 DUP7 ADD DUP5 SWAP1 MSTORE PUSH1 0xA0 DUP1 DUP8 ADD DUP6 SWAP1 MSTORE DUP3 MLOAD PUSH1 0xC0 DUP9 ADD MSTORE PUSH1 0xE0 DUP8 ADD SWAP6 SWAP1 SWAP6 MSTORE PUSH4 0x1312D00 PUSH2 0x100 DUP8 ADD MSTORE DUP2 MLOAD PUSH2 0x120 DUP8 ADD MSTORE PUSH2 0x140 DUP7 ADD DUP5 SWAP1 MSTORE PUSH2 0x160 DUP7 ADD DUP5 SWAP1 MSTORE DUP2 MLOAD PUSH2 0x180 DUP8 ADD MSTORE PUSH2 0x1A0 DUP7 ADD SWAP4 SWAP1 SWAP4 MSTORE MLOAD PUSH2 0x1C0 DUP6 ADD MSTORE PUSH32 0x0 AND PUSH2 0x1E0 DUP5 ADD MSTORE MLOAD SWAP1 PUSH2 0x759 SWAP1 DUP3 PUSH2 0x3193 JUMP JUMPDEST PUSH1 0x7A DUP2 MSTORE PUSH32 0x68747470733A2F2F6769746875622E636F6D2F7069706C6162732F70696C2D64 DUP4 DUP3 ADD MSTORE PUSH32 0x6F63756D656E742F626C6F622F61643637626236333261333130643235353766 PUSH1 0x40 DUP3 ADD MSTORE PUSH32 0x3861626363636434323865346339633739386462312F6F66662D636861696E2D PUSH1 0x60 DUP3 ADD MSTORE PUSH32 0x7465726D732F436F6D6D65726369616C52656D69782E6A736F6E000000000000 PUSH1 0x80 DUP3 ADD MSTORE PUSH2 0x200 DUP3 ADD MSTORE PUSH1 0x40 MLOAD DUP1 SWAP4 DUP2 SWAP3 PUSH4 0x6E1B8D9 PUSH1 0xE4 SHL DUP4 MSTORE DUP5 PUSH1 0x4 DUP5 ADD MSTORE DUP1 MLOAD ISZERO ISZERO PUSH1 0x24 DUP5 ADD MSTORE PUSH1 0x1 DUP1 PUSH1 0xA0 SHL SUB DUP6 DUP3 ADD MLOAD AND PUSH1 0x44 DUP5 ADD MSTORE PUSH1 0x40 DUP2 ADD MLOAD PUSH1 0x64 DUP5 ADD MSTORE PUSH1 0x60 DUP2 ADD MLOAD PUSH1 0x84 DUP5 ADD MSTORE PUSH1 0x80 DUP2 ADD MLOAD ISZERO ISZERO PUSH1 0xA4 DUP5 ADD MSTORE PUSH1 0xA0 DUP2 ADD MLOAD ISZERO ISZERO PUSH1 0xC4 DUP5 ADD MSTORE PUSH1 0x1 DUP1 PUSH1 0xA0 SHL SUB PUSH1 0xC0 DUP3 ADD MLOAD AND PUSH1 0xE4 DUP5 ADD MSTORE PUSH2 0x200 PUSH2 0x888 PUSH1 0xE0 DUP4 ADD MLOAD PUSH2 0x220 PUSH2 0x104 DUP8 ADD MSTORE PUSH2 0x244 DUP7 ADD SWAP1 PUSH2 0x30EF JUMP JUMPDEST PUSH2 0x100 DUP4 ADD MLOAD PUSH4 0xFFFFFFFF AND PUSH2 0x124 DUP7 ADD MSTORE PUSH2 0x120 DUP4 ADD MLOAD PUSH2 0x144 DUP7 ADD MSTORE PUSH2 0x140 DUP4 ADD MLOAD ISZERO ISZERO PUSH2 0x164 DUP7 ADD MSTORE PUSH2 0x160 DUP4 ADD MLOAD ISZERO ISZERO PUSH2 0x184 DUP7 ADD MSTORE PUSH2 0x180 DUP4 ADD MLOAD ISZERO ISZERO PUSH2 0x1A4 DUP7 ADD MSTORE PUSH2 0x1A0 DUP4 ADD MLOAD ISZERO ISZERO PUSH2 0x1C4 DUP7 ADD MSTORE PUSH2 0x1C0 DUP4 ADD MLOAD PUSH2 0x1E4 DUP7 ADD MSTORE PUSH2 0x1E0 DUP4 ADD MLOAD PUSH1 0x1 PUSH1 0x1 PUSH1 0xA0 SHL SUB AND PUSH2 0x204 DUP7 ADD MSTORE SWAP2 ADD MLOAD DUP4 DUP3 SUB PUSH1 0x23 NOT ADD PUSH2 0x224 DUP6 ADD MSTORE PUSH2 0x30EF JUMP JUMPDEST SUB DUP2 PUSH2 0x3A0 MLOAD DUP10 GAS CALL SWAP6 DUP7 ISZERO PUSH2 0xA25 JUMPI PUSH2 0x3A0 MLOAD SWAP7 PUSH2 0xA33 JUMPI JUMPDEST POP POP PUSH32 0x0 PUSH1 0x1 PUSH1 0x1 PUSH1 0xA0 SHL SUB AND SWAP2 DUP3 EXTCODESIZE ISZERO PUSH2 0x21C JUMPI PUSH1 0x40 MLOAD SWAP3 PUSH3 0xA904C3 PUSH1 0xE6 SHL DUP5 MSTORE PUSH1 0x1 DUP1 PUSH1 0xA0 SHL SUB DUP4 AND SWAP6 DUP7 PUSH1 0x4 DUP7 ADD MSTORE PUSH1 0x24 DUP6 ADD MSTORE DUP7 PUSH1 0x44 DUP6 ADD MSTORE DUP4 PUSH1 0x64 DUP2 PUSH2 0x3A0 MLOAD SWAP4 PUSH2 0x3A0 MLOAD SWAP1 GAS CALL SWAP3 DUP4 ISZERO PUSH2 0xA25 JUMPI DUP7 SWAP4 PUSH2 0xA05 JUMPI JUMPDEST POP SWAP3 PUSH2 0x9B8 DUP2 PUSH2 0x57E SWAP6 ADDRESS PUSH2 0x3851 JUMP JUMPDEST PUSH1 0x40 MLOAD SWAP6 DUP7 SWAP6 DUP3 PUSH32 0x7AB5C9EBA5691E5C0CD5A034124588208FBD6E77BA26469022AFA4898487F3C7 PUSH2 0x3A0 MLOAD PUSH2 0x3A0 MLOAD LOG4 DUP5 MSTORE PUSH1 0x1 PUSH1 0x1 PUSH1 0xA0 SHL SUB AND PUSH1 0x20 DUP5 ADD MSTORE PUSH1 0x40 DUP4 ADD MSTORE PUSH1 0x60 DUP3 ADD SWAP1 JUMP JUMPDEST PUSH2 0xA15 SWAP2 SWAP4 POP PUSH2 0x3A0 MLOAD SWAP1 PUSH2 0x3193 JUMP JUMPDEST PUSH2 0x3A0 MLOAD PUSH2 0x21C JUMPI DUP5 SWAP2 DUP7 PUSH2 0x9A8 JUMP JUMPDEST PUSH1 0x40 MLOAD RETURNDATASIZE PUSH2 0x3A0 MLOAD DUP3 RETURNDATACOPY RETURNDATASIZE SWAP1 REVERT JUMPDEST SWAP1 DUP1 SWAP3 SWAP7 POP DUP2 RETURNDATASIZE DUP4 GT PUSH2 0xA61 JUMPI JUMPDEST PUSH2 0xA4B DUP2 DUP4 PUSH2 0x3193 JUMP JUMPDEST DUP2 ADD SUB SLT PUSH2 0xA5C JUMPI MLOAD SWAP4 DUP6 DUP1 PUSH2 0x92E JUMP JUMPDEST PUSH1 0x0 DUP1 REVERT JUMPDEST POP RETURNDATASIZE PUSH2 0xA41 JUMP JUMPDEST PUSH2 0xA8B SWAP2 SWAP4 POP PUSH1 0x20 RETURNDATASIZE PUSH1 0x20 GT PUSH2 0xA92 JUMPI JUMPDEST PUSH2 0xA83 DUP2 DUP4 PUSH2 0x3193 JUMP JUMPDEST DUP2 ADD SWAP1 PUSH2 0x3621 JUMP JUMPDEST SWAP2 DUP4 PUSH2 0x61E JUMP JUMPDEST POP RETURNDATASIZE PUSH2 0xA79 JUMP JUMPDEST CALLVALUE PUSH2 0x21C JUMPI PUSH2 0x3A0 MLOAD CALLDATASIZE PUSH1 0x3 NOT ADD SLT PUSH2 0x21C JUMPI PUSH1 0x20 PUSH1 0x10 SLOAD PUSH1 0x40 MLOAD SWAP1 DUP2 MSTORE RETURN JUMPDEST CALLVALUE PUSH2 0x21C JUMPI PUSH1 0x40 CALLDATASIZE PUSH1 0x3 NOT ADD SLT PUSH2 0x21C JUMPI PUSH2 0xB10 PUSH2 0xAD5 PUSH2 0x3114 JUMP JUMPDEST PUSH2 0xADD PUSH2 0x331F JUMP JUMPDEST SWAP1 PUSH2 0xAE6 PUSH2 0x3B84 JUMP JUMPDEST PUSH1 0x1 DUP1 PUSH1 0xA0 SHL SUB AND PUSH2 0x3A0 MLOAD MSTORE PUSH1 0x11 PUSH1 0x20 MSTORE PUSH1 0x40 PUSH2 0x3A0 MLOAD KECCAK256 SWAP1 PUSH1 0xFF DUP1 NOT DUP4 SLOAD AND SWAP2 ISZERO ISZERO AND OR SWAP1 SSTORE JUMP JUMPDEST PUSH2 0x3A0 MLOAD DUP1 RETURN JUMPDEST CALLVALUE PUSH2 0x21C JUMPI PUSH2 0x200 CALLDATASIZE PUSH1 0x3 NOT ADD SLT PUSH2 0x21C JUMPI PUSH2 0xB31 PUSH2 0x3114 JUMP JUMPDEST PUSH1 0xC0 MSTORE PUSH1 0x24 CALLDATALOAD PUSH1 0x1 PUSH1 0x1 PUSH1 0x40 SHL SUB DUP2 GT PUSH2 0x21C JUMPI PUSH2 0xB53 SWAP1 CALLDATASIZE SWAP1 PUSH1 0x4 ADD PUSH2 0x332E JUMP JUMPDEST PUSH2 0x340 MSTORE PUSH2 0x380 MSTORE PUSH1 0x44 CALLDATALOAD PUSH1 0x1 PUSH1 0x1 PUSH1 0x40 SHL SUB DUP2 GT PUSH2 0x21C JUMPI PUSH2 0xB7A SWAP1 CALLDATASIZE SWAP1 PUSH1 0x4 ADD PUSH2 0x332E JUMP JUMPDEST PUSH2 0x140 MSTORE PUSH2 0x300 MSTORE PUSH1 0x64 CALLDATALOAD PUSH1 0x1 PUSH1 0x1 PUSH1 0x40 SHL SUB DUP2 GT PUSH2 0x21C JUMPI PUSH2 0xBA1 SWAP1 CALLDATASIZE SWAP1 PUSH1 0x4 ADD PUSH2 0x332E JUMP JUMPDEST PUSH2 0x320 MSTORE PUSH2 0x260 MSTORE PUSH1 0x84 CALLDATALOAD PUSH1 0x1 PUSH1 0x1 PUSH1 0x40 SHL SUB DUP2 GT PUSH2 0x21C JUMPI PUSH2 0xBC8 SWAP1 CALLDATASIZE SWAP1 PUSH1 0x4 ADD PUSH2 0x332E JUMP JUMPDEST PUSH2 0x120 MSTORE PUSH2 0x160 MSTORE PUSH1 0xA4 CALLDATALOAD PUSH2 0x1A0 DUP2 SWAP1 MSTORE DUP1 ISZERO ISZERO SWAP1 SUB PUSH2 0x21C JUMPI PUSH2 0x144 CALLDATALOAD PUSH1 0x1 PUSH1 0x1 PUSH1 0x40 SHL SUB DUP2 GT PUSH2 0x21C JUMPI PUSH2 0xC02 SWAP1 CALLDATASIZE SWAP1 PUSH1 0x4 ADD PUSH2 0x335B JUMP JUMPDEST PUSH2 0x180 MSTORE PUSH2 0x1C0 MSTORE PUSH2 0x164 CALLDATALOAD PUSH1 0x1 PUSH1 0x1 PUSH1 0x40 SHL SUB DUP2 GT PUSH2 0x21C JUMPI PUSH2 0xC2A SWAP1 CALLDATASIZE SWAP1 PUSH1 0x4 ADD PUSH2 0x335B JUMP JUMPDEST PUSH2 0x1E0 MSTORE PUSH2 0x200 MSTORE PUSH2 0x184 CALLDATALOAD PUSH1 0x1 PUSH1 0x1 PUSH1 0x40 SHL SUB DUP2 GT PUSH2 0x21C JUMPI PUSH2 0xC52 SWAP1 CALLDATASIZE SWAP1 PUSH1 0x4 ADD PUSH2 0x332E JUMP JUMPDEST PUSH2 0x220 MSTORE PUSH2 0x240 MSTORE PUSH2 0x1A4 CALLDATALOAD PUSH1 0x1 PUSH1 0x1 PUSH1 0x40 SHL SUB DUP2 GT PUSH2 0x21C JUMPI PUSH2 0xC7A SWAP1 CALLDATASIZE SWAP1 PUSH1 0x4 ADD PUSH2 0x332E JUMP JUMPDEST PUSH2 0x280 MSTORE PUSH2 0x2C0 MSTORE PUSH2 0x1C4 CALLDATALOAD PUSH1 0x1 PUSH1 0x1 PUSH1 0x40 SHL SUB DUP2 GT PUSH2 0x21C JUMPI PUSH2 0xCA2 SWAP1 CALLDATASIZE SWAP1 PUSH1 0x4 ADD PUSH2 0x332E JUMP JUMPDEST PUSH2 0x100 MSTORE PUSH1 0xE0 MSTORE PUSH2 0x1E4 CALLDATALOAD PUSH1 0x1 PUSH1 0x1 PUSH1 0x40 SHL SUB DUP2 GT PUSH2 0x21C JUMPI PUSH2 0xCC9 SWAP1 CALLDATASIZE SWAP1 PUSH1 0x4 ADD PUSH2 0x332E JUMP JUMPDEST PUSH2 0x360 MSTORE PUSH2 0x2E0 MSTORE CALLER PUSH2 0x3A0 MLOAD MSTORE PUSH1 0x11 PUSH1 0x20 MSTORE PUSH1 0xFF PUSH1 0x40 PUSH2 0x3A0 MLOAD KECCAK256 SLOAD AND ISZERO PUSH2 0x1EF2 JUMPI PUSH2 0xCF4 PUSH2 0x3E8A JUMP JUMPDEST PUSH1 0xE SLOAD PUSH2 0x2A0 MSTORE PUSH1 0x10 SLOAD PUSH2 0x2A0 MLOAD LT ISZERO PUSH2 0x1EB8 JUMPI PUSH1 0xFF PUSH1 0x40 MLOAD PUSH2 0x100 MLOAD PUSH1 0xE0 MLOAD DUP3 CALLDATACOPY PUSH1 0x20 DUP2 PUSH2 0x100 MLOAD DUP2 ADD PUSH1 0x12 DUP2 MSTORE SUB ADD SWAP1 KECCAK256 SLOAD AND PUSH2 0x1E7E JUMPI PUSH1 0x1 PUSH2 0x2A0 MLOAD ADD PUSH1 0xE SSTORE PUSH1 0x40 MLOAD PUSH2 0x100 MLOAD PUSH1 0xE0 MLOAD DUP3 CALLDATACOPY PUSH1 0x20 DUP2 PUSH2 0x100 MLOAD DUP2 ADD PUSH1 0x12 DUP2 MSTORE SUB ADD SWAP1 KECCAK256 PUSH1 0x1 PUSH1 0xFF NOT DUP3 SLOAD AND OR SWAP1 SSTORE PUSH2 0xD6E PUSH2 0x2A0 MLOAD PUSH1 0xC0 MLOAD PUSH2 0x3BDF JUMP JUMPDEST PUSH2 0xD7F CALLDATASIZE PUSH2 0x340 MLOAD PUSH2 0x380 MLOAD PUSH2 0x31CF JUMP JUMPDEST PUSH2 0x2A0 MLOAD PUSH1 0x0 SWAP1 DUP2 MSTORE PUSH1 0x2 PUSH1 0x20 MSTORE PUSH1 0x40 SWAP1 KECCAK256 SLOAD PUSH1 0x1 PUSH1 0x1 PUSH1 0xA0 SHL SUB AND ISZERO PUSH2 0x1E22 JUMPI PUSH2 0x2A0 MLOAD PUSH2 0x3A0 MLOAD MSTORE PUSH1 0xA PUSH1 0x20 MSTORE PUSH1 0x40 PUSH2 0x3A0 MLOAD KECCAK256 SWAP1 DUP1 MLOAD SWAP1 PUSH1 0x1 PUSH1 0x1 PUSH1 0x40 SHL SUB DUP3 GT PUSH2 0x1614 JUMPI PUSH2 0xDD1 DUP4 SLOAD PUSH2 0x338B JUMP JUMPDEST PUSH1 0x1F DUP2 GT PUSH2 0x1DEC JUMPI JUMPDEST POP PUSH1 0x20 SWAP1 PUSH1 0x1 PUSH1 0x1F DUP5 GT EQ PUSH2 0x1D7B JUMPI SWAP2 DUP1 SWAP2 PUSH2 0xE0F SWAP4 PUSH2 0x3A0 MLOAD SWAP3 PUSH2 0x162E JUMPI JUMPDEST POP POP DUP2 PUSH1 0x1 SHL SWAP2 PUSH1 0x0 NOT SWAP1 PUSH1 0x3 SHL SHR NOT AND OR SWAP1 JUMP JUMPDEST SWAP1 SSTORE JUMPDEST PUSH1 0x40 MLOAD PUSH1 0xA0 MSTORE PUSH2 0xE23 PUSH1 0xA0 MLOAD PUSH2 0x312A JUMP JUMPDEST PUSH2 0xE34 CALLDATASIZE PUSH2 0x140 MLOAD PUSH2 0x300 MLOAD PUSH2 0x31CF JUMP JUMPDEST PUSH1 0xA0 MLOAD MSTORE PUSH2 0xE49 CALLDATASIZE PUSH2 0x320 MLOAD PUSH2 0x260 MLOAD PUSH2 0x31CF JUMP JUMPDEST PUSH1 0x20 PUSH1 0xA0 MLOAD ADD MSTORE PUSH2 0xE61 CALLDATASIZE PUSH2 0x120 MLOAD PUSH2 0x160 MLOAD PUSH2 0x31CF JUMP JUMPDEST PUSH1 0x40 PUSH1 0xA0 MLOAD ADD MSTORE PUSH2 0x1A0 MLOAD ISZERO ISZERO PUSH1 0x60 PUSH1 0xA0 MLOAD ADD MSTORE PUSH1 0xC4 CALLDATALOAD PUSH1 0x80 PUSH1 0xA0 MLOAD ADD MSTORE PUSH1 0xE4 CALLDATALOAD PUSH1 0xA0 DUP1 MLOAD ADD MSTORE PUSH2 0x104 CALLDATALOAD PUSH1 0xC0 PUSH1 0xA0 MLOAD ADD MSTORE PUSH2 0x124 CALLDATALOAD PUSH1 0xE0 PUSH1 0xA0 MLOAD ADD MSTORE PUSH2 0xEAF CALLDATASIZE PUSH2 0x180 MLOAD PUSH2 0x1C0 MLOAD PUSH2 0x36AF JUMP JUMPDEST PUSH2 0x100 PUSH1 0xA0 MLOAD ADD MSTORE PUSH2 0xEC8 CALLDATASIZE PUSH2 0x1E0 MLOAD PUSH2 0x200 MLOAD PUSH2 0x36AF JUMP JUMPDEST PUSH2 0x120 PUSH1 0xA0 MLOAD ADD MSTORE PUSH2 0xEE1 CALLDATASIZE PUSH2 0x220 MLOAD PUSH2 0x240 MLOAD PUSH2 0x31CF JUMP JUMPDEST PUSH2 0x140 PUSH1 0xA0 MLOAD ADD MSTORE PUSH2 0xEFA CALLDATASIZE PUSH2 0x280 MLOAD PUSH2 0x2C0 MLOAD PUSH2 0x31CF JUMP JUMPDEST PUSH2 0x160 PUSH1 0xA0 MLOAD ADD MSTORE PUSH2 0xF12 CALLDATASIZE PUSH2 0x100 MLOAD PUSH1 0xE0 MLOAD PUSH2 0x31CF JUMP JUMPDEST PUSH2 0x180 PUSH1 0xA0 MLOAD ADD MSTORE PUSH2 0xF2B CALLDATASIZE PUSH2 0x360 MLOAD PUSH2 0x2E0 MLOAD PUSH2 0x31CF JUMP JUMPDEST PUSH2 0x1A0 PUSH1 0xA0 MLOAD ADD MSTORE PUSH2 0x2A0 MLOAD PUSH2 0x3A0 MLOAD MSTORE PUSH1 0x13 PUSH1 0x20 MSTORE PUSH1 0x40 PUSH2 0x3A0 MLOAD KECCAK256 PUSH1 0xA0 MLOAD MLOAD SWAP1 DUP2 MLOAD PUSH1 0x1 PUSH1 0x1 PUSH1 0x40 SHL SUB DUP2 GT PUSH2 0x1614 JUMPI PUSH2 0xF67 DUP3 SLOAD PUSH2 0x338B JUMP JUMPDEST PUSH1 0x1F DUP2 GT PUSH2 0x1D45 JUMPI JUMPDEST POP PUSH1 0x20 SWAP3 PUSH1 0x1 PUSH1 0x1F DUP4 GT EQ PUSH2 0x1CDC JUMPI PUSH2 0xFA4 SWAP3 SWAP4 DUP3 SWAP2 PUSH2 0x3A0 MLOAD SWAP3 PUSH2 0x162E JUMPI POP POP DUP2 PUSH1 0x1 SHL SWAP2 PUSH1 0x0 NOT SWAP1 PUSH1 0x3 SHL SHR NOT AND OR SWAP1 JUMP JUMPDEST DUP2 SSTORE JUMPDEST PUSH1 0x20 PUSH1 0xA0 MLOAD ADD MLOAD SWAP1 DUP2 MLOAD PUSH1 0x1 PUSH1 0x1 PUSH1 0x40 SHL SUB DUP2 GT PUSH2 0x1614 JUMPI PUSH2 0xFCC PUSH1 0x1 DUP4 ADD SLOAD PUSH2 0x338B JUMP JUMPDEST PUSH1 0x1F DUP2 GT PUSH2 0x1CA3 JUMPI JUMPDEST POP PUSH1 0x20 SWAP3 PUSH1 0x1 PUSH1 0x1F DUP4 GT EQ PUSH2 0x1C34 JUMPI PUSH2 0x1009 SWAP3 SWAP4 DUP3 SWAP2 PUSH2 0x3A0 MLOAD SWAP3 PUSH2 0x162E JUMPI POP POP DUP2 PUSH1 0x1 SHL SWAP2 PUSH1 0x0 NOT SWAP1 PUSH1 0x3 SHL SHR NOT AND OR SWAP1 JUMP JUMPDEST PUSH1 0x1 DUP3 ADD SSTORE JUMPDEST PUSH1 0x40 PUSH1 0xA0 MLOAD ADD MLOAD SWAP1 DUP2 MLOAD PUSH1 0x1 PUSH1 0x1 PUSH1 0x40 SHL SUB DUP2 GT PUSH2 0x1614 JUMPI PUSH2 0x1034 PUSH1 0x2 DUP4 ADD SLOAD PUSH2 0x338B JUMP JUMPDEST PUSH1 0x1F DUP2 GT PUSH2 0x1BFB JUMPI JUMPDEST POP PUSH1 0x20 SWAP3 PUSH1 0x1 PUSH1 0x1F DUP4 GT EQ PUSH2 0x1B8C JUMPI PUSH2 0x1071 SWAP3 SWAP4 DUP3 SWAP2 PUSH2 0x3A0 MLOAD SWAP3 PUSH2 0x162E JUMPI POP POP DUP2 PUSH1 0x1 SHL SWAP2 PUSH1 0x0 NOT SWAP1 PUSH1 0x3 SHL SHR NOT AND OR SWAP1 JUMP JUMPDEST PUSH1 0x2 DUP3 ADD SSTORE JUMPDEST PUSH2 0x1098 PUSH1 0x60 PUSH1 0xA0 MLOAD ADD MLOAD ISZERO ISZERO PUSH1 0x3 DUP4 ADD SWAP1 PUSH1 0xFF DUP1 NOT DUP4 SLOAD AND SWAP2 ISZERO ISZERO AND OR SWAP1 SSTORE JUMP JUMPDEST PUSH1 0xA0 DUP1 MLOAD PUSH1 0x80 DUP2 ADD MLOAD PUSH1 0x4 DUP5 ADD SSTORE SWAP1 DUP2 ADD MLOAD PUSH1 0x5 DUP4 ADD SSTORE PUSH1 0xC0 DUP2 ADD MLOAD PUSH1 0x6 DUP4 ADD SSTORE PUSH1 0xE0 DUP2 ADD MLOAD PUSH1 0x7 DUP4 ADD SSTORE PUSH2 0x100 ADD MLOAD DUP1 MLOAD SWAP1 PUSH1 0x1 PUSH1 0x40 SHL DUP3 GT PUSH2 0x1614 JUMPI PUSH1 0x8 DUP4 ADD SLOAD DUP3 PUSH1 0x8 DUP6 ADD SSTORE DUP1 DUP4 LT PUSH2 0x1AFD JUMPI JUMPDEST POP PUSH2 0x3A0 DUP1 MLOAD PUSH1 0x8 DUP6 ADD SWAP1 MSTORE MLOAD PUSH1 0x20 DUP1 DUP3 KECCAK256 SWAP4 SWAP3 ADD JUMPDEST DUP3 DUP3 LT PUSH2 0x19E4 JUMPI DUP5 PUSH2 0x120 PUSH1 0xA0 MLOAD ADD MLOAD DUP1 MLOAD SWAP1 PUSH1 0x1 PUSH1 0x40 SHL DUP3 GT PUSH2 0x1614 JUMPI PUSH1 0x9 DUP4 ADD SLOAD DUP3 PUSH1 0x9 DUP6 ADD SSTORE DUP1 DUP4 LT PUSH2 0x1955 JUMPI JUMPDEST POP PUSH2 0x3A0 DUP1 MLOAD PUSH1 0x9 DUP6 ADD SWAP1 MSTORE MLOAD PUSH1 0x20 DUP1 DUP3 KECCAK256 SWAP4 SWAP3 ADD JUMPDEST DUP3 DUP3 LT PUSH2 0x1831 JUMPI DUP5 PUSH2 0x140 PUSH1 0xA0 MLOAD ADD MLOAD SWAP1 DUP2 MLOAD PUSH1 0x1 PUSH1 0x1 PUSH1 0x40 SHL SUB DUP2 GT PUSH2 0x1614 JUMPI PUSH2 0x1174 PUSH1 0xA DUP4 ADD SLOAD PUSH2 0x338B JUMP JUMPDEST PUSH1 0x1F DUP2 GT PUSH2 0x17F8 JUMPI JUMPDEST POP PUSH1 0x20 SWAP3 PUSH1 0x1 PUSH1 0x1F DUP4 GT EQ PUSH2 0x1789 JUMPI PUSH2 0x11B1 SWAP3 SWAP4 DUP3 SWAP2 PUSH2 0x3A0 MLOAD SWAP3 PUSH2 0x162E JUMPI POP POP DUP2 PUSH1 0x1 SHL SWAP2 PUSH1 0x0 NOT SWAP1 PUSH1 0x3 SHL SHR NOT AND OR SWAP1 JUMP JUMPDEST PUSH1 0xA DUP3 ADD SSTORE JUMPDEST PUSH2 0x160 PUSH1 0xA0 MLOAD ADD MLOAD SWAP1 DUP2 MLOAD PUSH1 0x1 PUSH1 0x1 PUSH1 0x40 SHL SUB DUP2 GT PUSH2 0x1614 JUMPI PUSH2 0x11DD PUSH1 0xB DUP4 ADD SLOAD PUSH2 0x338B JUMP JUMPDEST PUSH1 0x1F DUP2 GT PUSH2 0x1750 JUMPI JUMPDEST POP PUSH1 0x20 SWAP3 PUSH1 0x1 PUSH1 0x1F DUP4 GT EQ PUSH2 0x16E1 JUMPI PUSH2 0x121A SWAP3 SWAP4 DUP3 SWAP2 PUSH2 0x3A0 MLOAD SWAP3 PUSH2 0x162E JUMPI POP POP DUP2 PUSH1 0x1 SHL SWAP2 PUSH1 0x0 NOT SWAP1 PUSH1 0x3 SHL SHR NOT AND OR SWAP1 JUMP JUMPDEST PUSH1 0xB DUP3 ADD SSTORE JUMPDEST PUSH2 0x180 PUSH1 0xA0 MLOAD ADD MLOAD SWAP1 DUP2 MLOAD PUSH1 0x1 PUSH1 0x1 PUSH1 0x40 SHL SUB DUP2 GT PUSH2 0x1614 JUMPI PUSH2 0x1246 PUSH1 0xC DUP4 ADD SLOAD PUSH2 0x338B JUMP JUMPDEST PUSH1 0x1F DUP2 GT PUSH2 0x16A8 JUMPI JUMPDEST POP PUSH1 0x20 SWAP3 PUSH1 0x1 PUSH1 0x1F DUP4 GT EQ PUSH2 0x1639 JUMPI PUSH2 0x1283 SWAP3 SWAP4 DUP3 SWAP2 PUSH2 0x3A0 MLOAD SWAP3 PUSH2 0x162E JUMPI POP POP DUP2 PUSH1 0x1 SHL SWAP2 PUSH1 0x0 NOT SWAP1 PUSH1 0x3 SHL SHR NOT AND OR SWAP1 JUMP JUMPDEST PUSH1 0xC DUP3 ADD SSTORE JUMPDEST PUSH2 0x1A0 PUSH1 0xA0 MLOAD ADD MLOAD DUP1 MLOAD SWAP1 PUSH1 0x1 PUSH1 0x1 PUSH1 0x40 SHL SUB DUP3 GT PUSH2 0x1614 JUMPI PUSH2 0x12AF PUSH1 0xD DUP5 ADD SLOAD PUSH2 0x338B JUMP JUMPDEST PUSH1 0x1F DUP2 GT PUSH2 0x15D0 JUMPI JUMPDEST POP PUSH1 0x20 SWAP1 PUSH1 0x1 PUSH1 0x1F DUP5 GT EQ PUSH2 0x155B JUMPI SWAP2 DUP1 PUSH2 0x12EE SWAP3 PUSH1 0xD SWAP5 PUSH2 0x3A0 MLOAD SWAP3 PUSH2 0x1550 JUMPI POP POP DUP2 PUSH1 0x1 SHL SWAP2 PUSH1 0x0 NOT SWAP1 PUSH1 0x3 SHL SHR NOT AND OR SWAP1 JUMP JUMPDEST SWAP2 ADD SSTORE JUMPDEST PUSH1 0x40 MLOAD PUSH4 0x3F2891EB PUSH1 0xE2 SHL DUP2 MSTORE PUSH2 0x2A0 MLOAD CHAINID PUSH1 0x4 DUP4 ADD MSTORE ADDRESS PUSH1 0x24 DUP4 ADD MSTORE PUSH1 0x44 DUP3 ADD MSTORE PUSH2 0x3A0 MLOAD PUSH1 0x20 SWAP1 DUP3 SWAP1 PUSH1 0x64 SWAP1 DUP3 SWAP1 PUSH32 0x0 PUSH1 0x1 PUSH1 0x1 PUSH1 0xA0 SHL SUB AND GAS CALL SWAP1 DUP2 ISZERO PUSH2 0xA25 JUMPI PUSH2 0x3A0 MLOAD SWAP2 PUSH2 0x1531 JUMPI JUMPDEST POP PUSH1 0x40 MLOAD PUSH2 0x100 MLOAD PUSH1 0xE0 MLOAD DUP3 CALLDATACOPY PUSH2 0x100 MLOAD PUSH1 0x0 SWAP1 DUP3 ADD SWAP1 DUP2 MSTORE DUP2 SWAP1 SUB SWAP1 KECCAK256 PUSH1 0x40 MLOAD PUSH1 0x1 PUSH1 0x1 PUSH1 0xA0 SHL SUB SWAP3 DUP4 AND DUP2 MSTORE PUSH1 0xC0 MLOAD PUSH2 0x2A0 MLOAD SWAP4 AND SWAP3 SWAP1 PUSH32 0xE5CFF0496BA497C569F4B79F383DF03F9FBF478803B79E8926EB772DB4FCF38C SWAP1 PUSH1 0x20 SWAP1 LOG4 PUSH1 0x40 MLOAD PUSH2 0x100 MLOAD PUSH1 0xE0 MLOAD DUP3 CALLDATACOPY DUP1 PUSH2 0x100 MLOAD DUP2 ADD PUSH1 0x0 DUP2 MSTORE SUB SWAP1 KECCAK256 PUSH1 0x40 MLOAD PUSH1 0x80 MSTORE PUSH2 0x1A0 PUSH1 0x80 MLOAD MSTORE PUSH2 0x14DE PUSH2 0x14C4 PUSH2 0x14AA PUSH2 0x1490 PUSH2 0x1440 PUSH2 0x1427 PUSH2 0x140E PUSH2 0x1A0 PUSH1 0x80 MLOAD ADD PUSH2 0x140 MLOAD PUSH2 0x300 MLOAD PUSH2 0x3731 JUMP JUMPDEST PUSH1 0x80 MLOAD DUP2 SUB PUSH1 0x20 PUSH1 0x80 MLOAD ADD MSTORE PUSH2 0x320 MLOAD PUSH2 0x260 MLOAD PUSH2 0x3731 JUMP JUMPDEST PUSH1 0x80 MLOAD DUP2 SUB PUSH1 0x40 PUSH1 0x80 MLOAD ADD MSTORE PUSH2 0x120 MLOAD PUSH2 0x160 MLOAD PUSH2 0x3731 JUMP JUMPDEST PUSH2 0x1A0 MLOAD ISZERO ISZERO PUSH1 0x60 PUSH1 0x80 MLOAD ADD MSTORE PUSH1 0xC4 CALLDATALOAD PUSH1 0x80 DUP1 MLOAD ADD MSTORE PUSH1 0xE4 CALLDATALOAD PUSH1 0xA0 PUSH1 0x80 MLOAD ADD MSTORE PUSH2 0x104 CALLDATALOAD PUSH1 0xC0 PUSH1 0x80 MLOAD ADD MSTORE PUSH2 0x124 CALLDATALOAD PUSH1 0xE0 PUSH1 0x80 MLOAD ADD MSTORE PUSH1 0x80 MLOAD DUP2 SUB PUSH2 0x100 PUSH1 0x80 MLOAD ADD MSTORE PUSH2 0x180 MLOAD PUSH2 0x1C0 MLOAD PUSH2 0x3752 JUMP JUMPDEST PUSH1 0x80 MLOAD DUP2 SUB PUSH2 0x120 PUSH1 0x80 MLOAD ADD MSTORE PUSH2 0x1E0 MLOAD PUSH2 0x200 MLOAD PUSH2 0x3752 JUMP JUMPDEST PUSH1 0x80 MLOAD DUP2 SUB PUSH2 0x140 PUSH1 0x80 MLOAD ADD MSTORE PUSH2 0x220 MLOAD PUSH2 0x240 MLOAD PUSH2 0x3731 JUMP JUMPDEST PUSH1 0x80 MLOAD DUP2 SUB PUSH2 0x160 PUSH1 0x80 MLOAD ADD MSTORE PUSH2 0x280 MLOAD PUSH2 0x2C0 MLOAD PUSH2 0x3731 JUMP JUMPDEST PUSH1 0x80 MLOAD DUP2 SUB PUSH2 0x180 PUSH1 0x80 MLOAD ADD MSTORE PUSH32 0x7B78166B40CE1ACF69B533EA2A814F68519E9F4A4D3FECB7057E107801D1D0B8 PUSH2 0x2A0 MLOAD SWAP2 PUSH2 0x1525 PUSH1 0x80 MLOAD SWAP2 PUSH2 0x360 MLOAD PUSH2 0x2E0 MLOAD PUSH2 0x3731 JUMP JUMPDEST SUB PUSH1 0x80 MLOAD LOG3 PUSH2 0x3A0 MLOAD DUP1 RETURN JUMPDEST PUSH2 0x154A SWAP2 POP PUSH1 0x20 RETURNDATASIZE PUSH1 0x20 GT PUSH2 0xA92 JUMPI PUSH2 0xA83 DUP2 DUP4 PUSH2 0x3193 JUMP JUMPDEST DUP2 PUSH2 0x135F JUMP JUMPDEST ADD MLOAD SWAP1 POP DUP6 DUP1 PUSH2 0xDFA JUMP JUMPDEST SWAP1 PUSH1 0xD DUP5 ADD PUSH2 0x3A0 MLOAD MSTORE DUP1 PUSH2 0x3A0 MLOAD KECCAK256 SWAP2 PUSH2 0x3A0 MLOAD JUMPDEST PUSH1 0x1F NOT DUP6 AND DUP2 LT PUSH2 0x15B8 JUMPI POP SWAP2 DUP4 SWAP2 PUSH1 0x1 SWAP4 PUSH1 0xD SWAP6 PUSH1 0x1F NOT DUP2 AND LT PUSH2 0x159F JUMPI JUMPDEST POP POP POP DUP2 SHL ADD SWAP2 ADD SSTORE PUSH2 0x12F2 JUMP JUMPDEST ADD MLOAD PUSH1 0x0 NOT PUSH1 0xF8 DUP5 PUSH1 0x3 SHL AND SHR NOT AND SWAP1 SSTORE DUP5 DUP1 DUP1 PUSH2 0x1591 JUMP JUMPDEST SWAP2 SWAP3 PUSH1 0x20 PUSH1 0x1 DUP2 SWAP3 DUP7 DUP6 ADD MLOAD DUP2 SSTORE ADD SWAP5 ADD SWAP3 ADD PUSH2 0x1571 JUMP JUMPDEST PUSH2 0x1604 SWAP1 PUSH1 0xD DUP6 ADD PUSH2 0x3A0 MLOAD MSTORE PUSH1 0x20 PUSH2 0x3A0 MLOAD KECCAK256 PUSH1 0x1F DUP6 ADD PUSH1 0x5 SHR DUP2 ADD SWAP2 PUSH1 0x20 DUP7 LT PUSH2 0x160A JUMPI JUMPDEST PUSH1 0x1F ADD PUSH1 0x5 SHR ADD SWAP1 PUSH2 0x371A JUMP JUMPDEST DUP4 PUSH2 0x12B8 JUMP JUMPDEST SWAP1 SWAP2 POP DUP2 SWAP1 PUSH2 0x15F7 JUMP JUMPDEST PUSH4 0x4E487B71 PUSH1 0xE0 SHL PUSH2 0x3A0 MLOAD MSTORE PUSH1 0x41 PUSH1 0x4 MSTORE PUSH1 0x24 PUSH2 0x3A0 MLOAD REVERT JUMPDEST ADD MLOAD SWAP1 POP DUP5 DUP1 PUSH2 0xDFA JUMP JUMPDEST PUSH1 0x1F NOT DUP3 AND SWAP4 PUSH1 0xC DUP5 ADD PUSH2 0x3A0 MLOAD MSTORE DUP1 PUSH2 0x3A0 MLOAD KECCAK256 SWAP2 PUSH2 0x3A0 MLOAD JUMPDEST DUP7 DUP2 LT PUSH2 0x1690 JUMPI POP DUP4 PUSH1 0x1 SWAP6 SWAP7 LT PUSH2 0x1677 JUMPI JUMPDEST POP POP POP DUP2 SHL ADD PUSH1 0xC DUP3 ADD SSTORE PUSH2 0x1289 JUMP JUMPDEST ADD MLOAD PUSH1 0x0 NOT PUSH1 0xF8 DUP5 PUSH1 0x3 SHL AND SHR NOT AND SWAP1 SSTORE DUP4 DUP1 DUP1 PUSH2 0x1667 JUMP JUMPDEST SWAP2 SWAP3 PUSH1 0x20 PUSH1 0x1 DUP2 SWAP3 DUP7 DUP6 ADD MLOAD DUP2 SSTORE ADD SWAP5 ADD SWAP3 ADD PUSH2 0x1654 JUMP JUMPDEST PUSH2 0x16DB SWAP1 PUSH1 0xC DUP5 ADD PUSH2 0x3A0 MLOAD MSTORE PUSH1 0x20 PUSH2 0x3A0 MLOAD KECCAK256 PUSH1 0x1F DUP5 ADD PUSH1 0x5 SHR DUP2 ADD SWAP2 PUSH1 0x20 DUP6 LT PUSH2 0x160A JUMPI PUSH1 0x1F ADD PUSH1 0x5 SHR ADD SWAP1 PUSH2 0x371A JUMP JUMPDEST DUP4 PUSH2 0x124F JUMP JUMPDEST PUSH1 0x1F NOT DUP3 AND SWAP4 PUSH1 0xB DUP5 ADD PUSH2 0x3A0 MLOAD MSTORE DUP1 PUSH2 0x3A0 MLOAD KECCAK256 SWAP2 PUSH2 0x3A0 MLOAD JUMPDEST DUP7 DUP2 LT PUSH2 0x1738 JUMPI POP DUP4 PUSH1 0x1 SWAP6 SWAP7 LT PUSH2 0x171F JUMPI JUMPDEST POP POP POP DUP2 SHL ADD PUSH1 0xB DUP3 ADD SSTORE PUSH2 0x1220 JUMP JUMPDEST ADD MLOAD PUSH1 0x0 NOT PUSH1 0xF8 DUP5 PUSH1 0x3 SHL AND SHR NOT AND SWAP1 SSTORE DUP4 DUP1 DUP1 PUSH2 0x170F JUMP JUMPDEST SWAP2 SWAP3 PUSH1 0x20 PUSH1 0x1 DUP2 SWAP3 DUP7 DUP6 ADD MLOAD DUP2 SSTORE ADD SWAP5 ADD SWAP3 ADD PUSH2 0x16FC JUMP JUMPDEST PUSH2 0x1783 SWAP1 PUSH1 0xB DUP5 ADD PUSH2 0x3A0 MLOAD MSTORE PUSH1 0x20 PUSH2 0x3A0 MLOAD KECCAK256 PUSH1 0x1F DUP5 ADD PUSH1 0x5 SHR DUP2 ADD SWAP2 PUSH1 0x20 DUP6 LT PUSH2 0x160A JUMPI PUSH1 0x1F ADD PUSH1 0x5 SHR ADD SWAP1 PUSH2 0x371A JUMP JUMPDEST DUP4 PUSH2 0x11E6 JUMP JUMPDEST PUSH1 0x1F NOT DUP3 AND SWAP4 PUSH1 0xA DUP5 ADD PUSH2 0x3A0 MLOAD MSTORE DUP1 PUSH2 0x3A0 MLOAD KECCAK256 SWAP2 PUSH2 0x3A0 MLOAD JUMPDEST DUP7 DUP2 LT PUSH2 0x17E0 JUMPI POP DUP4 PUSH1 0x1 SWAP6 SWAP7 LT PUSH2 0x17C7 JUMPI JUMPDEST POP POP POP DUP2 SHL ADD PUSH1 0xA DUP3 ADD SSTORE PUSH2 0x11B7 JUMP JUMPDEST ADD MLOAD PUSH1 0x0 NOT PUSH1 0xF8 DUP5 PUSH1 0x3 SHL AND SHR NOT AND SWAP1 SSTORE DUP4 DUP1 DUP1 PUSH2 0x17B7 JUMP JUMPDEST SWAP2 SWAP3 PUSH1 0x20 PUSH1 0x1 DUP2 SWAP3 DUP7 DUP6 ADD MLOAD DUP2 SSTORE ADD SWAP5 ADD SWAP3 ADD PUSH2 0x17A4 JUMP JUMPDEST PUSH2 0x182B SWAP1 PUSH1 0xA DUP5 ADD PUSH2 0x3A0 MLOAD MSTORE PUSH1 0x20 PUSH2 0x3A0 MLOAD KECCAK256 PUSH1 0x1F DUP5 ADD PUSH1 0x5 SHR DUP2 ADD SWAP2 PUSH1 0x20 DUP6 LT PUSH2 0x160A JUMPI PUSH1 0x1F ADD PUSH1 0x5 SHR ADD SWAP1 PUSH2 0x371A JUMP JUMPDEST DUP4 PUSH2 0x117D JUMP JUMPDEST DUP1 MLOAD DUP1 MLOAD SWAP1 PUSH1 0x1 PUSH1 0x1 PUSH1 0x40 SHL SUB DUP3 GT PUSH2 0x1614 JUMPI PUSH2 0x184E DUP7 SLOAD PUSH2 0x338B JUMP JUMPDEST PUSH1 0x1F DUP2 GT PUSH2 0x191F JUMPI JUMPDEST POP PUSH1 0x20 SWAP1 PUSH1 0x1 PUSH1 0x1F DUP5 GT EQ PUSH2 0x18AC JUMPI SWAP3 PUSH2 0x1892 DUP4 PUSH1 0x1 SWAP6 SWAP5 PUSH1 0x20 SWAP5 DUP8 SWAP7 PUSH2 0x3A0 MLOAD SWAP3 PUSH2 0x18A1 JUMPI POP POP DUP2 PUSH1 0x1 SHL SWAP2 PUSH1 0x0 NOT SWAP1 PUSH1 0x3 SHL SHR NOT AND OR SWAP1 JUMP JUMPDEST DUP8 SSTORE JUMPDEST ADD SWAP5 ADD SWAP2 ADD SWAP1 SWAP3 PUSH2 0x1146 JUMP JUMPDEST ADD MLOAD SWAP1 POP DUP12 DUP1 PUSH2 0xDFA JUMP JUMPDEST SWAP1 PUSH1 0x1F NOT DUP4 AND SWAP2 DUP8 PUSH2 0x3A0 MLOAD MSTORE DUP2 PUSH2 0x3A0 MLOAD KECCAK256 SWAP3 PUSH2 0x3A0 MLOAD JUMPDEST DUP2 DUP2 LT PUSH2 0x1907 JUMPI POP SWAP4 PUSH1 0x20 SWAP4 PUSH1 0x1 SWAP7 SWAP4 DUP8 SWAP7 SWAP4 DUP4 DUP9 SWAP6 LT PUSH2 0x18EE JUMPI JUMPDEST POP POP POP DUP2 SHL ADD DUP8 SSTORE PUSH2 0x1895 JUMP JUMPDEST ADD MLOAD PUSH1 0x0 NOT PUSH1 0xF8 DUP5 PUSH1 0x3 SHL AND SHR NOT AND SWAP1 SSTORE DUP11 DUP1 DUP1 PUSH2 0x18E1 JUMP JUMPDEST SWAP3 SWAP4 PUSH1 0x20 PUSH1 0x1 DUP2 SWAP3 DUP8 DUP7 ADD MLOAD DUP2 SSTORE ADD SWAP6 ADD SWAP4 ADD PUSH2 0x18C5 JUMP JUMPDEST PUSH2 0x194F SWAP1 DUP8 PUSH2 0x3A0 MLOAD MSTORE PUSH1 0x20 PUSH2 0x3A0 MLOAD KECCAK256 PUSH1 0x1F DUP6 ADD PUSH1 0x5 SHR DUP2 ADD SWAP2 PUSH1 0x20 DUP7 LT PUSH2 0x160A JUMPI PUSH1 0x1F ADD PUSH1 0x5 SHR ADD SWAP1 PUSH2 0x371A JUMP JUMPDEST DUP8 PUSH2 0x1857 JUMP JUMPDEST PUSH1 0x9 DUP5 ADD PUSH2 0x3A0 MLOAD MSTORE PUSH1 0x20 PUSH2 0x3A0 MLOAD KECCAK256 SWAP1 DUP4 DUP3 ADD JUMPDEST DUP2 DUP4 ADD DUP2 LT PUSH2 0x197A JUMPI POP POP PUSH2 0x1130 JUMP JUMPDEST DUP1 PUSH2 0x1987 PUSH1 0x1 SWAP3 SLOAD PUSH2 0x338B JUMP JUMPDEST DUP1 PUSH2 0x1994 JUMPI JUMPDEST POP ADD PUSH2 0x196A JUMP JUMPDEST PUSH1 0x1F DUP2 GT DUP4 EQ PUSH2 0x19AC JUMPI POP PUSH2 0x3A0 MLOAD DUP2 SSTORE JUMPDEST DUP8 PUSH2 0x198D JUMP JUMPDEST PUSH2 0x19CE SWAP1 DUP3 PUSH2 0x3A0 MLOAD MSTORE DUP4 PUSH1 0x1F PUSH1 0x20 PUSH2 0x3A0 MLOAD KECCAK256 SWAP3 ADD PUSH1 0x5 SHR DUP3 ADD SWAP2 ADD PUSH2 0x371A JUMP JUMPDEST PUSH2 0x3A0 DUP1 MLOAD DUP3 SWAP1 MSTORE MLOAD PUSH1 0x20 DUP2 KECCAK256 DUP2 DUP4 SSTORE SSTORE PUSH2 0x19A6 JUMP JUMPDEST DUP1 MLOAD DUP1 MLOAD SWAP1 PUSH1 0x1 PUSH1 0x1 PUSH1 0x40 SHL SUB DUP3 GT PUSH2 0x1614 JUMPI PUSH2 0x1A01 DUP7 SLOAD PUSH2 0x338B JUMP JUMPDEST PUSH1 0x1F DUP2 GT PUSH2 0x1AC7 JUMPI JUMPDEST POP PUSH1 0x20 SWAP1 PUSH1 0x1 PUSH1 0x1F DUP5 GT EQ PUSH2 0x1A54 JUMPI SWAP3 PUSH2 0x1A45 DUP4 PUSH1 0x1 SWAP6 SWAP5 PUSH1 0x20 SWAP5 DUP8 SWAP7 PUSH2 0x3A0 MLOAD SWAP3 PUSH2 0x18A1 JUMPI POP POP DUP2 PUSH1 0x1 SHL SWAP2 PUSH1 0x0 NOT SWAP1 PUSH1 0x3 SHL SHR NOT AND OR SWAP1 JUMP JUMPDEST DUP8 SSTORE JUMPDEST ADD SWAP5 ADD SWAP2 ADD SWAP1 SWAP3 PUSH2 0x10FF JUMP JUMPDEST SWAP1 PUSH1 0x1F NOT DUP4 AND SWAP2 DUP8 PUSH2 0x3A0 MLOAD MSTORE DUP2 PUSH2 0x3A0 MLOAD KECCAK256 SWAP3 PUSH2 0x3A0 MLOAD JUMPDEST DUP2 DUP2 LT PUSH2 0x1AAF JUMPI POP SWAP4 PUSH1 0x20 SWAP4 PUSH1 0x1 SWAP7 SWAP4 DUP8 SWAP7 SWAP4 DUP4 DUP9 SWAP6 LT PUSH2 0x1A96 JUMPI JUMPDEST POP POP POP DUP2 SHL ADD DUP8 SSTORE PUSH2 0x1A48 JUMP JUMPDEST ADD MLOAD PUSH1 0x0 NOT PUSH1 0xF8 DUP5 PUSH1 0x3 SHL AND SHR NOT AND SWAP1 SSTORE DUP11 DUP1 DUP1 PUSH2 0x1A89 JUMP JUMPDEST SWAP3 SWAP4 PUSH1 0x20 PUSH1 0x1 DUP2 SWAP3 DUP8 DUP7 ADD MLOAD DUP2 SSTORE ADD SWAP6 ADD SWAP4 ADD PUSH2 0x1A6D JUMP JUMPDEST PUSH2 0x1AF7 SWAP1 DUP8 PUSH2 0x3A0 MLOAD MSTORE PUSH1 0x20 PUSH2 0x3A0 MLOAD KECCAK256 PUSH1 0x1F DUP6 ADD PUSH1 0x5 SHR DUP2 ADD SWAP2 PUSH1 0x20 DUP7 LT PUSH2 0x160A JUMPI PUSH1 0x1F ADD PUSH1 0x5 SHR ADD SWAP1 PUSH2 0x371A JUMP JUMPDEST DUP8 PUSH2 0x1A0A JUMP JUMPDEST PUSH1 0x8 DUP5 ADD PUSH2 0x3A0 MLOAD MSTORE PUSH1 0x20 PUSH2 0x3A0 MLOAD KECCAK256 SWAP1 DUP4 DUP3 ADD JUMPDEST DUP2 DUP4 ADD DUP2 LT PUSH2 0x1B22 JUMPI POP POP PUSH2 0x10E9 JUMP JUMPDEST DUP1 PUSH2 0x1B2F PUSH1 0x1 SWAP3 SLOAD PUSH2 0x338B JUMP JUMPDEST DUP1 PUSH2 0x1B3C JUMPI JUMPDEST POP ADD PUSH2 0x1B12 JUMP JUMPDEST PUSH1 0x1F DUP2 GT DUP4 EQ PUSH2 0x1B54 JUMPI POP PUSH2 0x3A0 MLOAD DUP2 SSTORE JUMPDEST DUP8 PUSH2 0x1B35 JUMP JUMPDEST PUSH2 0x1B76 SWAP1 DUP3 PUSH2 0x3A0 MLOAD MSTORE DUP4 PUSH1 0x1F PUSH1 0x20 PUSH2 0x3A0 MLOAD KECCAK256 SWAP3 ADD PUSH1 0x5 SHR DUP3 ADD SWAP2 ADD PUSH2 0x371A JUMP JUMPDEST PUSH2 0x3A0 DUP1 MLOAD DUP3 SWAP1 MSTORE MLOAD PUSH1 0x20 DUP2 KECCAK256 DUP2 DUP4 SSTORE SSTORE PUSH2 0x1B4E JUMP JUMPDEST PUSH1 0x1F NOT DUP3 AND SWAP4 PUSH1 0x2 DUP5 ADD PUSH2 0x3A0 MLOAD MSTORE DUP1 PUSH2 0x3A0 MLOAD KECCAK256 SWAP2 PUSH2 0x3A0 MLOAD JUMPDEST DUP7 DUP2 LT PUSH2 0x1BE3 JUMPI POP DUP4 PUSH1 0x1 SWAP6 SWAP7 LT PUSH2 0x1BCA JUMPI JUMPDEST POP POP POP DUP2 SHL ADD PUSH1 0x2 DUP3 ADD SSTORE PUSH2 0x1077 JUMP JUMPDEST ADD MLOAD PUSH1 0x0 NOT PUSH1 0xF8 DUP5 PUSH1 0x3 SHL AND SHR NOT AND SWAP1 SSTORE DUP4 DUP1 DUP1 PUSH2 0x1BBA JUMP JUMPDEST SWAP2 SWAP3 PUSH1 0x20 PUSH1 0x1 DUP2 SWAP3 DUP7 DUP6 ADD MLOAD DUP2 SSTORE ADD SWAP5 ADD SWAP3 ADD PUSH2 0x1BA7 JUMP JUMPDEST PUSH2 0x1C2E SWAP1 PUSH1 0x2 DUP5 ADD PUSH2 0x3A0 MLOAD MSTORE PUSH1 0x20 PUSH2 0x3A0 MLOAD KECCAK256 PUSH1 0x1F DUP5 ADD PUSH1 0x5 SHR DUP2 ADD SWAP2 PUSH1 0x20 DUP6 LT PUSH2 0x160A JUMPI PUSH1 0x1F ADD PUSH1 0x5 SHR ADD SWAP1 PUSH2 0x371A JUMP JUMPDEST DUP4 PUSH2 0x103D JUMP JUMPDEST PUSH1 0x1F NOT DUP3 AND SWAP4 PUSH1 0x1 DUP5 ADD PUSH2 0x3A0 MLOAD MSTORE DUP1 PUSH2 0x3A0 MLOAD KECCAK256 SWAP2 PUSH2 0x3A0 MLOAD JUMPDEST DUP7 DUP2 LT PUSH2 0x1C8B JUMPI POP DUP4 PUSH1 0x1 SWAP6 SWAP7 LT PUSH2 0x1C72 JUMPI JUMPDEST POP POP POP DUP2 SHL ADD PUSH1 0x1 DUP3 ADD SSTORE PUSH2 0x100F JUMP JUMPDEST ADD MLOAD PUSH1 0x0 NOT PUSH1 0xF8 DUP5 PUSH1 0x3 SHL AND SHR NOT AND SWAP1 SSTORE DUP4 DUP1 DUP1 PUSH2 0x1C62 JUMP JUMPDEST SWAP2 SWAP3 PUSH1 0x20 PUSH1 0x1 DUP2 SWAP3 DUP7 DUP6 ADD MLOAD DUP2 SSTORE ADD SWAP5 ADD SWAP3 ADD PUSH2 0x1C4F JUMP JUMPDEST PUSH2 0x1CD6 SWAP1 PUSH1 0x1 DUP5 ADD PUSH2 0x3A0 MLOAD MSTORE PUSH1 0x20 PUSH2 0x3A0 MLOAD KECCAK256 PUSH1 0x1F DUP5 ADD PUSH1 0x5 SHR DUP2 ADD SWAP2 PUSH1 0x20 DUP6 LT PUSH2 0x160A JUMPI PUSH1 0x1F ADD PUSH1 0x5 SHR ADD SWAP1 PUSH2 0x371A JUMP JUMPDEST DUP4 PUSH2 0xFD5 JUMP JUMPDEST PUSH1 0x1F NOT DUP3 AND SWAP4 DUP4 PUSH2 0x3A0 MLOAD MSTORE DUP1 PUSH2 0x3A0 MLOAD KECCAK256 SWAP2 PUSH2 0x3A0 MLOAD JUMPDEST DUP7 DUP2 LT PUSH2 0x1D2D JUMPI POP DUP4 PUSH1 0x1 SWAP6 SWAP7 LT PUSH2 0x1D14 JUMPI JUMPDEST POP POP POP DUP2 SHL ADD DUP2 SSTORE PUSH2 0xFA7 JUMP JUMPDEST ADD MLOAD PUSH1 0x0 NOT PUSH1 0xF8 DUP5 PUSH1 0x3 SHL AND SHR NOT AND SWAP1 SSTORE DUP4 DUP1 DUP1 PUSH2 0x1D07 JUMP JUMPDEST SWAP2 SWAP3 PUSH1 0x20 PUSH1 0x1 DUP2 SWAP3 DUP7 DUP6 ADD MLOAD DUP2 SSTORE ADD SWAP5 ADD SWAP3 ADD PUSH2 0x1CF4 JUMP JUMPDEST PUSH2 0x1D75 SWAP1 DUP4 PUSH2 0x3A0 MLOAD MSTORE PUSH1 0x20 PUSH2 0x3A0 MLOAD KECCAK256 PUSH1 0x1F DUP5 ADD PUSH1 0x5 SHR DUP2 ADD SWAP2 PUSH1 0x20 DUP6 LT PUSH2 0x160A JUMPI PUSH1 0x1F ADD PUSH1 0x5 SHR ADD SWAP1 PUSH2 0x371A JUMP JUMPDEST DUP4 PUSH2 0xF70 JUMP JUMPDEST SWAP2 SWAP1 DUP4 PUSH2 0x3A0 MLOAD MSTORE DUP1 PUSH2 0x3A0 MLOAD KECCAK256 SWAP1 PUSH2 0x3A0 MLOAD SWAP4 JUMPDEST PUSH1 0x1F NOT DUP5 AND DUP6 LT PUSH2 0x1DD1 JUMPI PUSH1 0x1 SWAP5 POP DUP4 PUSH1 0x1F NOT DUP2 AND LT PUSH2 0x1DB8 JUMPI JUMPDEST POP POP POP DUP2 SHL ADD SWAP1 SSTORE PUSH2 0xE12 JUMP JUMPDEST ADD MLOAD PUSH1 0x0 NOT PUSH1 0xF8 DUP5 PUSH1 0x3 SHL AND SHR NOT AND SWAP1 SSTORE DUP4 DUP1 DUP1 PUSH2 0x1DAB JUMP JUMPDEST DUP2 DUP2 ADD MLOAD DUP4 SSTORE PUSH1 0x20 SWAP5 DUP6 ADD SWAP5 PUSH1 0x1 SWAP1 SWAP4 ADD SWAP3 SWAP1 SWAP2 ADD SWAP1 PUSH2 0x1D90 JUMP JUMPDEST PUSH2 0x1E1C SWAP1 DUP5 PUSH2 0x3A0 MLOAD MSTORE PUSH1 0x20 PUSH2 0x3A0 MLOAD KECCAK256 PUSH1 0x1F DUP6 ADD PUSH1 0x5 SHR DUP2 ADD SWAP2 PUSH1 0x20 DUP7 LT PUSH2 0x160A JUMPI PUSH1 0x1F ADD PUSH1 0x5 SHR ADD SWAP1 PUSH2 0x371A JUMP JUMPDEST DUP4 PUSH2 0xDDA JUMP JUMPDEST PUSH1 0x40 MLOAD PUSH3 0x461BCD PUSH1 0xE5 SHL DUP2 MSTORE PUSH1 0x20 PUSH1 0x4 DUP3 ADD MSTORE PUSH1 0x2E PUSH1 0x24 DUP3 ADD MSTORE PUSH32 0x45524337323155524953746F726167653A2055524920736574206F66206E6F6E PUSH1 0x44 DUP3 ADD MSTORE PUSH14 0x32BC34B9BA32B73A103A37B5B2B7 PUSH1 0x91 SHL PUSH1 0x64 DUP3 ADD MSTORE PUSH1 0x84 SWAP1 REVERT JUMPDEST PUSH1 0x40 MLOAD PUSH3 0x461BCD PUSH1 0xE5 SHL DUP2 MSTORE PUSH1 0x20 PUSH1 0x4 DUP3 ADD MSTORE PUSH1 0x12 PUSH1 0x24 DUP3 ADD MSTORE PUSH18 0x151DD9595D08185B1C9958591E481D5CD959 PUSH1 0x72 SHL PUSH1 0x44 DUP3 ADD MSTORE PUSH1 0x64 SWAP1 REVERT JUMPDEST PUSH1 0x40 MLOAD PUSH3 0x461BCD PUSH1 0xE5 SHL DUP2 MSTORE PUSH1 0x20 PUSH1 0x4 DUP3 ADD MSTORE PUSH1 0x12 PUSH1 0x24 DUP3 ADD MSTORE PUSH18 0x13585E081CDD5C1C1B1E481C995858DA1959 PUSH1 0x72 SHL PUSH1 0x44 DUP3 ADD MSTORE PUSH1 0x64 SWAP1 REVERT JUMPDEST PUSH1 0x40 MLOAD PUSH3 0x461BCD PUSH1 0xE5 SHL DUP2 MSTORE PUSH1 0x20 PUSH1 0x4 DUP3 ADD MSTORE PUSH1 0x16 PUSH1 0x24 DUP3 ADD MSTORE PUSH22 0x139BDD08185D5D1A1BDC9A5E9959081D1BC81B5A5B9D PUSH1 0x52 SHL PUSH1 0x44 DUP3 ADD MSTORE PUSH1 0x64 SWAP1 REVERT JUMPDEST CALLVALUE PUSH2 0x21C JUMPI PUSH1 0x20 CALLDATASIZE PUSH1 0x3 NOT ADD SLT PUSH2 0x21C JUMPI PUSH2 0x57E PUSH2 0x1F4F PUSH1 0x4 CALLDATALOAD PUSH2 0x3E3E JUMP JUMPDEST PUSH1 0x40 MLOAD SWAP2 DUP3 SWAP2 PUSH1 0x20 DUP4 MSTORE PUSH1 0x20 DUP4 ADD SWAP1 PUSH2 0x30EF JUMP JUMPDEST CALLVALUE PUSH2 0x21C JUMPI PUSH2 0xB10 PUSH2 0x1F9C PUSH2 0x1F77 CALLDATASIZE PUSH2 0x3206 JUMP JUMPDEST SWAP3 PUSH2 0x1F8C PUSH2 0x1F87 DUP4 SWAP5 SWAP4 CALLER PUSH2 0x37D8 JUMP JUMPDEST PUSH2 0x34A7 JUMP JUMPDEST PUSH2 0x1F97 DUP4 DUP4 DUP4 PUSH2 0x3851 JUMP JUMPDEST PUSH2 0x4079 JUMP JUMPDEST PUSH2 0x3E1A JUMP JUMPDEST CALLVALUE PUSH2 0x21C JUMPI PUSH1 0x40 CALLDATASIZE PUSH1 0x3 NOT ADD SLT PUSH2 0x21C JUMPI PUSH2 0x1FBA PUSH2 0x3114 JUMP JUMPDEST PUSH2 0x1FC2 PUSH2 0x331F JUMP JUMPDEST PUSH1 0x1 PUSH1 0x1 PUSH1 0xA0 SHL SUB SWAP1 SWAP2 AND SWAP1 CALLER DUP3 EQ PUSH2 0x203D JUMPI CALLER PUSH2 0x3A0 MLOAD MSTORE PUSH1 0x5 PUSH1 0x20 MSTORE PUSH1 0x40 PUSH2 0x3A0 MLOAD KECCAK256 DUP3 PUSH1 0x0 MSTORE PUSH1 0x20 MSTORE PUSH2 0x2008 DUP2 PUSH1 0x40 PUSH1 0x0 KECCAK256 SWAP1 PUSH1 0xFF DUP1 NOT DUP4 SLOAD AND SWAP2 ISZERO ISZERO AND OR SWAP1 SSTORE JUMP JUMPDEST PUSH1 0x40 MLOAD SWAP1 ISZERO ISZERO DUP2 MSTORE PUSH32 0x17307EAB39AB6107E8899845AD3D59BD9653F200F220920489CA2B5937696C31 PUSH1 0x20 CALLER SWAP3 LOG3 PUSH2 0x3A0 MLOAD DUP1 RETURN JUMPDEST PUSH1 0x40 MLOAD PUSH3 0x461BCD PUSH1 0xE5 SHL DUP2 MSTORE PUSH1 0x20 PUSH1 0x4 DUP3 ADD MSTORE PUSH1 0x19 PUSH1 0x24 DUP3 ADD MSTORE PUSH32 0x4552433732313A20617070726F766520746F2063616C6C657200000000000000 PUSH1 0x44 DUP3 ADD MSTORE PUSH1 0x64 SWAP1 REVERT JUMPDEST CALLVALUE PUSH2 0x21C JUMPI PUSH2 0x3A0 MLOAD CALLDATASIZE PUSH1 0x3 NOT ADD SLT PUSH2 0x21C JUMPI PUSH2 0x3A0 MLOAD POP PUSH1 0x40 MLOAD PUSH2 0x3A0 MLOAD PUSH1 0x1 SLOAD PUSH2 0x20AD DUP2 PUSH2 0x338B JUMP JUMPDEST DUP1 DUP5 MSTORE SWAP1 PUSH1 0x1 DUP2 AND SWAP1 DUP2 ISZERO PUSH2 0x211A JUMPI POP PUSH1 0x1 EQ PUSH2 0x20D5 JUMPI JUMPDEST PUSH2 0x57E DUP4 PUSH2 0x1F4F DUP2 DUP6 SUB DUP3 PUSH2 0x3193 JUMP JUMPDEST PUSH2 0x3A0 DUP1 MLOAD PUSH1 0x1 SWAP1 MSTORE MLOAD PUSH1 0x20 DUP2 KECCAK256 SWAP4 SWAP3 POP SWAP1 JUMPDEST DUP1 DUP3 LT PUSH2 0x2100 JUMPI POP SWAP1 SWAP2 POP DUP2 ADD PUSH1 0x20 ADD PUSH2 0x1F4F PUSH2 0x20C5 JUMP JUMPDEST SWAP2 SWAP3 PUSH1 0x1 DUP2 PUSH1 0x20 SWAP3 SLOAD DUP4 DUP6 DUP9 ADD ADD MSTORE ADD SWAP2 ADD SWAP1 SWAP3 SWAP2 PUSH2 0x20E8 JUMP JUMPDEST PUSH1 0xFF NOT AND PUSH1 0x20 DUP1 DUP7 ADD SWAP2 SWAP1 SWAP2 MSTORE SWAP2 ISZERO ISZERO PUSH1 0x5 SHL DUP5 ADD SWAP1 SWAP2 ADD SWAP2 POP PUSH2 0x1F4F SWAP1 POP PUSH2 0x20C5 JUMP JUMPDEST CALLVALUE PUSH2 0x21C JUMPI PUSH2 0x3A0 MLOAD CALLDATASIZE PUSH1 0x3 NOT ADD SLT PUSH2 0x21C JUMPI PUSH1 0xB SLOAD PUSH1 0x40 MLOAD PUSH1 0x8 SWAP2 SWAP1 SWAP2 SHR PUSH1 0x1 PUSH1 0x1 PUSH1 0xA0 SHL SUB AND DUP2 MSTORE PUSH1 0x20 SWAP1 RETURN JUMPDEST CALLVALUE PUSH2 0x21C JUMPI PUSH1 0x20 CALLDATASIZE PUSH1 0x3 NOT ADD SLT PUSH2 0x21C JUMPI PUSH1 0x40 MLOAD PUSH2 0x218A DUP2 PUSH2 0x312A JUMP JUMPDEST PUSH1 0x60 DUP2 MSTORE PUSH1 0x20 DUP2 ADD PUSH1 0x60 SWAP1 MSTORE PUSH1 0x40 DUP2 ADD PUSH1 0x60 SWAP1 MSTORE PUSH2 0x3A0 MLOAD PUSH1 0x60 DUP3 ADD MSTORE PUSH2 0x3A0 MLOAD PUSH1 0x80 DUP3 ADD MSTORE PUSH2 0x3A0 MLOAD PUSH1 0xA0 DUP3 ADD MSTORE PUSH2 0x3A0 MLOAD PUSH1 0xC0 DUP3 ADD MSTORE PUSH2 0x3A0 MLOAD PUSH1 0xE0 DUP3 ADD MSTORE PUSH2 0x100 DUP2 ADD PUSH1 0x60 SWAP1 MSTORE PUSH2 0x120 DUP2 ADD PUSH1 0x60 SWAP1 MSTORE PUSH2 0x140 DUP2 ADD PUSH1 0x60 SWAP1 MSTORE PUSH2 0x160 DUP2 ADD PUSH1 0x60 SWAP1 MSTORE PUSH2 0x180 DUP2 ADD PUSH1 0x60 SWAP1 MSTORE PUSH2 0x1A0 ADD PUSH1 0x60 SWAP1 MSTORE PUSH1 0x4 CALLDATALOAD PUSH2 0x3A0 MLOAD MSTORE PUSH1 0x13 PUSH1 0x20 MSTORE PUSH2 0x3A0 MLOAD PUSH1 0x40 SWAP1 KECCAK256 PUSH1 0x40 MLOAD PUSH2 0x2221 DUP2 PUSH2 0x312A JUMP JUMPDEST PUSH2 0x222A DUP3 PUSH2 0x33C5 JUMP JUMPDEST DUP2 MSTORE PUSH2 0x2238 PUSH1 0x1 DUP4 ADD PUSH2 0x33C5 JUMP JUMPDEST PUSH1 0x20 DUP3 ADD SWAP1 DUP2 MSTORE SWAP2 PUSH2 0x224C PUSH1 0x2 DUP3 ADD PUSH2 0x33C5 JUMP JUMPDEST SWAP1 PUSH1 0x40 DUP4 ADD SWAP2 DUP3 MSTORE PUSH1 0x3 DUP2 ADD SLOAD PUSH1 0xFF AND PUSH1 0x60 DUP5 ADD SWAP1 ISZERO ISZERO DUP2 MSTORE PUSH1 0x4 DUP3 ADD SLOAD SWAP1 PUSH1 0x80 DUP6 ADD SWAP2 DUP3 MSTORE PUSH1 0x5 DUP4 ADD SLOAD SWAP1 PUSH1 0xA0 DUP7 ADD SWAP2 DUP3 MSTORE PUSH1 0x6 DUP5 ADD SLOAD SWAP1 PUSH1 0xC0 DUP8 ADD SWAP2 DUP3 MSTORE PUSH1 0x7 DUP6 ADD SLOAD PUSH1 0xE0 DUP9 ADD SWAP1 DUP2 MSTORE PUSH1 0x8 DUP7 ADD PUSH2 0x22A5 SWAP1 PUSH2 0x3657 JUMP JUMPDEST PUSH2 0x100 DUP10 ADD SWAP1 DUP2 MSTORE SWAP1 PUSH2 0x22BA PUSH1 0x9 DUP9 ADD PUSH2 0x3657 JUMP JUMPDEST PUSH2 0x120 DUP11 ADD SWAP1 DUP2 MSTORE SWAP4 PUSH2 0x22CF PUSH1 0xA DUP10 ADD PUSH2 0x33C5 JUMP JUMPDEST PUSH2 0x140 DUP12 ADD SWAP1 DUP2 MSTORE SWAP6 PUSH2 0x22E4 PUSH1 0xB DUP11 ADD PUSH2 0x33C5 JUMP JUMPDEST PUSH2 0x160 DUP13 ADD SWAP1 DUP2 MSTORE SWAP8 PUSH2 0x22F9 PUSH1 0xC DUP12 ADD PUSH2 0x33C5 JUMP JUMPDEST SWAP10 PUSH2 0x180 DUP14 ADD SWAP11 DUP12 MSTORE PUSH1 0xD ADD PUSH2 0x230E SWAP1 PUSH2 0x33C5 JUMP JUMPDEST SWAP11 PUSH2 0x1A0 DUP14 ADD SWAP12 DUP13 MSTORE PUSH1 0x40 MLOAD DUP1 SWAP15 DUP2 SWAP15 PUSH1 0x20 DUP4 MSTORE MLOAD PUSH1 0x20 DUP4 ADD PUSH2 0x1C0 SWAP1 MSTORE PUSH2 0x1E0 DUP4 ADD PUSH2 0x233A SWAP2 PUSH2 0x30EF JUMP JUMPDEST SWAP1 MLOAD SWAP2 PUSH1 0x1F NOT DUP2 DUP4 SUB ADD SWAP1 PUSH1 0x40 ADD MSTORE PUSH2 0x2352 SWAP2 PUSH2 0x30EF JUMP JUMPDEST SWAP1 MLOAD DUP14 DUP3 SUB PUSH1 0x1F NOT ADD PUSH1 0x60 DUP16 ADD MSTORE PUSH2 0x236A SWAP2 SWAP1 PUSH2 0x30EF JUMP JUMPDEST SWAP6 MLOAD ISZERO ISZERO PUSH1 0x80 DUP14 ADD MSTORE MLOAD PUSH1 0xA0 DUP13 ADD MSTORE MLOAD PUSH1 0xC0 DUP12 ADD MSTORE MLOAD PUSH1 0xE0 DUP11 ADD MSTORE MLOAD PUSH2 0x100 DUP10 ADD MSTORE MLOAD DUP8 DUP3 SUB PUSH1 0x1F NOT ADD PUSH2 0x120 DUP10 ADD MSTORE PUSH2 0x23A4 SWAP2 SWAP1 PUSH2 0x32C6 JUMP JUMPDEST SWAP1 MLOAD DUP7 DUP3 SUB PUSH1 0x1F NOT ADD PUSH2 0x140 DUP9 ADD MSTORE PUSH2 0x23BD SWAP2 SWAP1 PUSH2 0x32C6 JUMP JUMPDEST SWAP1 MLOAD DUP6 DUP3 SUB PUSH1 0x1F NOT ADD PUSH2 0x160 DUP8 ADD MSTORE PUSH2 0x23D6 SWAP2 SWAP1 PUSH2 0x30EF JUMP JUMPDEST SWAP1 MLOAD DUP5 DUP3 SUB PUSH1 0x1F NOT ADD PUSH2 0x180 DUP7 ADD MSTORE PUSH2 0x23EF SWAP2 SWAP1 PUSH2 0x30EF JUMP JUMPDEST SWAP1 MLOAD DUP4 DUP3 SUB PUSH1 0x1F NOT ADD PUSH2 0x1A0 DUP6 ADD MSTORE PUSH2 0x2408 SWAP2 SWAP1 PUSH2 0x30EF JUMP JUMPDEST SWAP1 MLOAD DUP3 DUP3 SUB PUSH1 0x1F NOT ADD PUSH2 0x1C0 DUP5 ADD MSTORE PUSH2 0x57E SWAP2 SWAP1 PUSH2 0x30EF JUMP JUMPDEST CALLVALUE PUSH2 0x21C JUMPI PUSH2 0x3A0 MLOAD CALLDATASIZE PUSH1 0x3 NOT ADD SLT PUSH2 0x21C JUMPI PUSH2 0x243C PUSH2 0x3B84 JUMP JUMPDEST PUSH2 0x2444 PUSH2 0x3E8A JUMP JUMPDEST PUSH1 0x1 PUSH1 0xFF NOT PUSH1 0xB SLOAD AND OR PUSH1 0xB SSTORE PUSH32 0x62E78CEA01BEE320CD4E420270B5EA74000D11B0C9F74754EBDBFC544B05A258 PUSH1 0x20 PUSH1 0x40 MLOAD CALLER DUP2 MSTORE LOG1 PUSH2 0x3A0 MLOAD DUP1 RETURN JUMPDEST CALLVALUE PUSH2 0x21C JUMPI PUSH2 0x3A0 MLOAD CALLDATASIZE PUSH1 0x3 NOT ADD SLT PUSH2 0x21C JUMPI PUSH1 0x40 MLOAD PUSH32 0x0 PUSH1 0x1 PUSH1 0x1 PUSH1 0xA0 SHL SUB AND DUP2 MSTORE PUSH1 0x20 SWAP1 RETURN JUMPDEST CALLVALUE PUSH2 0x21C JUMPI PUSH1 0x60 CALLDATASIZE PUSH1 0x3 NOT ADD SLT PUSH2 0x21C JUMPI PUSH2 0x24E2 PUSH2 0x3114 JUMP JUMPDEST PUSH1 0x44 CALLDATALOAD PUSH1 0x1 PUSH1 0x1 PUSH1 0xA0 SHL SUB DUP2 AND DUP2 SUB PUSH2 0x21C JUMPI PUSH1 0xE SLOAD PUSH1 0x1 DUP2 ADD PUSH1 0xE SSTORE PUSH2 0x2509 DUP2 ADDRESS PUSH2 0x3BDF JUMP JUMPDEST PUSH1 0x40 MLOAD PUSH4 0x3F2891EB PUSH1 0xE2 SHL DUP2 MSTORE CHAINID PUSH1 0x4 DUP3 ADD MSTORE ADDRESS PUSH1 0x24 DUP3 ADD MSTORE PUSH1 0x44 DUP2 ADD DUP3 SWAP1 MSTORE PUSH2 0x3A0 MLOAD SWAP1 SWAP2 SWAP1 PUSH1 0x20 SWAP1 DUP4 SWAP1 PUSH1 0x64 SWAP1 DUP3 SWAP1 PUSH32 0x0 PUSH1 0x1 PUSH1 0x1 PUSH1 0xA0 SHL SUB AND GAS CALL SWAP2 DUP3 ISZERO PUSH2 0xA25 JUMPI PUSH2 0x3A0 MLOAD SWAP3 PUSH2 0x27D1 JUMPI JUMPDEST POP PUSH1 0x40 MLOAD PUSH4 0x2BF96A5 PUSH1 0xE0 SHL DUP2 MSTORE PUSH1 0x1 PUSH1 0x1 PUSH1 0xA0 SHL SUB SWAP5 DUP6 AND PUSH1 0x4 DUP3 ADD MSTORE PUSH32 0x0 DUP6 AND PUSH1 0x24 DUP1 DUP4 ADD SWAP2 SWAP1 SWAP2 MSTORE CALLDATALOAD PUSH1 0x44 DUP3 ADD MSTORE PUSH1 0x1 PUSH1 0x64 DUP3 ADD MSTORE ADDRESS PUSH1 0x84 DUP3 ADD MSTORE PUSH2 0x100 PUSH1 0xA4 DUP3 ADD MSTORE PUSH2 0x3A0 DUP1 MLOAD PUSH2 0x104 DUP4 ADD MSTORE DUP1 MLOAD PUSH1 0xC4 DUP4 ADD MSTORE DUP1 MLOAD PUSH1 0xE4 DUP4 ADD MSTORE MLOAD SWAP1 SWAP5 PUSH32 0x0 AND SWAP4 SWAP1 PUSH1 0x20 SWAP1 DUP7 SWAP1 PUSH2 0x124 SWAP1 DUP3 SWAP1 DUP9 GAS CALL SWAP5 DUP6 ISZERO PUSH2 0xA25 JUMPI PUSH2 0x3A0 MLOAD SWAP6 PUSH2 0x279D JUMPI JUMPDEST POP PUSH1 0x40 DUP1 MLOAD SWAP5 SWAP1 SWAP2 SWAP1 PUSH2 0x264E DUP4 DUP8 PUSH2 0x3193 JUMP JUMPDEST PUSH1 0x1 DUP7 MSTORE PUSH1 0x20 DUP7 ADD PUSH1 0x1F NOT DUP5 ADD CALLDATASIZE DUP3 CALLDATACOPY DUP7 MLOAD ISZERO PUSH2 0x2783 JUMPI DUP8 DUP2 MSTORE DUP2 EXTCODESIZE ISZERO PUSH2 0x21C JUMPI DUP4 MLOAD DUP1 SWAP3 PUSH4 0x49C5BDBD PUSH1 0xE1 SHL DUP3 MSTORE PUSH1 0x84 DUP3 ADD PUSH1 0x1 DUP1 PUSH1 0xA0 SHL SUB DUP10 AND SWAP10 DUP11 PUSH1 0x4 DUP6 ADD MSTORE PUSH1 0x80 PUSH1 0x24 DUP6 ADD MSTORE MLOAD DUP1 SWAP2 MSTORE PUSH1 0xA4 DUP4 ADD SWAP4 SWAP1 PUSH2 0x3A0 MLOAD JUMPDEST DUP2 DUP2 LT PUSH2 0x276A JUMPI POP POP POP DUP2 DUP4 SUB SWAP3 PUSH1 0x3 NOT DUP5 ADD PUSH1 0x44 DUP5 ADD MSTORE PUSH2 0x3A0 MLOAD SWAP1 MSTORE PUSH2 0x3A0 MLOAD PUSH1 0x64 DUP4 ADD MSTORE DUP2 PUSH1 0x20 PUSH2 0x3A0 MLOAD SWAP5 ADD SWAP2 PUSH2 0x3A0 MLOAD SWAP1 GAS CALL DUP1 ISZERO PUSH2 0x275D JUMPI DUP5 DUP9 SWAP6 SWAP4 PUSH2 0x57E SWAP8 SWAP6 SWAP4 PUSH2 0x26FF SWAP4 PUSH2 0x274A JUMPI JUMPDEST POP ADDRESS PUSH2 0x3851 JUMP JUMPDEST MLOAD SWAP6 DUP7 SWAP6 DUP3 PUSH32 0x207157178118B7CB05400C84D22FA689C2A3716EEEAE7C28C0C34AC685ABF918 PUSH2 0x3A0 MLOAD PUSH2 0x3A0 MLOAD LOG4 DUP5 MSTORE PUSH1 0x1 PUSH1 0x1 PUSH1 0xA0 SHL SUB AND PUSH1 0x20 DUP5 ADD MSTORE PUSH1 0x40 DUP4 ADD MSTORE PUSH1 0x60 DUP3 ADD SWAP1 JUMP JUMPDEST PUSH2 0x3A0 MLOAD PUSH2 0x2757 SWAP2 PUSH2 0x3193 JUMP JUMPDEST DUP11 PUSH2 0x26F8 JUMP JUMPDEST DUP4 MLOAD RETURNDATASIZE PUSH2 0x3A0 MLOAD DUP3 RETURNDATACOPY RETURNDATASIZE SWAP1 REVERT JUMPDEST DUP3 MLOAD DUP7 MSTORE PUSH1 0x20 SWAP6 DUP7 ADD SWAP6 DUP8 SWAP6 POP SWAP1 SWAP3 ADD SWAP2 PUSH1 0x1 ADD PUSH2 0x26A7 JUMP JUMPDEST PUSH4 0x4E487B71 PUSH1 0xE0 SHL PUSH2 0x3A0 MLOAD MSTORE PUSH1 0x32 PUSH1 0x4 MSTORE PUSH1 0x24 PUSH2 0x3A0 MLOAD REVERT JUMPDEST SWAP1 SWAP5 POP PUSH1 0x20 DUP2 RETURNDATASIZE PUSH1 0x20 GT PUSH2 0x27C9 JUMPI JUMPDEST DUP2 PUSH2 0x27B9 PUSH1 0x20 SWAP4 DUP4 PUSH2 0x3193 JUMP JUMPDEST DUP2 ADD SUB SLT PUSH2 0x21C JUMPI MLOAD SWAP4 DUP6 PUSH2 0x263B JUMP JUMPDEST RETURNDATASIZE SWAP2 POP PUSH2 0x27AC JUMP JUMPDEST PUSH2 0x27EB SWAP2 SWAP3 POP PUSH1 0x20 RETURNDATASIZE PUSH1 0x20 GT PUSH2 0xA92 JUMPI PUSH2 0xA83 DUP2 DUP4 PUSH2 0x3193 JUMP JUMPDEST SWAP1 DUP5 PUSH2 0x2577 JUMP JUMPDEST CALLVALUE PUSH2 0x21C JUMPI PUSH2 0x3A0 MLOAD CALLDATASIZE PUSH1 0x3 NOT ADD SLT PUSH2 0x21C JUMPI PUSH2 0x280D PUSH2 0x3B84 JUMP JUMPDEST PUSH1 0xB DUP1 SLOAD PUSH2 0x100 PUSH1 0x1 PUSH1 0xA8 SHL SUB NOT DUP2 AND SWAP1 SWAP2 SSTORE PUSH2 0x3A0 MLOAD SWAP1 PUSH1 0x8 SHR PUSH1 0x1 PUSH1 0x1 PUSH1 0xA0 SHL SUB AND PUSH32 0x8BE0079C531659141344CD1FD0A4F28419497F9722A3DAAFE3B4186F6B6457E0 DUP3 DUP1 LOG3 PUSH2 0x3A0 MLOAD DUP1 RETURN JUMPDEST CALLVALUE PUSH2 0x21C JUMPI PUSH1 0x20 CALLDATASIZE PUSH1 0x3 NOT ADD SLT PUSH2 0x21C JUMPI PUSH1 0x20 PUSH2 0x287F PUSH2 0x287A PUSH2 0x3114 JUMP JUMPDEST PUSH2 0x35AA JUMP JUMPDEST PUSH1 0x40 MLOAD SWAP1 DUP2 MSTORE RETURN JUMPDEST CALLVALUE PUSH2 0x21C JUMPI PUSH2 0x3A0 MLOAD CALLDATASIZE PUSH1 0x3 NOT ADD SLT PUSH2 0x21C JUMPI PUSH1 0x20 PUSH1 0xF SLOAD PUSH1 0x40 MLOAD SWAP1 DUP2 MSTORE RETURN JUMPDEST CALLVALUE PUSH2 0x21C JUMPI PUSH2 0x3A0 MLOAD CALLDATASIZE PUSH1 0x3 NOT ADD SLT PUSH2 0x21C JUMPI PUSH1 0x40 MLOAD PUSH32 0x0 PUSH1 0x1 PUSH1 0x1 PUSH1 0xA0 SHL SUB AND DUP2 MSTORE PUSH1 0x20 SWAP1 RETURN JUMPDEST CALLVALUE PUSH2 0x21C JUMPI PUSH1 0x20 CALLDATASIZE PUSH1 0x3 NOT ADD SLT PUSH2 0x21C JUMPI PUSH1 0x20 PUSH2 0x290C PUSH1 0x4 CALLDATALOAD PUSH2 0x3587 JUMP JUMPDEST PUSH1 0x40 MLOAD PUSH1 0x1 PUSH1 0x1 PUSH1 0xA0 SHL SUB SWAP1 SWAP2 AND DUP2 MSTORE RETURN JUMPDEST CALLVALUE PUSH2 0x21C JUMPI PUSH2 0x3A0 MLOAD CALLDATASIZE PUSH1 0x3 NOT ADD SLT PUSH2 0x21C JUMPI PUSH1 0x20 PUSH1 0xFF PUSH1 0xB SLOAD AND PUSH1 0x40 MLOAD SWAP1 ISZERO ISZERO DUP2 MSTORE RETURN JUMPDEST CALLVALUE PUSH2 0x21C JUMPI PUSH1 0x20 CALLDATASIZE PUSH1 0x3 NOT ADD SLT PUSH2 0x21C JUMPI PUSH1 0x4 CALLDATALOAD PUSH1 0x8 SLOAD DUP2 LT ISZERO PUSH2 0x297B JUMPI PUSH2 0x296C PUSH1 0x20 SWAP2 PUSH2 0x350A JUMP JUMPDEST SWAP1 SLOAD SWAP1 PUSH1 0x3 SHL SHR PUSH1 0x40 MLOAD SWAP1 DUP2 MSTORE RETURN JUMPDEST PUSH1 0x40 MLOAD PUSH3 0x461BCD PUSH1 0xE5 SHL DUP2 MSTORE PUSH1 0x20 PUSH1 0x4 DUP3 ADD MSTORE PUSH1 0x2C PUSH1 0x24 DUP3 ADD MSTORE PUSH32 0x455243373231456E756D657261626C653A20676C6F62616C20696E646578206F PUSH1 0x44 DUP3 ADD MSTORE PUSH12 0x7574206F6620626F756E6473 PUSH1 0xA0 SHL PUSH1 0x64 DUP3 ADD MSTORE PUSH1 0x84 SWAP1 REVERT JUMPDEST CALLVALUE PUSH2 0x21C JUMPI PUSH2 0xB10 PUSH2 0x1F9C PUSH2 0x29E9 CALLDATASIZE PUSH2 0x328C JUMP JUMPDEST PUSH1 0x40 MLOAD SWAP3 SWAP1 SWAP2 SWAP1 PUSH2 0x29FB PUSH1 0x20 DUP6 PUSH2 0x3193 JUMP JUMPDEST PUSH2 0x3A0 MLOAD DUP5 MSTORE PUSH2 0x1F8C PUSH2 0x1F87 DUP5 CALLER PUSH2 0x37D8 JUMP JUMPDEST CALLVALUE PUSH2 0x21C JUMPI PUSH2 0x3A0 MLOAD CALLDATASIZE PUSH1 0x3 NOT ADD SLT PUSH2 0x21C JUMPI PUSH1 0x40 MLOAD PUSH32 0x0 PUSH1 0x1 PUSH1 0x1 PUSH1 0xA0 SHL SUB AND DUP2 MSTORE PUSH1 0x20 SWAP1 RETURN JUMPDEST CALLVALUE PUSH2 0x21C JUMPI PUSH2 0x3A0 MLOAD CALLDATASIZE PUSH1 0x3 NOT ADD SLT PUSH2 0x21C JUMPI PUSH1 0x40 MLOAD PUSH32 0x0 PUSH1 0x1 PUSH1 0x1 PUSH1 0xA0 SHL SUB AND DUP2 MSTORE PUSH1 0x20 SWAP1 RETURN JUMPDEST CALLVALUE PUSH2 0x21C JUMPI PUSH2 0x3A0 MLOAD CALLDATASIZE PUSH1 0x3 NOT ADD SLT PUSH2 0x21C JUMPI PUSH2 0x2AB7 PUSH2 0x3B84 JUMP JUMPDEST PUSH1 0xB SLOAD PUSH1 0xFF DUP2 AND ISZERO PUSH2 0x2AFB JUMPI PUSH1 0xFF NOT AND PUSH1 0xB SSTORE PUSH32 0x5DB9EE0A495BF2E6FF9C91A7834C1BA4FDD244A5E8AA4E537BD38AEAE4B073AA PUSH1 0x20 PUSH1 0x40 MLOAD CALLER DUP2 MSTORE LOG1 PUSH2 0x3A0 MLOAD DUP1 RETURN JUMPDEST PUSH1 0x40 MLOAD PUSH3 0x461BCD PUSH1 0xE5 SHL DUP2 MSTORE PUSH1 0x20 PUSH1 0x4 DUP3 ADD MSTORE PUSH1 0x14 PUSH1 0x24 DUP3 ADD MSTORE PUSH20 0x14185D5CD8589B194E881B9BDD081C185D5CD959 PUSH1 0x62 SHL PUSH1 0x44 DUP3 ADD MSTORE PUSH1 0x64 SWAP1 REVERT JUMPDEST CALLVALUE PUSH2 0x21C JUMPI PUSH1 0x40 CALLDATASIZE PUSH1 0x3 NOT ADD SLT PUSH2 0x21C JUMPI PUSH2 0x2B50 PUSH2 0x3114 JUMP JUMPDEST PUSH1 0x24 CALLDATALOAD SWAP1 PUSH2 0x2B5D DUP2 PUSH2 0x35AA JUMP JUMPDEST DUP3 LT ISZERO PUSH2 0x2B98 JUMPI PUSH1 0x1 DUP1 PUSH1 0xA0 SHL SUB AND PUSH2 0x3A0 MLOAD MSTORE PUSH1 0x6 PUSH1 0x20 MSTORE PUSH1 0x40 PUSH2 0x3A0 MLOAD KECCAK256 SWAP1 PUSH2 0x3A0 MLOAD MSTORE PUSH1 0x20 MSTORE PUSH1 0x20 PUSH1 0x40 PUSH2 0x3A0 MLOAD KECCAK256 SLOAD PUSH1 0x40 MLOAD SWAP1 DUP2 MSTORE RETURN JUMPDEST PUSH1 0x40 MLOAD PUSH3 0x461BCD PUSH1 0xE5 SHL DUP2 MSTORE PUSH1 0x20 PUSH1 0x4 DUP3 ADD MSTORE PUSH1 0x2B PUSH1 0x24 DUP3 ADD MSTORE PUSH32 0x455243373231456E756D657261626C653A206F776E657220696E646578206F75 PUSH1 0x44 DUP3 ADD MSTORE PUSH11 0x74206F6620626F756E6473 PUSH1 0xA8 SHL PUSH1 0x64 DUP3 ADD MSTORE PUSH1 0x84 SWAP1 REVERT JUMPDEST CALLVALUE PUSH2 0x21C JUMPI PUSH1 0x40 CALLDATASIZE PUSH1 0x3 NOT ADD SLT PUSH2 0x21C JUMPI PUSH1 0x24 CALLDATALOAD PUSH1 0x4 CALLDATALOAD PUSH2 0x3A0 MLOAD MSTORE PUSH1 0xD PUSH1 0x20 MSTORE PUSH1 0x40 PUSH2 0x3A0 MLOAD KECCAK256 PUSH2 0x3A0 MLOAD POP PUSH1 0x40 MLOAD SWAP1 PUSH2 0x2C2B DUP3 PUSH2 0x3178 JUMP JUMPDEST SLOAD PUSH1 0x1 PUSH1 0x1 PUSH1 0xA0 SHL SUB DUP2 AND DUP1 DUP4 MSTORE PUSH1 0xA0 SWAP2 SWAP1 SWAP2 SHR PUSH1 0x20 DUP4 ADD MSTORE ISZERO PUSH2 0x2CA7 JUMPI JUMPDEST PUSH12 0xFFFFFFFFFFFFFFFFFFFFFFFF PUSH1 0x20 DUP3 ADD MLOAD AND SWAP2 DUP3 DUP2 MUL SWAP3 DUP2 DUP5 DIV EQ SWAP1 ISZERO OR ISZERO PUSH2 0x2C8D JUMPI MLOAD PUSH1 0x40 DUP1 MLOAD PUSH1 0x1 PUSH1 0x1 PUSH1 0xA0 SHL SUB SWAP1 SWAP3 AND DUP3 MSTORE PUSH2 0x2710 SWAP1 SWAP3 DIV PUSH1 0x20 DUP3 ADD MSTORE RETURN JUMPDEST PUSH4 0x4E487B71 PUSH1 0xE0 SHL PUSH2 0x3A0 MLOAD MSTORE PUSH1 0x11 PUSH1 0x4 MSTORE PUSH1 0x24 PUSH2 0x3A0 MLOAD REVERT JUMPDEST POP PUSH1 0x40 MLOAD PUSH2 0x2CB4 DUP2 PUSH2 0x3178 JUMP JUMPDEST PUSH1 0xC SLOAD PUSH1 0x1 PUSH1 0x1 PUSH1 0xA0 SHL SUB DUP2 AND DUP3 MSTORE PUSH1 0xA0 SHR PUSH1 0x20 DUP3 ADD MSTORE PUSH2 0x2C4A JUMP JUMPDEST CALLVALUE PUSH2 0x21C JUMPI PUSH2 0xB10 PUSH2 0x2CE1 CALLDATASIZE PUSH2 0x328C JUMP JUMPDEST SWAP2 PUSH2 0x2CEF PUSH2 0x1F87 DUP5 CALLER PUSH2 0x37D8 JUMP JUMPDEST PUSH2 0x3851 JUMP JUMPDEST CALLVALUE PUSH2 0x21C JUMPI PUSH1 0x20 CALLDATASIZE PUSH1 0x3 NOT ADD SLT PUSH2 0x21C JUMPI PUSH1 0x4 CALLDATALOAD PUSH1 0x1 PUSH1 0x1 PUSH1 0x40 SHL SUB DUP2 GT PUSH2 0x21C JUMPI PUSH1 0xFF PUSH2 0x2D3F PUSH1 0x20 PUSH2 0x2D2C DUP2 SWAP5 CALLDATASIZE SWAP1 PUSH1 0x4 ADD PUSH2 0x3271 JUMP JUMPDEST DUP2 PUSH1 0x40 MLOAD SWAP4 DUP3 DUP6 DUP1 SWAP5 MLOAD SWAP4 DUP5 SWAP3 ADD PUSH2 0x30CC JUMP JUMPDEST DUP2 ADD PUSH1 0x12 DUP2 MSTORE SUB ADD SWAP1 KECCAK256 SLOAD AND PUSH1 0x40 MLOAD SWAP1 ISZERO ISZERO DUP2 MSTORE RETURN JUMPDEST CALLVALUE PUSH2 0x21C JUMPI PUSH2 0x3A0 MLOAD CALLDATASIZE PUSH1 0x3 NOT ADD SLT PUSH2 0x21C JUMPI PUSH1 0x20 PUSH1 0x8 SLOAD PUSH1 0x40 MLOAD SWAP1 DUP2 MSTORE RETURN JUMPDEST CALLVALUE PUSH2 0x21C JUMPI PUSH2 0x2D83 CALLDATASIZE PUSH2 0x3206 JUMP JUMPDEST POP POP POP POP PUSH1 0x20 PUSH1 0x40 MLOAD PUSH4 0xA85BD01 PUSH1 0xE1 SHL DUP2 MSTORE RETURN JUMPDEST CALLVALUE PUSH2 0x21C JUMPI PUSH2 0x3A0 MLOAD CALLDATASIZE PUSH1 0x3 NOT ADD SLT PUSH2 0x21C JUMPI PUSH1 0x40 MLOAD PUSH32 0x0 PUSH1 0x1 PUSH1 0x1 PUSH1 0xA0 SHL SUB AND DUP2 MSTORE PUSH1 0x20 SWAP1 RETURN JUMPDEST CALLVALUE PUSH2 0x21C JUMPI PUSH1 0x40 CALLDATASIZE PUSH1 0x3 NOT ADD SLT PUSH2 0x21C JUMPI PUSH2 0x2DF8 PUSH2 0x3114 JUMP JUMPDEST PUSH1 0x24 CALLDATALOAD SWAP1 PUSH1 0x1 PUSH1 0x1 PUSH1 0xA0 SHL SUB PUSH2 0x2E0D DUP4 PUSH2 0x3587 JUMP JUMPDEST PUSH1 0x1 PUSH1 0x1 PUSH1 0xA0 SHL SUB SWAP1 SWAP3 AND SWAP2 AND DUP2 DUP2 EQ PUSH2 0x2F2E JUMPI DUP1 CALLER EQ SWAP1 DUP2 ISZERO PUSH2 0x2F02 JUMPI JUMPDEST POP ISZERO PUSH2 0x2E97 JUMPI PUSH2 0x3A0 DUP1 MLOAD DUP4 SWAP1 MSTORE PUSH1 0x4 PUSH1 0x20 MSTORE MLOAD PUSH1 0x40 SWAP1 KECCAK256 DUP1 SLOAD PUSH1 0x1 PUSH1 0x1 PUSH1 0xA0 SHL SUB NOT AND DUP3 OR SWAP1 SSTORE PUSH1 0x1 PUSH1 0x1 PUSH1 0xA0 SHL SUB PUSH2 0x2E65 DUP4 PUSH2 0x3587 JUMP JUMPDEST AND PUSH32 0x8C5BE1E5EBEC7D5BD14F71427D1E84F3DD0314C0F7B2291E5B200AC8C7C3B925 PUSH2 0x3A0 MLOAD PUSH2 0x3A0 MLOAD LOG4 PUSH2 0x3A0 MLOAD DUP1 RETURN JUMPDEST PUSH1 0x40 MLOAD PUSH3 0x461BCD PUSH1 0xE5 SHL DUP2 MSTORE PUSH1 0x20 PUSH1 0x4 DUP3 ADD MSTORE PUSH1 0x3E PUSH1 0x24 DUP3 ADD MSTORE PUSH32 0x4552433732313A20617070726F76652063616C6C6572206973206E6F7420746F PUSH1 0x44 DUP3 ADD MSTORE PUSH32 0x6B656E206F776E6572206E6F7220617070726F76656420666F7220616C6C0000 PUSH1 0x64 DUP3 ADD MSTORE PUSH1 0x84 SWAP1 REVERT JUMPDEST PUSH2 0x3A0 DUP1 MLOAD SWAP2 SWAP1 SWAP2 MSTORE PUSH1 0x5 PUSH1 0x20 SWAP1 DUP2 MSTORE DUP2 MLOAD PUSH1 0x40 DUP1 DUP3 KECCAK256 CALLER SWAP1 SWAP3 MSTORE SWAP2 MSTORE SWAP1 MLOAD KECCAK256 SLOAD PUSH1 0xFF AND SWAP1 POP DUP4 PUSH2 0x2E2C JUMP JUMPDEST PUSH1 0x40 MLOAD PUSH3 0x461BCD PUSH1 0xE5 SHL DUP2 MSTORE PUSH1 0x20 PUSH1 0x4 DUP3 ADD MSTORE PUSH1 0x21 PUSH1 0x24 DUP3 ADD MSTORE PUSH32 0x4552433732313A20617070726F76616C20746F2063757272656E74206F776E65 PUSH1 0x44 DUP3 ADD MSTORE PUSH1 0x39 PUSH1 0xF9 SHL PUSH1 0x64 DUP3 ADD MSTORE PUSH1 0x84 SWAP1 REVERT JUMPDEST CALLVALUE PUSH2 0x21C JUMPI PUSH1 0x20 CALLDATASIZE PUSH1 0x3 NOT ADD SLT PUSH2 0x21C JUMPI PUSH1 0x20 PUSH2 0x290C PUSH1 0x4 CALLDATALOAD PUSH2 0x3469 JUMP JUMPDEST CALLVALUE PUSH2 0x21C JUMPI PUSH2 0x3A0 MLOAD CALLDATASIZE PUSH1 0x3 NOT ADD SLT PUSH2 0x21C JUMPI PUSH2 0x3A0 MLOAD PUSH1 0x40 MLOAD DUP2 SLOAD SWAP1 SWAP2 SWAP1 PUSH2 0x2FC3 DUP2 PUSH2 0x338B JUMP JUMPDEST DUP1 DUP5 MSTORE SWAP1 PUSH1 0x1 DUP2 AND SWAP1 DUP2 ISZERO PUSH2 0x211A JUMPI POP PUSH1 0x1 EQ PUSH2 0x2FEA JUMPI PUSH2 0x57E DUP4 PUSH2 0x1F4F DUP2 DUP6 SUB DUP3 PUSH2 0x3193 JUMP JUMPDEST PUSH2 0x3A0 DUP1 MLOAD DUP1 MSTORE MLOAD PUSH1 0x20 DUP2 KECCAK256 SWAP4 SWAP3 POP SWAP1 JUMPDEST DUP1 DUP3 LT PUSH2 0x3013 JUMPI POP SWAP1 SWAP2 POP DUP2 ADD PUSH1 0x20 ADD PUSH2 0x1F4F PUSH2 0x20C5 JUMP JUMPDEST SWAP2 SWAP3 PUSH1 0x1 DUP2 PUSH1 0x20 SWAP3 SLOAD DUP4 DUP6 DUP9 ADD ADD MSTORE ADD SWAP2 ADD SWAP1 SWAP3 SWAP2 PUSH2 0x2FFB JUMP JUMPDEST CALLVALUE PUSH2 0x21C JUMPI PUSH1 0x20 CALLDATASIZE PUSH1 0x3 NOT ADD SLT PUSH2 0x21C JUMPI PUSH1 0x4 CALLDATALOAD SWAP1 PUSH4 0xFFFFFFFF PUSH1 0xE0 SHL DUP3 AND DUP1 SWAP3 SUB PUSH2 0x21C JUMPI PUSH1 0x20 SWAP2 PUSH4 0x152A902D PUSH1 0xE1 SHL DUP2 EQ SWAP1 DUP2 ISZERO PUSH2 0x306F JUMPI JUMPDEST POP ISZERO ISZERO DUP2 MSTORE RETURN JUMPDEST PUSH4 0x780E9D63 PUSH1 0xE0 SHL DUP2 EQ SWAP2 POP DUP2 ISZERO PUSH2 0x3089 JUMPI JUMPDEST POP DUP4 PUSH2 0x3068 JUMP JUMPDEST PUSH4 0x80AC58CD PUSH1 0xE0 SHL DUP2 EQ SWAP2 POP DUP2 ISZERO PUSH2 0x30BB JUMPI JUMPDEST DUP2 ISZERO PUSH2 0x30AA JUMPI JUMPDEST POP DUP4 PUSH2 0x3082 JUMP JUMPDEST PUSH4 0x1FFC9A7 PUSH1 0xE0 SHL EQ SWAP1 POP DUP4 PUSH2 0x30A3 JUMP JUMPDEST PUSH4 0x5B5E139F PUSH1 0xE0 SHL DUP2 EQ SWAP2 POP PUSH2 0x309C JUMP JUMPDEST PUSH1 0x0 JUMPDEST DUP4 DUP2 LT PUSH2 0x30DF JUMPI POP POP PUSH1 0x0 SWAP2 ADD MSTORE JUMP JUMPDEST DUP2 DUP2 ADD MLOAD DUP4 DUP3 ADD MSTORE PUSH1 0x20 ADD PUSH2 0x30CF JUMP JUMPDEST SWAP1 PUSH1 0x20 SWAP2 PUSH2 0x3108 DUP2 MLOAD DUP1 SWAP3 DUP2 DUP6 MSTORE DUP6 DUP1 DUP7 ADD SWAP2 ADD PUSH2 0x30CC JUMP JUMPDEST PUSH1 0x1F ADD PUSH1 0x1F NOT AND ADD ADD SWAP1 JUMP JUMPDEST PUSH1 0x4 CALLDATALOAD SWAP1 PUSH1 0x1 PUSH1 0x1 PUSH1 0xA0 SHL SUB DUP3 AND DUP3 SUB PUSH2 0xA5C JUMPI JUMP JUMPDEST PUSH2 0x1C0 DUP2 ADD SWAP1 DUP2 LT PUSH1 0x1 PUSH1 0x1 PUSH1 0x40 SHL SUB DUP3 GT OR PUSH2 0x3146 JUMPI PUSH1 0x40 MSTORE JUMP JUMPDEST PUSH4 0x4E487B71 PUSH1 0xE0 SHL PUSH1 0x0 MSTORE PUSH1 0x41 PUSH1 0x4 MSTORE PUSH1 0x24 PUSH1 0x0 REVERT JUMPDEST PUSH2 0x220 DUP2 ADD SWAP1 DUP2 LT PUSH1 0x1 PUSH1 0x1 PUSH1 0x40 SHL SUB DUP3 GT OR PUSH2 0x3146 JUMPI PUSH1 0x40 MSTORE JUMP JUMPDEST PUSH1 0x40 DUP2 ADD SWAP1 DUP2 LT PUSH1 0x1 PUSH1 0x1 PUSH1 0x40 SHL SUB DUP3 GT OR PUSH2 0x3146 JUMPI PUSH1 0x40 MSTORE JUMP JUMPDEST SWAP1 PUSH1 0x1F DUP1 NOT SWAP2 ADD AND DUP2 ADD SWAP1 DUP2 LT PUSH1 0x1 PUSH1 0x1 PUSH1 0x40 SHL SUB DUP3 GT OR PUSH2 0x3146 JUMPI PUSH1 0x40 MSTORE JUMP JUMPDEST PUSH1 0x1 PUSH1 0x1 PUSH1 0x40 SHL SUB DUP2 GT PUSH2 0x3146 JUMPI PUSH1 0x1F ADD PUSH1 0x1F NOT AND PUSH1 0x20 ADD SWAP1 JUMP JUMPDEST SWAP3 SWAP2 SWAP3 PUSH2 0x31DB DUP3 PUSH2 0x31B4 JUMP JUMPDEST SWAP2 PUSH2 0x31E9 PUSH1 0x40 MLOAD SWAP4 DUP5 PUSH2 0x3193 JUMP JUMPDEST DUP3 SWAP5 DUP2 DUP5 MSTORE DUP2 DUP4 ADD GT PUSH2 0xA5C JUMPI DUP3 DUP2 PUSH1 0x20 SWAP4 DUP5 PUSH1 0x0 SWAP7 ADD CALLDATACOPY ADD ADD MSTORE JUMP JUMPDEST SWAP1 PUSH1 0x80 PUSH1 0x3 NOT DUP4 ADD SLT PUSH2 0xA5C JUMPI PUSH1 0x4 CALLDATALOAD PUSH1 0x1 PUSH1 0x1 PUSH1 0xA0 SHL SUB DUP2 AND DUP2 SUB PUSH2 0xA5C JUMPI SWAP2 PUSH1 0x24 CALLDATALOAD PUSH1 0x1 PUSH1 0x1 PUSH1 0xA0 SHL SUB DUP2 AND DUP2 SUB PUSH2 0xA5C JUMPI SWAP2 PUSH1 0x44 CALLDATALOAD SWAP2 PUSH1 0x64 CALLDATALOAD SWAP1 PUSH1 0x1 PUSH1 0x1 PUSH1 0x40 SHL SUB DUP3 GT PUSH2 0xA5C JUMPI DUP1 PUSH1 0x23 DUP4 ADD SLT ISZERO PUSH2 0xA5C JUMPI DUP2 PUSH1 0x24 PUSH2 0x326E SWAP4 PUSH1 0x4 ADD CALLDATALOAD SWAP2 ADD PUSH2 0x31CF JUMP JUMPDEST SWAP1 JUMP JUMPDEST SWAP1 DUP1 PUSH1 0x1F DUP4 ADD SLT ISZERO PUSH2 0xA5C JUMPI DUP2 PUSH1 0x20 PUSH2 0x326E SWAP4 CALLDATALOAD SWAP2 ADD PUSH2 0x31CF JUMP JUMPDEST PUSH1 0x60 SWAP1 PUSH1 0x3 NOT ADD SLT PUSH2 0xA5C JUMPI PUSH1 0x4 CALLDATALOAD PUSH1 0x1 PUSH1 0x1 PUSH1 0xA0 SHL SUB DUP2 AND DUP2 SUB PUSH2 0xA5C JUMPI SWAP1 PUSH1 0x24 CALLDATALOAD PUSH1 0x1 PUSH1 0x1 PUSH1 0xA0 SHL SUB DUP2 AND DUP2 SUB PUSH2 0xA5C JUMPI SWAP1 PUSH1 0x44 CALLDATALOAD SWAP1 JUMP JUMPDEST SWAP1 DUP1 PUSH1 0x20 DUP4 MLOAD SWAP2 DUP3 DUP2 MSTORE ADD SWAP2 PUSH1 0x20 DUP1 DUP4 PUSH1 0x5 SHL DUP4 ADD ADD SWAP5 ADD SWAP3 PUSH1 0x0 SWAP2 JUMPDEST DUP4 DUP4 LT PUSH2 0x32F2 JUMPI POP POP POP POP POP SWAP1 JUMP JUMPDEST SWAP1 SWAP2 SWAP3 SWAP4 SWAP5 PUSH1 0x20 DUP1 PUSH2 0x3310 PUSH1 0x1 SWAP4 PUSH1 0x1F NOT DUP7 DUP3 SUB ADD DUP8 MSTORE DUP10 MLOAD PUSH2 0x30EF JUMP JUMPDEST SWAP8 ADD SWAP4 ADD SWAP4 ADD SWAP2 SWAP4 SWAP3 SWAP1 PUSH2 0x32E3 JUMP JUMPDEST PUSH1 0x24 CALLDATALOAD SWAP1 DUP2 ISZERO ISZERO DUP3 SUB PUSH2 0xA5C JUMPI JUMP JUMPDEST SWAP2 DUP2 PUSH1 0x1F DUP5 ADD SLT ISZERO PUSH2 0xA5C JUMPI DUP3 CALLDATALOAD SWAP2 PUSH1 0x1 PUSH1 0x1 PUSH1 0x40 SHL SUB DUP4 GT PUSH2 0xA5C JUMPI PUSH1 0x20 DUP4 DUP2 DUP7 ADD SWAP6 ADD ADD GT PUSH2 0xA5C JUMPI JUMP JUMPDEST SWAP2 DUP2 PUSH1 0x1F DUP5 ADD SLT ISZERO PUSH2 0xA5C JUMPI DUP3 CALLDATALOAD SWAP2 PUSH1 0x1 PUSH1 0x1 PUSH1 0x40 SHL SUB DUP4 GT PUSH2 0xA5C JUMPI PUSH1 0x20 DUP1 DUP6 ADD SWAP5 DUP5 PUSH1 0x5 SHL ADD ADD GT PUSH2 0xA5C JUMPI JUMP JUMPDEST SWAP1 PUSH1 0x1 DUP3 DUP2 SHR SWAP3 AND DUP1 ISZERO PUSH2 0x33BB JUMPI JUMPDEST PUSH1 0x20 DUP4 LT EQ PUSH2 0x33A5 JUMPI JUMP JUMPDEST PUSH4 0x4E487B71 PUSH1 0xE0 SHL PUSH1 0x0 MSTORE PUSH1 0x22 PUSH1 0x4 MSTORE PUSH1 0x24 PUSH1 0x0 REVERT JUMPDEST SWAP2 PUSH1 0x7F AND SWAP2 PUSH2 0x339A JUMP JUMPDEST SWAP1 PUSH1 0x40 MLOAD SWAP2 DUP3 PUSH1 0x0 DUP3 SLOAD SWAP3 PUSH2 0x33D9 DUP5 PUSH2 0x338B JUMP JUMPDEST DUP1 DUP5 MSTORE SWAP4 PUSH1 0x1 DUP2 AND SWAP1 DUP2 ISZERO PUSH2 0x3447 JUMPI POP PUSH1 0x1 EQ PUSH2 0x3400 JUMPI JUMPDEST POP PUSH2 0x33FE SWAP3 POP SUB DUP4 PUSH2 0x3193 JUMP JUMPDEST JUMP JUMPDEST SWAP1 POP PUSH1 0x0 SWAP3 SWAP2 SWAP3 MSTORE PUSH1 0x20 PUSH1 0x0 KECCAK256 SWAP1 PUSH1 0x0 SWAP2 JUMPDEST DUP2 DUP4 LT PUSH2 0x342B JUMPI POP POP SWAP1 PUSH1 0x20 PUSH2 0x33FE SWAP3 DUP3 ADD ADD CODESIZE PUSH2 0x33F1 JUMP JUMPDEST PUSH1 0x20 SWAP2 SWAP4 POP DUP1 PUSH1 0x1 SWAP2 SLOAD DUP4 DUP6 DUP10 ADD ADD MSTORE ADD SWAP2 ADD SWAP1 SWAP2 DUP5 SWAP3 PUSH2 0x3412 JUMP JUMPDEST SWAP1 POP PUSH1 0x20 SWAP3 POP PUSH2 0x33FE SWAP5 SWAP2 POP PUSH1 0xFF NOT AND DUP3 DUP5 ADD MSTORE ISZERO ISZERO PUSH1 0x5 SHL DUP3 ADD ADD CODESIZE PUSH2 0x33F1 JUMP JUMPDEST PUSH1 0x0 DUP2 DUP2 MSTORE PUSH1 0x2 PUSH1 0x20 MSTORE PUSH1 0x40 SWAP1 KECCAK256 SLOAD PUSH2 0x348C SWAP1 PUSH1 0x1 PUSH1 0x1 PUSH1 0xA0 SHL SUB AND ISZERO ISZERO PUSH2 0x353B JUMP JUMPDEST PUSH1 0x0 SWAP1 DUP2 MSTORE PUSH1 0x4 PUSH1 0x20 MSTORE PUSH1 0x40 SWAP1 KECCAK256 SLOAD PUSH1 0x1 PUSH1 0x1 PUSH1 0xA0 SHL SUB AND SWAP1 JUMP JUMPDEST ISZERO PUSH2 0x34AE JUMPI JUMP JUMPDEST PUSH1 0x40 MLOAD PUSH3 0x461BCD PUSH1 0xE5 SHL DUP2 MSTORE PUSH1 0x20 PUSH1 0x4 DUP3 ADD MSTORE PUSH1 0x2E PUSH1 0x24 DUP3 ADD MSTORE PUSH32 0x4552433732313A2063616C6C6572206973206E6F7420746F6B656E206F776E65 PUSH1 0x44 DUP3 ADD MSTORE PUSH14 0x1C881B9BDC88185C1C1C9BDD9959 PUSH1 0x92 SHL PUSH1 0x64 DUP3 ADD MSTORE PUSH1 0x84 SWAP1 REVERT JUMPDEST PUSH1 0x8 SLOAD DUP2 LT ISZERO PUSH2 0x3525 JUMPI PUSH1 0x8 PUSH1 0x0 MSTORE PUSH1 0x20 PUSH1 0x0 KECCAK256 ADD SWAP1 PUSH1 0x0 SWAP1 JUMP JUMPDEST PUSH4 0x4E487B71 PUSH1 0xE0 SHL PUSH1 0x0 MSTORE PUSH1 0x32 PUSH1 0x4 MSTORE PUSH1 0x24 PUSH1 0x0 REVERT JUMPDEST ISZERO PUSH2 0x3542 JUMPI JUMP JUMPDEST PUSH1 0x40 MLOAD PUSH3 0x461BCD PUSH1 0xE5 SHL DUP2 MSTORE PUSH1 0x20 PUSH1 0x4 DUP3 ADD MSTORE PUSH1 0x18 PUSH1 0x24 DUP3 ADD MSTORE PUSH32 0x4552433732313A20696E76616C696420746F6B656E2049440000000000000000 PUSH1 0x44 DUP3 ADD MSTORE PUSH1 0x64 SWAP1 REVERT JUMPDEST PUSH1 0x0 SWAP1 DUP2 MSTORE PUSH1 0x2 PUSH1 0x20 MSTORE PUSH1 0x40 SWAP1 KECCAK256 SLOAD PUSH1 0x1 PUSH1 0x1 PUSH1 0xA0 SHL SUB AND PUSH2 0x326E DUP2 ISZERO ISZERO PUSH2 0x353B JUMP JUMPDEST PUSH1 0x1 PUSH1 0x1 PUSH1 0xA0 SHL SUB AND DUP1 ISZERO PUSH2 0x35CA JUMPI PUSH1 0x0 MSTORE PUSH1 0x3 PUSH1 0x20 MSTORE PUSH1 0x40 PUSH1 0x0 KECCAK256 SLOAD SWAP1 JUMP JUMPDEST PUSH1 0x40 MLOAD PUSH3 0x461BCD PUSH1 0xE5 SHL DUP2 MSTORE PUSH1 0x20 PUSH1 0x4 DUP3 ADD MSTORE PUSH1 0x29 PUSH1 0x24 DUP3 ADD MSTORE PUSH32 0x4552433732313A2061646472657373207A65726F206973206E6F742061207661 PUSH1 0x44 DUP3 ADD MSTORE PUSH9 0x3634B21037BBB732B9 PUSH1 0xB9 SHL PUSH1 0x64 DUP3 ADD MSTORE PUSH1 0x84 SWAP1 REVERT JUMPDEST SWAP1 DUP2 PUSH1 0x20 SWAP2 SUB SLT PUSH2 0xA5C JUMPI MLOAD PUSH1 0x1 PUSH1 0x1 PUSH1 0xA0 SHL SUB DUP2 AND DUP2 SUB PUSH2 0xA5C JUMPI SWAP1 JUMP JUMPDEST PUSH1 0x1 PUSH1 0x1 PUSH1 0x40 SHL SUB DUP2 GT PUSH2 0x3146 JUMPI PUSH1 0x5 SHL PUSH1 0x20 ADD SWAP1 JUMP JUMPDEST SWAP1 DUP2 SLOAD PUSH2 0x3663 DUP2 PUSH2 0x3640 JUMP JUMPDEST SWAP3 PUSH2 0x3671 PUSH1 0x40 MLOAD SWAP5 DUP6 PUSH2 0x3193 JUMP JUMPDEST DUP2 DUP5 MSTORE PUSH1 0x20 DUP5 ADD SWAP1 PUSH1 0x0 MSTORE PUSH1 0x20 PUSH1 0x0 KECCAK256 PUSH1 0x0 SWAP2 JUMPDEST DUP4 DUP4 LT PUSH2 0x3692 JUMPI POP POP POP POP JUMP JUMPDEST PUSH1 0x1 PUSH1 0x20 DUP2 SWAP3 PUSH2 0x36A1 DUP6 PUSH2 0x33C5 JUMP JUMPDEST DUP2 MSTORE ADD SWAP3 ADD SWAP3 ADD SWAP2 SWAP1 PUSH2 0x3685 JUMP JUMPDEST SWAP3 SWAP2 SWAP1 PUSH2 0x36BB DUP2 PUSH2 0x3640 JUMP JUMPDEST SWAP4 PUSH2 0x36C9 PUSH1 0x40 MLOAD SWAP6 DUP7 PUSH2 0x3193 JUMP JUMPDEST PUSH1 0x20 DUP6 DUP4 DUP2 MSTORE ADD SWAP2 PUSH1 0x5 SHL DUP2 ADD SWAP2 DUP4 DUP4 GT PUSH2 0xA5C JUMPI DUP2 SWAP1 JUMPDEST DUP4 DUP3 LT PUSH2 0x36EF JUMPI POP POP POP POP POP JUMP JUMPDEST DUP2 CALLDATALOAD PUSH1 0x1 PUSH1 0x1 PUSH1 0x40 SHL SUB DUP2 GT PUSH2 0xA5C JUMPI PUSH1 0x20 SWAP2 PUSH2 0x370F DUP8 DUP5 SWAP4 DUP8 ADD PUSH2 0x3271 JUMP JUMPDEST DUP2 MSTORE ADD SWAP2 ADD SWAP1 PUSH2 0x36E1 JUMP JUMPDEST DUP2 DUP2 LT PUSH2 0x3725 JUMPI POP POP JUMP JUMPDEST PUSH1 0x0 DUP2 SSTORE PUSH1 0x1 ADD PUSH2 0x371A JUMP JUMPDEST SWAP1 DUP1 PUSH1 0x20 SWAP4 SWAP3 DUP2 DUP5 MSTORE DUP5 DUP5 ADD CALLDATACOPY PUSH1 0x0 DUP3 DUP3 ADD DUP5 ADD MSTORE PUSH1 0x1F ADD PUSH1 0x1F NOT AND ADD ADD SWAP1 JUMP JUMPDEST SWAP1 PUSH1 0x20 DUP4 DUP3 DUP2 MSTORE ADD SWAP1 PUSH1 0x20 DUP2 PUSH1 0x5 SHL DUP6 ADD ADD SWAP4 DUP4 PUSH1 0x0 SWAP2 JUMPDEST DUP4 DUP4 LT PUSH2 0x377A JUMPI POP POP POP POP POP POP SWAP1 JUMP JUMPDEST SWAP1 SWAP2 SWAP3 SWAP4 SWAP5 SWAP6 PUSH1 0x1F NOT DUP3 DUP3 SUB ADD DUP7 MSTORE DUP7 CALLDATALOAD PUSH1 0x1E NOT DUP5 CALLDATASIZE SUB ADD DUP2 SLT ISZERO PUSH2 0xA5C JUMPI DUP4 ADD SWAP1 PUSH1 0x20 DUP3 CALLDATALOAD SWAP3 ADD SWAP2 PUSH1 0x1 PUSH1 0x1 PUSH1 0x40 SHL SUB DUP2 GT PUSH2 0xA5C JUMPI DUP1 CALLDATASIZE SUB DUP4 SGT PUSH2 0xA5C JUMPI PUSH2 0x37CA PUSH1 0x20 SWAP3 DUP4 SWAP3 PUSH1 0x1 SWAP6 PUSH2 0x3731 JUMP JUMPDEST SWAP9 ADD SWAP7 ADD SWAP5 SWAP4 ADD SWAP2 SWAP1 PUSH2 0x376A JUMP JUMPDEST SWAP1 PUSH1 0x1 PUSH1 0x1 PUSH1 0xA0 SHL SUB PUSH2 0x37EA DUP3 PUSH2 0x3587 JUMP JUMPDEST PUSH1 0x1 PUSH1 0x1 PUSH1 0xA0 SHL SUB SWAP1 SWAP4 AND SWAP3 AND DUP3 DUP2 EQ SWAP3 SWAP2 SWAP1 DUP4 ISZERO PUSH2 0x382A JUMPI JUMPDEST POP DUP3 ISZERO PUSH2 0x3810 JUMPI POP POP SWAP1 JUMP JUMPDEST SWAP1 SWAP2 POP PUSH1 0x1 PUSH1 0x1 PUSH1 0xA0 SHL SUB SWAP1 PUSH2 0x3825 SWAP1 PUSH2 0x3469 JUMP JUMPDEST AND EQ SWAP1 JUMP JUMPDEST SWAP1 SWAP3 POP PUSH1 0x0 MSTORE PUSH1 0x5 PUSH1 0x20 MSTORE PUSH1 0x40 PUSH1 0x0 KECCAK256 DUP2 PUSH1 0x0 MSTORE PUSH1 0x20 MSTORE PUSH1 0xFF PUSH1 0x40 PUSH1 0x0 KECCAK256 SLOAD AND SWAP2 CODESIZE PUSH2 0x3804 JUMP JUMPDEST SWAP1 PUSH2 0x385B DUP4 PUSH2 0x3587 JUMP JUMPDEST PUSH1 0x1 PUSH1 0x1 PUSH1 0xA0 SHL SUB DUP4 DUP2 AND SWAP3 SWAP2 AND DUP3 SWAP1 SUB PUSH2 0x3B31 JUMPI PUSH1 0x1 PUSH1 0x1 PUSH1 0xA0 SHL SUB DUP2 AND SWAP3 DUP4 ISZERO PUSH2 0x3AE0 JUMPI DUP3 PUSH2 0x3A2A JUMPI POP PUSH1 0x8 SLOAD DUP5 PUSH1 0x0 MSTORE PUSH1 0x9 PUSH1 0x20 MSTORE DUP1 PUSH1 0x40 PUSH1 0x0 KECCAK256 SSTORE PUSH1 0x1 PUSH1 0x40 SHL DUP2 LT ISZERO PUSH2 0x3146 JUMPI DUP5 PUSH2 0x38BA DUP3 PUSH1 0x1 PUSH2 0x38D3 SWAP5 ADD PUSH1 0x8 SSTORE PUSH2 0x350A JUMP JUMPDEST SWAP1 SWAP2 SWAP1 DUP3 SLOAD SWAP1 PUSH1 0x3 SHL SWAP2 DUP3 SHL SWAP2 PUSH1 0x0 NOT SWAP1 SHL NOT AND OR SWAP1 SSTORE JUMP JUMPDEST PUSH1 0x0 SWAP1 DUP3 DUP5 SUB PUSH2 0x39F6 JUMPI JUMPDEST POP PUSH1 0xFF PUSH1 0xB SLOAD AND PUSH2 0x39C8 JUMPI DUP4 DUP2 MSTORE PUSH1 0x4 PUSH1 0x20 MSTORE PUSH1 0x40 DUP2 KECCAK256 DUP1 SLOAD PUSH1 0x1 PUSH1 0x1 PUSH1 0xA0 SHL SUB NOT AND SWAP1 SSTORE DUP4 DUP2 PUSH1 0x1 PUSH1 0x1 PUSH1 0xA0 SHL SUB PUSH2 0x3916 DUP4 PUSH2 0x3587 JUMP JUMPDEST AND PUSH32 0x8C5BE1E5EBEC7D5BD14F71427D1E84F3DD0314C0F7B2291E5B200AC8C7C3B925 DUP3 DUP1 LOG4 DUP2 DUP2 MSTORE PUSH1 0x3 PUSH1 0x20 MSTORE PUSH1 0x40 DUP2 KECCAK256 DUP1 SLOAD PUSH1 0x0 NOT DUP2 ADD SWAP2 SWAP1 DUP3 GT PUSH2 0x39B4 JUMPI SSTORE DUP3 DUP2 MSTORE PUSH1 0x3 PUSH1 0x20 MSTORE PUSH1 0x40 DUP2 KECCAK256 DUP1 SLOAD SWAP1 PUSH1 0x1 DUP3 ADD DUP1 SWAP3 GT PUSH2 0x39B4 JUMPI SSTORE DUP4 DUP2 MSTORE PUSH1 0x2 PUSH1 0x20 MSTORE PUSH1 0x40 DUP2 KECCAK256 DUP1 SLOAD PUSH1 0x1 PUSH1 0x1 PUSH1 0xA0 SHL SUB NOT AND DUP5 OR SWAP1 SSTORE PUSH32 0xDDF252AD1BE2C89B69C2B068FC378DAA952BA7F163C4A11628F55A4DF523B3EF SWAP1 DUP1 LOG4 JUMP JUMPDEST PUSH4 0x4E487B71 PUSH1 0xE0 SHL DUP4 MSTORE PUSH1 0x11 PUSH1 0x4 MSTORE PUSH1 0x24 DUP4 REVERT JUMPDEST PUSH1 0x40 MLOAD PUSH3 0x461BCD PUSH1 0xE5 SHL DUP2 MSTORE PUSH1 0x20 PUSH1 0x4 DUP3 ADD MSTORE PUSH1 0x6 PUSH1 0x24 DUP3 ADD MSTORE PUSH6 0x14185D5CD959 PUSH1 0xD2 SHL PUSH1 0x44 DUP3 ADD MSTORE PUSH1 0x64 SWAP1 REVERT JUMPDEST PUSH2 0x39FF SWAP1 PUSH2 0x35AA JUMP JUMPDEST DUP4 DUP3 MSTORE PUSH1 0x6 PUSH1 0x20 MSTORE PUSH1 0x40 DUP3 KECCAK256 DUP2 DUP4 MSTORE PUSH1 0x20 MSTORE DUP5 PUSH1 0x40 DUP4 KECCAK256 SSTORE DUP5 DUP3 MSTORE PUSH1 0x7 PUSH1 0x20 MSTORE PUSH1 0x40 DUP3 KECCAK256 SSTORE CODESIZE PUSH2 0x38DE JUMP JUMPDEST DUP4 DUP4 SUB PUSH2 0x3A38 JUMPI JUMPDEST POP PUSH2 0x38D3 JUMP JUMPDEST PUSH2 0x3A41 SWAP1 PUSH2 0x35AA JUMP JUMPDEST PUSH1 0x0 NOT DUP2 ADD SWAP1 DUP2 GT PUSH2 0x3ACA JUMPI DUP5 PUSH1 0x0 MSTORE PUSH1 0x7 PUSH1 0x20 MSTORE PUSH1 0x40 PUSH1 0x0 KECCAK256 SLOAD DUP2 DUP2 SUB PUSH2 0x3A97 JUMPI JUMPDEST POP DUP5 PUSH1 0x0 MSTORE PUSH1 0x7 PUSH1 0x20 MSTORE PUSH1 0x0 PUSH1 0x40 DUP2 KECCAK256 SSTORE DUP3 PUSH1 0x0 MSTORE PUSH1 0x6 PUSH1 0x20 MSTORE PUSH1 0x40 PUSH1 0x0 KECCAK256 SWAP1 PUSH1 0x0 MSTORE PUSH1 0x20 MSTORE PUSH1 0x0 PUSH1 0x40 DUP2 KECCAK256 SSTORE CODESIZE PUSH2 0x3A32 JUMP JUMPDEST PUSH1 0x0 DUP5 DUP2 MSTORE PUSH1 0x6 PUSH1 0x20 SWAP1 DUP2 MSTORE PUSH1 0x40 DUP1 DUP4 KECCAK256 DUP6 DUP5 MSTORE DUP3 MSTORE DUP1 DUP4 KECCAK256 SLOAD DUP5 DUP5 MSTORE DUP2 DUP5 KECCAK256 DUP2 SWAP1 SSTORE DUP4 MSTORE PUSH1 0x7 SWAP1 SWAP2 MSTORE SWAP1 KECCAK256 SSTORE CODESIZE PUSH2 0x3A64 JUMP JUMPDEST PUSH4 0x4E487B71 PUSH1 0xE0 SHL PUSH1 0x0 MSTORE PUSH1 0x11 PUSH1 0x4 MSTORE PUSH1 0x24 PUSH1 0x0 REVERT JUMPDEST PUSH1 0x40 MLOAD PUSH3 0x461BCD PUSH1 0xE5 SHL DUP2 MSTORE PUSH1 0x20 PUSH1 0x4 DUP3 ADD MSTORE PUSH1 0x24 DUP1 DUP3 ADD MSTORE PUSH32 0x4552433732313A207472616E7366657220746F20746865207A65726F20616464 PUSH1 0x44 DUP3 ADD MSTORE PUSH4 0x72657373 PUSH1 0xE0 SHL PUSH1 0x64 DUP3 ADD MSTORE PUSH1 0x84 SWAP1 REVERT JUMPDEST PUSH1 0x40 MLOAD PUSH3 0x461BCD PUSH1 0xE5 SHL DUP2 MSTORE PUSH1 0x20 PUSH1 0x4 DUP3 ADD MSTORE PUSH1 0x25 PUSH1 0x24 DUP3 ADD MSTORE PUSH32 0x4552433732313A207472616E736665722066726F6D20696E636F727265637420 PUSH1 0x44 DUP3 ADD MSTORE PUSH5 0x37BBB732B9 PUSH1 0xD9 SHL PUSH1 0x64 DUP3 ADD MSTORE PUSH1 0x84 SWAP1 REVERT JUMPDEST PUSH1 0xB SLOAD PUSH1 0x8 SHR PUSH1 0x1 PUSH1 0x1 PUSH1 0xA0 SHL SUB AND CALLER SUB PUSH2 0x3B9B JUMPI JUMP JUMPDEST PUSH1 0x64 PUSH1 0x40 MLOAD PUSH3 0x461BCD PUSH1 0xE5 SHL DUP2 MSTORE PUSH1 0x20 PUSH1 0x4 DUP3 ADD MSTORE PUSH1 0x20 PUSH1 0x24 DUP3 ADD MSTORE PUSH32 0x4F776E61626C653A2063616C6C6572206973206E6F7420746865206F776E6572 PUSH1 0x44 DUP3 ADD MSTORE REVERT JUMPDEST PUSH1 0x40 MLOAD SWAP2 SWAP1 PUSH1 0x20 PUSH2 0x3BF0 DUP2 DUP6 PUSH2 0x3193 JUMP JUMPDEST PUSH1 0x0 DUP5 MSTORE PUSH1 0x1 PUSH1 0x1 PUSH1 0xA0 SHL SUB DUP3 AND SWAP1 DUP2 ISZERO PUSH2 0x3D84 JUMPI PUSH1 0x0 DUP5 DUP2 MSTORE PUSH1 0x2 PUSH1 0x20 MSTORE PUSH1 0x40 SWAP1 KECCAK256 SLOAD PUSH1 0x1 PUSH1 0x1 PUSH1 0xA0 SHL SUB AND PUSH2 0x3D40 JUMPI PUSH1 0x8 SLOAD DUP5 PUSH1 0x0 MSTORE PUSH1 0x9 DUP3 MSTORE DUP1 PUSH1 0x40 PUSH1 0x0 KECCAK256 SSTORE PUSH1 0x1 PUSH1 0x40 SHL DUP2 LT ISZERO PUSH2 0x3146 JUMPI DUP5 PUSH2 0x38BA DUP3 PUSH1 0x1 PUSH2 0x3C53 SWAP5 ADD PUSH1 0x8 SSTORE PUSH2 0x350A JUMP JUMPDEST PUSH1 0x0 SWAP1 PUSH2 0x3C5F DUP5 PUSH2 0x35AA JUMP JUMPDEST DUP4 DUP4 MSTORE PUSH1 0x6 DUP3 MSTORE PUSH1 0x40 DUP4 KECCAK256 DUP2 DUP5 MSTORE DUP3 MSTORE DUP6 PUSH1 0x40 DUP5 KECCAK256 SSTORE DUP6 DUP4 MSTORE PUSH1 0x7 DUP3 MSTORE PUSH1 0x40 DUP4 KECCAK256 SSTORE PUSH1 0xFF PUSH1 0xB SLOAD AND PUSH2 0x3D13 JUMPI DUP3 DUP3 MSTORE PUSH1 0x3 DUP2 MSTORE PUSH1 0x40 DUP3 KECCAK256 DUP1 SLOAD SWAP1 PUSH1 0x1 DUP3 ADD DUP1 SWAP3 GT PUSH2 0x3CFF JUMPI SWAP3 PUSH1 0x2 DUP8 SWAP6 SWAP3 SWAP4 PUSH2 0x1F9C SWAP9 SWAP5 PUSH2 0x33FE SWAP11 SWAP9 SWAP7 SSTORE DUP5 DUP4 MSTORE MSTORE PUSH1 0x40 DUP2 KECCAK256 DUP3 PUSH12 0xFFFFFFFFFFFFFFFFFFFFFFFF PUSH1 0xA0 SHL DUP3 SLOAD AND OR SWAP1 SSTORE PUSH32 0xDDF252AD1BE2C89B69C2B068FC378DAA952BA7F163C4A11628F55A4DF523B3EF DUP2 DUP1 LOG4 PUSH2 0x3F58 JUMP JUMPDEST PUSH4 0x4E487B71 PUSH1 0xE0 SHL DUP5 MSTORE PUSH1 0x11 PUSH1 0x4 MSTORE PUSH1 0x24 DUP5 REVERT JUMPDEST PUSH1 0x64 SWAP1 PUSH1 0x40 MLOAD SWAP1 PUSH3 0x461BCD PUSH1 0xE5 SHL DUP3 MSTORE PUSH1 0x4 DUP3 ADD MSTORE PUSH1 0x6 PUSH1 0x24 DUP3 ADD MSTORE PUSH6 0x14185D5CD959 PUSH1 0xD2 SHL PUSH1 0x44 DUP3 ADD MSTORE REVERT JUMPDEST PUSH1 0x64 SWAP1 PUSH1 0x40 MLOAD SWAP1 PUSH3 0x461BCD PUSH1 0xE5 SHL DUP3 MSTORE PUSH1 0x4 DUP3 ADD MSTORE PUSH1 0x1C PUSH1 0x24 DUP3 ADD MSTORE PUSH32 0x4552433732313A20746F6B656E20616C7265616479206D696E74656400000000 PUSH1 0x44 DUP3 ADD MSTORE REVERT JUMPDEST PUSH1 0x64 SWAP1 PUSH1 0x40 MLOAD SWAP1 PUSH3 0x461BCD PUSH1 0xE5 SHL DUP3 MSTORE DUP1 PUSH1 0x4 DUP4 ADD MSTORE PUSH1 0x24 DUP3 ADD MSTORE PUSH32 0x4552433732313A206D696E7420746F20746865207A65726F2061646472657373 PUSH1 0x44 DUP3 ADD MSTORE REVERT JUMPDEST PUSH1 0x80 SWAP1 PUSH1 0x20 DUP2 MSTORE PUSH1 0x32 PUSH1 0x20 DUP3 ADD MSTORE PUSH32 0x4552433732313A207472616E7366657220746F206E6F6E204552433732315265 PUSH1 0x40 DUP3 ADD MSTORE PUSH18 0x31B2B4BB32B91034B6B83632B6B2B73A32B9 PUSH1 0x71 SHL PUSH1 0x60 DUP3 ADD MSTORE ADD SWAP1 JUMP JUMPDEST ISZERO PUSH2 0x3E21 JUMPI JUMP JUMPDEST PUSH1 0x40 MLOAD PUSH3 0x461BCD PUSH1 0xE5 SHL DUP2 MSTORE DUP1 PUSH2 0x3E3A PUSH1 0x4 DUP3 ADD PUSH2 0x3DC7 JUMP JUMPDEST SUB SWAP1 REVERT JUMPDEST PUSH1 0x0 DUP2 DUP2 MSTORE PUSH1 0x2 PUSH1 0x20 MSTORE PUSH1 0x40 SWAP1 KECCAK256 SLOAD PUSH2 0x3E61 SWAP1 PUSH1 0x1 PUSH1 0x1 PUSH1 0xA0 SHL SUB AND ISZERO ISZERO PUSH2 0x353B JUMP JUMPDEST PUSH1 0x0 MSTORE PUSH1 0xA PUSH1 0x20 MSTORE PUSH2 0x3E76 PUSH1 0x40 PUSH1 0x0 KECCAK256 PUSH2 0x33C5 JUMP JUMPDEST PUSH1 0x0 PUSH1 0x40 MLOAD PUSH2 0x3E86 PUSH1 0x20 DUP3 PUSH2 0x3193 JUMP JUMPDEST MSTORE SWAP1 JUMP JUMPDEST PUSH1 0xFF PUSH1 0xB SLOAD AND PUSH2 0x3E96 JUMPI JUMP JUMPDEST PUSH1 0x40 MLOAD PUSH3 0x461BCD PUSH1 0xE5 SHL DUP2 MSTORE PUSH1 0x20 PUSH1 0x4 DUP3 ADD MSTORE PUSH1 0x10 PUSH1 0x24 DUP3 ADD MSTORE PUSH16 0x14185D5CD8589B194E881C185D5CD959 PUSH1 0x82 SHL PUSH1 0x44 DUP3 ADD MSTORE PUSH1 0x64 SWAP1 REVERT JUMPDEST PUSH1 0x40 MLOAD SWAP1 PUSH2 0x3EDB DUP3 PUSH2 0x315C JUMP JUMPDEST PUSH1 0x60 PUSH2 0x200 DUP4 PUSH1 0x0 DUP2 MSTORE PUSH1 0x0 PUSH1 0x20 DUP3 ADD MSTORE PUSH1 0x0 PUSH1 0x40 DUP3 ADD MSTORE PUSH1 0x0 DUP4 DUP3 ADD MSTORE PUSH1 0x0 PUSH1 0x80 DUP3 ADD MSTORE PUSH1 0x0 PUSH1 0xA0 DUP3 ADD MSTORE PUSH1 0x0 PUSH1 0xC0 DUP3 ADD MSTORE DUP3 PUSH1 0xE0 DUP3 ADD MSTORE PUSH1 0x0 PUSH2 0x100 DUP3 ADD MSTORE PUSH1 0x0 PUSH2 0x120 DUP3 ADD MSTORE PUSH1 0x0 PUSH2 0x140 DUP3 ADD MSTORE PUSH1 0x0 PUSH2 0x160 DUP3 ADD MSTORE PUSH1 0x0 PUSH2 0x180 DUP3 ADD MSTORE PUSH1 0x0 PUSH2 0x1A0 DUP3 ADD MSTORE PUSH1 0x0 PUSH2 0x1C0 DUP3 ADD MSTORE PUSH1 0x0 PUSH2 0x1E0 DUP3 ADD MSTORE ADD MSTORE JUMP JUMPDEST SWAP2 DUP3 EXTCODESIZE ISZERO PUSH2 0x4071 JUMPI PUSH2 0x3F9E SWAP3 PUSH1 0x20 SWAP3 PUSH1 0x0 PUSH1 0x40 MLOAD DUP1 SWAP7 DUP2 SWAP6 DUP3 SWAP5 PUSH4 0xA85BD01 PUSH1 0xE1 SHL DUP5 MSTORE CALLER PUSH1 0x4 DUP6 ADD MSTORE DUP5 PUSH1 0x24 DUP6 ADD MSTORE PUSH1 0x44 DUP5 ADD MSTORE PUSH1 0x80 PUSH1 0x64 DUP5 ADD MSTORE PUSH1 0x84 DUP4 ADD SWAP1 PUSH2 0x30EF JUMP JUMPDEST SUB SWAP3 PUSH1 0x1 PUSH1 0x1 PUSH1 0xA0 SHL SUB AND GAS CALL DUP1 SWAP2 PUSH1 0x0 SWAP2 PUSH2 0x4027 JUMPI JUMPDEST POP SWAP1 PUSH2 0x4011 JUMPI RETURNDATASIZE ISZERO PUSH2 0x400A JUMPI RETURNDATASIZE PUSH2 0x3FCB DUP2 PUSH2 0x31B4 JUMP JUMPDEST SWAP1 PUSH2 0x3FD9 PUSH1 0x40 MLOAD SWAP3 DUP4 PUSH2 0x3193 JUMP JUMPDEST DUP2 MSTORE RETURNDATASIZE PUSH1 0x0 PUSH1 0x20 DUP4 ADD RETURNDATACOPY JUMPDEST DUP1 MLOAD SWAP1 DUP2 PUSH2 0x4005 JUMPI PUSH1 0x40 MLOAD PUSH3 0x461BCD PUSH1 0xE5 SHL DUP2 MSTORE DUP1 PUSH2 0x3E3A PUSH1 0x4 DUP3 ADD PUSH2 0x3DC7 JUMP JUMPDEST PUSH1 0x20 ADD REVERT JUMPDEST PUSH1 0x60 PUSH2 0x3FE4 JUMP JUMPDEST PUSH1 0x1 PUSH1 0x1 PUSH1 0xE0 SHL SUB NOT AND PUSH4 0xA85BD01 PUSH1 0xE1 SHL EQ SWAP1 JUMP JUMPDEST PUSH1 0x20 DUP2 RETURNDATASIZE PUSH1 0x20 GT PUSH2 0x4069 JUMPI JUMPDEST DUP2 PUSH2 0x4040 PUSH1 0x20 SWAP4 DUP4 PUSH2 0x3193 JUMP JUMPDEST DUP2 ADD SUB SLT PUSH2 0x4065 JUMPI MLOAD SWAP1 PUSH1 0x1 PUSH1 0x1 PUSH1 0xE0 SHL SUB NOT DUP3 AND DUP3 SUB PUSH2 0x4062 JUMPI POP CODESIZE PUSH2 0x3FB5 JUMP JUMPDEST DUP1 REVERT JUMPDEST POP DUP1 REVERT JUMPDEST RETURNDATASIZE SWAP2 POP PUSH2 0x4033 JUMP JUMPDEST POP POP POP PUSH1 0x1 SWAP1 JUMP JUMPDEST SWAP2 SWAP3 SWAP1 DUP1 EXTCODESIZE ISZERO PUSH2 0x40C9 JUMPI PUSH2 0x3F9E SWAP4 PUSH1 0x0 PUSH1 0x20 SWAP5 PUSH1 0x40 MLOAD SWAP7 DUP8 SWAP6 DUP7 SWAP5 DUP6 SWAP4 PUSH4 0xA85BD01 PUSH1 0xE1 SHL DUP6 MSTORE CALLER PUSH1 0x4 DUP7 ADD MSTORE PUSH1 0x1 DUP1 PUSH1 0xA0 SHL SUB AND PUSH1 0x24 DUP6 ADD MSTORE PUSH1 0x44 DUP5 ADD MSTORE PUSH1 0x80 PUSH1 0x64 DUP5 ADD MSTORE PUSH1 0x84 DUP4 ADD SWAP1 PUSH2 0x30EF JUMP JUMPDEST POP POP POP POP PUSH1 0x1 SWAP1 JUMP INVALID LOG2 PUSH5 0x6970667358 0x22 SLT KECCAK256 PUSH3 0xED5B3D 0xF7 SWAP7 LOG1 0x21 DUP12 CODECOPY CREATE2 PUSH15 0xC94531DD16E82A15243FF05132D53C TIMESTAMP SHR SGT PUSH25 0x8064736F6C634300081A003300000000000000000000000000 "},"methodIdentifiers":{"CURRENCY_TOKEN()":"e72531c8","IP_ASSET_REGISTRY()":"41c782c5","LICENSE_REGISTRY()":"f0ebdc83","LICENSING_MODULE()":"65165aa5","METADATA_MODULE()":"3f7da2f4","PIL_TEMPLATE()":"12c4ce88","ROYALTY_POLICY_LAP()":"83b43b97","approve(address,uint256)":"095ea7b3","balanceOf(address)":"70a08231","getApproved(uint256)":"081812fc","getTweetMetadata(uint256)":"85c7584f","isApprovedForAll(address,address)":"e985e9c5","maxSupply()":"d5abeb01","mintAndRegisterAndCreateTermsAndAttach(address)":"da3e798b","mintLicenseTokenAndRegisterDerivative(address,uint256,address)":"71c4a251","mintPrice()":"6817c76c","mintedTweet(string)":"2367a4d7","minters(address)":"f46eccc4","name()":"06fdde03","onERC721Received(address,address,uint256,bytes)":"150b7a02","owner()":"8da5cb5b","ownerOf(uint256)":"6352211e","pause()":"8456cb59","paused()":"5c975abb","renounceOwnership()":"715018a6","royaltyInfo(uint256,uint256)":"2a55205a","safeMint(address,string,string,string,string,bool,uint256,uint256,uint256,uint256,string[],string[],string,string,string,string)":"ce8f5772","safeTransferFrom(address,address,uint256)":"42842e0e","safeTransferFrom(address,address,uint256,bytes)":"b88d4fde","setApprovalForAll(address,bool)":"a22cb465","setMintPrice(uint256)":"f4a0a528","setMinter(address,bool)":"cf456ae7","supportsInterface(bytes4)":"01ffc9a7","symbol()":"95d89b41","tokenByIndex(uint256)":"4f6ccce7","tokenOfOwnerByIndex(address,uint256)":"2f745c59","tokenURI(uint256)":"c87b56dd","totalSupply()":"18160ddd","transferFrom(address,address,uint256)":"23b872dd","transferOwnership(address)":"f2fde38b","tweetMetadata(uint256)":"e31edafa","unpause()":"3f4ba83a"}}}}}