{
  "_format": "hh-sol-artifact-1",
  "contractName": "IP_Deposit",
  "sourceName": "contracts/StoryDeposit.sol",
  "abi": [
    {
      "inputs": [],
      "stateMutability": "nonpayable",
      "type": "constructor"
    },
    {
      "anonymous": false,
      "inputs": [
        {
          "indexed": true,
          "internalType": "uint256",
          "name": "ipAmount",
          "type": "uint256"
        },
        {
          "indexed": true,
          "internalType": "bytes32",
          "name": "tweetHash",
          "type": "bytes32"
        },
        {
          "indexed": true,
          "internalType": "address",
          "name": "depositor",
          "type": "address"
        },
        {
          "indexed": false,
          "internalType": "address",
          "name": "recipient",
          "type": "address"
        },
        {
          "indexed": false,
          "internalType": "string",
          "name": "validation",
          "type": "string"
        },
        {
          "indexed": false,
          "internalType": "bytes",
          "name": "proof",
          "type": "bytes"
        },
        {
          "indexed": false,
          "internalType": "address",
          "name": "collectionAddress",
          "type": "address"
        },
        {
          "components": [
            {
              "internalType": "string",
              "name": "handle",
              "type": "string"
            },
            {
              "internalType": "uint256",
              "name": "mintPrice",
              "type": "uint256"
            },
            {
              "internalType": "uint256",
              "name": "maxSupply",
              "type": "uint256"
            },
            {
              "internalType": "address",
              "name": "royaltyReceiver",
              "type": "address"
            },
            {
              "internalType": "uint96",
              "name": "royaltyBP",
              "type": "uint96"
            }
          ],
          "indexed": false,
          "internalType": "struct IP_Deposit.CollectionConfig",
          "name": "collectionConfig",
          "type": "tuple"
        },
        {
          "indexed": false,
          "internalType": "bytes32",
          "name": "tweetHashOut",
          "type": "bytes32"
        },
        {
          "components": [
            {
              "internalType": "uint256",
              "name": "defaultMintingFee",
              "type": "uint256"
            },
            {
              "internalType": "address",
              "name": "currency",
              "type": "address"
            },
            {
              "internalType": "address",
              "name": "royaltyPolicy",
              "type": "address"
            },
            {
              "internalType": "bool",
              "name": "transferable",
              "type": "bool"
            },
            {
              "internalType": "uint256",
              "name": "expiration",
              "type": "uint256"
            },
            {
              "internalType": "bool",
              "name": "commercialUse",
              "type": "bool"
            },
            {
              "internalType": "bool",
              "name": "commercialAttribution",
              "type": "bool"
            },
            {
              "internalType": "uint256",
              "name": "commercialRevShare",
              "type": "uint256"
            },
            {
              "internalType": "uint256",
              "name": "commercialRevCeiling",
              "type": "uint256"
            },
            {
              "internalType": "bool",
              "name": "derivativesAllowed",
              "type": "bool"
            },
            {
              "internalType": "bool",
              "name": "derivativesAttribution",
              "type": "bool"
            },
            {
              "internalType": "bool",
              "name": "derivativesApproval",
              "type": "bool"
            },
            {
              "internalType": "bool",
              "name": "derivativesReciprocal",
              "type": "bool"
            },
            {
              "internalType": "uint256",
              "name": "derivativeRevCeiling",
              "type": "uint256"
            },
            {
              "internalType": "string",
              "name": "uri",
              "type": "string"
            }
          ],
          "indexed": false,
          "internalType": "struct IP_Deposit.LicenseTermsConfig",
          "name": "licenseTermsConfig",
          "type": "tuple"
        },
        {
          "components": [
            {
              "internalType": "uint256",
              "name": "licenseTermsId",
              "type": "uint256"
            },
            {
              "internalType": "address",
              "name": "licensorIpId",
              "type": "address"
            },
            {
              "internalType": "address",
              "name": "receiver",
              "type": "address"
            },
            {
              "internalType": "uint256",
              "name": "amount",
              "type": "uint256"
            },
            {
              "internalType": "uint256",
              "name": "maxMintingFee",
              "type": "uint256"
            },
            {
              "internalType": "uint256",
              "name": "maxRevenueShare",
              "type": "uint256"
            }
          ],
          "indexed": false,
          "internalType": "struct IP_Deposit.LicenseMintParams",
          "name": "licenseMintParams",
          "type": "tuple"
        },
        {
          "components": [
            {
              "internalType": "string",
              "name": "name",
              "type": "string"
            },
            {
              "internalType": "address",
              "name": "wallet",
              "type": "address"
            }
          ],
          "indexed": false,
          "internalType": "struct IP_Deposit.CoCreator[]",
          "name": "coCreators",
          "type": "tuple[]"
        }
      ],
      "name": "DepositProcessed",
      "type": "event"
    },
    {
      "anonymous": false,
      "inputs": [
        {
          "indexed": true,
          "internalType": "bytes32",
          "name": "tweetHash",
          "type": "bytes32"
        },
        {
          "indexed": false,
          "internalType": "string",
          "name": "newValidation",
          "type": "string"
        }
      ],
      "name": "ValidationUpdated",
      "type": "event"
    },
    {
      "inputs": [
        {
          "internalType": "address",
          "name": "recipient",
          "type": "address"
        },
        {
          "internalType": "string",
          "name": "validation",
          "type": "string"
        },
        {
          "internalType": "bytes",
          "name": "proof",
          "type": "bytes"
        },
        {
          "internalType": "address",
          "name": "collectionAddress",
          "type": "address"
        },
        {
          "components": [
            {
              "internalType": "string",
              "name": "handle",
              "type": "string"
            },
            {
              "internalType": "uint256",
              "name": "mintPrice",
              "type": "uint256"
            },
            {
              "internalType": "uint256",
              "name": "maxSupply",
              "type": "uint256"
            },
            {
              "internalType": "address",
              "name": "royaltyReceiver",
              "type": "address"
            },
            {
              "internalType": "uint96",
              "name": "royaltyBP",
              "type": "uint96"
            }
          ],
          "internalType": "struct IP_Deposit.CollectionConfig",
          "name": "collectionConfig",
          "type": "tuple"
        },
        {
          "internalType": "bytes32",
          "name": "tweetHash",
          "type": "bytes32"
        },
        {
          "components": [
            {
              "internalType": "uint256",
              "name": "defaultMintingFee",
              "type": "uint256"
            },
            {
              "internalType": "address",
              "name": "currency",
              "type": "address"
            },
            {
              "internalType": "address",
              "name": "royaltyPolicy",
              "type": "address"
            },
            {
              "internalType": "bool",
              "name": "transferable",
              "type": "bool"
            },
            {
              "internalType": "uint256",
              "name": "expiration",
              "type": "uint256"
            },
            {
              "internalType": "bool",
              "name": "commercialUse",
              "type": "bool"
            },
            {
              "internalType": "bool",
              "name": "commercialAttribution",
              "type": "bool"
            },
            {
              "internalType": "uint256",
              "name": "commercialRevShare",
              "type": "uint256"
            },
            {
              "internalType": "uint256",
              "name": "commercialRevCeiling",
              "type": "uint256"
            },
            {
              "internalType": "bool",
              "name": "derivativesAllowed",
              "type": "bool"
            },
            {
              "internalType": "bool",
              "name": "derivativesAttribution",
              "type": "bool"
            },
            {
              "internalType": "bool",
              "name": "derivativesApproval",
              "type": "bool"
            },
            {
              "internalType": "bool",
              "name": "derivativesReciprocal",
              "type": "bool"
            },
            {
              "internalType": "uint256",
              "name": "derivativeRevCeiling",
              "type": "uint256"
            },
            {
              "internalType": "string",
              "name": "uri",
              "type": "string"
            }
          ],
          "internalType": "struct IP_Deposit.LicenseTermsConfig",
          "name": "licenseTermsConfig",
          "type": "tuple"
        },
        {
          "components": [
            {
              "internalType": "uint256",
              "name": "licenseTermsId",
              "type": "uint256"
            },
            {
              "internalType": "address",
              "name": "licensorIpId",
              "type": "address"
            },
            {
              "internalType": "address",
              "name": "receiver",
              "type": "address"
            },
            {
              "internalType": "uint256",
              "name": "amount",
              "type": "uint256"
            },
            {
              "internalType": "uint256",
              "name": "maxMintingFee",
              "type": "uint256"
            },
            {
              "internalType": "uint256",
              "name": "maxRevenueShare",
              "type": "uint256"
            }
          ],
          "internalType": "struct IP_Deposit.LicenseMintParams",
          "name": "licenseMintParams",
          "type": "tuple"
        },
        {
          "components": [
            {
              "internalType": "string",
              "name": "name",
              "type": "string"
            },
            {
              "internalType": "address",
              "name": "wallet",
              "type": "address"
            }
          ],
          "internalType": "struct IP_Deposit.CoCreator[]",
          "name": "coCreators",
          "type": "tuple[]"
        }
      ],
      "name": "depositIP",
      "outputs": [],
      "stateMutability": "payable",
      "type": "function"
    },
    {
      "inputs": [
        {
          "internalType": "bytes32",
          "name": "tweetHash",
          "type": "bytes32"
        }
      ],
      "name": "getByTweetHash",
      "outputs": [
        {
          "components": [
            {
              "internalType": "address",
              "name": "depositor",
              "type": "address"
            },
            {
              "internalType": "address",
              "name": "recipient",
              "type": "address"
            },
            {
              "internalType": "string",
              "name": "validation",
              "type": "string"
            },
            {
              "internalType": "bytes",
              "name": "proof",
              "type": "bytes"
            },
            {
              "internalType": "address",
              "name": "collectionAddress",
              "type": "address"
            },
            {
              "components": [
                {
                  "internalType": "string",
                  "name": "handle",
                  "type": "string"
                },
                {
                  "internalType": "uint256",
                  "name": "mintPrice",
                  "type": "uint256"
                },
                {
                  "internalType": "uint256",
                  "name": "maxSupply",
                  "type": "uint256"
                },
                {
                  "internalType": "address",
                  "name": "royaltyReceiver",
                  "type": "address"
                },
                {
                  "internalType": "uint96",
                  "name": "royaltyBP",
                  "type": "uint96"
                }
              ],
              "internalType": "struct IP_Deposit.CollectionConfig",
              "name": "collectionConfig",
              "type": "tuple"
            },
            {
              "internalType": "bytes32",
              "name": "tweetHash",
              "type": "bytes32"
            },
            {
              "components": [
                {
                  "internalType": "uint256",
                  "name": "defaultMintingFee",
                  "type": "uint256"
                },
                {
                  "internalType": "address",
                  "name": "currency",
                  "type": "address"
                },
                {
                  "internalType": "address",
                  "name": "royaltyPolicy",
                  "type": "address"
                },
                {
                  "internalType": "bool",
                  "name": "transferable",
                  "type": "bool"
                },
                {
                  "internalType": "uint256",
                  "name": "expiration",
                  "type": "uint256"
                },
                {
                  "internalType": "bool",
                  "name": "commercialUse",
                  "type": "bool"
                },
                {
                  "internalType": "bool",
                  "name": "commercialAttribution",
                  "type": "bool"
                },
                {
                  "internalType": "uint256",
                  "name": "commercialRevShare",
                  "type": "uint256"
                },
                {
                  "internalType": "uint256",
                  "name": "commercialRevCeiling",
                  "type": "uint256"
                },
                {
                  "internalType": "bool",
                  "name": "derivativesAllowed",
                  "type": "bool"
                },
                {
                  "internalType": "bool",
                  "name": "derivativesAttribution",
                  "type": "bool"
                },
                {
                  "internalType": "bool",
                  "name": "derivativesApproval",
                  "type": "bool"
                },
                {
                  "internalType": "bool",
                  "name": "derivativesReciprocal",
                  "type": "bool"
                },
                {
                  "internalType": "uint256",
                  "name": "derivativeRevCeiling",
                  "type": "uint256"
                },
                {
                  "internalType": "string",
                  "name": "uri",
                  "type": "string"
                }
              ],
              "internalType": "struct IP_Deposit.LicenseTermsConfig",
              "name": "licenseTermsConfig",
              "type": "tuple"
            },
            {
              "components": [
                {
                  "internalType": "uint256",
                  "name": "licenseTermsId",
                  "type": "uint256"
                },
                {
                  "internalType": "address",
                  "name": "licensorIpId",
                  "type": "address"
                },
                {
                  "internalType": "address",
                  "name": "receiver",
                  "type": "address"
                },
                {
                  "internalType": "uint256",
                  "name": "amount",
                  "type": "uint256"
                },
                {
                  "internalType": "uint256",
                  "name": "maxMintingFee",
                  "type": "uint256"
                },
                {
                  "internalType": "uint256",
                  "name": "maxRevenueShare",
                  "type": "uint256"
                }
              ],
              "internalType": "struct IP_Deposit.LicenseMintParams",
              "name": "licenseMintParams",
              "type": "tuple"
            },
            {
              "components": [
                {
                  "internalType": "string",
                  "name": "name",
                  "type": "string"
                },
                {
                  "internalType": "address",
                  "name": "wallet",
                  "type": "address"
                }
              ],
              "internalType": "struct IP_Deposit.CoCreator[]",
              "name": "coCreators",
              "type": "tuple[]"
            }
          ],
          "internalType": "struct IP_Deposit.DepositRecord",
          "name": "",
          "type": "tuple"
        }
      ],
      "stateMutability": "view",
      "type": "function"
    },
    {
      "inputs": [],
      "name": "owner",
      "outputs": [
        {
          "internalType": "address",
          "name": "",
          "type": "address"
        }
      ],
      "stateMutability": "view",
      "type": "function"
    },
    {
      "inputs": [
        {
          "internalType": "bytes32",
          "name": "tweetHash",
          "type": "bytes32"
        },
        {
          "internalType": "string",
          "name": "newValidation",
          "type": "string"
        }
      ],
      "name": "updateValidation",
      "outputs": [],
      "stateMutability": "nonpayable",
      "type": "function"
    },
    {
      "inputs": [],
      "name": "withdrawFunds",
      "outputs": [],
      "stateMutability": "nonpayable",
      "type": "function"
    },
    {
      "stateMutability": "payable",
      "type": "receive"
    }
  ],
  "bytecode": "0x60808060405234602757600080546001600160a01b03191633179055611ab8908161002d8239f35b600080fdfe6080604052600436101561001b575b361561001957600080fd5b005b60003560e01c806324600fc31461165757806347934a07146114b95780638da5cb5b14611490578063b07d65ea146107425763b4cd21b40361000e573461073d57602036600319011261073d57600435606061012060405161007c816117fa565b60008152600060208201528260408201528280820152600060808201526040516100a581611816565b83815260006020820152600060408201526000848201526000608082015260a0820152600060c08201526040516100db81611831565b60008152600060208201526000604082015260008482015260006080820152600060a0820152600060c0820152600060e0820152600061010082015260008382015260006101408201526000610160820152600061018082015260006101a0820152836101c082015260e08201526040516101558161184d565b60008152600060208201526000604082015260008482015260006080820152600060a082015261010082015201528060005260016020526101a460018060a01b03604060002054161515611889565b60005260016020526040600020604051906101be826117fa565b80546001600160a01b039081168352600182015416602083019081526040516101f5816101ee81600287016119ff565b0382611868565b60408401908152604051906102188261021181600388016119ff565b0383611868565b6060850191825260048401546001600160a01b03166080860190815260405190929061024381611816565b604051610257816101ee8160058b016119ff565b81526006860154602082015260078601546040820152600886015460018060a01b038116606083015260a01c608082015260a0870190815260098601549160c08801928352604051936102a985611831565b600a880154855260018060a01b03600b89015416602086015260ff600c89015460018060a01b038116604088015260a01c1615156060860152600d880154608086015260ff600e890154818116151560a088015260081c16151560c0860152600f88015460e0860152601088015461010086015260ff60118901548181161515610120880152818160081c161515610140880152818160101c16151561016088015260181c16151561018086015260128801546101a0860152604051610376816101ee8160138d016119ff565b6101c086015260e08901948552601a604051986103928a61184d565b60148101548a5260158101546001600160a01b0390811660208c015260168201541660408b0152601781015460608b0152601881015460808b0152601981015460a08b01526101008b01998a5201805497906001600160401b0389116107275760409a9998979695949392919a519761041160208260051b018a611868565b80895260208901916000526020600020916000905b8282106106bc57505050506101208901968752604051998a9960208b52600160a01b6001900390511660208b0152600160a01b6001900390511660408a015251606089016101e09052610200890161047d9161177c565b9051888203601f190160808a0152610495919061177c565b93600160a01b6001900390511660a08801525192601f198782030160c0880152835160a0825260a082016104c89161177c565b936020810151602083015260408101516040830152600160a01b600190036060820151166060830152608001516001600160601b031690608001525160e086015251601f198583030161010086015280518252600160a01b600190036020820151166020830152600160a01b6001900360408201511660408301526060810151151560608301526080810151608083015260a0810151151560a083015260c0810151151560c083015260e081015160e083015261010081015161010083015261012081015115156101208301526101408101511515610140830152610160810151151561016083015261018081015115156101808301526101a08101516101a08301526101c00151906101c081016101e090526101e0016105e89161177c565b915180516101208501526020808201516001600160a01b03908116610140870152604083015116610160860152606082015161018086015260808201516101a086015260a0909101516101c08501529051838303601f19016101e08501528051808452600581901b84018301939183019290916000918101905b83831061066f5786860387f35b919395509193602080600192601f198582030186528851908261069b835160408452604084019061177c565b9281878060a01b039101511691015297019301930190928695949293610662565b60409d9495969798999a9b9c9d51604081018181106001600160401b03821117610727576001926002926020926040526040516106fd816101ee818c6119ff565b8152848060a01b038589015416838201528152019401910190929c9b9a999897969594939c610426565b634e487b7160e01b600052604160045260246000fd5b600080fd5b6101c036600319011261073d576004356001600160a01b038116810361073d576024356001600160401b03811161073d5761078190369060040161173b565b90916044356001600160401b03811161073d576107a290369060040161173b565b6064359291906001600160a01b038416840361073d576001600160401b036084351161073d5760a06084353603600319011261073d576001600160401b0360c4351161073d576101e060c4353603600319011261073d5760c03660e319011261073d576001600160401b036101a4351161073d573660236101a43501121561073d576001600160401b036101a435600401351161073d573660246101a4356004013560051b6101a43501011161073d57341561145c576001600160a01b038316156114235760a4356000908152600160205260409020546001600160a01b03166113ea5760a435600090815260016020819052604090912080546001600160a01b03199081163317825591810180549092166001600160a01b0386161790915595600287016001600160401b038711610727576108e9876108e383546118c1565b836118fb565b600087601f811160011461138657806109189260009161137b575b508160011b916000199060031b1c19161790565b90555b6001600160401b038211610727576109438261093a60038a01546118c1565b60038a016118fb565b600082601f811160011461131157806109719260009161130657508160011b916000199060031b1c19161790565b60038801555b600487810180546001600160a01b0319166001600160a01b0388161790556109a390608435018061196e565b906001600160401b038211610727576109cc826109c360058c01546118c1565b60058c016118fb565b600090601f8311600114611299576109fd929160009183611221575b50508160011b916000199060031b1c19161790565b60058801555b60843560248101356006890155604481013560078901556001600160a01b0390610a2f906064016119a0565b166001600160601b0360a01b6008890154161760088801556001600160601b03608480350135166084803501350361073d576008870180546001600160a01b031660848035013560a01b6001600160a01b03191617905560a4356009880155600460c43590810135600a890155610aa8906024016119a0565b600b880180546001600160a01b0319166001600160a01b03928316179055600c880190610ad960c4356044016119a0565b82546001600160a01b0319169116178155610af860c4356064016119b4565b815460ff60a01b191690151560a01b60ff60a01b1617905560c4356084810135600d890155610b6b90600e890190610b4890610b369060a4016119b4565b829060ff801983541691151516179055565b610b5560c48035016119b4565b815461ff00191690151560081b61ff0016179055565b60e460c4350135600f88015561010460c43501356010880155610bab610b9661012460c435016119b4565b601189019060ff801983541691151516179055565b610bd9610bbd61014460c435016119b4565b601189019061ff00825491151560081b169061ff001916179055565b610be861016460c435016119b4565b1515601188015462ff000063ff000000610c0761018460c435016119b4565b151560181b169260101b169063ffff00001916171760118801556101a460c43501356012880155610c436101c460c4350160c43560040161196e565b906001600160401b03821161072757610c6c82610c6360138c01546118c1565b60138c016118fb565b600090601f831160011461122c57610c9c9291600091836112215750508160011b916000199060031b1c19161790565b60138801555b60e4356014880155610104356001600160a01b038116900361073d576015870180546001600160a01b031916610104356001600160a01b039081169190911790915561012435908116900361073d576016870180546001600160a01b031916610124356001600160a01b031617905561014435601788015561016435601888015561018435601988015560005b6101a43560040135811015610ef457600060248260051b6101a435010135906062196101a435360301821215610ef157601a8a01549168010000000000000000831015610ec9576001830180601a8d0155831015610edd57601a8b0182526020822091610da46101a43583016024018061196e565b91906001600160401b038311610ec957610dd283610dc78860011b8801546118c1565b8860011b88016118fb565b81601f8411600114610e4d5793610e0c84600199989795610e1e956044958c9992610e425750508160011b916000199060031b1c19161790565b86861b8501555b6101a43501016119a0565b92821b010190838060a01b03166001600160601b0360a01b82541617905501610d2f565b0135905038806109e8565b918660011b8601835260208320925b601f1985168110610eb1575093600184610e1e94604494839b9a9997988499601f19811610610e97575b505050811b0186861b850155610e13565b0135600019600384901b60f8161c19169055388080610e86565b90926020600181928686013581550194019101610e5c565b634e487b7160e01b82526041600452602482fd5b634e487b7160e01b82526032600452602482fd5b80fd5b50610f2090610f2e9495966040519660018060a01b031687526101c060208801526101c087019161194d565b91848303604086015261194d565b6001600160a01b03909216606082015280820360808201526110f6610f69610f5b600460843501806119c1565b60a0865260a086019161194d565b60843560248101356020860152604481013560408601526001600160a01b0390610f9590606401611768565b16606085015260009360806001600160601b036084803501351691015260a43560a084015282810360c084015260c43560040135815260018060a01b03610fe0602460c43501611768565b1660208201526001600160a01b03610ffc60c435604401611768565b166040820152611010606460c435016119f2565b15156060820152608460c4350135608082015261103160a460c435016119f2565b151560a082015261104560c48035016119f2565b151560c082015260c43560e481013560e083015261010481013561010083015261107290610124016119f2565b151561012082015261108961014460c435016119f2565b15156101408201526110a061016460c435016119f2565b15156101608201526110b761018460c435016119f2565b15156101808201526101a460c43501356101a08201526101e06110e56101c460c4350160c4356004016119c1565b919092816101c0820152019161194d565b60e43560e0830152610104356001600160a01b0390811661010084015261012435166101208301526101443561014083015261016435610160830152610184356101808301528181036101a083015260046101a4359081013580835260051b820160209081019392602490920191859181015b6101a4356004013583106111ab575050505033917fbceb4548d05c017ce520bf9023d555075a6a276982d5af65f2006273897964d560a435928034930390a480f35b90919294601f198382030182528535906062196101a43536030182121561121d57602080916001936101a4350190826111f86111ea60248501806119c1565b60408552604085019161194d565b9261120b6044888060a01b039201611768565b16910152970192019301919092611169565b8780fd5b013590508a806109e8565b60138a9392930183526020832090835b601f1984168510611281576001945083601f19811610611267575b505050811b016013880155610ca2565b0135600019600384901b60f8161c19169055898080611257565b8181013583556020948501946001909301920161123c565b60058a9392930183526020832090835b601f19841685106112ee576001945083601f198116106112d4575b505050811b016005880155610a03565b0135600019600384901b60f8161c191690558980806112c4565b818101358355602094850194600190930192016112a9565b90508501358a610904565b506003880181526020812090805b601f1985168110611363575083601f19811610611349575b5050600182811b016003880155610977565b840135600019600385901b60f8161c191690558780611337565b9091602060018192858901358155019301910161131f565b90508401358b610904565b508181526020812090805b601f198a1681106113d2575088601f198116106113b8575b5050600187811b01905561091b565b83013560001960038a901b60f8161c1916905588806113a9565b90916020600181928588013581550193019101611391565b60405162461bcd60e51b8152602060048201526011602482015270105b1c9958591e4819195c1bdcda5d1959607a1b6044820152606490fd5b60405162461bcd60e51b8152602060048201526011602482015270125b9d985b1a59081c9958da5c1a595b9d607a1b6044820152606490fd5b60405162461bcd60e51b815260206004820152600c60248201526b04d7573742073656e642049560a41b6044820152606490fd5b3461073d57600036600319011261073d576000546040516001600160a01b039091168152602090f35b3461073d57604036600319011261073d576004356024356001600160401b03811161073d576114ec90369060040161173b565b919061150360018060a01b036000541633146117bd565b600082815260016020526040902054611526906001600160a01b03161515611889565b8160005260016020526002604060002001926001600160401b0381116107275761155a8161155486546118c1565b866118fb565b600093601f82116001146115d5576115ab82807f59312de486ee184a19a6b54efd1601a3acbc980daad1366a50ba250e76fee4e396976000916115ca57508160011b916000199060031b1c19161790565b90555b6115c560405192839260208452602084019161194d565b0390a2005b905085013588610904565b80855260208520601f19831695805b87811061163f5750837f59312de486ee184a19a6b54efd1601a3acbc980daad1366a50ba250e76fee4e3969710611625575b5050600182811b0190556115ae565b840135600019600385901b60f8161c191690558580611616565b909160206001819285890135815501930191016115e4565b3461073d57600036600319011261073d576000546001600160a01b031661167f3382146117bd565b4790811561170b57600080809381935af13d15611706573d6001600160401b03811161072757604051906116bd601f8201601f191660200183611868565b8152600060203d92013e5b156116cf57005b60405162461bcd60e51b815260206004820152600f60248201526e151c985b9cd9995c8819985a5b1959608a1b6044820152606490fd5b6116c8565b60405162461bcd60e51b81526020600482015260086024820152674e6f2066756e647360c01b6044820152606490fd5b9181601f8401121561073d578235916001600160401b03831161073d576020838186019501011161073d57565b35906001600160a01b038216820361073d57565b919082519283825260005b8481106117a8575050826000602080949584010152601f8019910116010190565b80602080928401015182828601015201611787565b156117c457565b60405162461bcd60e51b815260206004820152600e60248201526d139bdd08185d5d1a1bdc9a5e995960921b6044820152606490fd5b61014081019081106001600160401b0382111761072757604052565b60a081019081106001600160401b0382111761072757604052565b6101e081019081106001600160401b0382111761072757604052565b60c081019081106001600160401b0382111761072757604052565b90601f801991011681019081106001600160401b0382111761072757604052565b1561189057565b60405162461bcd60e51b8152602060048201526009602482015268139bdd08199bdd5b9960ba1b6044820152606490fd5b90600182811c921680156118f1575b60208310146118db57565b634e487b7160e01b600052602260045260246000fd5b91607f16916118d0565b601f821161190857505050565b6000526020600020906020601f840160051c83019310611943575b601f0160051c01905b818110611937575050565b6000815560010161192c565b9091508190611923565b908060209392818452848401376000828201840152601f01601f1916010190565b903590601e198136030182121561073d57018035906001600160401b03821161073d5760200191813603831361073d57565b356001600160a01b038116810361073d5790565b35801515810361073d5790565b9035601e198236030181121561073d5701602081359101916001600160401b03821161073d57813603831361073d57565b3590811515820361073d57565b60009291815491611a0f836118c1565b8083529260018116908115611a655750600114611a2b57505050565b60009081526020812093945091925b838310611a4b575060209250010190565b600181602092949394548385870101520191019190611a3a565b915050602093945060ff929192191683830152151560051b01019056fea2646970667358221220a10cb164fef1c223c8b891839a1132581df89458f6913412792db059fd96eab864736f6c634300081c0033",
  "linkReferences": {},
  "deployedLinkReferences": {}
}