{
  "_format": "hh-sol-artifact-1",
  "contractName": "IP_Deposit",
  "sourceName": "contracts/StoryDeposit.sol",
  "abi": [
    {
      "inputs": [],
      "stateMutability": "nonpayable",
      "type": "constructor"
    },
    {
      "anonymous": false,
      "inputs": [
        {
          "indexed": true,
          "internalType": "uint256",
          "name": "ipAmount",
          "type": "uint256"
        },
        {
          "indexed": true,
          "internalType": "address",
          "name": "depositor",
          "type": "address"
        },
        {
          "indexed": true,
          "internalType": "address",
          "name": "recipient",
          "type": "address"
        },
        {
          "indexed": false,
          "internalType": "string",
          "name": "validation",
          "type": "string"
        },
        {
          "indexed": false,
          "internalType": "bytes",
          "name": "proof",
          "type": "bytes"
        },
        {
          "indexed": false,
          "internalType": "string",
          "name": "handle",
          "type": "string"
        },
        {
          "indexed": false,
          "internalType": "string",
          "name": "tweet",
          "type": "string"
        },
        {
          "indexed": false,
          "internalType": "string",
          "name": "metadataURI",
          "type": "string"
        },
        {
          "components": [
            {
              "internalType": "bool",
              "name": "aiTrainingAllowed",
              "type": "bool"
            },
            {
              "internalType": "bool",
              "name": "commercialUse",
              "type": "bool"
            },
            {
              "internalType": "bool",
              "name": "attributionRequired",
              "type": "bool"
            },
            {
              "internalType": "bool",
              "name": "remixingAllowed",
              "type": "bool"
            },
            {
              "internalType": "uint256",
              "name": "expiration",
              "type": "uint256"
            },
            {
              "internalType": "uint256",
              "name": "licensingFee",
              "type": "uint256"
            }
          ],
          "indexed": false,
          "internalType": "struct IP_Deposit.LicenseTerms",
          "name": "licenseTerms",
          "type": "tuple"
        },
        {
          "components": [
            {
              "internalType": "string",
              "name": "name",
              "type": "string"
            },
            {
              "internalType": "address",
              "name": "wallet",
              "type": "address"
            }
          ],
          "indexed": false,
          "internalType": "struct IP_Deposit.CoCreator[]",
          "name": "coCreators",
          "type": "tuple[]"
        }
      ],
      "name": "DepositProcessed",
      "type": "event"
    },
    {
      "anonymous": false,
      "inputs": [
        {
          "indexed": true,
          "internalType": "bytes32",
          "name": "txHash",
          "type": "bytes32"
        },
        {
          "indexed": false,
          "internalType": "string",
          "name": "newValidation",
          "type": "string"
        }
      ],
      "name": "ValidationUpdated",
      "type": "event"
    },
    {
      "inputs": [
        {
          "internalType": "address",
          "name": "recipient",
          "type": "address"
        },
        {
          "internalType": "string",
          "name": "validation",
          "type": "string"
        },
        {
          "internalType": "bytes",
          "name": "proof",
          "type": "bytes"
        },
        {
          "internalType": "string",
          "name": "handle",
          "type": "string"
        },
        {
          "internalType": "string",
          "name": "tweet",
          "type": "string"
        },
        {
          "internalType": "string",
          "name": "metadataURI",
          "type": "string"
        },
        {
          "components": [
            {
              "internalType": "bool",
              "name": "aiTrainingAllowed",
              "type": "bool"
            },
            {
              "internalType": "bool",
              "name": "commercialUse",
              "type": "bool"
            },
            {
              "internalType": "bool",
              "name": "attributionRequired",
              "type": "bool"
            },
            {
              "internalType": "bool",
              "name": "remixingAllowed",
              "type": "bool"
            },
            {
              "internalType": "uint256",
              "name": "expiration",
              "type": "uint256"
            },
            {
              "internalType": "uint256",
              "name": "licensingFee",
              "type": "uint256"
            }
          ],
          "internalType": "struct IP_Deposit.LicenseTerms",
          "name": "licenseTerms",
          "type": "tuple"
        },
        {
          "components": [
            {
              "internalType": "string",
              "name": "name",
              "type": "string"
            },
            {
              "internalType": "address",
              "name": "wallet",
              "type": "address"
            }
          ],
          "internalType": "struct IP_Deposit.CoCreator[]",
          "name": "coCreators",
          "type": "tuple[]"
        }
      ],
      "name": "depositIP",
      "outputs": [],
      "stateMutability": "payable",
      "type": "function"
    },
    {
      "inputs": [],
      "name": "owner",
      "outputs": [
        {
          "internalType": "address",
          "name": "",
          "type": "address"
        }
      ],
      "stateMutability": "view",
      "type": "function"
    },
    {
      "inputs": [
        {
          "internalType": "bytes32",
          "name": "txHash",
          "type": "bytes32"
        },
        {
          "internalType": "string",
          "name": "newValidation",
          "type": "string"
        }
      ],
      "name": "updateValidation",
      "outputs": [],
      "stateMutability": "nonpayable",
      "type": "function"
    },
    {
      "inputs": [
        {
          "internalType": "bytes32",
          "name": "",
          "type": "bytes32"
        }
      ],
      "name": "validationFor",
      "outputs": [
        {
          "internalType": "string",
          "name": "",
          "type": "string"
        }
      ],
      "stateMutability": "view",
      "type": "function"
    },
    {
      "inputs": [],
      "name": "withdrawFunds",
      "outputs": [],
      "stateMutability": "nonpayable",
      "type": "function"
    },
    {
      "stateMutability": "payable",
      "type": "receive"
    }
  ],
  "bytecode": "0x60808060405234602757600080546001600160a01b031916331790556109ff908161002d8239f35b600080fdfe6080604052600436101561001b575b361561001957600080fd5b005b60003560e01c806324600fc3146107ff57806347934a07146106455780638da5cb5b1461061c5780639b6899121461050b5763bde725b70361000e576101a03660031901126103c7576004356001600160a01b038116908190036103c7576024356001600160401b0381116103c7576100989036906004016108e3565b906044356001600160401b0381116103c7576100b89036906004016108e3565b91906064356001600160401b0381116103c7576100d99036906004016108e3565b906084356001600160401b0381116103c7576100f99036906004016108e3565b909160a4356001600160401b0381116103c75761011a9036906004016108e3565b94909560c060c3193601126103c75761018435986001600160401b038a116103c7573660238b0112156103c7578960040135986001600160401b038a116103c7573660248b60051b8d0101116103c75734156104d7578c1561049e5760405160208101904682523060601b60408201523360601b6054820152436068820152346088820152608881526101ae60a88261094a565b519020600052600160205260406000206001600160401b038d11610488578c6101d78254610910565b601f811161043e575b50806000601f82116001146103d7576000916103cc575b508160011b916000199060031b1c19161790555b6040519b6101808d526101808d0190610223926109a8565b908b820360208d0152610235926109a8565b9089820360408b0152610247926109a8565b908782036060890152610259926109a8565b90858203608087015261026b926109a8565b9060c4358015158091036103c75760a085015260e4358015158091036103c75760c0850152610104358015158091036103c75760e0850152610124358015158091036103c75761010085949394015261014435610120850152610164356101408501528383036101608501528083526020830160208260051b85010193602484019360009160621982360301905b85841061032b578933347f642044ba170db0546be37fcaaef148817148f6966ff726c7f529b1a751a42bca8c8c038da4005b90919293949596601f198282030186528735838112156103c757840190602482013560421936849003018112156103c757826024910101602081359101906001600160401b0381116103c75780360382136103c757604491610395916040855260408501916109a8565b9201356001600160a01b03811691908290036103c75760019260209283809301529901960194019291909594956102f9565b600080fd5b9050830135386101f7565b90508281526020812091815b601f1982168110610426575080601f1981161061040b575b905060018092501b01905561020b565b60f86000199160031b161c199084013516905538808e6103fb565b919260206001819286890135815501940192016103e3565b826000526020600020906020601f840160051c8301931061047e575b601f0160051c01905b818110610472578e91506101e0565b60008155600101610463565b909150819061045a565b634e487b7160e01b600052604160045260246000fd5b60405162461bcd60e51b8152602060048201526011602482015270125b9d985b1a59081c9958da5c1a595b9d607a1b6044820152606490fd5b60405162461bcd60e51b815260206004820152600c60248201526b04d7573742073656e642049560a41b6044820152606490fd5b346103c75760203660031901126103c757600435600052600160205260406000206040519081600082549261053f84610910565b80845293600181169081156105fa57506001146105b3575b506105649250038261094a565b60405190602082528181519182602083015260005b83811061059b5750508160006040809484010152601f80199101168101030190f35b60208282018101516040878401015285935001610579565b90506000929192526020600020906000915b8183106105de5750509060206105649282010184610557565b60209193508060019154838588010152019101909183926105c5565b90506020925061056494915060ff191682840152151560051b82010184610557565b346103c75760003660031901126103c7576000546040516001600160a01b039091168152602090f35b346103c75760403660031901126103c7576004356024356001600160401b0381116103c7576106789036906004016108e3565b919061068f60018060a01b0360005416331461096b565b8160005260016020526040600020926001600160401b038111610488576106b68454610910565b601f81116107b7575b50600093601f821160011461073557817f59312de486ee184a19a6b54efd1601a3acbc980daad1366a50ba250e76fee4e3949560009161072a575b508260011b906000198460031b1c19161790555b6107256040519283926020845260208401916109a8565b0390a2005b9050830135866106fa565b80855260208520601f19831695805b87811061079f5750837f59312de486ee184a19a6b54efd1601a3acbc980daad1366a50ba250e76fee4e3969710610785575b5050600182811b01905561070e565b840135600019600385901b60f8161c191690558580610776565b90916020600181928589013581550193019101610744565b846000526020600020601f830160051c810191602084106107f5575b601f0160051c01905b8181106107e957506106bf565b600081556001016107dc565b90915081906107d3565b346103c75760003660031901126103c7576000546001600160a01b031661082733821461096b565b479081156108b357600080809381935af13d156108ae573d6001600160401b0381116104885760405190610865601f8201601f19166020018361094a565b8152600060203d92013e5b1561087757005b60405162461bcd60e51b815260206004820152600f60248201526e151c985b9cd9995c8819985a5b1959608a1b6044820152606490fd5b610870565b60405162461bcd60e51b81526020600482015260086024820152674e6f2066756e647360c01b6044820152606490fd5b9181601f840112156103c7578235916001600160401b0383116103c757602083818601950101116103c757565b90600182811c92168015610940575b602083101461092a57565b634e487b7160e01b600052602260045260246000fd5b91607f169161091f565b90601f801991011681019081106001600160401b0382111761048857604052565b1561097257565b60405162461bcd60e51b815260206004820152600e60248201526d139bdd08185d5d1a1bdc9a5e995960921b6044820152606490fd5b908060209392818452848401376000828201840152601f01601f191601019056fea26469706673582212207bcb1d95f5a699a92ae926d709f7253e5316214ecb71aea472c4cd7899cef92964736f6c634300081c0033",
  "linkReferences": {},
  "deployedLinkReferences": {}
}