{
  "_format": "hh-sol-artifact-1",
  "contractName": "ERC721Holder",
  "sourceName": "@openzeppelin/contracts/token/ERC721/utils/ERC721Holder.sol",
  "abi": [
    {
      "inputs": [
        {
          "internalType": "address",
          "name": "",
          "type": "address"
        },
        {
          "internalType": "address",
          "name": "",
          "type": "address"
        },
        {
          "internalType": "uint256",
          "name": "",
          "type": "uint256"
        },
        {
          "internalType": "bytes",
          "name": "",
          "type": "bytes"
        }
      ],
      "name": "onERC721Received",
      "outputs": [
        {
          "internalType": "bytes4",
          "name": "",
          "type": "bytes4"
        }
      ],
      "stateMutability": "nonpayable",
      "type": "function"
    }
  ],
  "bytecode": "0x60808060405234601557610151908161001b8239f35b600080fdfe608080604052600436101561001357600080fd5b60003560e01c63150b7a021461002857600080fd5b346100d45760803660031901126100d4576100416100ef565b5061004a610105565b5060643567ffffffffffffffff81116100d457366023820112156100d457806004013567ffffffffffffffff81116100d957601f8101601f19908116603f0116830167ffffffffffffffff8111848210176100d95760405280835236602482840101116100d4576000928160246020940184830137010152604051630a85bd0160e11b8152602090f35b600080fd5b634e487b7160e01b600052604160045260246000fd5b600435906001600160a01b03821682036100d457565b602435906001600160a01b03821682036100d45756fea26469706673582212207d6ed0311aa1eb4ee431b6ce55655679ec564b6df40ab4790023cd4be72a04aa64736f6c634300081c0033",
  "linkReferences": {},
  "deployedLinkReferences": {}
}