{
  "_format": "hh-sol-artifact-1",
  "contractName": "StoryNFT",
  "sourceName": "contracts/StoryNFT.sol",
  "abi": [
    {
      "inputs": [
        {
          "internalType": "string",
          "name": "name_",
          "type": "string"
        },
        {
          "internalType": "string",
          "name": "symbol_",
          "type": "string"
        },
        {
          "internalType": "uint256",
          "name": "mintPrice_",
          "type": "uint256"
        },
        {
          "internalType": "uint256",
          "name": "maxSupply_",
          "type": "uint256"
        },
        {
          "internalType": "address",
          "name": "royaltyReceiver_",
          "type": "address"
        },
        {
          "internalType": "uint96",
          "name": "royaltyBP_",
          "type": "uint96"
        }
      ],
      "stateMutability": "nonpayable",
      "type": "constructor"
    },
    {
      "anonymous": false,
      "inputs": [
        {
          "indexed": true,
          "internalType": "address",
          "name": "owner",
          "type": "address"
        },
        {
          "indexed": true,
          "internalType": "address",
          "name": "approved",
          "type": "address"
        },
        {
          "indexed": true,
          "internalType": "uint256",
          "name": "tokenId",
          "type": "uint256"
        }
      ],
      "name": "Approval",
      "type": "event"
    },
    {
      "anonymous": false,
      "inputs": [
        {
          "indexed": true,
          "internalType": "address",
          "name": "owner",
          "type": "address"
        },
        {
          "indexed": true,
          "internalType": "address",
          "name": "operator",
          "type": "address"
        },
        {
          "indexed": false,
          "internalType": "bool",
          "name": "approved",
          "type": "bool"
        }
      ],
      "name": "ApprovalForAll",
      "type": "event"
    },
    {
      "anonymous": false,
      "inputs": [
        {
          "indexed": true,
          "internalType": "address",
          "name": "previousOwner",
          "type": "address"
        },
        {
          "indexed": true,
          "internalType": "address",
          "name": "newOwner",
          "type": "address"
        }
      ],
      "name": "OwnershipTransferred",
      "type": "event"
    },
    {
      "anonymous": false,
      "inputs": [
        {
          "indexed": false,
          "internalType": "address",
          "name": "account",
          "type": "address"
        }
      ],
      "name": "Paused",
      "type": "event"
    },
    {
      "anonymous": false,
      "inputs": [
        {
          "indexed": true,
          "internalType": "address",
          "name": "from",
          "type": "address"
        },
        {
          "indexed": true,
          "internalType": "address",
          "name": "to",
          "type": "address"
        },
        {
          "indexed": true,
          "internalType": "uint256",
          "name": "tokenId",
          "type": "uint256"
        }
      ],
      "name": "Transfer",
      "type": "event"
    },
    {
      "anonymous": false,
      "inputs": [
        {
          "indexed": true,
          "internalType": "uint256",
          "name": "tokenId",
          "type": "uint256"
        },
        {
          "indexed": true,
          "internalType": "string",
          "name": "tweetId",
          "type": "string"
        },
        {
          "indexed": true,
          "internalType": "address",
          "name": "owner",
          "type": "address"
        }
      ],
      "name": "TweetRegistered",
      "type": "event"
    },
    {
      "anonymous": false,
      "inputs": [
        {
          "indexed": false,
          "internalType": "address",
          "name": "account",
          "type": "address"
        }
      ],
      "name": "Unpaused",
      "type": "event"
    },
    {
      "stateMutability": "payable",
      "type": "fallback"
    },
    {
      "inputs": [
        {
          "internalType": "address",
          "name": "to",
          "type": "address"
        },
        {
          "internalType": "uint256",
          "name": "tokenId",
          "type": "uint256"
        }
      ],
      "name": "approve",
      "outputs": [],
      "stateMutability": "nonpayable",
      "type": "function"
    },
    {
      "inputs": [
        {
          "internalType": "address",
          "name": "owner",
          "type": "address"
        }
      ],
      "name": "balanceOf",
      "outputs": [
        {
          "internalType": "uint256",
          "name": "",
          "type": "uint256"
        }
      ],
      "stateMutability": "view",
      "type": "function"
    },
    {
      "inputs": [
        {
          "internalType": "uint256",
          "name": "tokenId",
          "type": "uint256"
        }
      ],
      "name": "getApproved",
      "outputs": [
        {
          "internalType": "address",
          "name": "",
          "type": "address"
        }
      ],
      "stateMutability": "view",
      "type": "function"
    },
    {
      "inputs": [
        {
          "internalType": "address",
          "name": "owner",
          "type": "address"
        },
        {
          "internalType": "address",
          "name": "operator",
          "type": "address"
        }
      ],
      "name": "isApprovedForAll",
      "outputs": [
        {
          "internalType": "bool",
          "name": "",
          "type": "bool"
        }
      ],
      "stateMutability": "view",
      "type": "function"
    },
    {
      "inputs": [],
      "name": "maxSupply",
      "outputs": [
        {
          "internalType": "uint256",
          "name": "",
          "type": "uint256"
        }
      ],
      "stateMutability": "view",
      "type": "function"
    },
    {
      "inputs": [
        {
          "internalType": "address",
          "name": "to",
          "type": "address"
        },
        {
          "internalType": "uint256",
          "name": "quantity",
          "type": "uint256"
        },
        {
          "internalType": "string",
          "name": "uri",
          "type": "string"
        }
      ],
      "name": "mint",
      "outputs": [],
      "stateMutability": "payable",
      "type": "function"
    },
    {
      "inputs": [],
      "name": "mintPrice",
      "outputs": [
        {
          "internalType": "uint256",
          "name": "",
          "type": "uint256"
        }
      ],
      "stateMutability": "view",
      "type": "function"
    },
    {
      "inputs": [
        {
          "internalType": "string",
          "name": "",
          "type": "string"
        }
      ],
      "name": "mintedTweet",
      "outputs": [
        {
          "internalType": "bool",
          "name": "",
          "type": "bool"
        }
      ],
      "stateMutability": "view",
      "type": "function"
    },
    {
      "inputs": [
        {
          "internalType": "address",
          "name": "",
          "type": "address"
        }
      ],
      "name": "minters",
      "outputs": [
        {
          "internalType": "bool",
          "name": "",
          "type": "bool"
        }
      ],
      "stateMutability": "view",
      "type": "function"
    },
    {
      "inputs": [],
      "name": "name",
      "outputs": [
        {
          "internalType": "string",
          "name": "",
          "type": "string"
        }
      ],
      "stateMutability": "view",
      "type": "function"
    },
    {
      "inputs": [],
      "name": "owner",
      "outputs": [
        {
          "internalType": "address",
          "name": "",
          "type": "address"
        }
      ],
      "stateMutability": "view",
      "type": "function"
    },
    {
      "inputs": [
        {
          "internalType": "uint256",
          "name": "tokenId",
          "type": "uint256"
        }
      ],
      "name": "ownerOf",
      "outputs": [
        {
          "internalType": "address",
          "name": "",
          "type": "address"
        }
      ],
      "stateMutability": "view",
      "type": "function"
    },
    {
      "inputs": [],
      "name": "pause",
      "outputs": [],
      "stateMutability": "nonpayable",
      "type": "function"
    },
    {
      "inputs": [],
      "name": "paused",
      "outputs": [
        {
          "internalType": "bool",
          "name": "",
          "type": "bool"
        }
      ],
      "stateMutability": "view",
      "type": "function"
    },
    {
      "inputs": [],
      "name": "renounceOwnership",
      "outputs": [],
      "stateMutability": "nonpayable",
      "type": "function"
    },
    {
      "inputs": [
        {
          "internalType": "uint256",
          "name": "_tokenId",
          "type": "uint256"
        },
        {
          "internalType": "uint256",
          "name": "_salePrice",
          "type": "uint256"
        }
      ],
      "name": "royaltyInfo",
      "outputs": [
        {
          "internalType": "address",
          "name": "",
          "type": "address"
        },
        {
          "internalType": "uint256",
          "name": "",
          "type": "uint256"
        }
      ],
      "stateMutability": "view",
      "type": "function"
    },
    {
      "inputs": [
        {
          "internalType": "address",
          "name": "to",
          "type": "address"
        },
        {
          "internalType": "string",
          "name": "uri",
          "type": "string"
        },
        {
          "internalType": "string",
          "name": "name_",
          "type": "string"
        },
        {
          "internalType": "string",
          "name": "handle",
          "type": "string"
        },
        {
          "internalType": "string",
          "name": "timestamp",
          "type": "string"
        },
        {
          "internalType": "bool",
          "name": "verified",
          "type": "bool"
        },
        {
          "internalType": "uint256",
          "name": "comments",
          "type": "uint256"
        },
        {
          "internalType": "uint256",
          "name": "retweets",
          "type": "uint256"
        },
        {
          "internalType": "uint256",
          "name": "likes",
          "type": "uint256"
        },
        {
          "internalType": "uint256",
          "name": "analytics",
          "type": "uint256"
        },
        {
          "internalType": "string[]",
          "name": "tags",
          "type": "string[]"
        },
        {
          "internalType": "string[]",
          "name": "mentions",
          "type": "string[]"
        },
        {
          "internalType": "string",
          "name": "profileImage",
          "type": "string"
        },
        {
          "internalType": "string",
          "name": "tweetLink",
          "type": "string"
        },
        {
          "internalType": "string",
          "name": "tweetId",
          "type": "string"
        },
        {
          "internalType": "string",
          "name": "ipfsScreenshot",
          "type": "string"
        }
      ],
      "name": "safeMint",
      "outputs": [],
      "stateMutability": "nonpayable",
      "type": "function"
    },
    {
      "inputs": [
        {
          "internalType": "address",
          "name": "from",
          "type": "address"
        },
        {
          "internalType": "address",
          "name": "to",
          "type": "address"
        },
        {
          "internalType": "uint256",
          "name": "tokenId",
          "type": "uint256"
        }
      ],
      "name": "safeTransferFrom",
      "outputs": [],
      "stateMutability": "nonpayable",
      "type": "function"
    },
    {
      "inputs": [
        {
          "internalType": "address",
          "name": "from",
          "type": "address"
        },
        {
          "internalType": "address",
          "name": "to",
          "type": "address"
        },
        {
          "internalType": "uint256",
          "name": "tokenId",
          "type": "uint256"
        },
        {
          "internalType": "bytes",
          "name": "data",
          "type": "bytes"
        }
      ],
      "name": "safeTransferFrom",
      "outputs": [],
      "stateMutability": "nonpayable",
      "type": "function"
    },
    {
      "inputs": [
        {
          "internalType": "address",
          "name": "operator",
          "type": "address"
        },
        {
          "internalType": "bool",
          "name": "approved",
          "type": "bool"
        }
      ],
      "name": "setApprovalForAll",
      "outputs": [],
      "stateMutability": "nonpayable",
      "type": "function"
    },
    {
      "inputs": [
        {
          "internalType": "uint256",
          "name": "newPrice",
          "type": "uint256"
        }
      ],
      "name": "setMintPrice",
      "outputs": [],
      "stateMutability": "nonpayable",
      "type": "function"
    },
    {
      "inputs": [
        {
          "internalType": "address",
          "name": "minter",
          "type": "address"
        },
        {
          "internalType": "bool",
          "name": "allowed",
          "type": "bool"
        }
      ],
      "name": "setMinter",
      "outputs": [],
      "stateMutability": "nonpayable",
      "type": "function"
    },
    {
      "inputs": [
        {
          "internalType": "bytes4",
          "name": "interfaceId",
          "type": "bytes4"
        }
      ],
      "name": "supportsInterface",
      "outputs": [
        {
          "internalType": "bool",
          "name": "",
          "type": "bool"
        }
      ],
      "stateMutability": "view",
      "type": "function"
    },
    {
      "inputs": [],
      "name": "symbol",
      "outputs": [
        {
          "internalType": "string",
          "name": "",
          "type": "string"
        }
      ],
      "stateMutability": "view",
      "type": "function"
    },
    {
      "inputs": [
        {
          "internalType": "uint256",
          "name": "index",
          "type": "uint256"
        }
      ],
      "name": "tokenByIndex",
      "outputs": [
        {
          "internalType": "uint256",
          "name": "",
          "type": "uint256"
        }
      ],
      "stateMutability": "view",
      "type": "function"
    },
    {
      "inputs": [
        {
          "internalType": "address",
          "name": "owner",
          "type": "address"
        },
        {
          "internalType": "uint256",
          "name": "index",
          "type": "uint256"
        }
      ],
      "name": "tokenOfOwnerByIndex",
      "outputs": [
        {
          "internalType": "uint256",
          "name": "",
          "type": "uint256"
        }
      ],
      "stateMutability": "view",
      "type": "function"
    },
    {
      "inputs": [
        {
          "internalType": "uint256",
          "name": "tokenId",
          "type": "uint256"
        }
      ],
      "name": "tokenURI",
      "outputs": [
        {
          "internalType": "string",
          "name": "",
          "type": "string"
        }
      ],
      "stateMutability": "view",
      "type": "function"
    },
    {
      "inputs": [],
      "name": "totalSupply",
      "outputs": [
        {
          "internalType": "uint256",
          "name": "",
          "type": "uint256"
        }
      ],
      "stateMutability": "view",
      "type": "function"
    },
    {
      "inputs": [
        {
          "internalType": "address",
          "name": "from",
          "type": "address"
        },
        {
          "internalType": "address",
          "name": "to",
          "type": "address"
        },
        {
          "internalType": "uint256",
          "name": "tokenId",
          "type": "uint256"
        }
      ],
      "name": "transferFrom",
      "outputs": [],
      "stateMutability": "nonpayable",
      "type": "function"
    },
    {
      "inputs": [
        {
          "internalType": "address",
          "name": "newOwner",
          "type": "address"
        }
      ],
      "name": "transferOwnership",
      "outputs": [],
      "stateMutability": "nonpayable",
      "type": "function"
    },
    {
      "inputs": [
        {
          "internalType": "uint256",
          "name": "",
          "type": "uint256"
        }
      ],
      "name": "tweetMeta",
      "outputs": [
        {
          "internalType": "string",
          "name": "name",
          "type": "string"
        },
        {
          "internalType": "string",
          "name": "handle",
          "type": "string"
        },
        {
          "internalType": "string",
          "name": "timestamp",
          "type": "string"
        },
        {
          "internalType": "bool",
          "name": "verified",
          "type": "bool"
        },
        {
          "internalType": "uint256",
          "name": "comments",
          "type": "uint256"
        },
        {
          "internalType": "uint256",
          "name": "retweets",
          "type": "uint256"
        },
        {
          "internalType": "uint256",
          "name": "likes",
          "type": "uint256"
        },
        {
          "internalType": "uint256",
          "name": "analytics",
          "type": "uint256"
        },
        {
          "internalType": "string",
          "name": "profileImage",
          "type": "string"
        },
        {
          "internalType": "string",
          "name": "tweetLink",
          "type": "string"
        },
        {
          "internalType": "string",
          "name": "tweetId",
          "type": "string"
        },
        {
          "internalType": "string",
          "name": "ipfsScreenshot",
          "type": "string"
        }
      ],
      "stateMutability": "view",
      "type": "function"
    },
    {
      "inputs": [],
      "name": "unpause",
      "outputs": [],
      "stateMutability": "nonpayable",
      "type": "function"
    },
    {
      "inputs": [],
      "name": "withdraw",
      "outputs": [],
      "stateMutability": "nonpayable",
      "type": "function"
    },
    {
      "stateMutability": "payable",
      "type": "receive"
    }
  ],
  "bytecode": "0x6080604052346104d55761350e80380380610019816104da565b928339810160c0828203126104d55781516001600160401b0381116104d557816100449184016104ff565b602083015190916001600160401b0382116104d5576100649184016104ff565b6040830151606084015160808501516001600160a01b03811695939493908690036104d55760a00151936001600160601b038516938486036104d5578051906001600160401b0382116102385760005490600182811c921680156104cb575b60208310146103cb5781601f84931161045c575b50602090601f83116001146103f6576000926103eb575b50508160011b916000199060031b1c1916176000555b8051906001600160401b0382116102385760015490600182811c921680156103e1575b60208310146103cb5781601f84931161035b575b50602090601f83116001146102f3576000926102e8575b50508160011b916000199060031b1c1916176001555b600b80546001600160a81b0319811633600881811b610100600160a81b031692909217909355604051949291901c6001600160a01b03167f8be0079c531659141344cd1fd0a4f28419497f9722a3daafe3b4186f6b6457e0600080a3600f5560105561271082116102935750821561024e5760408051908101906001600160401b0382118183101761023857602091604052848152015260018060a01b03199060a01b1617600c553360005260116020526040600020600160ff19825416179055604051612fa3908161056b8239f35b634e487b7160e01b600052604160045260246000fd5b60405162461bcd60e51b815260206004820152601960248201527f455243323938313a20696e76616c6964207265636569766572000000000000006044820152606490fd5b62461bcd60e51b815260206004820152602a60248201527f455243323938313a20726f79616c7479206665652077696c6c206578636565646044820152692073616c65507269636560b01b6064820152608490fd5b015190503880610152565b600160009081528281209350601f198516905b818110610343575090846001959493921061032a575b505050811b01600155610168565b015160001960f88460031b161c1916905538808061031c565b92936020600181928786015181550195019301610306565b60016000529091507fb10e2d527612073b26eecdfd717e6a320cf44b4afac2b0732d9fcbe2b7fa0cf6601f840160051c810191602085106103c1575b90601f859493920160051c01905b8181106103b2575061013b565b600081558493506001016103a5565b9091508190610397565b634e487b7160e01b600052602260045260246000fd5b91607f1691610127565b0151905038806100ee565b60008080528281209350601f198516905b818110610444575090846001959493921061042b575b505050811b01600055610104565b015160001960f88460031b161c1916905538808061041d565b92936020600181928786015181550195019301610407565b600080529091507f290decd9548b62a8d60345a988386fc84ba6bc95484008f6362f93160ef3e563601f840160051c810191602085106104c1575b90601f859493920160051c01905b8181106104b257506100d7565b600081558493506001016104a5565b9091508190610497565b91607f16916100c3565b600080fd5b6040519190601f01601f191682016001600160401b0381118382101761023857604052565b81601f820112156104d5578051906001600160401b0382116102385761052e601f8301601f19166020016104da565b92828452602083830101116104d55760005b82811061055557505060206000918301015290565b8060208092840101518282870101520161054056fe610260806040526004361015610012575b005b60003560e01c90816301ffc9a714611f5f5750806306fdde0314611eba578063081812fc14611e9c578063095ea7b314611d135780631381df8814611bdc57806318160ddd14611bbe5780632367a4d714611b5d57806323b872dd14611b395780632a55205a14611a825780632f745c59146119d05780633ccfd60b146119475780633f4ba83a146118b357806342842e0e1461187e5780634f6ccce7146117ec5780635c975abb146117c95780636352211e146117995780636817c76c1461177b57806370a0823114611750578063715018a6146116ef5780638456cb59146116955780638da5cb5b1461166857806395d89b411461159b578063a22cb465146114c3578063b88d4fde1461143e578063c87b56dd14611407578063ce8f5772146104de578063cf456ae71461048b578063d3fc98641461033f578063d5abeb0114610321578063e985e9c5146102c6578063f2fde38b146101eb578063f46eccc4146101ac5763f4a0a5281461018657005b346101a75760203660031901126101a75761019f61291e565b600435600f55005b600080fd5b346101a75760203660031901126101a7576001600160a01b036101cd612046565b166000526011602052602060ff604060002054166040519015158152f35b346101a75760203660031901126101a757610204612046565b61020c61291e565b6001600160a01b03811690811561027257600b8054610100600160a81b03198116600893841b610100600160a81b031617909155901c6001600160a01b03167f8be0079c531659141344cd1fd0a4f28419497f9722a3daafe3b4186f6b6457e0600080a3005b60405162461bcd60e51b815260206004820152602660248201527f4f776e61626c653a206e6577206f776e657220697320746865207a65726f206160448201526564647265737360d01b6064820152608490fd5b346101a75760403660031901126101a7576102df612046565b6102e761205c565b9060018060a01b0316600052600560205260406000209060018060a01b0316600052602052602060ff604060002054166040519015158152f35b346101a75760003660031901126101a7576020601054604051908152f35b60603660031901126101a757610353612046565b6024356044356001600160401b0381116101a7576103759036906004016121de565b9133600052601160205261039060ff6040600020541661246d565b610398612a3c565b811561044f57600e54828101809111610439576103b99060105410156124b2565b6103c582600f54612343565b34106103fc5760005b8281106103d757005b6001906103f685600e54848101600e556103f18187612a80565b612c72565b016103ce565b60405162461bcd60e51b8152602060048201526015602482015274125b9cdd59999a58da595b9d08115512081cd95b9d605a1b6044820152606490fd5b634e487b7160e01b600052601160045260246000fd5b60405162461bcd60e51b815260206004820152601460248201527305175616e74697479206d757374206265203e20360641b6044820152606490fd5b346101a75760403660031901126101a7576100106104a7612046565b6104af612236565b906104b861291e565b60018060a01b0316600052601160205260406000209060ff801983541691151516179055565b346101a7576102003660031901126101a7576104f8612046565b6101e0526024356001600160401b0381116101a75761051b903690600401612245565b6101a052610220526044356001600160401b0381116101a757610542903690600401612245565b60e052610240526064356001600160401b0381116101a757610568903690600401612245565b906084356001600160401b0381116101a757610588903690600401612245565b6101405260a43561016081905280151590036101a757610144356001600160401b0381116101a7576105be903690600401612272565b61020052610164356001600160401b0381116101a7576105e2903690600401612272565b91610184356001600160401b0381116101a757610603903690600401612245565b9290936101a4356001600160401b0381116101a757610626903690600401612245565b9060c052966101c4356001600160401b0381116101a75761064b903690600401612245565b6101c052610180526101e4356001600160401b0381116101a757610673903690600401612245565b610120526101005233600052601160205261069560ff6040600020541661246d565b61069d612a3c565b600e5460a0526106b260105460a051106124b2565b60ff6040516101c0516101805182376020816101c0518101601281520301902054166113c257600160a05101600e556040516101c0516101805182376020816101c05181016012815203019020600160ff1982541617905561071960a0516101e051612a80565b61073561072d366101a051610220516121a7565b60a051612c72565b6040516080526101c0608051019360805185106001600160401b03861117610cdf5761079d6108049861078b6107e6946108169d6107f5996040526107803660e051610240516121a7565b6080515236916121a7565b608051602001526101405136916121a7565b604060805101526101605115156060608051015260c43560808051015260e43560a060805101526101043560c060805101526101243560e06080510152369061020051906124f3565b610100608051015236916124f3565b610120608051015236916121a7565b6101406080510152369060c0516121a7565b610160608051015261082f366101c051610180516121a7565b6101806080510190815261084a3661012051610100516121a7565b906101a06080510191825260a0516000526013602052604060002091608051519283516001600160401b038111610cdf576108858254612072565b601f8111611390575b50602094601f821160011461132b576108c3929394958291600092611320575b50508160011b916000199060031b1c19161790565b81555b60018101602060805101518051906001600160401b038211610cdf576108ec8354612072565b601f81116112ee575b50602090601f831160011461128757610926929160009183610cf55750508160011b916000199060031b1c19161790565b90555b60028101604060805101518051906001600160401b038211610cdf5761094f8354612072565b601f8111611255575b50602090601f83116001146111ee57610989929160009183610cf55750508160011b916000199060031b1c19161790565b90555b6109ad606060805101511515600383019060ff801983541691151516179055565b6080805190810151600483015560a0810151600583015560c0810151600683015560e08101516007830155610100015180516008830191600160401b8211610cdf578254828455808310611170575b50602001916000526020600020916000905b8282106110635750505050600981016101206080510151805190600160401b8211610cdf578254828455808310610fe5575b50602001916000526020600020916000905b828210610ecd5750505050600a810161014060805101518051906001600160401b038211610cdf57610a848354612072565b601f8111610e9b575b50602090601f8311600114610e3457610abe929160009183610cf55750508160011b916000199060031b1c19161790565b90555b600b810161016060805101518051906001600160401b038211610cdf57610ae88354612072565b601f8111610e02575b50602090601f8311600114610d9b57610b22929160009183610cf55750508160011b916000199060031b1c19161790565b90555b600c810192519283516001600160401b038111610cdf57610b468254612072565b601f8111610d69575b506020601f8211600114610d00579080610b8392600d9697600092610cf55750508160011b916000199060031b1c19161790565b90555b0190519081516001600160401b038111610cdf57610ba48254612072565b601f8111610ca2575b50602092601f8211600114610c3f57610bdf92938291600092610c345750508160011b916000199060031b1c19161790565b90555b6040516101c051610180518237806101c05181016000815203902060018060a01b036101e051169060a0517ff03f86513d92a90546545f1a6a43886905a42fc6d1dc2a70135a004ccf3264bd600080a4005b0151905084806108ae565b601f1982169383600052806000209160005b868110610c8a5750836001959610610c71575b505050811b019055610be2565b015160001960f88460031b161c19169055838080610c64565b91926020600181928685015181550194019201610c51565b610ccf90836000526020600020601f840160051c81019160208510610cd5575b601f0160051c0190612567565b83610bad565b9091508190610cc2565b634e487b7160e01b600052604160045260246000fd5b0151905087806108ae565b601f1982169583600052816000209660005b818110610d51575091600d969791846001959410610d38575b505050811b019055610b86565b015160001960f88460031b161c19169055868080610d2b565b83830151895560019098019760209384019301610d12565b610d9590836000526020600020601f840160051c81019160208510610cd557601f0160051c0190612567565b85610b4f565b90601f1983169184600052816000209260005b818110610dea5750908460019594939210610dd1575b505050811b019055610b25565b015160001960f88460031b161c19169055868080610dc4565b92936020600181928786015181550195019301610dae565b610e2e90846000526020600020601f850160051c81019160208610610cd557601f0160051c0190612567565b86610af1565b90601f1983169184600052816000209260005b818110610e835750908460019594939210610e6a575b505050811b019055610ac1565b015160001960f88460031b161c19169055868080610e5d565b92936020600181928786015181550195019301610e47565b610ec790846000526020600020601f850160051c81019160208610610cd557601f0160051c0190612567565b86610a8d565b80518051906001600160401b038211610cdf57610eea8654612072565b601f8111610fb3575b50602090601f8311600114610f465792610f2c83600195946020948796600092610f3b5750508160011b916000199060031b1c19161790565b87555b01940191019092610a52565b015190508d806108ae565b90601f1983169187600052816000209260005b818110610f9b5750936020936001969387969383889510610f82575b505050811b018755610f2f565b015160001960f88460031b161c191690558c8080610f75565b92936020600181928786015181550195019301610f59565b610fdf90876000526020600020601f850160051c81019160208610610cd557601f0160051c0190612567565b89610ef3565b8360005282602060002091820191015b8181106110025750610a40565b8061100f60019254612072565b8061101c575b5001610ff5565b601f811183146110325750600081555b89611015565b611050908260005283601f6020600020920160051c82019101612567565b806000526000602081208183555561102c565b80518051906001600160401b038211610cdf576110808654612072565b601f811161113e575b50602090601f83116001146110d157926110c283600195946020948796600092610f3b5750508160011b916000199060031b1c19161790565b87555b01940191019092610a0e565b90601f1983169187600052816000209260005b818110611126575093602093600196938796938388951061110d575b505050811b0187556110c5565b015160001960f88460031b161c191690558c8080611100565b929360206001819287860151815501950193016110e4565b61116a90876000526020600020601f850160051c81019160208610610cd557601f0160051c0190612567565b89611089565b8360005282602060002091820191015b81811061118d57506109fc565b8061119a60019254612072565b806111a7575b5001611180565b601f811183146111bd5750600081555b896111a0565b6111db908260005283601f6020600020920160051c82019101612567565b80600052600060208120818355556111b7565b90601f1983169184600052816000209260005b81811061123d5750908460019594939210611224575b505050811b01905561098c565b015160001960f88460031b161c19169055868080611217565b92936020600181928786015181550195019301611201565b61128190846000526020600020601f850160051c81019160208610610cd557601f0160051c0190612567565b86610958565b90601f1983169184600052816000209260005b8181106112d657509084600195949392106112bd575b505050811b019055610929565b015160001960f88460031b161c191690558680806112b0565b9293602060018192878601518155019501930161129a565b61131a90846000526020600020601f850160051c81019160208610610cd557601f0160051c0190612567565b866108f5565b0151905086806108ae565b601f1982169583600052806000209160005b8881106113785750836001959697981061135f575b505050811b0181556108c6565b015160001960f88460031b161c19169055858080611352565b9192602060018192868501518155019401920161133d565b6113bc90836000526020600020601f840160051c81019160208510610cd557601f0160051c0190612567565b8561088e565b60405162461bcd60e51b815260206004820152601860248201527f547765657420616c7265616479207265676973746572656400000000000000006044820152606490fd5b346101a75760203660031901126101a75761143a6114266004356129f0565b604051918291602083526020830190612021565b0390f35b346101a75760803660031901126101a757611457612046565b61145f61205c565b90606435906044356001600160401b0383116101a757366023840112156101a7576100109361149b6114be9436906024816004013591016121a7565b926114ae6114a9843361257e565b6122e0565b6114b98383836125f7565b612f14565b6129cc565b346101a75760403660031901126101a7576114dc612046565b6114e4612236565b6001600160a01b0390911690338214611556573360005260056020526040600020826000526020526115268160406000209060ff801983541691151516179055565b60405190151581527f17307eab39ab6107e8899845ad3d59bd9653f200f220920489ca2b5937696c3160203392a3005b60405162461bcd60e51b815260206004820152601960248201527f4552433732313a20617070726f766520746f2063616c6c6572000000000000006044820152606490fd5b346101a75760003660031901126101a75760405160006001546115bd81612072565b808452906001811690811561164457506001146115e5575b61143a83611426818503826120c7565b600160009081527fb10e2d527612073b26eecdfd717e6a320cf44b4afac2b0732d9fcbe2b7fa0cf6939250905b80821061162a575090915081016020016114266115d5565b919260018160209254838588010152019101909291611612565b60ff191660208086019190915291151560051b8401909101915061142690506115d5565b346101a75760003660031901126101a757600b5460405160089190911c6001600160a01b03168152602090f35b346101a75760003660031901126101a7576116ae61291e565b6116b6612a3c565b600160ff19600b541617600b557f62e78cea01bee320cd4e420270b5ea74000d11b0c9f74754ebdbfc544b05a2586020604051338152a1005b346101a75760003660031901126101a75761170861291e565b600b8054610100600160a81b0319811690915560009060081c6001600160a01b03167f8be0079c531659141344cd1fd0a4f28419497f9722a3daafe3b4186f6b6457e08280a3005b346101a75760203660031901126101a757602061177361176e612046565b6123f6565b604051908152f35b346101a75760003660031901126101a7576020600f54604051908152f35b346101a75760203660031901126101a75760206117b76004356123d3565b6040516001600160a01b039091168152f35b346101a75760003660031901126101a757602060ff600b54166040519015158152f35b346101a75760203660031901126101a75760043560085481101561182457611815602091612356565b90549060031b1c604051908152f35b60405162461bcd60e51b815260206004820152602c60248201527f455243373231456e756d657261626c653a20676c6f62616c20696e646578206f60448201526b7574206f6620626f756e647360a01b6064820152608490fd5b346101a7576100106114be611892366121fc565b90604051926118a26020856120c7565b600084526114ae6114a9843361257e565b346101a75760003660031901126101a7576118cc61291e565b600b5460ff81161561190b5760ff1916600b557f5db9ee0a495bf2e6ff9c91a7834c1ba4fdd244a5e8aa4e537bd38aeae4b073aa6020604051338152a1005b60405162461bcd60e51b815260206004820152601460248201527314185d5cd8589b194e881b9bdd081c185d5cd95960621b6044820152606490fd5b346101a75760003660031901126101a75761196061291e565b47801561199457600b5460009182918291829160081c6001600160a01b031682f11561198857005b6040513d6000823e3d90fd5b60405162461bcd60e51b81526020600482015260146024820152734e6f2066756e647320746f20776974686472617760601b6044820152606490fd5b346101a75760403660031901126101a7576119e9612046565b602435906119f6816123f6565b821015611a295760018060a01b031660005260066020526040600020906000526020526020604060002054604051908152f35b60405162461bcd60e51b815260206004820152602b60248201527f455243373231456e756d657261626c653a206f776e657220696e646578206f7560448201526a74206f6620626f756e647360a81b6064820152608490fd5b346101a75760403660031901126101a757600435600052600d602052604060002060405190611ab0826120ac565b546001600160a01b03811680835260a09190911c602083015215611b0d575b80612710611af36bffffffffffffffffffffffff6020604095015116602435612343565b915183516001600160a01b03909116815291046020820152f35b5060408051611b1b816120ac565b600c546001600160a01b038116825260a01c60208201529050611acf565b346101a757610010611b4a366121fc565b91611b586114a9843361257e565b6125f7565b346101a75760203660031901126101a7576004356001600160401b0381116101a75760ff611ba86020611b95819436906004016121de565b8160405193828580945193849201611ffe565b8101601281520301902054166040519015158152f35b346101a75760003660031901126101a7576020600854604051908152f35b346101a75760203660031901126101a75760043560005260136020526040600020611c06816120e8565b611c12600183016120e8565b91611c1f600282016120e8565b90600381015460ff166004820154906005830154906006840154600785015490600a8601611c4c906120e8565b93611c59600b88016120e8565b95611c66600c89016120e8565b97600d01611c73906120e8565b986040519b8c9b6101808d526101808d01611c8d91612021565b8c810360208e0152611c9e91612021565b8b810360408d0152611caf91612021565b94151560608b015260808a015260a089015260c088015260e0870152858103610100870152611cdd91612021565b848103610120860152611cef91612021565b838103610140850152611d0191612021565b82810361016084015261143a91612021565b346101a75760403660031901126101a757611d2c612046565b602435906001600160a01b03611d41836123d3565b6001600160a01b039092169116818114611e4d57803314908115611e28575b5015611dbd57600082815260046020526040902080546001600160a01b031916821790556001600160a01b03611d95836123d3565b167f8c5be1e5ebec7d5bd14f71427d1e84f3dd0314c0f7b2291e5b200ac8c7c3b925600080a4005b60405162461bcd60e51b815260206004820152603e60248201527f4552433732313a20617070726f76652063616c6c6572206973206e6f7420746f60448201527f6b656e206f776e6572206e6f7220617070726f76656420666f7220616c6c00006064820152608490fd5b600090815260056020908152604080832033845290915290205460ff16905083611d60565b60405162461bcd60e51b815260206004820152602160248201527f4552433732313a20617070726f76616c20746f2063757272656e74206f776e656044820152603960f91b6064820152608490fd5b346101a75760203660031901126101a75760206117b76004356122a2565b346101a75760003660031901126101a75760405160008054611edb81612072565b80845290600181169081156116445750600114611f025761143a83611426818503826120c7565b60008080527f290decd9548b62a8d60345a988386fc84ba6bc95484008f6362f93160ef3e563939250905b808210611f45575090915081016020016114266115d5565b919260018160209254838588010152019101909291611f2d565b346101a75760203660031901126101a7576004359063ffffffff60e01b82168092036101a75760209163152a902d60e11b8114908115611fa1575b5015158152f35b63780e9d6360e01b811491508115611fbb575b5083611f9a565b6380ac58cd60e01b811491508115611fed575b8115611fdc575b5083611fb4565b6301ffc9a760e01b14905083611fd5565b635b5e139f60e01b81149150611fce565b60005b8381106120115750506000910152565b8181015183820152602001612001565b9060209161203a81518092818552858086019101611ffe565b601f01601f1916010190565b600435906001600160a01b03821682036101a757565b602435906001600160a01b03821682036101a757565b90600182811c921680156120a2575b602083101461208c57565b634e487b7160e01b600052602260045260246000fd5b91607f1691612081565b604081019081106001600160401b03821117610cdf57604052565b90601f801991011681019081106001600160401b03821117610cdf57604052565b90604051918260008254926120fc84612072565b808452936001811690811561216a5750600114612123575b50612121925003836120c7565b565b90506000929192526020600020906000915b81831061214e5750509060206121219282010138612114565b6020919350806001915483858901015201910190918492612135565b90506020925061212194915060ff191682840152151560051b82010138612114565b6001600160401b038111610cdf57601f01601f191660200190565b9291926121b38261218c565b916121c160405193846120c7565b8294818452818301116101a7578281602093846000960137010152565b9080601f830112156101a7578160206121f9933591016121a7565b90565b60609060031901126101a7576004356001600160a01b03811681036101a757906024356001600160a01b03811681036101a7579060443590565b6024359081151582036101a757565b9181601f840112156101a7578235916001600160401b0383116101a757602083818601950101116101a757565b9181601f840112156101a7578235916001600160401b0383116101a7576020808501948460051b0101116101a757565b6000818152600260205260409020546122c5906001600160a01b03161515612387565b6000908152600460205260409020546001600160a01b031690565b156122e757565b60405162461bcd60e51b815260206004820152602e60248201527f4552433732313a2063616c6c6572206973206e6f7420746f6b656e206f776e6560448201526d1c881b9bdc88185c1c1c9bdd995960921b6064820152608490fd5b8181029291811591840414171561043957565b60085481101561237157600860005260206000200190600090565b634e487b7160e01b600052603260045260246000fd5b1561238e57565b60405162461bcd60e51b815260206004820152601860248201527f4552433732313a20696e76616c696420746f6b656e20494400000000000000006044820152606490fd5b6000908152600260205260409020546001600160a01b03166121f9811515612387565b6001600160a01b0316801561241657600052600360205260406000205490565b60405162461bcd60e51b815260206004820152602960248201527f4552433732313a2061646472657373207a65726f206973206e6f7420612076616044820152683634b21037bbb732b960b91b6064820152608490fd5b1561247457565b60405162461bcd60e51b8152602060048201526016602482015275139bdd08185d5d1a1bdc9a5e9959081d1bc81b5a5b9d60521b6044820152606490fd5b156124b957565b60405162461bcd60e51b815260206004820152601260248201527145786365656473206d617820737570706c7960701b6044820152606490fd5b929190926001600160401b038411610cdf578360051b90602060405161251b828501826120c7565b8096815201918101918383116101a75781905b83821061253c575050505050565b81356001600160401b0381116101a75760209161255c87849387016121de565b81520191019061252e565b818110612572575050565b60008155600101612567565b906001600160a01b03612590826123d3565b6001600160a01b03909316921682811492919083156125d0575b5082156125b657505090565b9091506001600160a01b03906125cb906122a2565b161490565b909250600052600560205260406000208160005260205260ff6040600020541691386125aa565b90612601836123d3565b6001600160a01b038381169291168290036128cb576001600160a01b03811692831561287a57826127da575060085484600052600960205280604060002055600160401b811015610cdf57846126608260016126799401600855612356565b90919082549060031b91821b91600019901b1916179055565b6000908284036127a6575b5060ff600b541661276e5783815260046020526040812080546001600160a01b031916905583816001600160a01b036126bc836123d3565b167f8c5be1e5ebec7d5bd14f71427d1e84f3dd0314c0f7b2291e5b200ac8c7c3b9258280a4818152600360205260408120805460001981019190821161275a57558281526003602052604081208054906001820180921161275a575583815260026020526040812080546001600160a01b031916841790557fddf252ad1be2c89b69c2b068fc378daa952ba7f163c4a11628f55a4df523b3ef9080a4565b634e487b7160e01b83526011600452602483fd5b60405162461bcd60e51b815260206004820152601060248201526f14dd1bdc9e5391950e881c185d5cd95960821b6044820152606490fd5b6127af906123f6565b8382526006602052604082208183526020528460408320558482526007602052604082205538612684565b8383036127e8575b50612679565b6127f1906123f6565b600019810190811161043957846000526007602052604060002054818103612847575b508460005260076020526000604081205582600052600660205260406000209060005260205260006040812055386127e2565b60008481526006602090815260408083208584528252808320548484528184208190558352600790915290205538612814565b60405162461bcd60e51b8152602060048201526024808201527f4552433732313a207472616e7366657220746f20746865207a65726f206164646044820152637265737360e01b6064820152608490fd5b60405162461bcd60e51b815260206004820152602560248201527f4552433732313a207472616e736665722066726f6d20696e636f72726563742060448201526437bbb732b960d91b6064820152608490fd5b600b5460081c6001600160a01b0316330361293557565b606460405162461bcd60e51b815260206004820152602060248201527f4f776e61626c653a2063616c6c6572206973206e6f7420746865206f776e65726044820152fd5b60809060208152603260208201527f4552433732313a207472616e7366657220746f206e6f6e20455243373231526560408201527131b2b4bb32b91034b6b83632b6b2b73a32b960711b60608201520190565b156129d357565b60405162461bcd60e51b8152806129ec60048201612979565b0390fd5b600081815260026020526040902054612a13906001600160a01b03161515612387565b600052600a602052612a2860406000206120e8565b6000604051612a386020826120c7565b5290565b60ff600b5416612a4857565b60405162461bcd60e51b815260206004820152601060248201526f14185d5cd8589b194e881c185d5cd95960821b6044820152606490fd5b60405191906020612a9181856120c7565b600084526001600160a01b038216908115612c2f576000848152600260205260409020546001600160a01b0316612beb57600854846000526009825280604060002055600160401b811015610cdf5784612660826001612af49401600855612356565b600090612b00846123f6565b8383526006825260408320818452825285604084205585835260078252604083205560ff600b5416612bb457828252600381526040822080549060018201809211612ba057926002879592936114be98946121219a9896558483525260408120826bffffffffffffffffffffffff60a01b8254161790557fddf252ad1be2c89b69c2b068fc378daa952ba7f163c4a11628f55a4df523b3ef8180a4612df3565b634e487b7160e01b84526011600452602484fd5b6064906040519062461bcd60e51b82526004820152601060248201526f14dd1bdc9e5391950e881c185d5cd95960821b6044820152fd5b6064906040519062461bcd60e51b82526004820152601c60248201527f4552433732313a20746f6b656e20616c7265616479206d696e746564000000006044820152fd5b6064906040519062461bcd60e51b825280600483015260248201527f4552433732313a206d696e7420746f20746865207a65726f20616464726573736044820152fd5b6000818152600260205260409020549192916001600160a01b031615612d9757600052600a602052604060002082516001600160401b038111610cdf57612cb98254612072565b601f8111612d65575b506020601f8211600114612d03578190612cf4939495600092612cf85750508160011b916000199060031b1c19161790565b9055565b0151905038806108ae565b601f1982169083600052806000209160005b818110612d4d57509583600195969710612d34575b505050811b019055565b015160001960f88460031b161c19169055388080612d2a565b9192602060018192868b015181550194019201612d15565b612d9190836000526020600020601f840160051c81019160208510610cd557601f0160051c0190612567565b38612cc2565b60405162461bcd60e51b815260206004820152602e60248201527f45524337323155524953746f726167653a2055524920736574206f66206e6f6e60448201526d32bc34b9ba32b73a103a37b5b2b760911b6064820152608490fd5b91823b15612f0c57612e39926020926000604051809681958294630a85bd0160e11b84523360048501528460248501526044840152608060648401526084830190612021565b03926001600160a01b03165af18091600091612ec2575b5090612eac573d15612ea5573d612e668161218c565b90612e7460405192836120c7565b81523d6000602083013e5b80519081612ea05760405162461bcd60e51b8152806129ec60048201612979565b602001fd5b6060612e7f565b6001600160e01b031916630a85bd0160e11b1490565b6020813d602011612f04575b81612edb602093836120c7565b81010312612f005751906001600160e01b031982168203612efd575038612e50565b80fd5b5080fd5b3d9150612ece565b505050600190565b919290803b15612f6457612e3993600060209460405196879586948593630a85bd0160e11b855233600486015260018060a01b031660248501526044840152608060648401526084830190612021565b5050505060019056fea26469706673582212204b1ff5996ff62cf333fb6de46452ceb4559902df66287de222db1680dc305e4164736f6c634300081c0033",
  "linkReferences": {},
  "deployedLinkReferences": {}
}