{
  "_format": "hh-sol-artifact-1",
  "contractName": "IP_Deposit",
  "sourceName": "contracts/StoryDeposit.sol",
  "abi": [
    {
      "inputs": [],
      "stateMutability": "nonpayable",
      "type": "constructor"
    },
    {
      "anonymous": false,
      "inputs": [
        {
          "indexed": true,
          "internalType": "uint256",
          "name": "ipAmount",
          "type": "uint256"
        },
        {
          "indexed": true,
          "internalType": "address",
          "name": "depositor",
          "type": "address"
        },
        {
          "indexed": true,
          "internalType": "address",
          "name": "recipient",
          "type": "address"
        },
        {
          "indexed": false,
          "internalType": "string",
          "name": "validation",
          "type": "string"
        },
        {
          "indexed": false,
          "internalType": "bytes",
          "name": "proof",
          "type": "bytes"
        },
        {
          "indexed": false,
          "internalType": "string",
          "name": "handle",
          "type": "string"
        },
        {
          "indexed": false,
          "internalType": "string",
          "name": "tweet",
          "type": "string"
        }
      ],
      "name": "DepositProcessed",
      "type": "event"
    },
    {
      "inputs": [
        {
          "internalType": "address",
          "name": "recipient",
          "type": "address"
        },
        {
          "internalType": "string",
          "name": "validation",
          "type": "string"
        },
        {
          "internalType": "bytes",
          "name": "proof",
          "type": "bytes"
        },
        {
          "internalType": "string",
          "name": "handle",
          "type": "string"
        },
        {
          "internalType": "string",
          "name": "tweet",
          "type": "string"
        }
      ],
      "name": "depositIP",
      "outputs": [],
      "stateMutability": "payable",
      "type": "function"
    },
    {
      "inputs": [],
      "name": "owner",
      "outputs": [
        {
          "internalType": "address",
          "name": "",
          "type": "address"
        }
      ],
      "stateMutability": "view",
      "type": "function"
    },
    {
      "inputs": [],
      "name": "withdrawFunds",
      "outputs": [],
      "stateMutability": "nonpayable",
      "type": "function"
    },
    {
      "stateMutability": "payable",
      "type": "receive"
    }
  ],
  "bytecode": "0x60808060405234602757600080546001600160a01b031916331790556103d6908161002d8239f35b600080fdfe608080604052600436101561001d575b50361561001b57600080fd5b005b60003560e01c90816324600fc314610212575080638da5cb5b146101e95763c1a3d49b1461004b573861000f565b60a03660031901126101e4576004356001600160a01b038116908190036101e45760243567ffffffffffffffff81116101e45761008c903690600401610351565b60443567ffffffffffffffff81116101e4576100ac903690600401610351565b91909260643567ffffffffffffffff81116101e4576100cf903690600401610351565b92909360843567ffffffffffffffff81116101e4576100f2903690600401610351565b96909534156101b0578815610177577ff47558c09e80464c6b37ece233bfab74f76ddef75289f9af7997d0866ea8beb1956101536101619361017295610145604051998a9960808b5260808b019161037f565b9188830360208a015261037f565b91858303604087015261037f565b82810360608401523396349661037f565b0390a4005b60405162461bcd60e51b8152602060048201526011602482015270125b9d985b1a59081c9958da5c1a595b9d607a1b6044820152606490fd5b60405162461bcd60e51b815260206004820152600c60248201526b04d7573742073656e642049560a41b6044820152606490fd5b600080fd5b346101e45760003660031901126101e4576000546040516001600160a01b039091168152602090f35b346101e45760003660031901126101e4576000546001600160a01b0316903382900361031e5750479081156102ee57600080809381935af13d156102e9573d67ffffffffffffffff81116102d35760405190601f8101601f19908116603f0116820167ffffffffffffffff8111838210176102d3576040528152600060203d92013e5b1561029c57005b60405162461bcd60e51b815260206004820152600f60248201526e151c985b9cd9995c8819985a5b1959608a1b6044820152606490fd5b634e487b7160e01b600052604160045260246000fd5b610295565b60405162461bcd60e51b81526020600482015260086024820152674e6f2066756e647360c01b6044820152606490fd5b62461bcd60e51b815260206004820152600e60248201526d139bdd08185d5d1a1bdc9a5e995960921b6044820152606490fd5b9181601f840112156101e45782359167ffffffffffffffff83116101e457602083818601950101116101e457565b908060209392818452848401376000828201840152601f01601f191601019056fea264697066735822122037aedadcbfdaecacebfa484180402e58603a31faef6a067c2ee83ddf018f1af064736f6c634300081c0033",
  "linkReferences": {},
  "deployedLinkReferences": {}
}