{
  "_format": "hh-sol-artifact-1",
  "contractName": "IP_Deposit",
  "sourceName": "contracts/StoryDeposit.sol",
  "abi": [
    {
      "inputs": [],
      "stateMutability": "nonpayable",
      "type": "constructor"
    },
    {
      "anonymous": false,
      "inputs": [
        {
          "indexed": true,
          "internalType": "uint256",
          "name": "ipAmount",
          "type": "uint256"
        },
        {
          "indexed": true,
          "internalType": "address",
          "name": "depositor",
          "type": "address"
        },
        {
          "indexed": true,
          "internalType": "address",
          "name": "recipient",
          "type": "address"
        },
        {
          "indexed": false,
          "internalType": "string",
          "name": "validation",
          "type": "string"
        },
        {
          "indexed": false,
          "internalType": "bytes",
          "name": "proof",
          "type": "bytes"
        },
        {
          "indexed": false,
          "internalType": "string",
          "name": "handle",
          "type": "string"
        },
        {
          "indexed": false,
          "internalType": "string",
          "name": "tweet",
          "type": "string"
        }
      ],
      "name": "DepositProcessed",
      "type": "event"
    },
    {
      "anonymous": false,
      "inputs": [
        {
          "indexed": true,
          "internalType": "bytes32",
          "name": "txHash",
          "type": "bytes32"
        },
        {
          "indexed": false,
          "internalType": "string",
          "name": "newValidation",
          "type": "string"
        }
      ],
      "name": "ValidationUpdated",
      "type": "event"
    },
    {
      "inputs": [
        {
          "internalType": "address",
          "name": "recipient",
          "type": "address"
        },
        {
          "internalType": "string",
          "name": "validation",
          "type": "string"
        },
        {
          "internalType": "bytes",
          "name": "proof",
          "type": "bytes"
        },
        {
          "internalType": "string",
          "name": "handle",
          "type": "string"
        },
        {
          "internalType": "string",
          "name": "tweet",
          "type": "string"
        }
      ],
      "name": "depositIP",
      "outputs": [],
      "stateMutability": "payable",
      "type": "function"
    },
    {
      "inputs": [],
      "name": "owner",
      "outputs": [
        {
          "internalType": "address",
          "name": "",
          "type": "address"
        }
      ],
      "stateMutability": "view",
      "type": "function"
    },
    {
      "inputs": [
        {
          "internalType": "bytes32",
          "name": "txHash",
          "type": "bytes32"
        },
        {
          "internalType": "string",
          "name": "newValidation",
          "type": "string"
        }
      ],
      "name": "updateValidation",
      "outputs": [],
      "stateMutability": "nonpayable",
      "type": "function"
    },
    {
      "inputs": [
        {
          "internalType": "bytes32",
          "name": "",
          "type": "bytes32"
        }
      ],
      "name": "validationFor",
      "outputs": [
        {
          "internalType": "string",
          "name": "",
          "type": "string"
        }
      ],
      "stateMutability": "view",
      "type": "function"
    },
    {
      "inputs": [],
      "name": "withdrawFunds",
      "outputs": [],
      "stateMutability": "nonpayable",
      "type": "function"
    },
    {
      "stateMutability": "payable",
      "type": "receive"
    }
  ],
  "bytecode": "0x60808060405234602757600080546001600160a01b03191633179055610887908161002d8239f35b600080fdfe6080604052600436101561001b575b361561001957600080fd5b005b60003560e01c806324600fc31461068457806347934a07146104c85780638da5cb5b1461049f5780639b6899121461038e5763c1a3d49b0361000e5760a0366003190112610389576004356001600160a01b038116908190036103895760243567ffffffffffffffff811161038957610098903690600401610769565b60449291923567ffffffffffffffff8111610389576100bb903690600401610769565b9360643567ffffffffffffffff8111610389576100dc903690600401610769565b939060843567ffffffffffffffff8111610389576100fe903690600401610769565b959094341561035557871561031c5760405160208101904682523060601b60408201523360601b60548201524360688201523460888201526088815261014560a8826107d1565b519020600052600160205260406000209867ffffffffffffffff85116103065761016f8a54610797565b601f81116102be575b50600099601f861160011461022b5761021b949261020a94926101fc92887ff47558c09e80464c6b37ece233bfab74f76ddef75289f9af7997d0866ea8beb19b9c9d9e600091610220575b508960011b906000198b60031b1c19161790555b6101ee604051998a9960808b5260808b0191610830565b9188830360208a0152610830565b918583036040870152610830565b828103606084015233963496610830565b0390a4005b90508a0135386101c3565b808b5260208b20601f1987168c5b8181106102a65750926101fc9261021b9795927ff47558c09e80464c6b37ece233bfab74f76ddef75289f9af7997d0866ea8beb19b9c9d9e8a61020a99971061028c575b5050600189811b0190556101d7565b8b013560001960038c901b60f8161c19169055388061027d565b898e0135835560209d8e019d60019093019201610239565b8a6000526020600020601f870160051c810191602088106102fc575b601f0160051c01905b8181106102f05750610178565b600081556001016102e3565b90915081906102da565b634e487b7160e01b600052604160045260246000fd5b60405162461bcd60e51b8152602060048201526011602482015270125b9d985b1a59081c9958da5c1a595b9d607a1b6044820152606490fd5b60405162461bcd60e51b815260206004820152600c60248201526b04d7573742073656e642049560a41b6044820152606490fd5b600080fd5b346103895760203660031901126103895760043560005260016020526040600020604051908160008254926103c284610797565b808452936001811690811561047d5750600114610436575b506103e7925003826107d1565b60405190602082528181519182602083015260005b83811061041e5750508160006040809484010152601f80199101168101030190f35b602082820181015160408784010152859350016103fc565b90506000929192526020600020906000915b8183106104615750509060206103e792820101846103da565b6020919350806001915483858801015201910190918392610448565b9050602092506103e794915060ff191682840152151560051b820101846103da565b34610389576000366003190112610389576000546040516001600160a01b039091168152602090f35b346103895760403660031901126103895760043560243567ffffffffffffffff8111610389576104fc903690600401610769565b919061051360018060a01b036000541633146107f3565b81600052600160205260406000209267ffffffffffffffff81116103065761053b8454610797565b601f811161063c575b50600093601f82116001146105ba57817f59312de486ee184a19a6b54efd1601a3acbc980daad1366a50ba250e76fee4e394956000916105af575b508260011b906000198460031b1c19161790555b6105aa604051928392602084526020840191610830565b0390a2005b90508301358661057f565b80855260208520601f19831695805b8781106106245750837f59312de486ee184a19a6b54efd1601a3acbc980daad1366a50ba250e76fee4e396971061060a575b5050600182811b019055610593565b840135600019600385901b60f8161c1916905585806105fb565b909160206001819285890135815501930191016105c9565b846000526020600020601f830160051c8101916020841061067a575b601f0160051c01905b81811061066e5750610544565b60008155600101610661565b9091508190610658565b34610389576000366003190112610389576000546001600160a01b03166106ac3382146107f3565b4790811561073957600080809381935af13d15610734573d67ffffffffffffffff811161030657604051906106eb601f8201601f1916602001836107d1565b8152600060203d92013e5b156106fd57005b60405162461bcd60e51b815260206004820152600f60248201526e151c985b9cd9995c8819985a5b1959608a1b6044820152606490fd5b6106f6565b60405162461bcd60e51b81526020600482015260086024820152674e6f2066756e647360c01b6044820152606490fd5b9181601f840112156103895782359167ffffffffffffffff8311610389576020838186019501011161038957565b90600182811c921680156107c7575b60208310146107b157565b634e487b7160e01b600052602260045260246000fd5b91607f16916107a6565b90601f8019910116810190811067ffffffffffffffff82111761030657604052565b156107fa57565b60405162461bcd60e51b815260206004820152600e60248201526d139bdd08185d5d1a1bdc9a5e995960921b6044820152606490fd5b908060209392818452848401376000828201840152601f01601f191601019056fea2646970667358221220f7b04564fff6468fd8a9744573da938724f6164899bd0f1d45ee9af7350104eb64736f6c634300081c0033",
  "linkReferences": {},
  "deployedLinkReferences": {}
}